:100000000C9456000C9473000C9473000C947300C1
:100010000C9473000C9473000C9473000C94730094
:100020000C9473000C9473000C9473000C94730084
:100030000C9473000C9473000C9473000C94730074
:100040000C9473000C94DB170C9473000C947300E5
:100050000C9473000C9473000C9473000C94730054
:100060000C9473000C94EA120C9473000C947300BB
:100070000C9473000C9473000C9473000C94730034
:100080000C9473000C9473000C9473000C94730024
:100090000C9473000C9473000C9473000C94730014
:1000A0000C9473000C9473000C94730011241FBE05
:1000B000CFEFDAE0DEBFCDBF11E0A0E0B1E0ECE0D1
:1000C000F2E402C005900D92A237B107D9F722E001
:1000D000A2E7B1E001C01D92A43BB207E1F70E9484
:1000E000451D0C9404210C9400002F923F924F92D6
:1000F0005F927F928F929F92AF92BF92CF92DF9248
:10010000EF92FF920F931F93CF93DF9300D000D015
:1001100000D0CDB7DEB72D833E83942E852E562E8C
:10012000472E382E292E0B831C83A0E00E947D1EB3
:100130000CF46DC0712C4B815C81470D511D5A83AD
:1001400049838AE0A82EB12CC12CD12CE12CF12CB2
:1001500000E010E02D813E81492D582D652D742D34
:10016000832D922D0E949A1D205DA981BA812C9326
:100170002D813E81492D582D652D742D832D922D75
:100180000E949C1D2D833E83942E852E562E472E35
:10019000382E292E7394A0E00E947D1E61F6AB815B
:1001A000BC81A70DB11D1C92872D8695C1F0EB81F6
:1001B000FC81BD019F012F5F3F4F8150820F932F24
:1001C000911D2191DB013E91BD018F01015011096B
:1001D000D8013C93DB012C938E179F0791F726964D
:1001E0000FB6F894DEBF0FBECDBFDF91CF911F9148
:1001F0000F91FF90EF90DF90CF90BF90AF909F90C6
:100200008F907F905F904F903F902F900895EB815B
:10021000FC818DE28193832D0E942A1E2D833E83D3
:10022000942E852E562E472E382E292EFC83EB83B6
:1002300081CF0C948B0F0C94B30FCF93DF9300D02E
:1002400000D00F92CDB7DEB790E3998398E79A83F9
:10025000E82FE295EF70803AE8F0EA50F0E0E050E5
:10026000FF4F90819B838F708A30C8F08A50E82FAF
:10027000F0E0E050FF4F80818C831D82CE0101961B
:100280000E94B30F0F900F900F900F900F90DF917F
:10029000CF910895E05DEB838F708A3038F7805DF1
:1002A0008C83EBCF9F92AF92BF92CF92DF92EF926F
:1002B000FF920F931F93CF93DF93CDB7DEB72F97A6
:1002C0000FB6F894DEBF0FBECDBFF82FE92FA0E028
:1002D0000E947D1EE9F0CE0101965C018C018F2FFA
:1002E0009E2F0E947500C5010E94B30F2F960FB676
:1002F000F894DEBF0FBECDBFDF91CF911F910F915C
:10030000FF90EF90DF90CF90BF90AF909F900895B7
:1003100080E389831A82CE0101965C01E4CF9F922B
:10032000AF92BF92CF92DF92EF92FF920F931F9303
:10033000CF93DF93CDB7DEB7C950D1400FB6F89455
:10034000DEBF0FBECDBFCE01895E9E4FFC01619125
:1003500071916F01865191400E94D4209981992317
:10036000C1F19E012F5F3F4F790180E3B82E48E72E
:10037000A42E07C07F018FEFE81AF80A9181992314
:1003800011F1F7019532B1F710822E153F0519F0E2
:10039000C9010E94B30FF7018181843609F468C056
:1003A000833709F45CC0823639F10E941D01F701E0
:1003B000319697012E5F3F4F7F018FEFE81AF80AC1
:1003C00091819111DECF2E153F0519F0C9010E94D0
:1003D000B30FC75FDE4F0FB6F894DEBF0FBECDBFC1
:1003E000DF91CF911F910F91FF90EF90DF90CF9011
:1003F000BF90AF909F900895F601E081F2E0CF0E9C
:10040000D11CC050DF4FB882C050D140CF5FDE4F0B
:10041000A882C150D140AE2FA295AF70E03A08F04B
:1004200045C0A05DCE5FDE4FA883C250D140EF70C3
:10043000EA3008F449C0EA50F0E0E050FF4F808114
:10044000CD5FDE4F8883C350D140CC5FDE4F188232
:10045000C450D140CE0193950E94B30FA8CFF601AE
:1004600080819181E2E0CE0ED11C0E94B30F9FCF1C
:10047000F601B18122E0C20ED11C9080EB2FEE0F6D
:10048000EE0B292D3B2F4E2F5E2F6E2F7E2F8E2FA2
:100490009E2FA0E00E947D1EF1F08E0113950E9418
:1004A0007500CE0193950E94B30F81CFAA50B0E0A2
:1004B000A050BF4F8C91CE5FDE4F8883C250D14099
:1004C000EF70EA3008F0B7CFE05DCD5FDE4FE88334
:1004D000C350D140BACFC050DF4FB882C050D140D6
:1004E000CF5FDE4F1882C150D140DBCFDB0190E3FC
:1004F0009C9398E711969C931197E82FE295EF70E3
:10050000803AB8F0EA50F0E0E050FF4F9081129648
:100510009C9312978F708A3098F08A50E82FF0E001
:10052000E050FF4F808113968C93139714961C9282
:100530000895E05D1296EC9312978F708A3068F7F9
:10054000805D13968C93139714961C920895AF9226
:10055000BF92DF92EF92FF920F931F93CF93DF939F
:10056000A0E00E947D1E61F00E947500DF91CF9196
:100570001F910F91FF90EF90DF90BF90AF90089583
:1005800080E3F80180831182F1CF80B38C7880BB47
:10059000549A5C9840E067E084E00C94B51861E000
:1005A00070E080E090E00C94EF1660E070E0CB012A
:1005B0000C94EF162FB130E0A90102C05595479574
:1005C0008A95E2F7CA018095909581700895682F09
:1005D00041E084E00C94B518682F40E084E00C946E
:1005E000B5188CE00E94DA1C0E94501C0E946C1C02
:1005F00080E00C94561C0C94501C0C946C1C0C94B5
:10060000241C0C94B91CCF92DF92EF92FF920F93AF
:100610001F93CF93DF93CDB7DEB72A970FB6F89429
:10062000DEBF0FBECDBF009709F44EC097FD41C09D
:100630008E010F5F1F4FF80120E03AE0C32ED12C4E
:100640007F01E20EF11CB6010E944A1D805DD701B8
:100650008C93CB012F5F009799F7DF01A20FB11D9B
:100660001C922695A1F0BD01CF0101962150820F69
:10067000911D2191DB013E91BD01AF014150510916
:10068000DA013C93DB012C938E179F0791F7C80189
:100690000E94B91C2A960FB6F894DEBF0FBECDBFDC
:1006A000DF91CF911F910F91FF90EF90DF90CF904E
:1006B00008952DE22983919581959109FE01329645
:1006C0008E010F5F1F4FB8CF80E389831A828E019E
:1006D0000F5F1F4FDCCFCF93DF9300D000D000D04F
:1006E0000F92CDB7DEB79BE1998322E02A8323E7FF
:1006F0002B8323E62C838D839E8383E08F8367E0A7
:1007000070E0CE0101960E940A1227960FB6F89467
:10071000DEBF0FBECDBFDF91CF910895CF92DF92A4
:10072000EF92FF920F931F93CF93DF93CDB7DEB776
:1007300028970FB6F894DEBF0FBECDBF6C01DC0169
:1007400012968C911297873609F464C08337A9F00A
:10075000833609F493C0823709F47EC028960FB619
:10076000F894DEBF0FBECDBFDF91CF911F910F91E7
:10077000FF90EF90DF90CF90089513968C91139790
:10078000853609F496C0843749F782E7E82E81E080
:10079000F82E04E711E025E731E046E751E066E096
:1007A00071E087E791E00E948C19F60184818F3F08
:1007B00009F4ACC080937701D60115966C916F3F18
:1007C00009F4A1C060930601F60146814F3F09F488
:1007D00097C040937601D60117962C912F3F09F4CC
:1007E0008CC020937501F60100850F3F09F482C08B
:1007F00000937401D6011996ED91FC91FE2EEF2E17
:10080000319609F472C0F0927301E09272010E9475
:100810003F1AA4CF13968C91853609F09FCF88E0BC
:10082000EBE0F1E0DE01119601900D928A95E1F77F
:10083000F601848195819827892798270E943D1D7C
:100840009827892798279E838D8368E070E0CE01E2
:1008500001960E940A1282CFF6018381843609F044
:100860007DCF10E000E070E060E0C8010E94411D13
:100870000F5F1F4F0F3F1105B1F770CFF601838156
:10088000823759F0833709F069CF14968C91882309
:1008900049F181E080937A0161CF84818823C9F096
:1008A00061E070E090E080E00E94411D10927801CC
:1008B00055CF16966D917C911797762767277627E7
:1008C00014968D919C919827892798270E94411D05
:1008D00045CF70E060E090E080E00E94411D109202
:1008E00078013CCF10927A0139CFE0907201F090FC
:1008F00073018DCF009174017DCF2091750173CF6D
:100900004091760168CF609106015ECF80917701BA
:1009100053CF6F927F928F929F92AF92BF92CF925E
:10092000DF92EF92FF920F931F93CF93DF93CDB798
:10093000DEB76E970FB6F894DEBF0FBECDBF86E070
:10094000EBE6F1E0DE011E9601900D928A95E1F74B
:1009500006C08FE99FE00197F1F700C000000E94F8
:10096000E7128111F6CF66E070E0CE010E960E948C
:100970000A1284E190E00E943D1D4C0188E190E064
:100980000E943D1D8EE290E00E943D1D7C010E9470
:100990004811D62EC72EB82EA92E8091780181300D
:1009A00009F460C110927801DB8ECC8EBD8EAE8EC4
:1009B0006B8D7C8D8D8D9E8D0E94811F6B8F7C8FAA
:1009C0008D8F9E8FAB8DBC8DAB2B09F0DBC10E9450
:1009D0004811D62EC72EB82EA92E14E0DB8ECC8E51
:1009E000BD8EAE8E6B8D7C8D8D8D9E8D0E94811FF8
:1009F0006B8F7C8F8D8F9E8F8B8D9C8D892B09F0BB
:100A0000BCC10E944811D62EC72EB82EA92E115057
:100A100029F782E080937801C401B0E0A0E08B8FD9
:100A20009C8FAD8FBE8FB401CD010E94B01F9B0182
:100A3000AC01DB8ECC8EBD8EAE8E6B8D7C8D8D8DA4
:100A40009E8D0E94622018161CF481E0809378012C
:100A500087E00E948310811119C180917801882359
:100A600009F4F6C0612C712C812C912C10E000E06F
:100A70009301A40160917B0170917C0180917D01C3
:100A800090917E010E940A1F811111C02D2D3C2DD5
:100A90004B2D5A2D60910701709108018091090139
:100AA00090910A010E940A1F882309F4CBC08CE0B0
:100AB000E3E1F1E0DE01119601900D928A95E1F7F4
:100AC000DB8ECC8EBD8EAE8E6B8D7C8D8D8D9E8D96
:100AD0000E94811F462F572F5627452754275E8394
:100AE0004D8310270127102718870F83FE24EF243A
:100AF000FE24FA86E9866CE070E0CE0101960E9441
:100B00000A12DE0154967D018E010A5E1F4F9E017E
:100B1000295E3F4FAE01485E5F4FBE01675E7F4F6B
:100B2000CE014A960E948C19298D80910601388D3C
:100B30004F895E89281393C08C899D8960917601C5
:100B4000361709F409C120930601309376014093CA
:100B500075015093740190937301809372016DE05D
:100B6000EFE1F1E0DE01119601900D926A95E1F757
:100B7000609177016D832E833F834887598798273B
:100B8000892798279B878A876DE070E0CE010196C0
:100B90000E940A12C301D40180937B0190937C01CF
:100BA000A0937D01B0937E018D2D9C2DAB2DBA2D90
:100BB0008093070190930801A0930901B0930A0163
:100BC00090917801809179019817A1F087E0ECE28B
:100BD000F1E0DE01119601900D928A95E1F79923DB
:100BE000D9F19D8367E070E0CE0101960E940A1260
:100BF000809178018093790182E7898B66E070E0CB
:100C0000CE010E960E940A12BFEF21EE84E0B15091
:100C100020408040E1F700C000006E960FB6F894C7
:100C2000DEBF0FBECDBFDF91CF911F910F91FF901F
:100C3000EF90DF90CF90BF90AF909F908F907F907C
:100C40006F90089580917801882309F45ACF2FCFAF
:100C500083E08093780106CF8EE68C83C3CF8C89A6
:100C60009D8971CFDB8ECC8EBD8EAE8E6B8D7C8DD3
:100C70008D8D9E8D0E94811F6B8F7C8F8D8F9E8F9F
:100C8000AB8DBC8DAB2B09F4A2CEE2CE87E00E94E7
:100C9000A2109C01263193E0390708F4E3CEC90184
:100CA000B0E0A0E08B8F9C8FAD8FBE8FB901CD01DE
:100CB0000E94B01F20E030E845E454E46B8F7C8F45
:100CC0008D8F9E8F6B8D7C8D8D8D9E8D0E949D1E38
:100CD00020E030E048EC52E46B8F7C8F8D8F9E8F4C
:100CE0006B8D7C8D8D8D9E8D0E94672020E030E085
:100CF00049E653E46B8F7C8F8D8F9E8F6B8D7C8D3F
:100D00008D8D9E8D0E940F1F20E030E0A9016B8F1A
:100D10007C8F8D8F9E8F6B8D7C8D8D8D9E8D0E9497
:100D20009E1E6B8F7C8F8D8F9E8F6B8D7C8D8D8D9E
:100D30009E8D0E94811F462F572F8A01CA01B0E065
:100D4000A0E08B8F9C8FAD8FBE8FBC01CD010E9428
:100D5000B01F3B014C018CCE609175014613F3CE60
:100D6000609174016513EFCE60917201709173010F
:100D70006817790709F0E7CE0DCF809178018130AF
:100D800009F466CEC401B0E0A0E08B8F9C8FAD8FDC
:100D9000BE8FB401CD010E94B01F1092780147CEE2
:100DA000CF93DF9300D000D00F92CDB7DEB780E1B4
:100DB00090E00E943D1D89839A830E9489040E94CD
:100DC0001C1788E00E946B0380917801813009F440
:100DD00040C0811135C090E080E00E943D1D892B0C
:100DE00079F1A981BA81CD01B0E0A0E089839A832D
:100DF000AB83BC83BC01CD010E94B01FB1E0BD83B9
:100E000020910701309108014091090150910A0198
:100E100069837A838B839C8369817A818B819C81AE
:100E20000E94622018160CF01D8281E02D8182271D
:100E30000F900F900F900F900F90DF91CF9108952A
:100E400082E00F900F900F900F900F90DF91CF9155
:100E5000089583E00F900F900F900F900F90DF9107
:100E6000CF910895CF930E948904809178018130B9
:100E700071F0C0917A01CC2321F0C1E08C2FCF9189
:100E8000089580E00E945E168C2FCF910895C3E0F4
:100E90008C2FCF910895CF93DF9300D000D0CDB7A2
:100EA000DEB70E9489040E941C1781E00E946B0338
:100EB00080917801813031F180917A01811117C0E0
:100EC00090E080E00E943D1D9C0181E0232B39F4DD
:100ED0000F900F900F900F90DF91CF91089580E0C9
:100EE0000F900F900F900F90DF91CF9108958FEF9B
:100EF0000E945E1682E00F900F900F900F90DF918E
:100F0000CF91089584E190E00E943D1D89839A83EA
:100F100088E190E00E943D1D29813A81281B390B10
:100F2000C901B0E0A0E089839A83AB83BC83B90197
:100F3000CD010E94B01F209107013091080140911E
:100F4000090150910A0169837A838B839C836981AB
:100F50007A818B819C810E940A1F18160CF4ACCFF9
:100F600083E0B6CF1F93CF93DF9300D000D000D0A3
:100F7000CDB7DEB782E690E00E943D1D182F84E1D8
:100F800090E00E943D1D89839A8388E190E00E9451
:100F90003D1D29813A81281B390B3E832D8370E04A
:100FA00060E090E080E00E94411D0E941C178AE0F2
:100FB0000E946B0380E00E945E1687E00E94EC02B4
:100FC000812F90E0B0E0A0E089839A83AB83BC835B
:100FD000BC01CD010E949316609107017091080138
:100FE0008091090190910A010E94811F69837A838F
:100FF0008B839C83AD81BE8129813A812A173B076F
:10100000B8F00E94890460910701709108018091F5
:10101000090190910A010E94811F69837A838B8361
:101020009C838D819E81A981BA81A817B90748F751
:1010300060E070E0CB010E94931680E026960FB628
:10104000F894DEBF0FBECDBFDF91CF911F91089501
:101050006F927F928F929F92AF92BF92CF92DF92C8
:10106000EF92FF920F931F93CF93DF9300D000D0A6
:1010700000D0CDB7DEB780E390E00E943D1D8EE248
:1010800090E00E943D1D82E690E00E943D1D898314
:1010900080E690E00E943D1D0E9407170E940717FE
:1010A00087E00E946B0380E00E945E1687E00E944A
:1010B000EC029981892F90E0B0E0A0E0BC01CD0165
:1010C0000E9493160E9407174B015C010E940717AC
:1010D00080E390E00E943D1D8C018EE290E00E9432
:1010E0003D1D8D839E8382E690E00E943D1DF82E7B
:1010F00080E690E00E943D1D3C018F2D90E0B0E025
:10110000A0E0BC01CD010E9493160E9489040E94B8
:1011100007176B017C0180917801813009F47CC054
:10112000AD81BE81CD01B0E0A0E089839A83AB831D
:10113000BC83BC01CD010E94B01F20917B01309186
:101140007C0140917D0150917E0169837A838B837C
:101150009C8369817A818B819C810E94622087FDBA
:1011600058C0C818D908EA08FB089801A8EEB3E0EF
:101170000E94801DC616D706E806F90608F4A8CF17
:1011800093010E94801D69837A838B839C830E94D4
:1011900007176B017C010E940717462F572FBC01D0
:1011A00024C080E390E00E943D1D8EE290E00E940A
:1011B0003D1D82E690E00E943D1D80E690E00E9489
:1011C0003D1D9C01A8EEB3E00E94801D69837A83D7
:1011D0008B839C830E9489040E940717462F572FF8
:1011E000BC01809178018130B9F04C195D096E091C
:1011F0007F0989819A81AB81BC81481759076A07A9
:101200007B0778F260E070E0CB010E94931680E0EB
:1012100004C0460157015CCF83E026960FB6F894D0
:10122000DEBF0FBECDBFDF91CF911F910F91FF9019
:10123000EF90DF90CF90BF90AF909F908F907F9076
:101240006F9008952F923F924F925F926F927F928C
:101250008F929F92AF92BF92CF92DF92EF92FF92C6
:101260000F931F93CF93DF93CDB7DEB72E970FB6B3
:10127000F894DEBF0FBECDBF0E9407170E9407176C
:1012800086E00E946B03812C912C540184E590E050
:101290000E943D1D898380E590E00E943D1D9C01D8
:1012A000A8EEB3E00E94801D6D837E838F839887B4
:1012B00082E590E00E943D1D9C01A8EEB3E00E94F3
:1012C000801D69877A878B879C8782E190E00E94E6
:1012D0003D1D8EE290E00E943D1D80E390E00E9463
:1012E0003D1D3981232F30E050E040E0CA01B901B3
:1012F0000E9493168FEF0E945E160E9407172B0123
:101300003C010E9407176B017C012EC080E00E9407
:101310003D1D892B09F4DAC0812C912C5401809158
:101320007801813009F4A0C0C801B0E0A0E0898351
:101330009A83AB83BC83B801CD010E94B01F20917A
:101340000701309108014091090150910A01698318
:101350007A838B839C8369817A818B819C810E94B3
:101360000A1F18160CF0CCC0C418D508E608F708F8
:101370002D813E814F815885C216D306E406F506BD
:1013800008F0C8C084E590E00E943D1DF82E80E57D
:1013900090E00E943D1D9C01A8EEB3E00E94801DDC
:1013A0006D837E838F83988782E590E00E943D1D48
:1013B0009C01A8EEB3E00E94801D69877A878B8725
:1013C0009C8782E190E00E943D1D8C018EE290E0BE
:1013D0000E943D1D8D879E8780E390E00E943D1D09
:1013E000382E292E8F2D90E0B0E0A0E0BC01CD0179
:1013F0000E9493160E9489040E9407176B017C01CA
:101400004D855E859A0150E040E029833A834B8305
:101410005C83CA01B9010E94B01F20917B01309109
:101420007C0140917D0150917E0169837A838B8399
:101430009C8369817A818B819C810E94622090E0EB
:1014400018160CF063CF80E081149104A104B1045C
:10145000A9F40E943D1D892BC9F1460157018091D5
:101460007801813009F060CF80E00E945E1660E074
:1014700070E0CB010E94931683E029C00E943D1DBD
:10148000892B21F1232D322DA8EEB3E00E94801D7F
:1014900069837A838B839C83D701C6018819990954
:1014A000AA09BB0929813A814B815C812817390738
:1014B0004A075B0708F033CF60E070E0CB010E9481
:1014C000931680E00E945E1682E001C082E02E96B4
:1014D0000FB6F894DEBF0FBECDBFDF91CF911F9145
:1014E0000F91FF90EF90DF90CF90BF90AF909F90C3
:1014F0008F907F906F905F904F903F902F900895C6
:1015000080E00E945E1660E070E0CB010E949316BE
:1015100080E0DDCF80E00E945E160E9407172B015D
:101520003C010E9407176B017C012DC080E00E94E6
:101530003D1D892B59F2812C912C54018091780109
:10154000813009F491CFC801B0E0A0E089839A838B
:10155000AB83BC83B801CD010E94B01F209107016D
:10156000309108014091090150910A0169837A8301
:101570008B839C8369817A818B819C810E940A1F65
:1015800018160CF0BDCFC418D508E608F708298551
:101590003A854B855C85C216D306E406F50608F04D
:1015A00075CE84E590E00E943D1DF82E80E590E028
:1015B0000E943D1D82E590E00E943D1D9C01A8EE29
:1015C000B3E00E94801D69877A878B879C8782E1C0
:1015D00090E00E943D1D8C018EE290E00E943D1D36
:1015E0008D839E8380E390E00E943D1D382E292E3E
:1015F0008F2D90E0B0E0A0E0BC01CD010E949316D9
:101600000E9489040E9407176B017C014D815E8155
:101610009A0150E040E029833A834B835C83CA01FE
:10162000B9010E94B01F20917B0130917C01409153
:101630007D0150917E0169837A838B839C836981CC
:101640007A818B819C810E94622090E018160CF0B8
:101650006DCF80E081149104A104B10441F40E9493
:101660003D1D892B09F432CF4601570167CF0E94F7
:101670003D1D892B09F42ACF232D322DA8EEB3E08E
:101680000E94801D69837A838B839C83D701C60166
:1016900088199909AA09BB0929813A814B815C8182
:1016A000281739074A075B0708F048CF05CF8F9204
:1016B0009F92AF92BF92CF92DF92EF92FF920F93E1
:1016C0001F93CF93DF93CDB7DEB72A970FB6F89469
:1016D000DEBF0FBECDBF80E490E00E943D1D898338
:1016E0009A8388E490E00E943D1D182F82E490E0E8
:1016F0000E943D1D84E490E00E943D1D0E9407175A
:101700000E94071789819A81892BA1F480E02A968B
:101710000FB6F894DEBF0FBECDBFDF91CF911F9102
:101720000F91FF90EF90DF90CF90BF90AF909F9080
:101730008F90089585E00E946B03812F90E0B0E0C8
:10174000A0E0BC01CD010E94931610E000E080E40F
:1017500090E00E943D1D89879A8788E490E00E946E
:101760003D1D82E490E00E943D1D9C01A8EEB3E087
:101770000E94801D69837A838B839C8384E490E03C
:101780000E943D1D9C01A8EEB3E00E94801D6D8368
:101790007E838F8398878FEF0E945E160E940717C3
:1017A0004B015C010E9407176B017C0136C080E48D
:1017B00090E00E943D1D89879A8788E490E00E940E
:1017C0003D1D82E490E00E943D1D9C01A8EEB3E027
:1017D0000E94801D69837A838B839C8384E490E0DC
:1017E0000E943D1D9C01A8EEB3E00E94801D6D8308
:1017F0007E838F8398870E9489040E9407176B015C
:101800007C0180917801813009F46AC090E080E029
:101810000E943D1D892B09F061C0C818D908EA084B
:10182000FB0889819A81AB81BC81C816D906EA067A
:10183000FB0608F4BCCF80E00E945E160E940717EA
:101840004B015C010E9407176B017C012BC080E4F7
:1018500090E00E943D1D89879A8788E490E00E946D
:101860003D1D82E490E00E943D1D84E490E00E94D2
:101870003D1D9C01A8EEB3E00E94801D6D837E8318
:101880008F8398870E9489040E9407176B017C014F
:1018900080917801813071F190E080E00E943D1DDF
:1018A000892BE1F0C818D908EA08FB088D819E81D0
:1018B000AF81B885C816D906EA06FB0640F20F5F6D
:1018C0001F4FA985BA850A171B0708F440CF60E0AF
:1018D00070E0CB010E94931680E019CF82E017CF11
:1018E00087E00E94EC0260E070E0CB010E9493165A
:1018F00083E00DCF60E070E0CB010E94931683E09F
:1019000006CF2F923F924F925F926F927F928F926B
:101910009F92AF92BF92CF92DF92EF92FF920F937E
:101920001F93CF93DF93CDB7DEB760970FB6F894D0
:10193000DEBF0FBECDBF82E290E00E943D1D8D83D1
:1019400080E290E00E943D1D9C01A8EEB3E00E9461
:10195000801D69837A838B839C8384E290E00E945C
:101960003D1D9C01A8EEB3E00E94801D69877A8727
:101970008B879C8788E290E00E943D1D9C01A8EE29
:10198000B3E00E94801D6D877E878F87988B8CE2E5
:1019900090E00E943D1D8AE290E00E943D1D84E699
:1019A00090E00E943D1D88E690E00E943D1D0E944F
:1019B00007174B015C010E9407176B017C0183E054
:1019C0000E946B033D81232F30E050E040E0CA01CC
:1019D000B9010E94931657C082E290E00E943D1D1B
:1019E0008D8380E290E00E943D1D9C01A8EEB3E053
:1019F0000E94801D69837A838B839C8384E290E0BC
:101A00000E943D1D9C01A8EEB3E00E94801D6987E5
:101A10007A878B879C8788E290E00E943D1D9C011D
:101A2000A8EEB3E00E94801D6D877E878F87988B1C
:101A30008CE290E00E943D1D8AE290E00E943D1DF4
:101A400084E690E00E943D1D88E690E00E943D1DE6
:101A50009D81892F90E0B0E0A0E0BC01CD010E9403
:101A600093160E9489040E9407176B017C018091E4
:101A70007801813009F463C190E080E00E943D1D4F
:101A8000892B09F442C1C818D908EA08FB08298142
:101A90003A814B815C81C216D306E406F50608F450
:101AA0009BCF60E070E0CB010E94931684E00E941F
:101AB0006B038FEF0E945E160E9407174B015C01BB
:101AC0000E9407176B017C0144C082E290E00E94F3
:101AD0003D1D80E290E00E943D1D84E290E00E9466
:101AE0003D1D9C01A8EEB3E00E94801D69877A87A6
:101AF0008B879C8788E290E00E943D1D9C01A8EEA8
:101B0000B3E00E94801D6D877E878F87988B8CE263
:101B100090E00E943D1D8AE290E00E943D1D84E617
:101B200090E00E943D1D88E690E00E943D1D0E94CD
:101B300089040E9407176B017C0180917801813034
:101B400009F4FDC090E080E00E943D1D892B09F45E
:101B5000DCC0C818D908EA08FB0889859A85AB85D6
:101B6000BC85C816D906EA06FB0608F4AECF80E0AD
:101B70000E945E1687E00E94E7020E9407176987AD
:101B80007A878B879C870E940717DC01CB01298508
:101B90003A854B855C85821B930BA40BB50B2D8579
:101BA0003E854F85588982179307A407B50708F02B
:101BB000A4C0412C512C3201312C40C0332009F4F7
:101BC000E3C0222D30E050E040E0CA01B9010E949C
:101BD000931633243394AD85BE85CD01B0E0A0E0EB
:101BE00089839A83AB83BC83BC01CD010E94B01F63
:101BF00020917B0130917C0140917D0150917E01CB
:101C000069837A838B839C8369817A818B819C81B0
:101C10000E940A1F87FF95C041145104610471049A
:101C200009F093C0260137012D813E814F815885EF
:101C300082169306A406B50608F05FC082E290E023
:101C40000E943D1D80E290E00E943D1D84E290E0F4
:101C50000E943D1D88E290E00E943D1D9C01A8EE7F
:101C6000B3E00E94801D6D837E838F8398878CE212
:101C700090E00E943D1D282E8AE290E00E943D1DCA
:101C80009C01A8EEB3E00E94801D69837A838B8358
:101C90009C8384E690E00E943D1D8D879E8788E6A8
:101CA00090E00E943D1D8C010E9489040E9407174C
:101CB0006B017C0180917801813009F440C090E093
:101CC00080E00E943D1D892B01F146015701898565
:101CD0009A85AB85BC85881A990AAA0ABB0A29810C
:101CE0003A814B815C8182169306A406B50608F002
:101CF00065CF332009F46FCF64CF60E070E0CB0193
:101D00000E94931687E00E94EC0282E060960FB674
:101D1000F894DEBF0FBECDBFDF91CF911F910F9121
:101D2000FF90EF90DF90CF90BF90AF909F908F90FB
:101D30007F906F905F904F903F902F90089583E039
:101D4000E5CF412C512C32016FCFC418D508E608DD
:101D5000F70848EE53E0049FC001059F900D149FC3
:101D6000900D1124B0E0A0E08C159D05AE05BF05D7
:101D700008F05ACF60E070E0CB010E94931687E034
:101D80000E94EC0280E0C2CF822D90E0B0E0A0E0A3
:101D9000BC01CD010E949316332433941CCFF894D8
:101DA00010927F0110927801109279010E9419011E
:101DB0000E94DF118EE893E00E94E2120E94411619
:101DC0000E9461160E94DB160E94791078948FEFB2
:101DD000809306010E9489042FEF83ED90E3215048
:101DE00080409040E1F700C0000090E080E00E9459
:101DF0003D1D892B09F4089582E190E00E943D1D6C
:101E00008EE290E00E943D1D0E94481187E00E94F2
:101E1000A21085E080937F010895E0917F0187E023
:101E2000E89FF0011124ED5CFE4F0580F681E02D66
:101E300009958230E9F070F4882331F1E0917F0157
:101E400087E0E89FF0011124ED5CFE4FE281E09312
:101E50007F01E5CF833009F7E0917F0187E0E89FBC
:101E6000F0011124ED5CFE4FE481E0937F01D7CFB8
:101E7000E0917F0187E0E89FF0011124ED5CFE4FC7
:101E8000E381E0937F01CBCFE0917F0187E0E89F82
:101E9000F0011124ED5CFE4FE181E0937F01BFCFA3
:101EA00061E070E090E080E00E94411D10927801B6
:101EB000089570E060E090E080E00E94411D109283
:101EC0007801089581E080937A01089510927A0153
:101ED000089580917F01811106C061E070E090E07B
:101EE00080E00C94411D70E060E090E080E00C9494
:101EF000411D80917F01882319F0863009F00895F3
:101F000080917A01882319F010927A01089581E076
:101F100080937A010895259A2D9A0895F8942D9822
:101F2000EFE9F1E03197F1F700C0000028E030E080
:101F300091E00BC02D9AEFE9F1E03197F1F700C085
:101F40000000990F2150310929F0482F492391F7BA
:101F50002D98F1CF2D9A8FE991E00197F1F700C00C
:101F6000000078940895CF93DF93EC018881882353
:101F700031F021960E948E0F89918111FBCFDF9164
:101F8000CF9108958A3018F0895A0C948E0F805D95
:101F90000C948E0FCF93C82F82958F700E94C20F22
:101FA0008C2F8F70CF910C94C20FCF93DF93EC01E5
:101FB0008D2F82958F700E94C20F8D2F8F700E947F
:101FC000C20F8C2F82958F700E94C20F8C2F8F7042
:101FD000DF91CF910C94C20FCF93DF93D62FC72FF1
:101FE0000E94D50F8D2F9C2FDF91CF910C94D50F90
:101FF0001092B90088E18093B800089594EA909314
:10200000BC009091BC0097FFFCCF9091B900987FE5
:10201000983011F0903191F48093BB0084E8809364
:10202000BC008091BC0087FFFCCF9091B900987FE5
:10203000983131F081E0903419F0089581E00895ED
:1020400080E0089524EA34E844E92093BC009091AC
:10205000BC0097FFFCCF9091B900987F983011F0A9
:10206000903199F78093BB003093BC009091BC00F5
:1020700097FFFCCF9091B900987F903219F0983576
:1020800009F008954093BC009091BC0094FDFCCFF2
:10209000DCCF0C94FE0F84E98093BC008091BC00DF
:1020A00084FDFCCF08958093BB0084E88093BC003E
:1020B0008091BC0087FFFCCF9091B900987F81E0B0
:1020C000983209F0089580E0089584EC8093BC0074
:1020D0008091BC0087FFFCCF8091BB00089584E80D
:1020E0008093BC008091BC0087FFFCCF8091BB0037
:1020F0000895879880E480937C0087E880937A0035
:10210000209A28980895209885B1817085B9879A7A
:102110008F9A2FEF31EE84E0215030408040E1F77C
:1021200000C0000083B187988F98209A289A9FEF6B
:1021300021EE34E0915020403040E1F700C0000033
:1021400081700895982F80917A00806880937A003A
:102150002FEF31EE44E0215030404040E1F700C025
:10216000000080917C00887F9770892B80937C0091
:1021700080917A00806480937A0080917A0086FD55
:10218000FCCF209178003091790010927900109264
:10219000780090917A009F7790937A008FEF91EE7C
:1021A00044E0815090404040E1F700C00000C90188
:1021B000089576986E9A8FE797E00197F1F700C03F
:1021C00000006E98EFEEF0E03197F1F700C00000EC
:1021D0008CB1EFE8F6E03197F1F700C000008074B1
:1021E000089576986E9A95E09A95F1F7000081111E
:1021F0006E988FEE90E00197F1F700C000006E98A6
:10220000089576986E9A85E08A95F1F700006E98A9
:102210009AE49A95F1F700C08CB190EF9A95F1F796
:1022200086FB882780F9089598E076986E9A25E0D5
:102230002A95F1F7000080FD6E98EFEEF0E03197FF
:10224000F1F700C000006E988695915071F70895DF
:1022500098E080E076986E9A25E02A95F1F70000E4
:102260006E982AE42A95F1F700C04CB120EF2A9528
:10227000F1F746FB222720F930E0A9015695542FAB
:102280004427579547958695842B915019F70895C3
:10229000CF93DF9300D000D0CDB7DEB7F894769817
:1022A0006E9A8FE797E00197F1F700C000006E98F3
:1022B000AFEEB0E01197F1F700C000008CB18FE8ED
:1022C00096E00197F1F700C000008CEC0E94141119
:1022D00084E40E941411789476986E9A95E09A9509
:1022E000F1F700006E98AAE4AA95F1F700C066998C
:1022F00010C0B0EFBA95F1F776986E9A85E08A959E
:10230000F1F700006E989AE49A95F1F700C0669B89
:10231000F0CFA0EFAA95F1F7F89476986E9A8FE730
:1023200097E00197F1F700C000006E98AFEEB0E0C3
:102330001197F1F700C000008CB18FE896E001978B
:10234000F1F700C000008CEC0E9414118EEB0E948B
:1023500014110E94281189830E942811282F789433
:1023600030E0322F22279981290F311DC901330F07
:10237000AA0BBB0B89839A83AB83BC83BC01CD01C1
:102380000E94B21F20E030E040E85DE369837A8379
:102390008B839C8369817A818B819C810E946720D9
:1023A00069837A838B839C8369817A818B819C8109
:1023B0000F900F900F900F90DF91CF910895109292
:1023C000CD0087E08093CC0088E98093C90086E047
:1023D0008093CA001092800108958091C80087FF01
:1023E000FCCF8091CE0008959091C80095FFFCCF5E
:1023F0008093CE000895FC019081992351F031968D
:102400008091C80085FFFCCF9093CE0091919111EF
:10241000F7CF08959B01672B69F0FC01280F391F46
:1024200091918091C80085FFFCCF9093CE00E21778
:10243000F307B1F708952F923F924F925F926F92F8
:102440007F928F929F92AF92BF92CF92DF92EF9244
:10245000FF920F931F93CF93DF93CDB7DEB7E7972C
:102460000FB6F894DEBF0FBECDBF922E832E742E12
:10247000652E562E472E382E292EA0E00E947D1E56
:1024800009F49BC0A0E00E947D1E0CF484C0FE01F4
:102490003196FFABEEAB1BAAAEA9BFA9EBA9AE0F5D
:1024A000B11DBDABACAB8AE0A82EB12CC12CD12C98
:1024B000E12CF12C00E010E0292D382D472D562D70
:1024C000652D742D832D922D0E949A1D205DACA93F
:1024D000BDA92C93292D382D472D562D652D742DF2
:1024E000832D922D0E949C1D922E832E742E652E7C
:1024F000562E472E382E292EBBA9BF5FBBABA0E0BE
:102500000E947D1E49F6AEA9BFA9FBA9AF0FB11D60
:102510001C928F2F8695C1F0EEA9FFA9BD019F01E6
:102520002F5F3F4F8150820F932F911D2191DB012F
:102530003E91BD01AF0141505109DA013C93DB01ED
:102540002C938E179F0791F79981992359F0FE01DB
:1025500032968091C80085FFFCCF9093CE00919178
:102560009111F7CFE7960FB6F894DEBF0FBECDBF3F
:10257000DF91CF911F910F91FF90EF90DF90CF905F
:10258000BF90AF909F908F907F906F905F904F9093
:102590003F902F9008958DE28983832D0E942A1EFB
:1025A000922E832E742E652E562E472E382E292ECF
:1025B000CE0102969FAB8EAB6ECF80E389831A82E9
:1025C00090E3C5CF9093820180938101089580911B
:1025D000800108951F920F920FB60F9211242F932E
:1025E0003F934F935F936F937F938F939F93AF939B
:1025F000BF93EF93FF93F8948091C800609183019B
:102600008091CE00E62FF0E0EC57FE4F80836F5FA5
:1026100060938301613069F16230F9F0623028F132
:10262000809184018B3169F180918501823049F17B
:102630001092830110928001FF91EF91BF91AF91B1
:102640009F918F917F916F915F914F913F912F91CA
:102650000F900FBE0F901F9018956091850162300A
:1026600039F7809184018B3191F181E08093800171
:1026700006C0809184018B31D9F6609380017894F3
:10268000DBCF6F3FA9F281E080938001862F90E03D
:102690008C579E4FFC01329720812B3181F7FC0132
:1026A000319730813230F1F00197FC018081833025
:1026B00031F7E0918101F0918201309701F384E8D4
:1026C00091E009951092830110928001D8CF81E0AA
:1026D0008093800186E891E00197FC01808183303E
:1026E00071F6E7CF20938401309385013093830105
:1026F000C6CF6A9A3F9A5798729A0895CF93DF93FC
:1027000000D000D0CDB7DEB772988FE99FE0019777
:10271000F1F700C0000020E087E090E061E070E0A9
:102720004798AFE9BFE01197F1F700C000004F9B59
:1027300007C0AB01082E01C0440F0A94EAF7242B0E
:10274000479AEFE9FFE03197F1F700C000000197E9
:1027500038F730E0322F222740E087E090E0E1E0D8
:10276000F0E04798AFE9BFE01197F1F700C0000033
:102770004F9B07C0BF01082E01C0660F0A94EAF7FD
:10278000462B479AAFE9BFE01197F1F700C0000070
:10279000019738F7242B729A22FD2FC0C901969514
:1027A000879596958795969587959C0150E040E092
:1027B00029833A834B835C83CA01B9010E94B01F0D
:1027C00020E030E040E85EE369837A838B839C837A
:1027D00069817A818B819C810E94672069837A83D9
:1027E0008B839C8369817A818B819C810F900F9070
:1027F0000F900F90DF91CF91089560E070E088EC2A
:1028000092ECECCFCF93DF9300D000D0CDB7DEB702
:102810000E947E1320E030E040E151E469837A8336
:102820008B839C8369817A818B819C810E94672044
:1028300020E030E040EA50E469837A838B839C8314
:1028400069817A818B819C810E940F1F20E030E09A
:1028500040E052E469837A838B839C8369817A8127
:102860008B819C810E949E1E69837A838B839C83CB
:1028700069817A818B819C810F900F900F900F90CE
:10288000DF91CF91089589B182958695877091E007
:102890008927817090E00895CF93DF9300D000D016
:1028A000CDB7DEB74D99FECF5D9A25E02A95F1F7B9
:1028B00000005E9835E03A95F1F700004D99FECFA3
:1028C00028E180E090E0DC015E9A45E04A95F1F76E
:1028D0000000880F991FAA1FBB1F5E9855E05A95EC
:1028E000F1F700004D9B03C00196A11DB11D2150C1
:1028F00059F726E0B695A795979587952A95D1F72C
:102900005E9A65E06A95F1F700005E9825E02A95E9
:10291000F1F700009C01AD014058CA01B9010F90C8
:102920000F900F900F90DF91CF910895803439F080
:10293000803889F0803249F05E980C944C1483E022
:102940008093AF025E980C944C1482E08093AF02A7
:102950005E980C944C1481E08093AF025E980C94C6
:102960004C14569A55985D9A0C9496148F929F9297
:10297000AF92BF92CF92DF92EF92FF92CF93DF930D
:1029800000D000D000D0CDB7DEB78E83882E912C3A
:10299000B12CA12C882379F11D82C12CD12C760178
:1029A0000E944C14C60ED71EE81EF91E8D818F5F43
:1029B0008D839E819813F4CFC701B601A5019401C0
:1029C0000E945E1D29833A834B835C8369817A81EF
:1029D0008B819C8126960FB6F894DEBF0FBECDBFCB
:1029E000DF91CF91FF90EF90DF90CF90BF90AF90AD
:1029F0009F908F90089519821A821B821C82E6CFC5
:102A00008F929F92AF92BF92CF92DF92EF92FF92FE
:102A1000CF93DF9300D000D000D0CDB7DEB78E8348
:102A2000882E912CB12CA12C882309F449C01D8239
:102A3000C12CD12C76010E944C14C60ED71EE81E64
:102A4000F91E8D818F5F8D839E819813F4CFC7010E
:102A5000B601A50194010E945E1D29833A834B8330
:102A60005C83CA01B9010E94B01F2091AB02309172
:102A7000AC024091AD025091AE0269837A838B83A0
:102A80009C8369817A818B819C810E949D1E6983D0
:102A90007A838B839C8369817A818B819C81269642
:102AA0000FB6F894DEBF0FBECDBFDF91CF91FF9080
:102AB000EF90DF90CF90BF90AF909F908F90089550
:102AC00060E070E080E090E0D0CFCF93DF9300D063
:102AD00000D0CDB7DEB70E9400152091B002309132
:102AE000B1024091B2025091B30269837A838B8321
:102AF0009C8369817A818B819C810E940F1F6983ED
:102B00007A838B839C8369817A818B819C810F90EE
:102B10000F900F900F90DF91CF9108958F929F9219
:102B2000AF92BF92CF92DF92EF92FF92CF93DF935B
:102B300000D000D000D0CDB7DEB78E83882E912C88
:102B4000B12CA12C8823E1F11D82C12CD12C76015E
:102B50000E944C14C60ED71EE81EF91E8D818F5F91
:102B60008D839E819813F4CFC701B601A50194010E
:102B70000E945E1D29833A834B835C83CA01B9019D
:102B80000E94B01F362F272F432F522FBC01409396
:102B9000AB025093AC026093AD027093AE022696E6
:102BA0000FB6F894DEBF0FBECDBFDF91CF91FF907F
:102BB000EF90DF90CF90BF90AF909F908F9008954F
:102BC00030E020E080E090E0DFCF6093B0027093CF
:102BD000B1028093B2029093B3020895CF93DF9332
:102BE00000D000D0CDB7DEB78091B0029091B10295
:102BF000A091B202B091B302BC01CD010F900F9031
:102C00000F900F90DF91CF9108956093AB02709376
:102C1000AC028093AD029093AE020895CF93DF9300
:102C200000D000D0CDB7DEB78091AB029091AC025E
:102C3000A091AD02B091AE02BC01CD010F900F90FA
:102C40000F900F90DF91CF9108955E985E9A87E183
:102C500091E00197F1F700C0000008955E98089593
:102C600047E050E080E05E9A29B12072042E01C056
:102C7000220F0A94EAF7822B5E984150510998F787
:102C80000895F8943E9A4698E4E9F0E011821082A3
:102C9000109299001092980010929B0010929A0046
:102CA00010929D0010929C0081E88093900089E032
:102CB00080939100118210827894089580939800F7
:102CC0000895F894279AA4E8B0E011961C921E92F9
:102CD000E8E8F0E01182108210928B0010928A00D6
:102CE00010928D0010928C0089E08093810082E028
:102CF00080936F0011961C921E9280E89EE3918350
:102D0000808310929C0210929D0210929E0210925B
:102D10009F02109298021092990210929A021092B9
:102D20009B0278940895CF93DF9300D000D0CDB765
:102D3000DEB79B01AC01F8942436310541055105FD
:102D4000A9F12115310541055105E9F420939C02B3
:102D500030939D0240939E0250939F0210929802DE
:102D60001092990210929A0210929B021092850082
:102D7000109284002F9878940F900F900F900F90DE
:102D8000DF91CF910895ACE3B0E00E948F1D69837D
:102D90007A838B839C8324E630E040E050E00E94FD
:102DA0005E1D265F3F4F4F4F5F4FD0CF21E030E099
:102DB00040E050E0CBCFF894549A109294021092D5
:102DC0009502109296021092970210929002109221
:102DD0009102109292021092930278940895F894BE
:102DE0006093940270939502809396029093970259
:102DF00010929002109291021092920210929302FD
:102E000010928500109284005C98789408955091F7
:102E10008302409184023091850220918602809144
:102E20008702809188028091890280918A02652FB1
:102E3000742F832F922F0895109283021092840290
:102E400010928502109286021092870210928802D8
:102E50001092890210928A020895CF92DF92EF9227
:102E6000FF92CF93DF9300D000D00F92CDB7DEB7A3
:102E700080918C0290918D02A0918E02B0918F0270
:102E800080918B020E9448116B017C0187E00E94B7
:102E9000A2108D8380918C0290918D02A0918E0260
:102EA000B0918F0289839A83AB83BC83A70196017B
:102EB000BC01CD010E940A1F811102C080918B02CA
:102EC000C0928C02D0928D02E0928E02F0928F021C
:102ED0009D8190938B020F900F900F900F900F9009
:102EE000DF91CF91FF90EF90DF90CF9008950895FC
:102EF00040919C0250919D0260919E0270919F02B0
:102F0000411551056105710519F180919802909163
:102F10009902A0919A02B0919B020196A11DB11D48
:102F20008093980290939902A0939A02B0939B0287
:102F3000481759076A077B0758F485B1805885B947
:102F4000109298021092990210929A0210929B028B
:102F5000089540919402509195026091960270916B
:102F60009702411551056105710521F1809190028B
:102F700090919102A0919202B09193020196A11DAD
:102F8000B11D8093900290939102A0939202B0930E
:102F90009302481759076A077B0760F48BB190E1E9
:102FA00089278BB91092900210929102109292028E
:102FB0001092930208951F920F920FB60F92112450
:102FC0002F933F934F935F936F937F938F939F9331
:102FD000AF93BF93EF93FF932091830230918402CC
:102FE000409185025091860260918702709188021B
:102FF0008091890290918A02A1E00E94711E209323
:10300000830230938402409385025093860260933A
:103010008702709388028093890290938A020E94AB
:1030200078170E94A917FF91EF91BF91AF919F91DF
:103030008F917F916F915F914F913F912F910F9061
:103040000FBE0F901F9018950E94F80F85E38A9588
:10305000F1F70000E3EAF2E010821182128213829B
:1030600014821582168217820895883030F4E82F72
:10307000F0E0ED55FD4F808108958FEF0895883081
:1030800088F4683078F4E82FF0E0ED55FD4F80814A
:10309000082E000C990B02C0959587956A95E2F76A
:1030A000817008958FEF0895CF93C62F8830A8F4CC
:1030B000E82FF0E0ED55FD4F6083805E880F0E94A1
:1030C000FE0F81110CC08C2F0E945310811107C07C
:1030D0000E944B1080E0CF9108958FEFFCCF0E94AB
:1030E0004B108FEFF8CFCF93DF938830D0F5E62FDA
:1030F000E41BFF0BDF01AF3FFFEFBF0794F161500F
:10310000673078F5442369F1E82FF0E0ED55FD4F85
:1031100090811196022E000C330B0A2E01C0220F53
:103120000A94EAF7C1E0D0E002C0CC0FDD1F4A9557
:10313000E2F72197AE0101C0440FAA95EAF7C92F23
:10314000C227C423C927C083805E880F0E94FE0F58
:103150008C2F0E9453100E944B1080E0DF91CF9182
:1031600008958FEFDF91CF910895CF93883020F5A8
:10317000683010F5E82FF0E0ED55FD4FC08121E0FB
:1031800030E001C0220F6A95EAF7411113C0209583
:10319000C223C083805E880F0E94FE0F81110EC083
:1031A0008C2F0E945310811109C00E944B1080E0A7
:1031B000CF910895C22BEDCF8FEFFACF0E944B1025
:1031C0008FEFF6CF41E00C94B51840E00C94B518A1
:1031D000CF93883080F490E08096880F991F8160AB
:1031E0000E94FE0F0E946F10C82FC0950E944B10C6
:1031F0008C2FCF910895CFEFFBCFCF93C62F883080
:1032000088F4683078F40E94E8188F3F59F0082E4F
:10321000000C990B02C095958795CA95E2F78170CD
:10322000CF9108958FEFCF910895CF93DF93D82F4B
:10323000C62F8EED0E94FE0F8D2F0E9453108C2FF3
:103240000E945310DF91CF910C944B10CF93C82F55
:103250008EED0E94FE0F8C2F0E9453100E944B1087
:103260008FED0E94FE0F8C2F0E9453100E9465105C
:10327000C82F0E944B108C2FCF910895CF9380E0E0
:103280000E942619682F606880E00E941519CFEF10
:1032900008C08FE99FE00197F1F700C00000C1501E
:1032A00031F083E00E94261985FFF3CFC1E08C2F17
:1032B000CF9108950E943E1983E00E942619682F3D
:1032C000686083E00E94151981E090E09093A1026C
:1032D0008093A0020895CF9380E00E942619682F62
:1032E0006F7780E00E941519CFEF08C08FE99FE04B
:1032F0000197F1F700C00000C15051F083E00E9437
:103300002619982F907285FDF1CF892FCF910895BE
:1033100091E0892FCF9108956F927F928F929F9223
:10332000AF92BF92CF92DF92EF92FF920F931F93D3
:10333000CF93DF933C014B015A016901E801809171
:10334000A0029091A102892BD9F4F3011082FB0114
:103350001082FA011082F90110821882F70111829D
:103360001082DF91CF911F910F91FF90EF90DF902E
:10337000CF90BF90AF909F908F907F906F90089567
:103380008EED0E94FE0F80E00E9453100E944B10B1
:10339000FFEF24E38CE0F15020408040E1F700C0D3
:1033A00000008FED0E94FE0F0E946510982F282FBD
:1033B00022952770822F880F880F820F880F9F70A9
:1033C000890FF30180830E946510982F282F229582
:1033D0002770822F880F880F820F880F9F70890FA8
:1033E000F40180830E946510982F282F2295237066
:1033F000822F880F880F820F880F9F70890FF50129
:1034000080830E9465100E946510982F282F2295B6
:103410002370822F880F880F820F880F9F70890F6B
:10342000F60180830E946510982F84FB222720F9E3
:10343000822F880F880F820F880F9F70890F8883D3
:103440000E946F10982F282F22952F70822F880F9F
:10345000880F820F880F9F70890F90E08053984FDC
:10346000F701918380830E944B10FFEF24E38CE0EF
:10347000F15020408040E1F700C0000072CFDF92A1
:10348000EF92FF920F931F93CF93DF93D82EF62ED8
:10349000142FD22F8091A0029091A102892B41F488
:1034A000DF91CF911F910F91FF90EF90DF900895E2
:1034B0000E946B19CDECDC9E912D1124292F2695AD
:1034C00026952695622F6295607F922F990F990F0E
:1034D000920F990FD91A6D0D80E00E941519FC9E6C
:1034E000812D1124982F969596959695692F629522
:1034F000607F892F880F880F890F880FF81A6F0D4A
:1035000081E00E9415191C9F812D1124982F9695FA
:1035100096959695692F6295607F892F880F880F01
:10352000890F880F181B610F82E00E941519DC9F1C
:10353000812D1124982F969596959695692F6295D1
:10354000607F892F880F880F890F880FD81B6D0F18
:1035500084E00E9415190C9F812D1124982F9695B7
:1035600096959695692F6295607F892F880F880FB1
:10357000890F880F081B600F85E00E94151980E3F2
:10358000E80EEC9EC12D1124C695C695C6956C2FEC
:103590006295607F8C2F880F880FC80FCC0FEC1AB4
:1035A0006E0D86E00E941519DF91CF911F910F914A
:1035B000FF90EF90DF900C943E1962E080E00E9453
:1035C000E21800C062E080E00C94E518CF93C82FA9
:1035D0008091A202662309F444C081608093A20214
:1035E0008091A2028D7F8093A2026091A20280E06E
:1035F0000E945418811132C08091A2028F7780936B
:10360000A2028091A2028F7B8093A2028091A202EB
:103610008F7D8093A2028091A2028F7E8093A2026E
:10362000C7FD7DC0C6FF05C08091A2028064809363
:10363000A202C5FF05C08091A20280628093A2020F
:10364000C4FF05C08091A20280618093A2026091B4
:10365000A20280E00E945418882339F080E0CF91C4
:1036600008958E7F8093A202BBCF0E94DD1A8091C5
:10367000A2028F778093A2028091A2028F7B809317
:10368000A2028091A2028F7D8093A2028091A20269
:103690008F7E8093A202C3FF05C08091A202806842
:1036A0008093A202C2FF05C08091A2028064809331
:1036B000A202C1FF05C08091A20280628093A20293
:1036C000C0FF05C08091A20280618093A202609138
:1036D000A20280E00E9454188111C0CF0E94DD1A1E
:1036E0008091A20280618093A2028091A2028062F6
:1036F0008093A2028091A20280648093A2028091B2
:10370000A20280688093A2026091A20280E00E94DF
:103710005418982F81E0992309F4A1CF9FCF80916D
:10372000A20280688093A202C6FF83CF7DCFCF9391
:103730008091A2028E7F8093A2028091A202826079
:103740008093A2026091A20280E00E94541862E07D
:1037500080E00E94E21800C064E080E00E94FD1852
:10376000C0E18111C0E065E080E00E94FD18811198
:1037700001C0C06266E080E00E94FD18811101C0B6
:10378000C06467E080E00E94FD18811101C0C0683C
:1037900062E080E00E94E51800C062E080E00E94E4
:1037A000E21800C064E080E00E94FD18811101C0B1
:1037B000C16065E080E00E94FD18811101C0C26017
:1037C00066E080E00E94FD18811101C0C46067E0DE
:1037D00080E00E94FD18811101C0C86062E080E0B5
:1037E0000E94E5188C2FCF9108950E94971B87FDAA
:1037F000FCCF88E090E00197F1F70C94971BCF93F2
:10380000C82F0E94F51B60E08C2FCF910C94E61A14
:10381000CF93C82F0E94F51B61E08C2FCF910C94A1
:10382000E61ACF93C0E40E94F51B60E08C2F0E9443
:10383000E61A0E94F51B61E080E00E94E61ACF5F65
:10384000C03889F7CF910895CF93C82F6623A1F090
:103850006130D1F0623041F00E94F51B60E084EDF0
:103860008C0FCF910C94E61A0E94F51B60E084E95E
:103870008C0FCF910C94E61A0E94F51B60E080E853
:103880008C0FCF910C94E61A0E94F51B60E080EC3F
:103890008C0FCF910C94E61A0E94F51B90E00895CE
:1038A0000E94F51B60E081E00C94E61A882351F039
:1038B0008091A202877F8093A2026091A20280E0A1
:1038C0000C9454188091A20288608093A2026091A7
:1038D000A20280E00C9454180E94F51B60E082E084
:1038E0000C94E61ACF93C82F0E94F51BCA3029F01A
:1038F00061E08C2FCF910C94E61AC0EC843148F033
:1039000090EC980FC4E9943120F08451C0E88C32D7
:1039100038F00E94F51B60E08C2FCF910C94E61AD2
:10392000C4EDF7CF0F931F93CF93DF93C82F8B0175
:1039300081E0C83028F0DF91CF911F910F91089559
:103940000E94F51B88E08C0F60E0880F880F880FBD
:103950000E94E61AE801085F1F4F89910E94721CBD
:10396000C017D107D1F780E0DF91CF911F910F9160
:103970000895CF93DF93EC0104C00E94721C88234A
:1039800029F0888121968111F8CF81E0DF91CF91D4
:103990000895CF93DF93EC0105C00E94721C21961D
:1039A000882329F0FE0184918111F7CF81E0DF9116
:1039B000CF9108951F93CF93DF93182F0E9424185F
:1039C0001092A2026091A20280E00E94541880E04E
:1039D0009AEF0197F1F78091A20280628093A20290
:1039E0008091A20280618093A2026091A20280E095
:1039F0000E9454180E94DD1A80E09EE40197F1F7BE
:103A00000E94DD1AC0E0D1E0CE010197F1F70E94DB
:103A1000DD1ACE010197F1F78091A2028F7E80938B
:103A2000A2026091A20280E00E9454180E94DD1A56
:103A30002197F1F70E94F51B60E088E20E94E61AE8
:103A40000E94F51B60E088E00E94E61A0E94F51BC8
:103A500060E081E00E94E61A0E94F51B60E086E0CB
:103A60000E94E61A0E94F51B60E0812F0E94E61A70
:103A700081E0DF91CF911F910895F999FECF0C94C9
:103A8000DB20F999FECF0C94E1200E94CF0E0E941A
:103A90000D0FFFCF97FB072E16F4009407D077FD8C
:103AA00009D00E94891E07FC05D03EF490958195AF
:103AB0009F4F0895709561957F4F0895A1E21A2E4A
:103AC000AA1BBB1BFD010DC0AA1FBB1FEE1FFF1FC2
:103AD000A217B307E407F50720F0A21BB30BE40B12
:103AE000F50B661F771F881F991F1A9469F7609559
:103AF0007095809590959B01AC01BD01CF01089513
:103B0000A29FB001B39FC001A39F700D811D11241E
:103B1000911DB29F700D811D1124911D08950E9469
:103B2000801DA59F900DB49F900DA49F800D911DA9
:103B300011240895689401C0E894F92FF12B12F034
:103B40000C94CE1DA0E0B0E0E8EAFDE10C94401E2C
:103B5000092E059422F40E942A1E112392F4F0E803
:103B60000F26FFEFE094F09400951095B094C09468
:103B7000D094A194BF0ACF0ADF0AEF0AFF0A0F0B05
:103B80001F0B0E94D91D07FC0E942A1ECDB7DEB76D
:103B9000ECE00C945C1E689401C0E8948F929F92B4
:103BA000CF93DF930E94D91DDF91CF919F908F908B
:103BB000089588249924F401E401B0E49F93AA278E
:103BC0009A158B049C04ED05FE05CF05D007A107CF
:103BD00098F4AD2FDC2FCF2FFE2FE92D982C892EB6
:103BE000982F872F762F652F542F432F322F222780
:103BF000B85031F7BF9127C01B2EBF91BB27220FB2
:103C0000331F441F551F661F771F881F991F881C6D
:103C1000991CEE1FFF1FCC1FDD1FAA1FBB1F8A149C
:103C20009B04EC05FD05CE05DF05A007B10748F0B4
:103C30008A189B08EC09FD09CE09DF09A00BB10B1E
:103C400021601A94E1F62EF49401AF01BE01CD017A
:103C5000000C0895609570958095909530954095ED
:103C6000509521953F4F4F4F5F4F6F4F7F4F8F4F75
:103C70009F4F08952F923F924F925F926F927F9243
:103C80008F929F92AF92BF92CF92DF92EF92FF926C
:103C90000F931F93CF93DF93CDB7DEB7CA1BDB0B18
:103CA0000FB6F894DEBF0FBECDBF09942A883988BD
:103CB00048885F846E847D848C849B84AA84B984C4
:103CC000C884DF80EE80FD800C811B81AA81B981D0
:103CD000CE0FD11D0FB6F894DEBF0FBECDBFED01E4
:103CE00008950024A7FD00942A0F301D401D501D8B
:103CF000601D701D801D901D08950024A7FD009477
:103D00002A173005400550056005700580059005AF
:103D10000895AA1BBB1B51E107C0AA1FBB1FA61712
:103D2000B70710F0A61BB70B881F991F5A95A9F764
:103D300080959095BC01CD0108955058BB27AA27C6
:103D40000E94B51E0C9428200E941A2038F00E9470
:103D5000212020F039F49F3F19F426F40C94172009
:103D60000EF4E095E7FB0C941120E92F0E94392016
:103D700058F3BA17620773078407950720F079F4A0
:103D8000A6F50C945B200EF4E0950B2EBA2FA02D17
:103D90000B01B90190010C01CA01A0011124FF27F8
:103DA000591B99F0593F50F4503E68F11A16F040F3
:103DB000A22F232F342F4427585FF3CF46953795F2
:103DC0002795A795F0405395C9F77EF41F16BA0BB7
:103DD000620B730B840BBAF09150A1F0FF0FBB1F65
:103DE000661F771F881FC2F70EC0BA0F621F731FAE
:103DF000841F48F4879577956795B795F7959E3F0B
:103E000008F0B0CF9395880F08F09927EE0F97959B
:103E1000879508950E94ED1F08F481E008950E949F
:103E2000231F0C9428200E94212058F00E941A2061
:103E300040F029F45F3F29F00C94112051110C94AB
:103E40005C200C9417200E94392068F39923B1F369
:103E5000552391F3951B550BBB27AA2762177307B0
:103E6000840738F09F5F5F4F220F331F441FAA1F44
:103E7000A9F335D00E2E3AF0E0E832D09150504000
:103E8000E695001CCAF72BD0FE2F29D0660F771FAE
:103E9000881FBB1F261737074807AB07B0E809F094
:103EA000BB0B802DBF01FF2793585F4F3AF09E3F19
:103EB000510578F00C9411200C945C205F3FE4F3E2
:103EC000983ED4F3869577956795B795F7959F5F5C
:103ED000C9F7880F911D9695879597F90895E1E0A8
:103EE000660F771F881FBB1F621773078407BA0707
:103EF00020F0621B730B840BBA0BEE1F88F7E09562
:103F000008950E94412088F09F5798F0B92F992773
:103F1000B751B0F0E1F0660F771F881F991F1AF0B4
:103F2000BA95C9F714C0B13091F00E945B20B1E09E
:103F300008950C945B20672F782F8827B85F39F09D
:103F4000B93FCCF3869577956795B395D9F73EF44D
:103F500090958095709561957F4F8F4F9F4F0895F5
:103F6000E89409C097FB3EF4909580957095619513
:103F70007F4F8F4F9F4F9923A9F0F92F96E9BB27C9
:103F80009395F695879577956795B795F111F8CF45
:103F9000FAF4BB0F11F460FF1BC06F5F7F4F8F4FB0
:103FA0009F4F16C0882311F096E911C0772321F0A6
:103FB0009EE8872F762F05C0662371F096E8862F3E
:103FC00070E060E02AF09A95660F771F881FDAF795
:103FD000880F9695879597F90895990F0008550FC2
:103FE000AA0BE0E8FEEF16161706E807F907C0F07F
:103FF00012161306E407F50798F0621B730B840B87
:10400000950B39F40A2661F0232B242B252B21F460
:1040100008950A2609F4A140A6958FEF811D811D00
:10402000089597F99F6780E870E060E008959FEF3A
:1040300080EC089500240A9416161706180609063F
:10404000089500240A94121613061406050608950E
:10405000092E0394000C11F4882352F0BB0F40F496
:10406000BF2B11F460FF04C06F5F7F4F8F4F9F4FD6
:10407000089557FD9058440F551F59F05F3F71F058
:104080004795880F97FB991F61F09F3F79F08795BF
:104090000895121613061406551FF2CF4695F1DF48
:1040A00008C0161617061806991FF1CF86957105D8
:1040B000610508940895E894BB2766277727CB010C
:1040C00097F908950E94ED1F08F48FEF08950E945C
:1040D0007A200C9428200E941A2038F00E94212077
:1040E00020F0952311F00C9411200C94172011242A
:1040F0000C945C200E94392070F3959FC1F3950FBA
:1041000050E0551F629FF001729FBB27F00DB11D5B
:10411000639FAA27F00DB11DAA1F649F6627B00DEB
:10412000A11D661F829F2227B00DA11D621F739FD4
:10413000B00DA11D621F839FA00D611D221F749FE2
:104140003327A00D611D231F849F600D211D822F29
:10415000762F6A2F11249F5750409AF0F1F0882350
:104160004AF0EE0FFF1FBB1F661F771F881F91507D
:104170005040A9F79E3F510580F00C9411200C94FB
:104180005C205F3FE4F3983ED4F38695779567957E
:10419000B795F795E7959F5FC1F7FE2B880F911DA7
:1041A0009695879597F90895FB01DC0101900D9292
:1041B0000020E1F70895A8E1B0E042E050E00C945F
:1041C000E8200E94F620272F0C94F720DC01CB0179
:1041D000FC01F999FECF06C0F2BDE1BDF89A319617
:1041E00000B40D9241505040B8F70895262FF99928
:1041F000FECF1FBA92BD81BD20BD0FB6F894FA9ACA
:0C420000F99A0FBE01960895F894FFCFC4
:10420C00414243444546FF000080BF1B02676500E6
:10421C00001B031B0273730000000000001B031B38
:10422C00027374000000000000001B031B02656594
:10423C00001B0300050006074B0701020104078160
:10424C000C0203020407570B03040304072209049E
:10425C000504000728080501050007D0060600061E
:10426C00000732070700070007B2071B0270701B1C
:02427C0003003D
:00000001FF
