:100000000C9456000C9473000C9473000C947300C1
:100010000C9473000C9473000C9473000C94730094
:100020000C9473000C9473000C9473000C94730084
:100030000C9473000C9473000C9473000C94730074
:100040000C9473000C941D1C0C9473000C9473009E
:100050000C9473000C9473000C9473000C94730054
:100060000C9473000C9465160C9473000C9473003C
:100070000C9473000C9473000C9473000C94730034
:100080000C9473000C9473000C9473000C94730024
:100090000C9473000C9473000C9473000C94730014
:1000A0000C9473000C9473000C94730011241FBE05
:1000B000CFEFDAE0DEBFCDBF11E0A0E0B1E0E6EBCC
:1000C000FAE402C005900D92A637B107D9F722E0F5
:1000D000A6E7B1E001C01D92AF3AB207E1F70E9476
:1000E000A0210C9459250C9400002F923F924F921E
:1000F0005F927F928F929F92AF92BF92CF92DF9248
:10010000EF92FF920F931F93CF93DF9300D000D015
:1001100000D0CDB7DEB72D833E83942E852E562E8C
:10012000472E382E292E0B831C83A0E00E94E62246
:100130000CF46CC0712C4B815C81470D511D5A83AE
:1001400049838AE0A82EB12CC12CD12CE12CF12CB2
:1001500000E010E02D813E81492D582D652D742D34
:10016000832D922D0E94E121205DA981BA812C93DB
:100170002D813E81492D582D652D742D832D922D75
:100180000E94E3212D833E83942E852E562E472EEA
:10019000382E292E7394A0E00E94E62261F6AB81EE
:1001A000BC81A70DB11D1C92872D8695B9F0EB81FE
:1001B000FC81BD019F012F5F3F4F8150280F311DF2
:1001C0008191DB019E91BD018F0101501109D80180
:1001D0009C93DB018C932E173F0791F726960FB661
:1001E000F894DEBF0FBECDBFDF91CF911F910F916D
:1001F000FF90EF90DF90CF90BF90AF909F908F9047
:100200007F905F904F903F902F900895EB81FC81FD
:100210008DE28193832D0E9471222D833E83942E43
:10022000852E562E472E382E292EFC83EB8382CF27
:100230000C940C11F8940E94341178940895CF9383
:10024000DF9300D000D00F92CDB7DEB790E3998353
:1002500098E79A83E82FE295EF70803AF8F0EA5039
:10026000F0E0E050FF4F90819B838F708A30D8F090
:100270008A50E82FF0E0E050FF4F80818C831D8290
:10028000F894CE0101960E94341178940F900F904B
:100290000F900F900F90DF91CF910895E05DEB8369
:1002A0008F708A3028F7805D8C83E9CF9F92AF9260
:1002B000BF92CF92DF92EF92FF920F931F93CF9353
:1002C000DF93CDB7DEB72F970FB6F894DEBF0FBE22
:1002D000CDBFF82FE92FA0E00E94E622F9F0CE0171
:1002E00001965C018C018F2F9E2F0E947500F8945F
:1002F000C5010E94341178942F960FB6F894DEBF92
:100300000FBECDBFDF91CF911F910F91FF90EF9066
:10031000DF90CF90BF90AF909F90089580E3898346
:100320001A82CE0101965C01E2CFDB0190E39C933F
:1003300098E711969C931197E82FE295EF70803A19
:10034000B8F0EA50F0E0E050FF4F908112969C9395
:1003500012978F708A3098F08A50E82FF0E0E050C2
:10036000FF4F808113968C93139714961C920895D7
:10037000E05D1296EC9312978F708A3068F7805D7B
:1003800013968C93139714961C9208957F928F92D4
:100390009F92AF92BF92CF92DF92EF92FF920F9314
:1003A0001F93CF93DF93CDB7DEB7CE50D1400FB6BA
:1003B000F894DEBF0FBECDBFCE01825E9E4FFC0122
:1003C000619171916F018D5191400E942925998110
:1003D000992309F446C09E012F5F3F4F79015E01CA
:1003E000B39480E3982E07C07F018FEFE81AF80AD4
:1003F0009181992371F1F7019532B1F71082E216DC
:10040000F30629F0F894C9010E9434117894F70199
:100410008181843609F453C0833709F445C082369C
:10042000A9F1BE01665F7E4F0E949501F894CE014E
:10043000865F9E4F0E9434117894F70131969701A0
:100440002E5F3F4F7F018FEFE81AF80A91819111DB
:10045000D2CF2E153F0529F0F894C9010E9434111E
:100460007894C25FDE4F0FB6F894DEBF0FBECDBFEB
:10047000DF91CF911F910F91FF90EF90DF90CF9080
:10048000BF90AF909F908F907F900895F601B50137
:100490008081F2E0CF0ED11C0E949501F894C50135
:1004A0000E9434117894C9CFF60180819181F2E0E5
:1004B000CF0ED11CF8940E9434117894BECFF6016F
:1004C000B08122E0C20ED11CF181EF2FEE0FEE0BB6
:1004D0002B2F3F2F4E2F5E2F6E2F7E2F8E2F9E2F76
:1004E000A0E07A2C8B2C0E94E62251F085010E941C
:1004F0007500F894872D982D0E94341178949DCF23
:10050000F50190821182F5CFAF92BF92DF92EF9208
:10051000FF920F931F93CF93DF93A0E00E94E622F8
:1005200061F00E947500DF91CF911F910F91FF90B4
:10053000EF90DF90BF90AF90089580E3F801808343
:100540001182F1CF61E070E080E090E00C94411BFB
:1005500060E070E0CB010C94411B2FB130E0A901A9
:1005600002C0559547958A95E2F7CA018095909506
:10057000817008951F93CF93DF93CDB7DEB72D978A
:100580000FB6F894DEBF0FBECDBF182F86E0EFE6A2
:10059000F1E0DE01189601900D928A95E1F706C010
:1005A0008FE99FE00197F1F700C000000E946216FA
:1005B0008111F6CF66E070E0CE0108960E948615A4
:1005C0009FEF21EE84E0915020408040E1F700C091
:1005D00000008BE1898392E09A8392E79B839EE6F9
:1005E0009C831D838E8383E08F8306C08FE99FE009
:1005F0000197F1F700C000000E9462168111F6CF4A
:1006000067E070E0CE0101960E9486159FEF21EE13
:1006100084E0915020408040E1F700C0000082E774
:100620008B8706C08FE99FE00197F1F700C00000BB
:100630000E9462168111F6CF66E070E0CE01089646
:100640000E9486152D960FB6F894DEBF0FBECDBF63
:10065000DF91CF911F9108951F93CF93DF93CDB773
:10066000DEB72D970FB6F894DEBF0FBECDBF182FA3
:1006700086E0EFE6F1E0DE01189601900D928A9592
:10068000E1F706C08FE99FE00197F1F700C0000095
:100690000E9462168111F6CF66E070E0CE010896E6
:1006A0000E9486159FEF21EE84E09150204080400B
:1006B000E1F700C000008BE1898392E09A8392E722
:1006C0009B8396E69C831D838E8383E08F8306C085
:1006D0008FE99FE00197F1F700C000000E946216C9
:1006E0008111F6CF67E070E0CE0101960E94861579
:1006F0009FEF21EE84E0915020408040E1F700C060
:10070000000082E78B8706C08FE99FE00197F1F731
:1007100000C000000E9462168111F6CF66E070E012
:10072000CE0108960E9486152D960FB6F894DEBF6E
:100730000FBECDBFDF91CF911F91089580B38C780C
:1007400080BB549A5C9886E00C942C03CF92DF9285
:10075000EF92FF920F931F93CF93DF93CDB7DEB746
:1007600028970FB6F894DEBF0FBECDBF6C01DC0139
:1007700012968C911297873609F464C08337A9F0DA
:10078000833609F493C0823709F47EC028960FB6E9
:10079000F894DEBF0FBECDBFDF91CF911F910F91B7
:1007A000FF90EF90DF90CF90089513968C91139760
:1007B000853609F4A7C0843749F786E7E82E81E03B
:1007C000F82E08E711E029E731E04AE751E066E05A
:1007D00071E08BE791E00E94F31EF60184818F3F68
:1007E00009F4D2C080937B01D60115966C916F3FBE
:1007F00009F4C7C060930601F60146814F3F09F432
:10080000BDC040937A01D60117962C912F3F09F471
:10081000B2C020937901F60100850F3F09F4A8C00A
:1008200000937801D6011996ED91FC91FE2EEF2EE2
:10083000319609F498C0F0927701E09276010E9417
:10084000A61FA4CF13968C91853609F09FCF88E020
:10085000EFE0F1E0DE01119601900D928A95E1F74B
:10086000F601848195819827892798270E94742012
:100870009827892798279E838D8368E070E0CE01B2
:1008800001960E94861582CFF6018381843609F095
:100890007DCF10E000E070E060E0C8010E947820A9
:1008A0000F5F1F4F0F3F1105B1F770CFF601838126
:1008B0008237E1F0833709F44BC0863609F066CF02
:1008C00087E00E94BF12882309F460CF15E0F12C65
:1008D000E12C87E00E94CE12E816F90608F47C01AC
:1008E0001150B9F7B70180E990E019C084818823DD
:1008F00031F161E070E090E080E00E947820109299
:100900007C0144CF16966D917C91179776276727C7
:10091000762714968D919C91982789279827289659
:100920000FB6F894DEBF0FBECDBFDF91CF911F9100
:100930000F91FF90EF90DF90CF900C94782070E0B3
:1009400060E090E080E00E94782010927C011ECF51
:1009500014968C91882321F081E080937E0116CF3C
:1009600010927E0113CFE0907601F090770167CF6F
:100970000091780157CF209179014DCF40917A01B4
:1009800042CF6091060138CF80917B012DCF4F92ED
:100990005F926F927F928F929F92AF92BF92CF920F
:1009A000DF92EF92FF920F931F93CF93DF93CDB718
:1009B000DEB7A0970FB6F894DEBF0FBECDBF84E1BF
:1009C00090E00E9474204C0188E190E00E94742025
:1009D0008EE290E00E9474206C0180E990E00E9419
:1009E00074205C0180917C01813011F010927C01B7
:1009F0001F8A1E8A10E000E020E44CE250E06DE225
:100A000070E08EE290E00E94BE132FEF83ED90E342
:100A1000215080409040E1F700C00000DE01569672
:100A20007D0120E44CE250E06DE270E08EE290E067
:100A30000E949A140E891F890115110509F464C1D9
:100A40007801F294E2948FE0E822EF24F822EF2478
:100A5000C701B0E0A0E08D8F9E8FAF8FB8A3B70124
:100A6000CD010E940524762E672E582E492E129510
:100A70001F700E2D80917C01813039F08E149F04FF
:100A800008F0CBC181E080937C0187E00E94BF1217
:100A9000811149C1F12CE12CB12CA12C10927C01C7
:100AA00086E0EFE6F1E0DE011E9601900D928A9558
:100AB000E1F706C0AFE9BFE01197F1F700C0000011
:100AC0000E9462168111F6CFBFEF21EE84E0B15093
:100AD00020408040E1F700C0000066E070E0CE01F9
:100AE0000E960E9486158CE0E7E1F1E0DE0111969A
:100AF00001900D928A95E1F71D830E83EF82F886AF
:100B0000DC24CD24DC24DA86C98606C0AFE9BFE048
:100B10001197F1F700C000000E9462168111F6CF14
:100B2000BFEF21EE84E0B15020408040E1F700C0EB
:100B300000006CE070E0CE0101960E948615DE0197
:100B400054967D018E01085E1F4F9E01275E3F4F28
:100B5000AE01465E5F4FBE01655E7F4FCE014C9693
:100B60000E94F31E2B8D809106013A8D498D588D80
:100B7000281709F43BC18C899D8920930601309385
:100B80007A01409379015093780190937701809393
:100B900076016DE0E3E2F1E0DE01119601900D9245
:100BA0006A95E1F760917B016D832E833F834887CF
:100BB00059879827892798279B878A8706C08FE9B6
:100BC0009FE00197F1F700C000000E9462168111BA
:100BD000F6CF9FEFA1EEB4E09150A040B040E1F716
:100BE00000C000006DE070E0CE0101960E94861505
:100BF000C501B0E0A0E08D8F9E8FAF8FB8A3B50187
:100C0000CD010E9405246093070170930801809331
:100C1000090190930A01872D962DA52DB42D80935F
:100C20000B0190930C01A0930D01B0930E019091D4
:100C30007C0180917D01981749F187E0E0E3F1E0C4
:100C4000DE01119601900D928A95E1F7992309F43E
:100C5000CAC09D8306C0AFE9BFE01197F1F700C09D
:100C600000000E9462168111F6CFBFEF21EE84E0F2
:100C7000B15020408040E1F700C0000067E070E024
:100C8000CE0101960E94861580917C0180937D01A2
:100C900006C0AFE9BFE01197F1F700C000000E9465
:100CA00062168111F6CFBFEF21EE84E0B1502040F3
:100CB0008040E1F700C0000082E7898B66E070E0C9
:100CC000CE010E960E9486159FEFA1EEB4E09150E2
:100CD000A040B040E1F700C00000A0960FB6F89425
:100CE000DEBF0FBECDBFDF91CF911F910F91FF905F
:100CF000EF90DF90CF90BF90AF909F908F907F90BC
:100D00006F905F904F90089582E080937C0100E0A7
:100D100010E0712C612C512C412C87E00E94BF12F5
:100D2000882309F4B7CE87E00E94CE129C018A1571
:100D30009B0508F4AFCE2A193B09C901B0E0A0E039
:100D40008D8F9E8FAF8FB8A3B901CD010E9405246E
:100D500020E030E048EC52E46D8F7E8F8F8F98A3B7
:100D60006D8D7E8D8F8D98A10E94BC244B017C01DE
:100D7000C501B0E0A0E08D8F9E8FAF8FB8A3B50105
:100D8000CD010E9405249B01AC0160E070EC8FE76F
:100D900094E40E94F2229B01AC018D8E9E8EEF8E18
:100DA000F8A26D8D7E8D8F8D98A10E94642320E026
:100DB00030E0A9016D8F7E8F8F8F98A36D8D7E8D12
:100DC0008F8D98A10E94F3226D8F7E8F8F8F98A3B5
:100DD0006D8D7E8D8F8D98A10E94D623F62EE72EE5
:100DE000A62EB72E5BCE8EE68C833BCF8C899D8959
:100DF00060917A013613C1CE609179016413BDCE42
:100E0000609178016513B9CE609176017091770198
:100E10006817790709F0B1CEEBCE10927C0135CE80
:100E20001F93CF93DF93CDB7DEB72D970FB6F8940E
:100E3000DEBF0FBECDBF182F86E0EFE6F1E0DE018A
:100E4000189601900D928A95E1F706C08FE99FE010
:100E50000197F1F700C000000E9462168111F6CFE1
:100E600066E070E0CE0108960E94861506C08FE904
:100E70009FE00197F1F700C000000E946216811107
:100E8000F6CF9FEF21EE84E0915020408040E1F7C3
:100E900000C000008BE1898392E09A8393E79B83F3
:100EA00093E69C831D838E8383E08F8367E070E0ED
:100EB000CE0101960E94861582E78B8706C08FE9D6
:100EC0009FE00197F1F700C000000E9462168111B7
:100ED000F6CF9FEF21EE84E0915020408040E1F773
:100EE00000C0000066E070E0CE0108960E94861502
:100EF0002D960FB6F894DEBF0FBECDBFDF91CF9118
:100F00001F910895CF930E94C70480917C01813086
:100F100071F0C0917E01CC2321F0C1E08C2FCF91E4
:100F2000089580E00E943A1A8C2FCF910895C3E073
:100F30008C2FCF910895CF93DF9300D000D00F92E4
:100F4000CDB7DEB780E190E00E94742089839A8358
:100F50000E94C7040E946A1B88E00E94100783E079
:100F60000E942C0380917C01813009F440C08111E2
:100F700035C090E080E00E947420892B79F1A9812E
:100F8000BA81CD01B0E0A0E089839A83AB83BC83B2
:100F9000BC01CD010E940524B1E0BD8320910B016D
:100FA00030910C0140910D0150910E0169837A83BB
:100FB0008B839C8369817A818B819C810E94B72479
:100FC00018160CF01D8281E02D8182270F900F9062
:100FD0000F900F900F90DF91CF91089582E00F90C6
:100FE0000F900F900F900F90DF91CF91089583E0B5
:100FF0000F900F900F900F900F90DF91CF91089569
:10100000CF93DF9300D000D0CDB7DEB70E94C704E6
:101010000E946A1B81E00E94100783E00E942C035B
:1010200080917C01813031F180917E01811117C066
:1010300090E080E00E9474209C0181E0232B39F431
:101040000F900F900F900F90DF91CF91089580E057
:101050000F900F900F900F90DF91CF9108958FEF29
:101060000E943A1A82E00F900F900F900F90DF913C
:10107000CF91089584E190E00E94742089839A833F
:1010800088E190E00E94742029813A81281B390B65
:10109000C901B0E0A0E089839A83AB83BC83B90126
:1010A000CD010E94052420910B0130910C0140914B
:1010B0000D0150910E0169837A838B839C83698132
:1010C0007A818B819C810E945F2318160CF4ACCF2F
:1010D00083E0B6CF1F93CF93DF9300D000D000D032
:1010E000CDB7DEB782E690E00E947420182F84E12D
:1010F00090E00E94742089839A8388E190E00E94A6
:10110000742029813A81281B390B3E832D8370E09E
:1011100060E090E080E00E9478200E946A1B8AE0F4
:101120000E94100780E00E943A1A86E00E942C0379
:10113000812F90E0B0E0A0E089839A83AB83BC83E9
:10114000BC01CD010E946F1A60910B0170910C01DE
:1011500080910D0190910E010E94D62369837A83BC
:101160008B839C83AD81BE8129813A812A173B07FD
:10117000B8F00E94C70460910B0170910C0180913E
:101180000D0190910E010E94D62369837A838B838F
:101190009C838D819E81A981BA81A817B90748F7E0
:1011A00060E070E0CB010E946F1A80E026960FB6D7
:1011B000F894DEBF0FBECDBFDF91CF911F91089590
:1011C0008F929F92AF92BF92CF92DF92EF92FF9257
:1011D0000F931F93CF93DF93CDB7DEB72A970FB648
:1011E000F894DEBF0FBECDBF80E490E00E94742073
:1011F00089839A8388E490E00E947420182F82E407
:1012000090E00E94742084E490E00E9474200E9488
:10121000591B0E94591B89819A81892BA1F480E076
:101220002A960FB6F894DEBF0FBECDBFDF91CF91E7
:101230001F910F91FF90EF90DF90CF90BF90AF90F4
:101240009F908F90089585E00E941007812F90E075
:10125000B0E0A0E0BC01CD010E946F1A10E000E0F8
:1012600080E490E00E94742089879A8788E490E067
:101270000E94742082E490E00E9474209C01A8EEF9
:10128000B3E00E94C72169837A838B839C8384E4C3
:1012900090E00E9474209C01A8EEB3E00E94C72158
:1012A0006D837E838F8398878FEF0E943A1A0E9406
:1012B000591B4B015C010E94591B6B017C0136C01C
:1012C00080E490E00E94742089879A8788E490E007
:1012D0000E94742082E490E00E9474209C01A8EE99
:1012E000B3E00E94C72169837A838B839C8384E463
:1012F00090E00E9474209C01A8EEB3E00E94C721F8
:101300006D837E838F8398870E94C7040E94591B38
:101310006B017C0180917C01813009F46AC090E00E
:1013200080E00E947420892B09F461C0C818D90894
:10133000EA08FB0889819A81AB81BC81C816D9066D
:10134000EA06FB0608F4BCCF80E00E943A1A0E942D
:10135000591B4B015C010E94591B6B017C012BC086
:1013600080E490E00E94742089879A8788E490E066
:101370000E94742082E490E00E94742084E490E053
:101380000E9474209C01A8EEB3E00E94C7216D83E7
:101390007E838F8398870E94C7040E94591B6B012C
:1013A0007C0180917C01813071F190E080E00E94AD
:1013B0007420892BE1F0C818D908EA08FB088D8150
:1013C0009E81AF81B885C816D906EA06FB0640F2B1
:1013D0000F5F1F4FA985BA850A171B0708F440CF76
:1013E00060E070E0CB010E946F1A80E019CF82E0CC
:1013F00017CF86E00E942C0360E070E0CB010E94D2
:101400006F1A83E00DCF60E070E0CB010E946F1A8D
:1014100083E006CF2F923F924F925F926F927F921E
:101420008F929F92AF92BF92CF92DF92EF92FF92F4
:101430000F931F93CF93DF93CDB7DEB72E970FB6E1
:10144000F894DEBF0FBECDBF80E390E00E94742011
:101450008EE290E00E94742082E690E00E94742068
:10146000898380E690E00E94742080E790E00E94EB
:1014700074209C01A0E6BAEE0E94C7216D837E8392
:101480008F8398870E94591B0E94591B0E94591BE9
:101490002B013C0187E00E94100780E00E943A1A6D
:1014A00086E00E942C033981232F30E050E040E099
:1014B000CA01B9010E946F1A83E00E94BA020E9419
:1014C000591B69877A878B879C870E94591B80E309
:1014D00090E00E9474208C018EE290E00E947420C3
:1014E0008D879E8782E690E00E947420F82E80E629
:1014F00090E00E947420382E292E8F2D90E0B0E0CD
:10150000A0E0BC01CD010E946F1A0E94C7040E9496
:10151000591B6B017C0180917C01813009F4ABC0C7
:101520004601570184189508A608B7084D855E85C1
:101530009A0150E040E029833A834B835C83CA01DF
:10154000B9010E94052420910701309108014091C2
:10155000090150910A0169837A838B839C83698195
:101560007A818B819C810E94B72487FD9EC08985EA
:101570009A85AB85BC85C81AD90AEA0AFB0A980184
:10158000A8EEB3E00E94C72169837A838B839C8392
:101590002D813E814F81588582169306A406B5069B
:1015A00008F091C089819A81AB81BC81C816D906A7
:1015B000EA06FB0608F48BCF232D322DA8EEB3E00C
:1015C0000E94C72169837A838B839C830E94591B65
:1015D0006B017C010E94591B4B015C0105C080918D
:1015E0007C01813009F447C0D501C4018C199D09E3
:1015F000AE09BF0929813A814B815C81821793072B
:10160000A407B50708F067C080E390E00E9474204B
:101610008EE290E00E94742082E690E00E947420A6
:1016200080E690E00E9474209C01A8EEB3E00E9446
:10163000C72169837A838B839C830E94C7040E949D
:10164000591B4B015C01DC01CB0184199509A609EA
:10165000B7092D813E814F81588582179307A407D2
:10166000B50708F4BCCF83E00E942C0380917C0175
:10167000813009F0B9CF83E02E960FB6F894DEBF23
:101680000FBECDBFDF91CF911F910F91FF90EF90D3
:10169000DF90CF90BF90AF909F908F907F906F9092
:1016A0005F904F903F902F9008952D813E814F8104
:1016B000588582169306A406B50648F4C986DA86CC
:1016C000EB86FC8604CF83E00E942C036BCF83E083
:1016D0000E942C03F3CF60E070E0CB010E946F1AF0
:1016E00084189508A608B7088D819E81AF81B885BA
:1016F00088169906AA06BB06C8F480E790E00E9407
:10170000742089879D830E94591B6B017C01C4183A
:10171000D508E608F70829853D81A0E6BAEE0E94C3
:10172000C721C616D706E806F90638F383E00E94FB
:101730002C0380E0A1CF2F923F924F925F926F9245
:101740007F928F929F92AF92BF92CF92DF92EF9251
:10175000FF920F931F93CF93DF93CDB7DEB76497BC
:101760000FB6F894DEBF0FBECDBF0E94591B6D832C
:101770007E838F8398870E94591B0E94591B6E8716
:101780007F87888B998B86E00E94100760E070E06D
:10179000CB010E946F1A1A8A21E02D87412C512C0F
:1017A000320184E590E00E947420F82E80E590E0FC
:1017B0000E947420182F092F82E590E00E94742067
:1017C000B82EA92E82E190E00E9474201C018EE2C6
:1017D00090E00E9474208B8B9C8B80E390E00E94B1
:1017E0007420982E892E88E590E00E9474208987C5
:1017F0009A8786E590E00E9474208B879C878F2DC6
:1018000090E0B0E0A0E0BC01CD010E946F1A0E9400
:10181000591B6B017C010E94C7044B895C899A01AA
:1018200050E040E029833A834B835C83CA01B901CD
:101830000E9405242091070130910801409109017F
:1018400050910A0169837A838B839C8369817A81B1
:101850008B819C810E94B72490E018160CF472C012
:1018600080E00E947420892B09F409C1412C512C7D
:10187000612C712C80917C01813009F476C0C1010A
:10188000B0E0A0E089839A83AB83BC83B101CD0132
:101890000E94052420910B0130910C0140910D0113
:1018A00050910E0169837A838B839C8369817A814D
:1018B0008B819C810E945F2318160CF0FAC09D85D5
:1018C000992309F45CC0212F302FA8EEB3E00E94C9
:1018D000C72169837A838B839C83D701C6012D81BD
:1018E0003E814F815885821B930BA40BB50B298138
:1018F0003A814B815C8182179307A407B50708F0F2
:10190000A2C08FEF0E943A1A460157018E859F852B
:10191000A889B989881A990AAA0ABB0A9A899923B7
:1019200009F44EC02B853C85A8EEB3E00E94C72188
:1019300086169706A806B90608F08EC083E00E94B6
:10194000BA022FCF80E0411451046104710409F000
:1019500047C00E947420892B09F491C026013701E9
:1019600080917C01813009F08ACF80E00E943A1A90
:1019700060E070E0CB010E946F1A83E081C02B2DE4
:101980003A2DA8EEB3E00E94C72169837A838B8346
:101990009C83D701C6012D813E814F815885821BD2
:1019A000930BA40BB50B29813A814B815C81821783
:1019B0009307A407B507E8F580E00E943A1AA4CF80
:1019C00029853A85A8EEB3E00E94C72186169706BE
:1019D000A806B90608F049C083E00E942C03E1CEB6
:1019E0000E947420892B09F44AC0292D382DA8EEB5
:1019F000B3E00E94C72169837A838B839C83D701DC
:101A0000C60184199509A609B70929813A814B8134
:101A10005C81281739074A075B0708F02BCF60E085
:101A200070E0CB010E946F1A80E00E943A1A82E0B7
:101A300027C08FEF0E943A1ACD82DE82EF82F886AD
:101A400031E03D87AECE80E00E943A1ACD82DE8240
:101A5000EF82F8861D86A5CE83E00E942C03CE86F9
:101A6000DF86E88AF98A1A8A9CCE83E00E94BA024D
:101A7000CE86DF86E88AF98AA1E0AA8B92CE82E040
:101A800064960FB6F894DEBF0FBECDBFDF91CF9145
:101A90001F910F91FF90EF90DF90CF90BF90AF908C
:101AA0009F908F907F906F905F904F903F902F907E
:101AB000089580E00E943A1A60E070E0CB010E9435
:101AC0006F1A80E0DDCF2F923F924F925F926F921C
:101AD0007F928F929F92AF92BF92CF92DF92EF92BE
:101AE000FF920F931F93CF93DF93CDB7DEB760972D
:101AF0000FB6F894DEBF0FBECDBF82E290E00E9429
:101B00007420382E80E290E00E9474208C0184E2E0
:101B100090E00E9474205C0188E290E00E947420B2
:101B2000982E892E8CE290E00E9474208AE290E048
:101B30000E94742084E690E00E94742088E690E081
:101B40000E94742081E390E00E9474208D839E8324
:101B50000E94591B2B013C010E94591B6B017C0107
:101B600083E00E94100783E00E94BA02232D30E038
:101B700050E040E0CA01B9010E946F1AC418D508AC
:101B8000E608F7089801A8EEB3E00E94C721C61640
:101B9000D706E806F90658F012C22D813E814F8122
:101BA0005885C216D306E406F50608F086C082E220
:101BB00090E00E947420F82E80E290E00E94742051
:101BC0009C01A8EEB3E00E94C7216D837E838F83C2
:101BD000988784E290E00E947420382E292E88E2B3
:101BE00090E00E9474208C018CE290E00E947420AE
:101BF0008AE290E00E94742084E690E00E947420C3
:101C000088E690E00E94742081E390E00E947420B6
:101C100040E65AEE849F4001859F900C949F900C63
:101C20001124B12CA12C8F2D90E0B0E0A0E0BC01DC
:101C3000CD010E946F1A0E94C7040E94591B6B01BC
:101C40007C0180917C018130B1F190E080E00E94C4
:101C50007420892BB1F0C418D508E608F708C81419
:101C6000D904EA04FB0408F498CF83E00E942C0313
:101C700094CF60E070E0CB010E946F1A86E00E9472
:101C80002C0382E060960FB6F894DEBF0FBECDBF86
:101C9000DF91CF911F910F91FF90EF90DF90CF9048
:101CA000BF90AF909F908F907F906F905F904F907C
:101CB0003F902F90089583E0E5CF232D322DA8EE9D
:101CC000B3E00E94C72169837A838B839C83980148
:101CD0000E94C72169877A878B879C8760E070E0C4
:101CE000CB010E946F1AC814D904EA04FB0468F4FB
:101CF0000E94591BDC01CB0184199509A609B7097B
:101D000088159905AA05BB0598F383E00E942C036A
:101D100084E00E9410078FEF0E943A1A0E94591B1C
:101D20004B015C010E94591B6B017C0144C082E2A3
:101D300090E00E94742080E290E00E94742084E28F
:101D400090E00E9474209C01A8EEB3E00E94C7219D
:101D500069837A838B839C8388E290E00E9474205D
:101D60009C01A8EEB3E00E94C72169877A878B8720
:101D70009C878CE290E00E9474208AE290E00E94AE
:101D8000742084E690E00E94742088E690E00E942F
:101D900074200E94C7040E94591B6B017C01809132
:101DA0007C01813009F487CF90E080E00E947420AC
:101DB000892B09F466CFC818D908EA08FB0889817D
:101DC0009A81AB81BC81C816D906EA06FB0608F4E5
:101DD000AECF80E00E943A1A86E00E94BA020E94CA
:101DE000591B6D877E878F87988B0E94591BDC015A
:101DF000CB012D853E854F855889821B930BA40B03
:101E0000B50B29853A854B855C85812C912C540135
:101E1000312C82179307A407B50708F441C029CFD6
:101E2000332009F4C1C0222D30E050E040E0CA0167
:101E3000B9010E946F1A33243394A985BA85CD0164
:101E4000B0E0A0E089839A83AB83BC83BC01CD0161
:101E50000E94052420910701309108014091090159
:101E600050910A0169837A838B839C8369817A818B
:101E70008B819C810E945F2387FF72C08114910433
:101E8000A104B10409F071C0460157012D813E81C2
:101E90004F815885421653066406750608F0E9CE50
:101EA00082E290E00E94742080E290E00E94742020
:101EB00084E290E00E94742088E290E00E94742006
:101EC0009C01A8EEB3E00E94C7216D837E838F83BF
:101ED00098878CE290E00E947420282E8AE290E09D
:101EE0000E9474209C01A8EEB3E00E94C721698380
:101EF0007A838B839C8384E690E00E947420898798
:101F00009A8788E690E00E9474208C010E94C704A2
:101F10000E94591B6B017C0180917C01813009F486
:101F2000CACE90E080E00E947420892B09F4A9CEEB
:101F3000260137018D859E85AF85B889481A590AD3
:101F40006A0A7B0A29813A814B815C8142165306D9
:101F50006406750608F064CF332009F46ECF63CFB2
:101F6000812C912CA12CB12C91CFC818D908EA084A
:101F7000FB0848EE53E0049FC001059F900D149F9D
:101F8000900D1124B0E0A0E08C159D05AE05BF05B5
:101F900008F07CCF60E070E0CB010E946F1A86E011
:101FA0000E942C0380E06ECE822D90E0B0E0A0E095
:101FB000BC01CD010E946F1A332433943ECF9501AA
:101FC000A8EEB3E00E94C72169837A838B839C8348
:101FD000292D382D0E94C72169877A878B879C8796
:101FE00080E69AEE4D815E81489F4001499F900CAA
:101FF000589F900C1124B12CA12C70CEEF92FF921F
:102000000F931F93CF93DF9300D0CDB7DEB7F89433
:1020100010927F0110927C0110927D010E941801A4
:102020000E945B1586EA93E00E945D160E949E0363
:102030000E941D1A0E943D1A0E942D1B0E94B5127B
:1020400078942FEF83ED90E3215080409040E1F7AA
:1020500000C000008FEF8093060180E090E0A0E8D0
:10206000BFEB80930B0190930C01A0930D01B093F3
:102070000E018093070190930801A0930901B0938A
:102080000A010E94C7042FEF83ED90E321508040A6
:102090009040E1F700C0000090E080E00E947420D2
:1020A000892B49F40F900F90DF91CF911F910F91E1
:1020B000FF90EF90089582E190E00E9474208EE2FC
:1020C00090E00E94742080E990E00E94742010E06B
:1020D00000E020E44CE250E06DE270E08EE290E03F
:1020E0000E94BE132FEF83ED90E32150804090407B
:1020F000E1F700C00000CE0101967C0120E44CE233
:1021000050E06DE270E08EE290E00E949A1487E069
:102110000E94CE1285E080937F01C4CFE0917F01C1
:1021200087E0E89FF0011124E95CFE4F0580F6810D
:10213000E02D09958230E9F070F4882331F1E091C7
:102140007F0187E0E89FF0011124E95CFE4FE28106
:10215000E0937F01E5CF833009F7E0917F0187E0CD
:10216000E89FF0011124E95CFE4FE481E0937F01D8
:10217000D7CFE0917F0187E0E89FF0011124E95C6F
:10218000FE4FE381E0937F01CBCFE0917F0187E0B9
:10219000E89FF0011124E95CFE4FE181E0937F01AB
:1021A000BFCF61E070E090E080E00E947820109264
:1021B0007C01089570E060E090E080E00E9478206B
:1021C00010927C01089581E080937E010895109221
:1021D0007E01089580917F01811106C061E070E069
:1021E00090E080E00C94782070E060E090E080E087
:1021F0000C94782080917F01882319F0863009F0B3
:10220000089580917E01882319F010927E0108952F
:1022100081E080937E010895259A2D9A0895F8947F
:102220002D98EFE9F1E03197F1F700C0000028E0C8
:1022300030E091E00BC02D9AEFE9F1E03197F1F732
:1022400000C00000990F2150310929F0482F49237F
:1022500091F72D98F1CF2D9A8FE991E00197F1F741
:1022600000C0000078940895CF93DF93EC0188813B
:10227000882331F021960E940F1189918111FBCFA3
:10228000DF91CF9108958A3018F0895A0C940F117C
:10229000805D0C940F11CF93C82F82958F70C03A38
:1022A00058F0895A0E940F118C2F8F708A3058F085
:1022B000895ACF910C940F11805D0E940F118C2FC1
:1022C0008F708A30A8F7805DCF910C940F11CF9357
:1022D000DF93EC018D2F82958F70D03AD8F0895A18
:1022E0000E940F118D2F8F708A30D8F0895A0E946A
:1022F0000F118C2F82958F70C03AD8F0895A0E94A6
:102300000F118C2F8F708A30D8F0895ADF91CF91BE
:102310000C940F11805D0E940F118D2F8F708A30E9
:1023200028F7805D0E940F118C2F82958F70C03A24
:1023300028F7805D0E940F118C2F8F708A3028F74C
:10234000805DDF91CF910C940F118F929F92AF928D
:10235000BF92CF92DF92EF92FF92CF93DF936B0108
:102360007C014701AA24BB24CF2DDD278F2D829528
:102370008F709FE99F1508F04BC0895A0E940F117A
:102380008C2F8F708A3008F44BC0895A0E940F112D
:10239000882D82958F709FE9981508F04BC0895A57
:1023A0000E940F11882D8F708A3008F44BC0895A13
:1023B0000E940F11CD2DDD278D2D82958F709FE905
:1023C0009D1508F04DC0895A0E940F118C2F8F70F7
:1023D0008A3008F441C0895A0E940F118C2D8295D1
:1023E0008F709FE99C15A0F5895A0E940F118C2DC2
:1023F0008F708A3058F1895ADF91CF91FF90EF901A
:10240000DF90CF90BF90AF909F908F900C940F1162
:10241000805D0E940F118C2F8F708A3008F0B5CF2D
:10242000805D0E940F11882D82958F709FE998150D
:1024300008F4B5CF805D0E940F11882D8F708A300F
:1024400008F0B5CF805D0E940F11B4CF805DD4CF6E
:10245000805D0E940F11CBCF805D0E940F11BECF17
:10246000805D0E940F11B2CF1092B90088E1809375
:10247000B800089594EA9093BC009091BC0097FF37
:10248000FCCF9091B900987F983011F0903191F481
:102490008093BB0084E88093BC008091BC0087FFE0
:1024A000FCCF9091B900987F983131F081E0903461
:1024B00019F0089581E0089580E0089524EA34E851
:1024C00044E92093BC009091BC0097FFFCCF909111
:1024D000B900987F983011F0903199F78093BB0044
:1024E0003093BC009091BC0097FFFCCF9091B90055
:1024F000987F903219F0983509F008954093BC0008
:102500009091BC0094FDFCCFDCCF0C943A1284E98E
:102510008093BC008091BC0084FDFCCF0895809323
:10252000BB0084E88093BC008091BC0087FFFCCF97
:102530009091B900987F81E0983209F0089580E089
:10254000089584EC8093BC008091BC0087FFFCCF91
:102550008091BB00089584E88093BC008091BC000A
:1025600087FFFCCF8091BB000895879880E480931B
:102570007C0087E880937A00209A289808958798AD
:102580008F98209A289A2FEF81EE94E02150804076
:102590009040E1F700C0000081E00895982F8091FD
:1025A0007A00806880937A002FEF31EE44E021506A
:1025B00030404040E1F700C0000080917C00887FFF
:1025C0009770892B80937C0080917A00806480933F
:1025D0007A0080917A0086FDFCCF209178003091BE
:1025E0007900109279001092780090917A009F778C
:1025F00090937A008FEF91EE44E0815090404040FC
:10260000E1F700C00000C9010895262F6623B9F044
:10261000FC01BC016F5F7F4F2150620F711D80E094
:102620004CE8219198E0382F3227869530FD842799
:1026300026959150C1F7E617F70799F7089580E0BE
:1026400008957F928F929F92AF92BF92CF92DF9226
:10265000EF92FF920F931F93CF93DF937C016B0157
:102660004A01722EE8012097F9F005E50E94EA2060
:102670005E0188E0A80EB11C0991272DA401B601C6
:10268000C7010E94EA20CA15DB05B1F7DF91CF919F
:102690001F910F91FF90EF90DF90CF90BF90AF9080
:1026A0009F908F907F9008950CEC0E94EA20EECFCF
:1026B0005F926F927F928F929F92AF92BF92CF92D2
:1026C000DF92EF92FF920F931F93CF93DF935C0102
:1026D0004B013A01522E67010E9421130EEB252D6A
:1026E000A301B401C5010E94EA208701075F1F4FC3
:1026F000E701252DA301B401C5010E94572189934B
:10270000C017D107B1F7F60120818181822B928118
:10271000892B9381892B9481892B9581892B968193
:10272000892B9781892B41F13196B601685F7F4FE4
:1027300090E04CE888E0392F3227969530FD9427B9
:1027400026958150C1F7E617F70711F02191F2CFD6
:10275000F6012085291382E0DF91CF911F910F911F
:10276000FF90EF90DF90CF90BF90AF909F908F90B1
:102770007F906F905F90089583E0EECFBF92CF92ED
:10278000DF92EF92FF920F931F93CF93DF93D82F97
:10279000C92F7B016A01B22E0E947C20813081F01A
:1027A0002B2DA601B7018D2F9C2F0E94211304E42D
:1027B0002B2DA601B7018D2F9C2F0E94EA2080E0CF
:1027C000DF91CF911F910F91FF90EF90DF90CF900D
:1027D000BF9008959F92AF92BF92CF92DF92EF92F7
:1027E000FF920F931F93CF93DF93D82FC92F6B01C5
:1027F0005A01922E0E947C20813039F0292DA501AA
:10280000B6018D2F9C2F0E945813DF91CF911F91FD
:102810000F91FF90EF90DF90CF90BF90AF909F907F
:1028200008958F929F92AF92BF92CF92DF92EF92D4
:10283000FF920F931F93CF93DF93D82FC92FD62EDC
:10284000F72E942EB52E822E0E947C20813091F19D
:10285000282D492D5B2D6D2D7F2D8D2F9C2F0E94B6
:1028600021130EE4282D492D5B2D6D2D7F2D8D2FED
:102870009C2F0E94EA200E2D282D492D5B2D6D2DB9
:102880007F2D8D2F9C2F0E94EA200C2D282D492D65
:102890005B2D6D2D7F2D8D2F9C2F0E94EA200A2D00
:1028A000282D492D5B2D6D2D7F2D8D2F9C2F0E9466
:1028B000EA2080E0DF91CF911F910F91FF90EF9080
:1028C000DF90CF90BF90AF909F908F900895BF9270
:1028D000CF92DF92EF92FF920F931F93CF93DF93EC
:1028E0006C01EB01B42EE52EF22E0E947C2081308B
:1028F000B9F02F2D4B2D5E2DBE01C6010E94211374
:1029000008E42F2D4B2D5E2DBE01C6010E94EA204A
:10291000F60180818F2980832881F22AF88280E065
:10292000DF91CF911F910F91FF90EF90DF90CF90AB
:10293000BF9008955F926F927F928F929F92AF9215
:10294000BF92CF92DF92EF92FF920F931F93CF939C
:10295000DF93CDB7DEB729970FB6F894DEBF0FBE71
:10296000CDBF5C014B013A01522E67010E947C20D1
:10297000813059F1CE0101967C01252DA301B401CE
:10298000C5010E945813811120C02A8130E0322FE6
:1029900022279981290F311DF60131832083299641
:1029A0000FB6F894DEBF0FBECDBFDF91CF911F9160
:1029B0000F91FF90EF90DF90CF90BF90AF909F90DE
:1029C0008F907F906F905F900895F6011182108232
:1029D000E6CF7F928F929F92AF92BF92CF92DF927B
:1029E000EF92FF920F931F93CF93DF937C016B01C4
:1029F0004A01722EE80184E0209709F445C0C7011E
:102A00000E947C20813009F43FC003E3272DA401FC
:102A1000B601C7010E94EA205E0188E0A80EB11C41
:102A20008E01272DA401B601C7010E945721F8018C
:102A300081938F01AE16BF06A1F728815F8189813E
:102A4000822B9A81892B9B81892B9C81892B9D814B
:102A5000892B9E81892B852B61F1FE013196BE0168
:102A6000695F7F4F90E04CE888E0392F32279695D8
:102A700030FD942726958150C1F76E177F0711F01E
:102A80002191F2CF59130EC0DF91CF911F910F9179
:102A9000FF90EF90DF90CF90BF90AF909F908F907E
:102AA0007F90089588E0FE0111928A95E9F782E00F
:102AB000EBCF83E0E9CF1092CD0087E08093CC008C
:102AC00088E98093C90086E08093CA001092800153
:102AD00008958091C80087FFFCCF8091CE000895B3
:102AE0009091C80095FFFCCF8093CE000895FC0123
:102AF0009081992351F031968091C80085FFFCCFD9
:102B00009093CE0091919111F7CF08959B01672B7F
:102B100069F0FC01280F391F91918091C80085FF51
:102B2000FCCF9093CE00E217F307B1F708952F92F0
:102B30003F924F925F926F927F928F929F92AF924D
:102B4000BF92CF92DF92EF92FF920F931F93CF939A
:102B5000DF93CDB7DEB7E7970FB6F894DEBF0FBEB1
:102B6000CDBF922E832E742E652E562E472E382ED4
:102B7000292EA0E00E94E62209F49AC0A0E00E945B
:102B8000E6220CF483C0FE013196FFABEEAB1BAA2C
:102B9000AEA9BFA9EBA9AE0FB11DBDABACAB8AE02E
:102BA000A82EB12CC12CD12CE12CF12C00E010E08E
:102BB000292D382D472D562D652D742D832D922DC1
:102BC0000E94E121205DACA9BDA92C93292D382DAF
:102BD000472D562D652D742D832D922D0E94E321B6
:102BE000922E832E742E652E562E472E382E292E89
:102BF000BBA9BF5FBBABA0E00E94E62249F6AEA92D
:102C0000BFA9FBA9AF0FB11D1C928F2F8695B9F0FC
:102C1000EEA9FFA9BD01AF014F5F5F4F8150480F83
:102C2000511D8191DB019E91BD019F012150310910
:102C3000D9019C93DB018C934E175F0791F7998123
:102C4000992359F0FE0132968091C80085FFFCCF90
:102C50009093CE0091919111F7CFE7960FB6F8942B
:102C6000DEBF0FBECDBFDF91CF911F910F91FF90BF
:102C7000EF90DF90CF90BF90AF909F908F907F901C
:102C80006F905F904F903F902F9008958DE28983D1
:102C9000832D0E947122922E832E742E652E562E25
:102CA000472E382E292ECE0102969FAB8EAB6FCFCA
:102CB00080E389831A8290E3C5CF90938201809349
:102CC000810108958091800108951F920F920FB69F
:102CD0000F9211242F933F934F935F936F937F93A2
:102CE0008F939F93AF93BF93EF93FF93F89480914B
:102CF000C800609183018091CE00E62FF0E0EC5790
:102D0000FE4F80836F5F60938301613069F16230B1
:102D1000F9F0623028F1809184018B3169F1809162
:102D20008501823049F11092830110928001FF9158
:102D3000EF91BF91AF919F918F917F916F915F9133
:102D40004F913F912F910F900FBE0F901F901895AC
:102D500060918501623039F7809184018B3191F166
:102D600081E08093800106C0809184018B31D9F687
:102D7000609380017894DBCF6F3FA9F281E080936C
:102D80008001862F90E08C579E4FFC013297208166
:102D90002B3181F7FC01319730813230F1F001970E
:102DA000FC018081833031F7E0918101F091820153
:102DB000309701F384E891E0099510928301109215
:102DC0008001D8CF81E08093800186E891E001976F
:102DD000FC018081833071F6E7CF2093840130932A
:102DE000850130938301C6CF6A9A3F9A5798729AA9
:102DF0000895CF93DF9300D000D0CDB7DEB772989F
:102E00008FE99FE00197F1F700C0000020E087E024
:102E100090E061E070E04798AFE9BFE01197F1F70B
:102E200000C000004F9B07C0AB01082E01C0440F3B
:102E30000A94EAF7242B479AEFE9FFE03197F1F77C
:102E400000C00000019738F730E0322F222740E021
:102E500087E090E0E1E0F0E04798AFE9BFE011974C
:102E6000F1F700C000004F9B07C0BF01082E01C052
:102E7000660F0A94EAF7462B479AAFE9BFE011972D
:102E8000F1F700C00000019738F7242B729A22FD59
:102E90002FC0C901969587959695879596958795A4
:102EA0009C0150E040E029833A834B835C83CA0154
:102EB000B9010E94052420E030E040E85EE3698328
:102EC0007A838B839C8369817A818B819C810E9428
:102ED000BC2469837A838B839C8369817A818B810B
:102EE0009C810F900F900F900F90DF91CF910895DC
:102EF00060E070E088EC92ECECCFCF93DF9300D0F1
:102F000000D0CDB7DEB70E94F91620E030E040E1F6
:102F100051E469837A838B839C8369817A818B8175
:102F20009C810E94BC2420E030E040EA50E46983A8
:102F30007A838B839C8369817A818B819C810E94B7
:102F4000642320E030E040E052E469837A838B839D
:102F50009C8369817A818B819C810E94F3226983A1
:102F60007A838B839C8369817A818B819C810F908A
:102F70000F900F900F90DF91CF91089589B18295B6
:102F80008695877091E08927817090E00895CF93AE
:102F9000DF9300D000D0CDB7DEB74D99FECF5D9A5C
:102FA00025E02A95F1F700005E9835E03A95F1F7B3
:102FB00000004D99FECF28E180E090E0DC015E9AB0
:102FC00045E04A95F1F70000880F991FAA1FBB1F23
:102FD0005E9855E05A95F1F700004D9B03C00196AD
:102FE000A11DB11D215059F726E0B695A7959795DB
:102FF00087952A95D1F75E9A65E06A95F1F700000A
:103000005E9825E02A95F1F700009C01AD0140583B
:10301000CA01B9010F900F900F900F90DF91CF91DF
:103020000895803439F0803889F0803249F05E9814
:103030000C94C71783E080938B025E980C94C7179B
:1030400082E080938B025E980C94C71781E0809396
:103050008B025E980C94C717569A55985D9A8034E7
:1030600039F0803889F0803249F05E980C94C717A7
:1030700083E080938B025E980C94C71782E0809364
:103080008B025E980C94C71781E080938B025E9848
:103090000C94C7178F929F92AF92BF92CF92DF92FC
:1030A000EF92FF92CF93DF9300D000D000D0CDB746
:1030B000DEB78E83882E912CB12CA12C882349F168
:1030C0001D82C12CD12C76010E94C717C60ED71EB7
:1030D000E81EF91E8D818F5F8D839E819813F4CF3A
:1030E000C701B601A50194010E94A521B901CA0139
:1030F00026960FB6F894DEBF0FBECDBFDF91CF91FD
:10310000FF90EF90DF90CF90BF90AF909F908F9007
:10311000089560E070E080E090E0EACF8F929F92A7
:10312000AF92BF92CF92DF92EF92FF92CF93DF9355
:1031300000D000D000D0CDB7DEB78E83882E912C82
:10314000B12CA12C882309F449C01D82C12CD12C9B
:1031500076010E94C717C60ED71EE81EF91E8D8184
:103160008F5F8D839E819813F4CFC701B601A501AF
:1031700094010E94A52129833A834B835C83CA0171
:10318000B9010E9405242091870230918802409164
:10319000890250918A0269837A838B839C83698137
:1031A0007A818B819C810E94F22269837A838B834E
:1031B0009C8369817A818B819C8126960FB6F894D5
:1031C000DEBF0FBECDBFDF91CF91FF90EF90DF90BC
:1031D000CF90BF90AF909F908F90089560E070E087
:1031E00080E090E0D0CF8F929F92AF92BF92CF922B
:1031F000DF92EF92FF92CF93DF9300D000D000D008
:10320000CDB7DEB78E83882E912CB12CA12C8823CC
:1032100009F45BC01D82C12CD12C76010E94C71716
:10322000C60ED71EE81EF91E8D818F5F8D839E818D
:103230009813F4CFC701B601A50194010E94A521FE
:1032400029833A834B835C83CA01B9010E94052418
:1032500020918702309188024091890250918A0220
:1032600069837A838B839C8369817A818B819C813A
:103270000E94F222209183023091840240918502C3
:103280005091860269837A838B839C8369817A81DA
:103290008B819C810E94642369837A838B839C83C6
:1032A00069817A818B819C8126960FB6F894DEBF66
:1032B0000FBECDBFDF91CF91FF90EF90DF90CF9009
:1032C000BF90AF909F908F90089560E070E080E095
:1032D00090E0BECF8F929F92AF92BF92CF92DF923B
:1032E000EF92FF92CF93DF9300D000D000D0CDB704
:1032F000DEB78E83882E912CB12CA12C8823E1F18E
:103300001D82C12CD12C76010E94C717C60ED71E74
:10331000E81EF91E8D818F5F8D839E819813F4CFF7
:10332000C701B601A50194010E94A52129833A8312
:103330004B835C83CA01B9010E940524362F272FD5
:10334000432F522FBC014093870250938802609311
:10335000890270938A0226960FB6F894DEBF0FBEDC
:10336000CDBFDF91CF91FF90EF90DF90CF90BF90D6
:10337000AF909F908F90089530E020E080E090E043
:10338000DFCF6093830270938402809385029093D1
:1033900086020895CF93DF9300D000D0CDB7DEB77B
:1033A0008091830290918402A0918502B09186025F
:1033B000BC01CD010F900F900F900F90DF91CF9136
:1033C0000895609387027093880280938902909396
:1033D0008A020895CF93DF9300D000D0CDB7DEB737
:1033E0008091870290918802A0918902B0918A020F
:1033F000BC01CD010F900F900F900F90DF91CF91F6
:1034000008955E985E9A87E191E00197F1F700C018
:10341000000008955E98089547E050E080E05E9ACD
:1034200029B12072042E01C0220F0A94EAF7822BE0
:103430005E984150510998F70895F8943E9A46983D
:10344000E4E9F0E011821082109299001092980045
:1034500010929B0010929A0010929D0010929C0076
:1034600081E88093900089E080939100118210821E
:1034700078940895809398000895F894279AA4E882
:10348000B0E011961C921E92E8E8F0E011821082E2
:1034900010928B0010928A0010928D0010928C0076
:1034A00089E08093810082E080936F0011961C92E6
:1034B0001E9280E89EE3918380831092A90210926D
:1034C000AA021092AB021092AC021092A5021092C6
:1034D000A6021092A7021092A80278940895CF92A3
:1034E000DF92EF92FF92CF93DF9300D000D0CDB761
:1034F000DEB76B017C01F894C114D104E104F1043E
:1035000009F51092A9021092AA021092AB02109231
:10351000AC021092A5021092A6021092A70210927D
:10352000A80210928500109284002F9878940F9032
:103530000F900F900F90DF91CF91FF90EF90DF9061
:10354000CF90089524E1C216D104E104F104E8F11A
:10355000ACE3B0E0AC019B010E94D62169837A8381
:103560008B839C8324E630E040E050E00E94A5215C
:10357000265F3F4F4F4F5F4F2093A9023093AA021F
:103580004093AB025093AC0210928D0210928C02C9
:103590001092A5021092A6021092A7021092A80201
:1035A000109285001092840034E6C316D104E10421
:1035B000F10408F4BACF1092A9021092AA02109254
:1035C000AB021092AC022F9AB1CF81E090E09093C1
:1035D0008D0280938C02AAE8B2E0A7019B010E94B1
:1035E000D62169837A838B839C8324E630E040E094
:1035F00050E00E94A5212E5C3F4FC901B0E0A0E041
:103600004091A9025091AA026091AB027091AC0264
:1036100084179507A607B70759F02F9A3FEF43ED98
:1036200020E3315040402040E1F700C000002F98D7
:103630008093A9029093AA02A093AB02B093AC022C
:103640001092A5021092A6021092A7021092A80250
:10365000109285001092840068CFF894549A1092CA
:10366000A1021092A2021092A3021092A402109240
:103670009D0210929E0210929F021092A0027894D6
:103680000895F8946093A1027093A2028093A3021C
:103690009093A40210929D0210929E0210929F029B
:1036A0001092A00210928500109284005C98789489
:1036B0000895609190027091910280919202909190
:1036C00093022091940220919502209196022091DC
:1036D0009702089510929002109291021092920215
:1036E00010929302109294021092950210929602F8
:1036F000109297020895089508954091A90250915B
:10370000AA026091AB027091AC02411551056105AE
:10371000710509F44AC08091A5029091A602A0917A
:10372000A702B091A8020196A11DB11D20918C02A3
:1037300030918D02232B09F120918E0230918F025E
:103740008093A5029093A602A093A702B093A8022B
:10375000232B61F1481759076A077B0730F5109250
:103760008F0210928E022F981092A5021092A6023C
:103770001092A7021092A80208958093A502909338
:10378000A602A093A702B093A802481759076A0798
:103790007B0758F485B1805885B91092A502109224
:1037A000A6021092A7021092A80208958D3B9240A3
:1037B000A105B105D0F381E090E090938F02809352
:1037C0008E022F9A1092A5021092A6021092A702C2
:1037D0001092A80208954091A1025091A202609116
:1037E000A3027091A402411551056105710521F1F3
:1037F00080919D0290919E02A0919F02B091A002A3
:103800000196A11DB11D80939D0290939E02A093ED
:103810009F02B093A002481759076A077B0760F41C
:103820008BB190E189278BB910929D0210929E0274
:1038300010929F021092A00208951F920F920FB64D
:103840000F9211242F933F934F935F936F937F9326
:103850008F939F93AF93BF93EF93FF932091900229
:1038600030919102409192025091930260919402A2
:10387000709195028091960290919702A1E00E942A
:10388000D122209390023093910240939202509360
:1038900093026093940270939502809396029093A2
:1038A00097020E947D1B0E94EB1BFF91EF91BF913D
:1038B000AF919F918F917F916F915F914F913F91C8
:1038C0002F910F900FBE0F901F9018952F923F923F
:1038D0004F925F926F927F928F929F92AF92BF9220
:1038E000CF92DF92EF92FF920F931F93CF93DF93CC
:1038F000CDB7DEB7AB970FB6F894DEBF0FBECDBF26
:10390000382E292E79834A83422E0E871F87E8A2FC
:10391000F9A2CAA2DBA22FB72CA38E859F85892B83
:1039200009F453C1188A198A1A8A1B8A1C8A1D8AAB
:103930001E8A1F8A19A6542C432C322C262E852E23
:10394000942E7F83252D492D582D622D7F81842D26
:10395000932D0E947C20813009F480C100EF252D39
:10396000492D582D622D7F81842D932D0E94EA20B0
:10397000188E198E1A8E1B8E1C8E1D8E1E8E1F8EFB
:10398000E1E0E9831A821B821C821D821E82612C67
:10399000712C882D8F803BA6372C792C922C242CCF
:1039A000462C682E252D472D562D692D782D822DDC
:1039B0009BA50E942C218F83252D472D562D692DE7
:1039C000782D822D9BA50E942C21182F110FBF81CD
:1039D0001B2B13300CF052C011160CF470C01111D7
:1039E0006FC029813A814B815C816D817E81842DFC
:1039F000932D01E00E94B8222F83388749875A8788
:103A00006B877C878D879AA72981388923232DA3EB
:103A10008A81998989238EA3AB81BA89AB23AFA30D
:103A2000EC81FB89EF23E8A7BD812C89B223AE810D
:103A30003D89A323FE89F421EF89E3212F81388575
:103A40008D859AA5A888B988CA88DB88EC88FD8806
:103A50000E891F890E94DD2211F008F089C011E053
:103A60002DA13EA14FA158A56B2F7A2F8F2F9E2FEE
:103A7000A0E00E94E622B9F110E035C0133001F554
:103A8000EE85FF851082FCA1FFBF81E0AB960FB6EB
:103A9000F894DEBF0FBECDBFDF91CF911F910F9184
:103AA000FF90EF90DF90CF90BF90AF909F908F905E
:103AB0007F906F905F904F903F902F90089511707E
:103AC00029813A814B815C816D817E81842D932D8A
:103AD00001E00E94B8222F83388749875A876B8775
:103AE0007C878D879AA7012F252D472D562D692D6F
:103AF000782D822D9BA50E94B7201123F1F0288DEF
:103B00003981232B288F898D9A81892B898FAA8DC2
:103B1000BB81AB2BAA8FEB8DFC81EF2BEB8F2C8D18
:103B20003D81232B2C8F8D8D9E81892B8D8FAE8D8A
:103B3000A429AE8FBF8DB329BF8F2F8138854985CA
:103B40005A856B857C858D859AA5A0E00E94E6222A
:103B5000F1F1FF81F98328852A8339853B838A85A2
:103B60008C839B859D83AC85AE834D843AA41ACF0C
:103B700011E02DA13EA14FA158A56B2F7A2F8F2FB9
:103B80009E2FA0E00E94E62209F410E08889998126
:103B90008927888BA989BA81AB27A98BEA89FB8100
:103BA000EF27EA8B2B893C8123272B8B8C899D81E6
:103BB00089278C8BAD89BE81AB27AD8BEE89E4253F
:103BC000EE8BFF89F325FF8B8ECF84E05FCF422CF5
:103BD0003BA4292C8F824301E8A1F9A1EF2B51F1DD
:103BE00029A5E22FF0E0CF010196880F991F880FD9
:103BF000991F880F991FAAA1BBA1A817B907D0F0D8
:103C0000EE0FFF1FEE0FFF1FEE0FFF1F28A139A1C0
:103C1000E20FF31F388D3083898D81839A8D9283D3
:103C2000AB8DA383BC8DB4832D8D25833E8D3683D0
:103C30008F8D8783E9A5EF5F99A59F3F09F420CF7A
:103C4000288939894A895B896C897D898E899F8910
:103C5000A0E00E94E62241F0E9A774CEAE85BF85C0
:103C60001C92BCA1BFBF12CFAE85BF85EC93BCA197
:103C7000BFBF80E00BCFCF93DF938EED0E943A124F
:103C800080E00E948F120E9487128FED0E943A12EC
:103C900080E00E948F120E94A112C82F0E948712FA
:103CA0008EED0E943A1280E00E948F128C2F806865
:103CB0000E948F120E948712DFEF08C08FE99FE0F9
:103CC0000197F1F700C00000D150B1F08EED0E94D5
:103CD0003A1283E00E948F120E9487128FED0E9499
:103CE0003A1283E00E948F120E94A112C82F0E94F4
:103CF0008712C5FFE3CFD1E08D2FDF91CF910895DB
:103D0000CF930E943B1E8EED0E943A1283E00E94E8
:103D10008F120E9487128FED0E943A1283E00E9458
:103D20008F120E94A112C82F0E9487128EED0E944E
:103D30003A1283E00E948F128C2F88600E948F12AB
:103D40000E94871281E090E09093AE028093AD02D2
:103D5000CF910895CF93DF938EED0E943A1280E0C9
:103D60000E948F120E9487128FED0E943A1280E00B
:103D70000E948F120E94A112C82F0E9487128EEDFE
:103D80000E943A1280E00E948F128C2F8F770E943F
:103D90008F120E948712DFEF08C08FE99FE0019722
:103DA000F1F700C00000D150D1F08EED0E943A1220
:103DB00083E00E948F120E9487128FED0E943A12B8
:103DC00083E00E948F120E94A112C82F0E948712C6
:103DD0008C2F8072C5FDE1CFDF91CF91089581E0F6
:103DE000DF91CF9108956F927F928F929F92AF92C1
:103DF000BF92CF92DF92EF92FF920F931F93CF93D8
:103E0000DF933C014B015A016901E8018091AD0249
:103E10009091AE02892BD9F4F3011082FB0110823C
:103E2000FA011082F90110821882F70111821082C2
:103E3000DF91CF911F910F91FF90EF90DF90CF9086
:103E4000BF90AF909F908F907F906F9008958EED70
:103E50000E943A1280E00E948F120E948712FFEFA8
:103E600024E38CE0F15020408040E1F700C00000E6
:103E70008FED0E943A120E94A112982F282F2295AE
:103E80002770822F880F880F820F880F9F70890FED
:103E9000F30180830E94A112982F282F229527706A
:103EA000822F880F880F820F880F9F70890FF4016F
:103EB00080830E94A112982F282F22952370822F91
:103EC000880F880F820F880F9F70890FF5018083FC
:103ED0000E94A1120E94A112982F282F22952370D0
:103EE000822F880F880F820F880F9F70890FF6012D
:103EF00080830E94A112982F84FB222720F9822F11
:103F0000880F880F820F880F9F70890F88830E9407
:103F1000AB12982F282F22952F70822F880F880F91
:103F2000820F880F9F70890F90E08053984FF701A0
:103F3000918380830E948712FFEF24E38CE0F1508D
:103F400020408040E1F700C0000072CFDF92EF9286
:103F5000FF920F931F93CF93DF93D82EF62E142F3B
:103F6000D22F8091AD029091AE02892B41F4DF9166
:103F7000CF911F910F91FF90EF90DF9008950E94D5
:103F8000AA1ECDECDC9E912D1124292F2695269575
:103F90002695822F8295807F922F990F990F920FED
:103FA000990FD91AD80E8EED0E943A1280E00E9425
:103FB0008F128D2D0E948F120E948712FC9E912DD0
:103FC0001124292F269526952695622F6295607FCC
:103FD000922F990F990F920F990FF91AF60E8EEDF5
:103FE0000E943A1281E00E948F128F2D0E948F1240
:103FF0000E9487121C9F912D1124292F269526950A
:104000002695422F4295407F922F990F990F920F3C
:10401000990F191B140F8EED0E943A1282E00E9434
:104020008F12812F0E948F120E948712DC9F912D88
:104030001124392F369536953695232F2295207FDA
:10404000932F990F990F930F990FD91BD20F8EEDC4
:104050000E943A1284E00E948F128D2F0E948F12CC
:104060000E9487120C9F912D1124292F26952695A9
:104070002695822F8295807F922F990F990F920F0C
:10408000990F091B080F8EED0E943A1285E00E94DD
:104090008F12802F0E948F120E94871280E3E80EF9
:1040A000EC9EC12D1124C695C695C6958C2F829580
:1040B000807F9C2F990F990FC90FCC0FEC1AE80E37
:1040C0008EED0E943A1286E00E948F128E2D0E9481
:1040D0008F120E948712DF91CF911F910F91FF9055
:1040E000EF90DF900C943B1EF999FECF0C94302595
:1040F000F999FECF0C943625CF93DF93DC01FB01B9
:10410000EA014FB78C91822B8C938081822B808324
:104110009C91322F309593239C938FE599E00197E2
:10412000F1F700C0000080818323808387E191E064
:104130000197F1F700C000008881CFE1D3E021971B
:10414000F1F700C000009C91922B9C939081922BE0
:104150009083EFE5F9E03197F1F700C000004FBF21
:10416000282381E009F480E0DF91CF9108950F9337
:10417000FC01DB019FB78081822B80838C91822B95
:104180008C933081822F8095832380830023A1F03C
:104190008AE28A95F1F700C08081282B2083AFE363
:1041A000B1E01197F1F700C000009FBF81E001115D
:1041B00001C080E00F910895AFE3B1E01197F1F7EE
:1041C00000C000008081282B2083BAE0BA95F1F767
:1041D00000C0EBCF0F93CF93DF93FC01DB017FB7E0
:1041E000622F609548E050E091E012C08AE28A9523
:1041F000F1F700C08081822B8083CFE3D1E021974B
:10420000F1F700C000003FBF990F41505109F9F08C
:104210003FB78081822B80838C91822B8C9380810D
:1042200086238083802F892309F7CFE3D1E021976C
:10423000F1F700C000008081822B8083DAE0DA95FC
:10424000F1F700C03FBF990F4150510909F77FBFF7
:10425000DF91CF910F910895CF93DF93DC01FB01A4
:10426000EA014FB78C91822B8C938081822B8083C3
:104270009C91322F309593239C938AE08A95F1F795
:1042800000C0808183238083EAE1EA95F1F700C0D2
:104290008881EFEEF0E03197F1F700C000004FBFEA
:1042A000282381E009F480E0DF91CF910895CF9237
:1042B000DF92EF92FF920F931F93CF93DF93DC0176
:1042C000FB016A010FB7122F109568E070E031E032
:1042D00080E04FB79C91922B9C939081922B90837E
:1042E0009C9191239C939AE09A95F1F700C090815C
:1042F00091239083CAE1CA95F1F700C0E601988145
:10430000CFEED0E02197F1F700C000004FBF92231D
:1043100041E050E009F440E0349F7001359FF00C1B
:1043200011248E29330F6150710999F60FBFDF9167
:10433000CF911F910F91FF90EF90DF90CF90089554
:104340000E94FE0F0E948E10FFCFA1E21A2EAA1B20
:10435000BB1BFD010DC0AA1FBB1FEE1FFF1FA21735
:10436000B307E407F50720F0A21BB30BE40BF50B32
:10437000661F771F881F991F1A9469F760957095BB
:10438000809590959B01AC01BD01CF010895A29F3E
:10439000B001B39FC001A39F700D811D1124911D19
:1043A000B29F700D811D1124911D08950E94C72197
:1043B000A59F900DB49F900DA49F800D911D112479
:1043C0000895689401C0E894F92FF12B12F00C9431
:1043D0001522A0E0B0E0EFEEF1E20C948722092E66
:1043E000059422F40E947122112392F4F0E80F2622
:1043F000FFEFE094F09400951095B094C094D094A1
:10440000A194BF0ACF0ADF0AEF0AFF0A0F0B1F0BA6
:104410000E94202207FC0E947122CDB7DEB7ECE09B
:104420000C94A322689401C0E8948F929F92CF933A
:10443000DF930E942022DF91CF919F908F9008956B
:1044400088249924F401E401B0E49F93AA279A15E3
:104450008B049C04ED05FE05CF05D007A10798F459
:10446000AD2FDC2FCF2FFE2FE92D982C892E982FE2
:10447000872F762F652F542F432F322F2227B850A6
:1044800031F7BF9127C01B2EBF91BB27220F331FCF
:10449000441F551F661F771F881F991F881C991C72
:1044A000EE1FFF1FCC1FDD1FAA1FBB1F8A149B041A
:1044B000EC05FD05CE05DF05A007B10748F08A1819
:1044C0009B08EC09FD09CE09DF09A00BB10B2160A7
:1044D0001A94E1F62EF49401AF01BE01CD01000C57
:1044E000089560957095809590953095409550957C
:1044F00021953F4F4F4F5F4F6F4F7F4F8F4F9F4FD4
:1045000008952F923F924F925F926F927F928F9277
:104510009F92AF92BF92CF92DF92EF92FF920F9352
:104520001F93CF93DF93CDB7DEB7CA1BDB0B0FB65C
:10453000F894DEBF0FBECDBF09942A883988488819
:104540005F846E847D848C849B84AA84B984C884AF
:10455000DF80EE80FD800C811B81AA81B981CE0FA6
:10456000D11D0FB6F894DEBF0FBECDBFED0108958B
:10457000002E083090F0982F872F762F652F542F1C
:10458000432F322F22270850F4CF220F331F441F0E
:10459000551F661F771F881F991F0A95B2F7002DB8
:1045A00008950024A7FD00942A0F301D401D501DC2
:1045B000601D701D801D901D08952A153B054C053A
:1045C0005D056E057F058007910708950024A7FD0E
:1045D00000942A17300540055005600570058005D8
:1045E000900508955058BB27AA270E940A230C94CF
:1045F0007D240E946F2438F00E94762420F039F444
:104600009F3F19F426F40C946C240EF4E095E7FB1C
:104610000C946624E92F0E948E2458F3BA1762077F
:1046200073078407950720F079F4A6F50C94B0245D
:104630000EF4E0950B2EBA2FA02D0B01B9019001BD
:104640000C01CA01A0011124FF27591B99F0593F01
:1046500050F4503E68F11A16F040A22F232F342F49
:104660004427585FF3CF469537952795A795F04097
:104670005395C9F77EF41F16BA0B620B730B840BAC
:10468000BAF09150A1F0FF0FBB1F661F771F881F64
:10469000C2F70EC0BA0F621F731F841F48F48795BC
:1046A00077956795B795F7959E3F08F0B0CF9395AE
:1046B000880F08F09927EE0F9795879508950E9427
:1046C000422408F481E008950E9478230C947D240C
:1046D0000E94762458F00E946F2440F029F45F3F36
:1046E00029F00C94662451110C94B1240C946C2480
:1046F0000E948E2468F39923B1F3552391F3951BFF
:10470000550BBB27AA2762177307840738F09F5FF2
:104710005F4F220F331F441FAA1FA9F335D00E2E5F
:104720003AF0E0E832D091505040E695001CCAF7CC
:104730002BD0FE2F29D0660F771F881FBB1F26178F
:1047400037074807AB07B0E809F0BB0B802DBF0166
:10475000FF2793585F4F3AF09E3F510578F00C9435
:1047600066240C94B1245F3FE4F3983ED4F386951D
:1047700077956795B795F7959F5FC9F7880F911D56
:104780009695879597F90895E1E0660F771F881F42
:10479000BB1F621773078407BA0720F0621B730BF5
:1047A000840BBA0BEE1F88F7E09508950E949624BB
:1047B00088F09F5798F0B92F9927B751B0F0E1F0E2
:1047C000660F771F881F991F1AF0BA95C9F714C092
:1047D000B13091F00E94B024B1E008950C94B0245F
:1047E000672F782F8827B85F39F0B93FCCF38695CB
:1047F00077956795B395D9F73EF490958095709528
:1048000061957F4F8F4F9F4F0895E89409C097FBA4
:104810003EF490958095709561957F4F8F4F9F4F97
:104820009923A9F0F92F96E9BB279395F6958795DB
:1048300077956795B795F111F8CFFAF4BB0F11F49E
:1048400060FF1BC06F5F7F4F8F4F9F4F16C0882345
:1048500011F096E911C0772321F09EE8872F762F7B
:1048600005C0662371F096E8862F70E060E02AF0BC
:104870009A95660F771F881FDAF7880F96958795A8
:1048800097F90895990F0008550FAA0BE0E8FEEF7D
:1048900016161706E807F907C0F012161306E40704
:1048A000F50798F0621B730B840B950B39F40A26FD
:1048B00061F0232B242B252B21F408950A2609F4DB
:1048C000A140A6958FEF811D811D089597F99F67DF
:1048D00080E870E060E008959FEF80EC0895002488
:1048E0000A941616170618060906089500240A9455
:1048F00012161306140605060895092E0394000CDB
:1049000011F4882352F0BB0F40F4BF2B11F460FF69
:1049100004C06F5F7F4F8F4F9F4F089557FD905892
:10492000440F551F59F05F3F71F04795880F97FB73
:10493000991F61F09F3F79F087950895121613062D
:104940001406551FF2CF4695F1DF08C0161617065C
:104950001806991FF1CF8695710561050894089591
:10496000E894BB2766277727CB0197F908950E9423
:10497000422408F48FEF08950E94CF240C947D24E4
:104980000E946F2438F00E94762420F0952311F0C5
:104990000C9466240C946C2411240C94B1240E9471
:1049A0008E2470F3959FC1F3950F50E0551F629FC1
:1049B000F001729FBB27F00DB11D639FAA27F00D78
:1049C000B11DAA1F649F6627B00DA11D661F829F9F
:1049D0002227B00DA11D621F739FB00DA11D621F84
:1049E000839FA00D611D221F749F3327A00D611DA1
:1049F000231F849F600D211D822F762F6A2F112483
:104A00009F5750409AF0F1F088234AF0EE0FFF1FB5
:104A1000BB1F661F771F881F91505040A9F79E3F0C
:104A2000510580F00C9466240C94B1245F3FE4F3AC
:104A3000983ED4F3869577956795B795F795E79562
:104A40009F5FC1F7FE2B880F911D9695879597F96B
:104A50000895FB01DC0101900D920020E1F708951B
:104A6000A8E1B0E042E050E00C943D250E944B25C7
:104A7000272F0C944C25DC01CB01FC01F999FECFCA
:104A800006C0F2BDE1BDF89A319600B40D924150D6
:104A90005040B8F70895262FF999FECF1FBA92BD5E
:104AA00081BD20BD0FB6F894FA9AF99A0FBE01960F
:064AB0000895F894FFCF09
:104AB600414243444546FF000080BF000080BF1BC3
:104AC60002676500001B031B0273730000000000F1
:104AD600001B031B027374000000000000001B0390
:104AE6001B026565001B030005000607000801029E
:104AF600010407630D0203020407E008030403042C
:104B0600079B0B04050400070A0A05010500079B1D
:104B1600070600060007820707000700076A081B4A
:064B26000270701B030089
:00000001FF
