:100000000C9456000C9473000C9473000C947300C1
:100010000C9473000C9473000C9473000C94730094
:100020000C9473000C9473000C9473000C94730084
:100030000C9473000C9473000C9473000C94730074
:100040000C9473000C94E71B0C9473000C947300D5
:100050000C9473000C9473000C9473000C94730054
:100060000C9473000C9499160C9473000C94730008
:100070000C9473000C9473000C9473000C94730034
:100080000C9473000C9473000C9473000C94730024
:100090000C9473000C9473000C9473000C94730014
:1000A0000C9473000C9473000C94730011241FBE05
:1000B000CFEFDAE0DEBFCDBF11E0A0E0B1E0E4E1D8
:1000C000F4E402C005900D92A437B107D9F722E0FD
:1000D000A4E7B1E001C01D92AC3AB207E1F70E947B
:1000E000711E0C9408220C9400002F923F924F92A4
:1000F0005F927F928F929F92AF92BF92CF92DF9248
:10010000EF92FF920F931F93CF93DF9300D000D015
:1001100000D0CDB7DEB72D833E83942E852E562E8C
:10012000472E382E292E0B831C83A0E00E94951F9A
:100130000CF46CC0712C4B815C81470D511D5A83AE
:1001400049838AE0A82EB12CC12CD12CE12CF12CB2
:1001500000E010E02D813E81492D582D652D742D34
:10016000832D922D0E94B21E205DA981BA812C930D
:100170002D813E81492D582D652D742D832D922D75
:100180000E94B41E2D833E83942E852E562E472E1C
:10019000382E292E7394A0E00E94951F61F6AB8142
:1001A000BC81A70DB11D1C92872D8695B9F0EB81FE
:1001B000FC81BD019F012F5F3F4F8150280F311DF2
:1001C0008191DB019E91BD018F0101501109D80180
:1001D0009C93DB018C932E173F0791F726960FB661
:1001E000F894DEBF0FBECDBFDF91CF911F910F916D
:1001F000FF90EF90DF90CF90BF90AF909F908F9047
:100200007F905F904F903F902F900895EB81FC81FD
:100210008DE28193832D0E94421F2D833E83942E75
:10022000852E562E472E382E292EFC83EB8382CF27
:100230000C945E12F8940E94861278940895CF93DD
:10024000DF9300D000D00F92CDB7DEB790E3998353
:1002500098E79A83E82FE295EF70803AF8F0EA5039
:10026000F0E0E050FF4F90819B838F708A30D8F090
:100270008A50E82FF0E0E050FF4F80818C831D8290
:10028000F894CE0101960E94861278940F900F90F8
:100290000F900F900F90DF91CF910895E05DEB8369
:1002A0008F708A3028F7805D8C83E9CF9F92AF9260
:1002B000BF92CF92DF92EF92FF920F931F93CF9353
:1002C000DF93CDB7DEB72F970FB6F894DEBF0FBE22
:1002D000CDBFF82FE92FA0E00E94951FF9F0CE01C5
:1002E00001965C018C018F2F9E2F0E947500F8945F
:1002F000C5010E94861278942F960FB6F894DEBF3F
:100300000FBECDBFDF91CF911F910F91FF90EF9066
:10031000DF90CF90BF90AF909F90089580E3898346
:100320001A82CE0101965C01E2CFDB0190E39C933F
:1003300098E711969C931197E82FE295EF70803A19
:10034000B8F0EA50F0E0E050FF4F908112969C9395
:1003500012978F708A3098F08A50E82FF0E0E050C2
:10036000FF4F808113968C93139714961C920895D7
:10037000E05D1296EC9312978F708A3068F7805D7B
:1003800013968C93139714961C9208957F928F92D4
:100390009F92AF92BF92CF92DF92EF92FF920F9314
:1003A0001F93CF93DF93CDB7DEB7CE50D1400FB6BA
:1003B000F894DEBF0FBECDBFCE01825E9E4FFC0122
:1003C000619171916F018D5191400E94D821998165
:1003D000992309F446C09E012F5F3F4F79015E01CA
:1003E000B39480E3982E07C07F018FEFE81AF80AD4
:1003F0009181992371F1F7019532B1F71082E216DC
:10040000F30629F0F894C9010E9486127894F70146
:100410008181843609F453C0833709F445C082369C
:10042000A9F1BE01665F7E4F0E949501F894CE014E
:10043000865F9E4F0E9486127894F701319697014D
:100440002E5F3F4F7F018FEFE81AF80A91819111DB
:10045000D2CF2E153F0529F0F894C9010E948612CB
:100460007894C25FDE4F0FB6F894DEBF0FBECDBFEB
:10047000DF91CF911F910F91FF90EF90DF90CF9080
:10048000BF90AF909F908F907F900895F601B50137
:100490008081F2E0CF0ED11C0E949501F894C50135
:1004A0000E9486127894C9CFF60180819181F2E092
:1004B000CF0ED11CF8940E9486127894BECFF6011C
:1004C000B08122E0C20ED11CF181EF2FEE0FEE0BB6
:1004D0002B2F3F2F4E2F5E2F6E2F7E2F8E2F9E2F76
:1004E000A0E07A2C8B2C0E94951F51F085010E9470
:1004F0007500F894872D982D0E94861278949DCFD0
:10050000F50190821182F5CFAF92BF92DF92EF9208
:10051000FF920F931F93CF93DF93A0E00E94951F4C
:1005200061F00E947500DF91CF911F910F91FF90B4
:10053000EF90DF90BF90AF90089580E3F801808343
:100540001182F1CF61E070E080E090E00C94FF1A3E
:1005500060E070E0CB010C94FF1A2FB130E0A901EC
:1005600002C0559547958A95E2F7CA018095909506
:10057000817008951F93CF93DF93CDB7DEB72D978A
:100580000FB6F894DEBF0FBECDBF182F86E0E3E6AE
:10059000F1E0DE01189601900D928A95E1F706C010
:1005A0008FE99FE00197F1F700C000000E949616C6
:1005B0008111F6CF66E070E0CE0108960E94BA1570
:1005C0008BE1898392E09A8392E79B839EE69C83EA
:1005D0001D838E8383E08F8306C08FE99FE00197A0
:1005E000F1F700C000000E9496168111F6CF67E077
:1005F00070E0CE0101960E94BA1582E78B8706C093
:100600008FE99FE00197F1F700C000000E94961665
:100610008111F6CF66E070E0CE0108960E94BA150F
:100620002D960FB6F894DEBF0FBECDBFDF91CF91F0
:100630001F9108951F93CF93DF93CDB7DEB72D970A
:100640000FB6F894DEBF0FBECDBF182F86E0E3E6ED
:10065000F1E0DE01189601900D928A95E1F706C04F
:100660008FE99FE00197F1F700C000000E94961605
:100670008111F6CF66E070E0CE0108960E94BA15AF
:100680008BE1898392E09A8392E79B8396E69C8331
:100690001D838E8383E08F8306C08FE99FE00197DF
:1006A000F1F700C000000E9496168111F6CF67E0B6
:1006B00070E0CE0101960E94BA1582E78B8706C0D2
:1006C0008FE99FE00197F1F700C000000E949616A5
:1006D0008111F6CF66E070E0CE0108960E94BA154F
:1006E0002D960FB6F894DEBF0FBECDBFDF91CF9130
:1006F0001F91089580B38C7880BB549A5C9886E0F3
:100700000C941A033F924F925F926F927F928F9256
:100710009F92AF92BF92CF92DF92EF92FF920F9390
:100720001F93CF93DF93CDB7DEB7C85BD1090FB668
:10073000F894DEBF0FBECDBF86E0E3E6F1E0DE0158
:10074000AC55BF4F01900D928A95E1F706C08FE935
:100750009FE00197F1F700C000000E949616582E06
:100760008111F5CF66E070E0CE018C559F4F0E945D
:10077000BA1584E190E00E94691ECB54DF4F888354
:10078000C55BD040CA54DF4F9883C65BD04088E138
:1007900090E00E94691E8EE290E00E94691E4C016A
:1007A00080E990E00E94691EC954DF4F8883C75BCF
:1007B000D040C854DF4F9883C85BD0400E94D61405
:1007C00080917901813011F0109279013EE1432E40
:1007D0003324339404C04A94442009F464C00E9432
:1007E000D614B62EA72E782E692ECF54DF4F6883ED
:1007F000C15BD040CE54DF4F7883C25BD040CD5434
:10080000DF4F8883C35BD040CC54DF4F9883C45BF9
:10081000D040CF54DF4F688179818A819B81C15B51
:10082000D0400E9485207B01672BA9F2552009F456
:1008300069C0DE0111966D0110E000E005C00F5F98
:100840001F4F051508F05EC0F60181919191A191AD
:10085000B1916F01CF54DF4F88839983AA83BB8303
:10086000C15BD040BC01CD010E948520CF54DF4F39
:10087000688379838A839B83C15BD040CF54DF4FE9
:1008800028813981C15BD040E216F306C1F6E9E761
:10089000F0E0EC0FFD1FE00FF11F80818F5F808380
:1008A0004A9441109CCF552009F44BC0B1E05B162F
:1008B00009F4E5C2E9E7F0E0EC0FFD1FE50DF11DDD
:1008C0002081E9E7F0E0EC0FFD1F319681E0919186
:1008D000921708F4482E8F5F5812F9CFE42DF0E0FC
:1008E000EE0FFF1FEE0FFF1FEC0FFD1FB180A28068
:1008F0007380648080917901813009F45DC0109229
:10090000790122C0852D90E0FC01EE0FFF1FEE0F54
:10091000FF1FA1E0B0E0AC0FBD1FEA0FFB1F4B2D86
:100920005A2D672D762D4083518362837383E9E7C7
:10093000F0E0EC0FFD1F8E0F9F1FDC013C925394E3
:100940004ACF82E080937901CB54DF4FA881B981EF
:10095000C55BD040CD01B0E0A0E0CF54DF4F88832D
:100960009983AA83BB83C15BD040BC01CD010E94A7
:10097000B4209B01AC01CF54DF4FB882C15BD040A3
:10098000CE54DF4FA882C25BD040CD54DF4F788277
:10099000C35BD040CC54DF4F6882C45BD040CF549F
:1009A000DF4F688179818A819B81C15BD0400E9441
:1009B000662118160CF45FC187E00E9411148111A2
:1009C00063C180917901882309F451C1412C512CD4
:1009D000C12CD12C10E000E09201A60160917C01B5
:1009E00070917D0180917E0190917F010E940E2087
:1009F000811111C02B2D3A2D472D562D60910701E5
:100A0000709108018091090190910A010E940E20C5
:100A1000882309F426C18CE0EBE0F1E0DE01A95661
:100A2000BF4F01900D928A95E1F7CF54DF4FB88206
:100A3000C15BD040CE54DF4FA882C25BD040CD54C2
:100A4000DF4F7882C35BD040CC54DF4F6882C45BF9
:100A5000D040CF54DF4F688179818A819B81C15B0F
:100A6000D0400E948520462F572F562745275427D0
:100A7000C556DF4F59834883CB59D04010270127F3
:100A80001027C356DF4F19830883CD59D0409824CF
:100A900089249824C156DF4F99828882CF59D0404B
:100AA0006CE070E0CE0189569F4F0E94BA15DE01BE
:100AB000A655BF4F7D018E0104551F4F9E01235542
:100AC0003F4FAE0142555F4FBE0161557F4FCE0192
:100AD00080559F4F0E94E81CC155DF4F2881CF5A97
:100AE000D04080910601C255DF4F3881CE5AD040A8
:100AF000C355DF4F5881CD5AD040C455DF4F488190
:100B0000CC5AD0402813A3C1C655DF4F88819981A4
:100B1000CA5AD04060917801361709F49FC12093DA
:100B200006013093780150937701409376019093BA
:100B30007501809374016DE0E7E1F1E0DE01A956F3
:100B4000BF4F01900D926A95E1F7C456DF4F28839D
:100B5000CC59D040C356DF4F3883CD59D040C25610
:100B6000DF4F5883CE59D040C156DF4F4883CF590D
:100B7000D040982789279827C056DF4F99838883CC
:100B8000C05AD0406DE070E0CE0189569F4F0E9460
:100B9000BA15C201D60180937C0190937D01A09388
:100BA0007E01B0937F018B2D9A2DA72DB62D8093BA
:100BB000070190930801A0930901B0930A01909155
:100BC000790180917A019817D9F087E0E4E2F1E0A9
:100BD000DE01A956BF4F01900D928A95E1F7992346
:100BE00009F42EC1C556DF4F9883CB59D04067E03A
:100BF00070E0CE0189569F4F0E94BA15809179010D
:100C000080937A0182E7C955DF4F8883C75AD04065
:100C100066E070E0CE018C559F4F0E94BA15BFEF81
:100C2000E1EEF4E0B150E040F040E1F700C0000038
:100C3000C854DF4F0FB6F894DEBF0FBECDBFDF91B3
:100C4000CF911F910F91FF90EF90DF90CF90BF90C9
:100C5000AF909F908F907F906F905F904F903F905C
:100C6000089580917901882309F421CFD4CE83E0BF
:100C700080937901ABCE81E08093790187E00E9477
:100C80001114882309F49DCE87E00E9430149C0142
:100C9000C954DF4FE881F981C75BD0408E179F07A9
:100CA00008F494CEC954DF4F88819981C75BD04046
:100CB000281B390BC901B0E0A0E0CF54DF4F888377
:100CC0009983AA83BB83C15BD040B901CD010E9447
:100CD000B420E62F20E030E048EC52E4CF54DF4F60
:100CE000E883C15BD040CE54DF4F7883C25BD040F5
:100CF000CD54DF4F8883C35BD040CC54DF4F988303
:100D0000C45BD040CF54DF4F688179818A819B8159
:100D1000C15BD0400E946B217B018C01C954DF4F25
:100D2000A881B981C75BD040CD01B0E0A0E0CF542D
:100D3000DF4F88839983AA83BB83C15BD040BC010A
:100D4000CD010E94B4209B01AC0160E070EC8FE704
:100D500094E40E94A11F9B01AC01CF54DF4FE882B5
:100D6000C15BD040CE54DF4FF882C25BD040CD543F
:100D7000DF4F0883C35BD040CC54DF4F1883C45B84
:100D8000D040CF54DF4F688179818A819B81C15BDC
:100D9000D0400E941320E62F20E030E0A901CF547C
:100DA000DF4FE883C15BD040CE54DF4F7883C25B16
:100DB000D040CD54DF4F8883C35BD040CC54DF4F4D
:100DC0009883C45BD040CF54DF4F688179818A819A
:100DD0009B81C15BD0400E94A21FCF54DF4F68832C
:100DE000C15BD040CE54DF4F7883C25BD040CD543E
:100DF000DF4F8883C35BD040CC54DF4F9883C45B04
:100E0000D040CF54DF4F688179818A819B81C15B5B
:100E1000D0400E948520462F572F8A01CA01B0E09A
:100E2000A0E0CF54DF4F88839983AA83BB83C15B43
:100E3000D040BC01CD010E94B4202B016C01CCCD6F
:100E40008EE6C656DF4F8883CA59D040D0CEC655ED
:100E5000DF4F88819981CA5AD04061CE6091770175
:100E600065135DCE60917601641359CE6091740173
:100E7000709175016817790709F051CE8ACEF0E0BC
:100E8000E0E02ECDCF930E948203809179018130E2
:100E900071F0C0917B01CC2321F0C1E08C2FCF9168
:100EA000089580E00E946E1A8C2FCF910895C3E0C0
:100EB0008C2FCF9108950F931F93CF93DF93CDB7CE
:100EC000DEB72B970FB6F894DEBF0FBECDBF80E123
:100ED00090E00E94691E8C010E9482030E94281BE0
:100EE0008BE1898392E09A8393E79B8393E69C83CB
:100EF00098E09D838E8383E08F8367E070E0CE016E
:100F000001960E94BA15809179018130C1F1811159
:100F100034C090E080E00E94691E892B71F1C80105
:100F2000B0E0A0E088879987AA87BB87B801CD0188
:100F30000E94B42011E020910701309108014091F6
:100F4000090150910A01688779878A879B8768859C
:100F500079858A859B850E94662118160CF010E021
:100F600081E081272B960FB6F894DEBF0FBECDBF70
:100F7000DF91CF911F910F91089582E0F3CF83E02D
:100F8000F1CF0F931F93CF93DF93CDB7DEB72B979E
:100F90000FB6F894DEBF0FBECDBF0E9482030E9441
:100FA000281B8BE1898392E09A8393E79B8393E6E6
:100FB0009C8391E09D838E8383E08F8367E070E064
:100FC000CE0101960E94BA15809179018130F1F02D
:100FD00080917B01811115C090E080E00E94691E24
:100FE0009C0181E0232B59F42B960FB6F894DEBFB9
:100FF0000FBECDBFDF91CF911F910F91089580E07B
:10100000F3CF8FEF0E946E1A82E0EECF84E190E082
:101010000E94691E8C0188E190E00E94691E081BF5
:10102000190BC801B0E0A0E088879987AA87BB8721
:10103000B801CD010E94B420209107013091080130
:101040004091090150910A01688779878A879B87B7
:10105000688579858A859B850E940E2018160CF478
:10106000B7CF83E0C1CFFF920F931F93CF93DF934E
:10107000CDB7DEB72B970FB6F894DEBF0FBECDBF4E
:1010800082E690E00E94691EF82E84E190E00E94C2
:10109000691E8C0188E190E00E94691E081B190BF3
:1010A00070E060E090E080E00E946D1E0E94281BCE
:1010B0008BE1898392E09A8393E79B8393E69C83F9
:1010C0009AE09D838E8383E08F8367E070E0CE019A
:1010D00001960E94BA1580E00E946E1A86E00E9476
:1010E0001A038F2D90E0B0E0A0E088879987AA8747
:1010F000BB87BC01CD010E94A31A609107017091CA
:1011000008018091090190910A010E948520688759
:1011100079878A879B87A885B985A017B107A8F02A
:101120000E9482036091070170910801809109017A
:1011300090910A010E948520688779878A879B871A
:10114000888599858017910758F760E070E0CB019A
:101150000E94A31A80E02B960FB6F894DEBF0FBE54
:10116000CDBFDF91CF911F910F91FF9008954F92C6
:101170005F926F927F928F929F92AF92BF92CF9227
:10118000DF92EF92FF920F931F93CF93DF93CDB730
:10119000DEB767970FB6F894DEBF0FBECDBF80E312
:1011A00090E00E94691E8EE290E00E94691E82E635
:1011B00090E00E94691E182F80E690E00E94691E50
:1011C00080E790E00E94691E9C01A0E6BAEE0E94B2
:1011D000981E6C8B7D8B8E8B9F8B0E94171B0E94A1
:1011E000171B0E94171B6C877D878E879F878BE15B
:1011F000898392E09A8393E79B8393E69C8397E0AD
:101200009D838E8383E08F8367E070E0CE0101963B
:101210000E94BA1580E00E946E1A86E00E941A03AE
:10122000212F30E050E040E0CA01B9010E94A31A2A
:1012300084E00E94BA020E94171B688B798B8A8B0C
:101240009B8B0E94171B80E390E00E94691E5C014B
:101250008EE290E00E94691E8C0182E690E00E947E
:10126000691EF82E80E690E00E94691E982E892E55
:101270008F2D90E0B0E0A0E0BC01CD010E94A31A48
:101280000E9482030E94171B6B017C0180917901EF
:10129000813009F4B1C0260137012C853D854E858A
:1012A0005F85421A530A640A750AC801B0E0A0E0DB
:1012B00088879987AA87BB87B801CD010E94B4208F
:1012C00020917C0130917D0140917E0150917F0100
:1012D000688779878A879B87688579858A859B85D2
:1012E0000E94662187FDA0C0288939894A895B89C7
:1012F000C21AD30AE40AF50A9501A8EEB3E00E94E7
:10130000981E688779878A879B878C899D89AE8993
:10131000BF89481659066A067B0608F093C02885DF
:1013200039854A855B85C216D306E406F50608F4BE
:101330008ACF292D382DA8EEB3E00E94981E688729
:1013400079878A879B870E94171B6B017C010E940B
:10135000171B4B015C014C885D886E887F8805C037
:1013600080917901813009F447C0D501C4018C19FD
:101370009D09AE09BF09288539854A855B85821795
:101380009307A407B50708F065C080E390E00E94CA
:10139000691E8EE290E00E94691E82E690E00E9443
:1013A000691E80E690E00E94691E9C01A8EEB3E0F1
:1013B0000E94981E688779878A879B870E9482038C
:1013C0000E94171B4B015C01DC01CB012C853D8584
:1013D0004E855F85821B930BA40BB50B8415950579
:1013E000A605B70508F4BCCF84E00E941A038091DB
:1013F0007901813009F0B9CF83E067960FB6F89490
:10140000DEBF0FBECDBFDF91CF911F910F91FF9037
:10141000EF90DF90CF90BF90AF909F908F907F9094
:101420006F905F904F9008958C899D89AE89BF8998
:10143000481659066A067B0648F4C88AD98AEA8A99
:10144000FB8A01CF84E00E941A0369CF84E00E94E6
:101450001A03F3CF60E070E0CB010E94A31A8C85E1
:101460009D85AE85BF85881A990AAA0ABB0A2C8970
:101470003D894E895F8982169306A406B506A8F4B5
:10148000CC88DD88EE88FF888C849D84AE84BF8400
:101490000E94171BDC01CB0188199909AA09BB0915
:1014A0008C159D05AE05BF0598F384E00E941A03D4
:1014B00080E0A3CF2F923F924F925F926F927F92E4
:1014C0008F929F92AF92BF92CF92DF92EF92FF9254
:1014D0000F931F93CF93DF93CDB7DEB768970FB607
:1014E000F894DEBF0FBECDBF82E290E00E94691E7D
:1014F000682E80E290E00E94691E5C0184E290E028
:101500000E94691E4C0188E290E00E94691E782EBC
:101510009C878CE290E00E94691E8AE290E00E9423
:10152000691E84E690E00E94691E88E690E00E94B1
:10153000691E81E390E00E94691E8C010E94171BC6
:101540001B012C010E94171B6B017C019BE19983FD
:1015500082E08A8383E78B8383E68C8383E08D83B9
:101560009E838F8367E070E0CE0101960E94BA15DA
:1015700084E00E94BA02262D30E050E040E0CA012B
:10158000B9010E94A31AC218D308E408F50895010E
:10159000A8EEB3E00E94981EC616D706E806F90624
:1015A00008F024C200E61AEE0AC02C853D854E855F
:1015B0005F85C216D306E406F50608F084C082E211
:1015C00090E00E94691EF82E80E290E00E94691E61
:1015D0009C01A8EEB3E00E94981E6C877D878E87E1
:1015E0009F8784E290E00E94691E888B9C8B88E232
:1015F00090E00E94691E3C018CE290E00E94691E0E
:101600008AE290E00E94691E84E690E00E94691ED2
:1016100088E690E00E94691E81E390E00E94691EC6
:10162000809F4001819F900C909F900C1124B12CC1
:10163000A12C8F2D90E0B0E0A0E0BC01CD010E9474
:10164000A31A0E9482030E94171B6B017C018091E8
:1016500079018130B1F190E080E00E94691E892B10
:10166000B1F0C218D308E408F508C814D904EA0494
:10167000FB0408F49ACF84E00E941A0396CF60E03E
:1016800070E0CB010E94A31A86E00E941A0382E058
:1016900068960FB6F894DEBF0FBECDBFDF91CF9135
:1016A0001F910F91FF90EF90DF90CF90BF90AF9080
:1016B0009F908F907F906F905F904F903F902F9072
:1016C000089583E0E5CF28893C89A8EEB3E00E9425
:1016D000981E688779878A879B8793010E94981E46
:1016E000688B798B8A8B9B8B60E070E0CB010E94CA
:1016F000A31AC814D904EA04FB0468F40E94171B57
:10170000DC01CB0182199309A409B5098815990553
:10171000AA05BB0598F384E00E941A038BE1898334
:1017200092E09A8393E79B8393E69C8394E09D8366
:101730008E8383E08F8367E070E0CE0101960E9484
:10174000BA158FEF0E946E1A0E94171B4B015C01A5
:101750000E94171B6B017C0144C082E290E00E9452
:10176000691E80E290E00E94691E84E290E00E947F
:10177000691E9C01A8EEB3E00E94981E68877987D5
:101780008A879B8788E290E00E94691E9C01A8EEF0
:10179000B3E00E94981E688B798B8A8B9B8B8CE2BE
:1017A00090E00E94691E8AE290E00E94691E84E631
:1017B00090E00E94691E88E690E00E94691E0E94E7
:1017C00082030E94171B6B017C018091790181309B
:1017D00009F477CF90E080E00E94691E892B09F41C
:1017E00056CFC818D908EA08FB0888859985AA85C4
:1017F000BB85C816D906EA06FB0608F4AECF80E022
:101800000E946E1A86E00E94BA020E94171B6C8B1F
:101810007D8B8E8B9F8B0E94171BDC01CB012C894B
:101820003D894E895F89821B930BA40BB50B2889D8
:1018300039894A895B8982179307A407B50708F09D
:101840001ECF812C912C5401188A40C03889332333
:1018500009F4C0C0388D232F30E050E040E0CA01C9
:10186000B9010E94A31A41E0488BC801B0E0A0E092
:1018700088879987AA87BB87B801CD010E94B420C9
:1018800020917C0130917D0140917E0150917F013A
:10189000688779878A879B87688579858A859B850C
:1018A0000E940E2087FF72C081149104A104B1042C
:1018B00009F071C0460157012C853D854E855F8535
:1018C000421653066406750608F0D9CE82E290E00F
:1018D0000E94691E80E290E00E94691E84E290E00E
:1018E0000E94691E88E290E00E94691E9C01A8EE99
:1018F000B3E00E94981E6C877D878E879F878CE25D
:1019000090E00E94691E888F8AE290E00E94691E22
:101910009C01A8EEB3E00E94981E688779878A87A9
:101920009B8784E690E00E94691E8C0188E690E027
:101930000E94691E1C010E9482030E94171B6B01FA
:101940007C0180917901813009F4BBCE90E080E088
:101950000E94691E892B09F49ACE260137018C89D1
:101960009D89AE89BF89481A590A6A0A7B0A288567
:1019700039854A855B85421653066406750608F06C
:1019800065CFB889BB2309F470CF64CF812C912C2B
:10199000A12CB12C91CFC818D908EA08FB0848EE51
:1019A00053E0249EC001259E900D349E900D11247D
:1019B000B0E0A0E08C159D05AE05BF0508F07CCF1A
:1019C00060E070E0CB010E94A31A86E00E941A0337
:1019D00080E05ECE988D892F90E0B0E0A0E0BC0161
:1019E000CD010E94A31AA1E0A88B3FCF9401A8EEDD
:1019F000B3E00E94981E688779878A879B87272D86
:101A00003C850E94981E688B798B8A8B9B8B80E625
:101A10009AEE089F4001099F900C189F900C11248A
:101A2000B12CA12C61CE2F923F924F925F926F9278
:101A30007F928F929F92AF92BF92CF92DF92EF925E
:101A4000FF920F931F93CF93DF93CDB7DEB7A1978C
:101A50000FB6F894DEBF0FBECDBF0E94171B0E94C9
:101A6000171B0E94171B688B798B8A8B9B8B8BE1D2
:101A7000898392E09A8393E79B8393E69C8396E025
:101A80009D838E8383E08F8367E070E0CE010196B3
:101A90000E94BA151C861D861E861F8684E590E06E
:101AA0000E94691EF82E80E590E00E94691E8C015C
:101AB00082E590E00E94691E5C0182E190E00E9454
:101AC000691E8EE290E00E94691E80E390E00E9411
:101AD000691E88E590E00E94691E9C01A0E6BAEEAE
:101AE0000E94981E6D8F7E8F8F8F98A386E590E061
:101AF0000E94691E9C01A8EEB3E00E94981E688FA8
:101B0000798F8A8F9B8F2F2D30E050E040E0CA0103
:101B1000B9010E94A31A8FEF0E946E1A0E94171B30
:101B20002B013C010E94171B6B017C019801A8EE60
:101B3000B3E00E94981E688779878A879B87D701C0
:101B4000C60184199509A609B709288539854A85EA
:101B50005B8582179307A407B50708F455C0C7C271
:101B600090E080E00E94691E892B09F427C11C8641
:101B70001D861E861F8680917901813009F4B2C0CE
:101B8000C101B0E0A0E088879987AA87BB87B1012F
:101B9000CD010E94B42020910701309108014091AD
:101BA000090150910A01688779878A879B87688530
:101BB00079858A859B850E940E2018160CF018C125
:101BC000D701C601288939894A895B89821B930B11
:101BD000A40BB50B2D8D3E8D4F8D58A18217930709
:101BE000A407B50708F0B7C0460157018418950847
:101BF000A608B7088C899D89AE89BF898816990681
:101C0000AA06BB0608F0FEC084E590E00E94691EAB
:101C1000F82E80E590E00E94691E9C01A8EEB3E0DA
:101C20000E94981E6C8B7D8B8E8B9F8B82E590E043
:101C30000E94691E8C8F99A382E190E00E94691E28
:101C40001C018EE290E00E94691E8C0180E390E00E
:101C50000E94691EB82EA92E8F2D90E0B0E0A0E062
:101C6000BC01CD010E94A31A0E9482030E94171B8F
:101C70006B017C01980150E040E0288739874A8752
:101C80005B87CA01B8010E94B42020917C01309189
:101C90007D0140917E0150917F01688779878A8715
:101CA0009B87688579858A859B850E9466211816A1
:101CB0000CF056CF8C859D85AE85BF85892B8A2BF0
:101CC0008B2BD1F490E080E00E94691E892B09F4EF
:101CD00075C0CC86DD86EE86FF86809179018130E5
:101CE00009F04ECF80E00E946E1A60E070E0CB01F8
:101CF0000E94A31A83E063C090E080E00E94691E06
:101D0000892B09F45BC02B2D3A2DA8EEB3E00E947D
:101D1000981E688779878A879B87D701C6012C859B
:101D20003D854E855F85821B930BA40BB50B2885E3
:101D300039854A855B85281739074A075B0708F00C
:101D40001ACF60E070E0CB010E94A31A80E00E94ED
:101D50006E1A82E034C00E94171B688B798B8A8BC5
:101D60009B8B84E00E94BA020E94171B2B013C014E
:101D70004601570184189508A608B708888D998DE3
:101D8000AA8DBB8D88169906AA06BB0698F40E94F8
:101D9000171B6B017C014B015C0184189508A60898
:101DA000B708288D398D4A8D5B8D82169306A4065F
:101DB000B50668F384E00E941A031CCF82E0A19666
:101DC0000FB6F894DEBF0FBECDBFDF91CF911F914C
:101DD0000F91FF90EF90DF90CF90BF90AF909F90CA
:101DE0008F907F906F905F904F903F902F900895CD
:101DF00080E00E946E1A60E070E0CB010E94A31A9E
:101E000080E0DDCF3C8C29A0232D322DA8EEB3E05D
:101E10000E94981E6C8B7D8B8E8B9F8B80E00E9426
:101E20006E1AD701C601288939894A895B89821BC4
:101E3000930BA40BB50B2D8D3E8D4F8D58A18217A2
:101E40009307A407B50708F023C10E94171B2B01B5
:101E50003C010E94171BDC01CB0184199509A609DE
:101E6000B7092C893D894E895F8982179307A4079A
:101E7000B50708F013CE8C849D84AE84BF8451C016
:101E800080E00E94691E892B09F498CF812C912C47
:101E9000A12CB12C80917901813009F423CFC101AB
:101EA000B0E0A0E088879987AA87BB87B101CD0100
:101EB0000E94B4202091070130910801409109014E
:101EC00050910A01688779878A879B876885798519
:101ED0008A859B850E940E2018160CF089CFD701A9
:101EE000C601288939894A895B89821B930BA40B17
:101EF000B50B2D8D3E8D4F8D58A182179307A407EA
:101F0000B50708F091C0C418D508E608F7088C8515
:101F10009D85AE85BF85C816D906EA06FB0608F082
:101F2000B2C084E590E00E94691EF82E80E590E042
:101F30000E94691E82E590E00E94691E9C01A8EE45
:101F4000B3E00E94981E6C877D878E879F8782E111
:101F500090E00E94691E1C018EE290E00E94691EC2
:101F60008C0180E390E00E94691E8C8B9C8F8F2DEA
:101F700090E0B0E0A0E0BC01CD010E94A31A0E9455
:101F800082030E94171B6B017C01980150E040E026
:101F9000288739874A875B87CA01B8010E94B42025
:101FA00020917C0130917D0140917E0150917F0113
:101FB000688779878A879B87688579858A859B85E5
:101FC0000E94662190E018160CF05ACF80E0811430
:101FD0009104A104B10441F40E94691E892B09F403
:101FE000EDCE4601570156CF0E94691E892B09F498
:101FF000E5CE2C893C8DA8EEB3E00E94981E688740
:1020000079878A879B87D701C60188199909AA0908
:10201000BB09288539854A855B85281739074A0712
:102020005B0708F037CF8DCE0E94171B688B798B2A
:102030008A8B9B8B84E00E94BA020E94171B2B01A3
:102040003C01C418D508E608F708888D998DAA8D3B
:10205000BB8DC816D906EA06FB0688F40E94171B3A
:102060006B017C01C418D508E608F708288D398D66
:102070004A8D5B8DC216D306E406F50678F384E03C
:102080000E941A0344CF8C869D86AE86BF8606CDFD
:102090000E94171B688B798B8A8B9B8B84E00E9434
:1020A000BA020E94171B4B015C01C818D908EA0844
:1020B000FB08888D998DAA8DBB8DC816D906EA06B6
:1020C000FB0688F4C88CD98CEA8CFB8C0E94171B09
:1020D000DC01CB0188199909AA09BB098C159D055A
:1020E000AE05BF0598F384E00E941A03AECE9501B9
:1020F000A8EEB3E00E94981E6C8B7D8B8E8B9F8B1D
:102100008DCE4F925F926F927F92AF92BF92CF929D
:10211000DF92EF92FF920F931F93CF93DF93CDB790
:10212000DEB72F970FB6F894DEBF0FBECDBF80E4A9
:1021300090E00E94691E8C0188E490E00E94691E74
:10214000F82E82E490E00E94691E84E490E00E94F0
:10215000691E0E94171B0E94171B80E0012BA9F427
:102160002F960FB6F894DEBF0FBECDBFDF91CF9193
:102170001F910F91FF90EF90DF90CF90BF90AF90A5
:102180007F906F905F904F9008958BE1898392E0EC
:102190009A8393E79B8393E69C8395E09D838E834C
:1021A00083E08F8367E070E0CE0101960E94BA154C
:1021B0008F2D90E0B0E0A0E0BC01CD010E94A31AF9
:1021C000B12CA12C80E490E00E94691E8C0188E46F
:1021D00090E00E94691E82E490E00E94691E9C01CA
:1021E000A8EEB3E00E94981E688779878A879B874C
:1021F00084E490E00E94691E9C01A8EEB3E00E9476
:10220000981E6C877D878E879F878FEF0E946E1A3E
:102210000E94171B2B013C010E94171B6B017C01C4
:1022200035C080E490E00E94691E8C0188E490E053
:102230000E94691E82E490E00E94691E9C01A8EE43
:10224000B3E00E94981E688779878A879B8784E419
:1022500090E00E94691E9C01A8EEB3E00E94981EC7
:102260006C877D878E879F870E9482030E94171B41
:102270006B017C0180917901813009F468C090E0A4
:1022800080E00E94691E892B09F05FC0C418D50840
:10229000E608F70888859985AA85BB85C816D906FA
:1022A000EA06FB0608F4BDCF80E00E946E1A0E9489
:1022B000171B2B013C010E94171B6B017C012AC0DC
:1022C00080E490E00E94691E8C0188E490E00E9406
:1022D000691E82E490E00E94691E84E490E00E94FE
:1022E000691E9C01A8EEB3E00E94981E6C877D8752
:1022F0008E879F870E9482030E94171B6B017C01BF
:1023000080917901813069F190E080E00E94691E3E
:10231000892BD9F0C418D508E608F7088C859D8567
:10232000AE85BF85C816D906EA06FB0648F29FEFC0
:10233000A91AB90AA016B10608F444CF60E070E00B
:10234000CB010E94A31A80E00BCF82E009CF86E088
:102350000E941A0360E070E0CB010E94A31A83E0A0
:10236000FFCE60E070E0CB010E94A31A83E0F8CEBC
:10237000CF93DF9300D000D0CDB7DEB7F8941092A2
:1023800080011092790110927A010E9418010E9436
:10239000D61469837A838B839C8369817A818B814C
:1023A0009C810E9485207F936F938AE691E09F93A2
:1023B0008F930E94C6010F900F900F900F90E7CF60
:1023C000E091800187E0E89FF0011124E55DFE4F78
:1023D0000580F681E02D09958230E9F070F48823BC
:1023E00031F1E091800187E0E89FF0011124E55D83
:1023F000FE4FE281E0938001E5CF833009F7E09161
:10240000800187E0E89FF0011124E55DFE4FE48143
:10241000E0938001D7CFE091800187E0E89FF00151
:102420001124E55DFE4FE381E0938001CBCFE09185
:10243000800187E0E89FF0011124E55DFE4FE18116
:10244000E0938001BFCF61E070E090E080E00E9407
:102450006D1E10927901089570E060E090E080E0D8
:102460000E946D1E10927901089581E080937B0196
:10247000089510927B01089580918001811106C01A
:1024800061E070E090E080E00C946D1E70E060E030
:1024900090E080E00C946D1E80918001882319F0FB
:1024A000863009F0089580917B01882319F01092FD
:1024B0007B01089581E080937B010895259A2D9AF0
:1024C0000895F8942D98EFE9F1E03197F1F700C005
:1024D000000028E030E091E00BC02D9AEFE9F1E038
:1024E0003197F1F700C00000990F2150310929F010
:1024F000482F492391F72D98F1CF2D9A8FE991E03C
:102500000197F1F700C0000078940895CF93DF930E
:10251000EC018881882331F021960E946112899113
:102520008111FBCFDF91CF9108958A3018F0895A3D
:102530000C946112805D0C946112CF93C82F829528
:102540008F70C03A58F0895A0E9461128C2F8F7098
:102550008A3058F0895ACF910C946112805D0E94A4
:1025600061128C2F8F708A30A8F7805DCF910C9408
:102570006112CF93DF93EC018D2F82958F70D03A4B
:10258000D8F0895A0E9461128D2F8F708A30D8F04E
:10259000895A0E9461128C2F82958F70C03AD8F0B0
:1025A000895A0E9461128C2F8F708A30D8F0895A14
:1025B000DF91CF910C946112805D0E9461128D2F8A
:1025C0008F708A3028F7805D0E9461128C2F82956F
:1025D0008F70C03A28F7805D0E9461128C2F8F7037
:1025E0008A3028F7805DDF91CF910C9461128F9231
:1025F0009F92AF92BF92CF92DF92EF92FF92CF93D2
:10260000DF936B017C014701AA24BB24CF2DDD277A
:102610008F2D82958F709FE99F1508F04BC0895AC6
:102620000E9461128C2F8F708A3008F44BC0895A37
:102630000E946112882D82958F709FE9981508F08D
:102640004BC0895A0E946112882D8F708A3008F41D
:102650004BC0895A0E946112CD2DDD278D2D8295A8
:102660008F709FE99D1508F04DC0895A0E94611234
:102670008C2F8F708A3008F441C0895A0E946112F1
:102680008C2D82958F709FE99C15A0F5895A0E9428
:1026900061128C2D8F708A3058F1895ADF91CF9159
:1026A000FF90EF90DF90CF90BF90AF909F908F9072
:1026B0000C946112805D0E9461128C2F8F708A30A1
:1026C00008F0B5CF805D0E946112882D82958F70D1
:1026D0009FE9981508F4B5CF805D0E946112882D9E
:1026E0008F708A3008F0B5CF805D0E946112B4CF40
:1026F000805DD4CF805D0E946112CBCF805D0E944F
:102700006112BECF805D0E946112B2CF1092B900FB
:1027100088E18093B800089594EA9093BC0090916A
:10272000BC0097FFFCCF9091B900987F983011F0D2
:10273000903191F48093BB0084E88093BC00809139
:10274000BC0087FFFCCF9091B900987F983131F0A1
:1027500081E0903419F0089581E0089580E00895B3
:1027600024EA34E844E92093BC009091BC0097FF30
:10277000FCCF9091B900987F983011F0903199F783
:102780008093BB003093BC009091BC0097FFFCCFBE
:102790009091B900987F903219F0983509F008951A
:1027A0004093BC009091BC0094FDFCCFDCCF0C9416
:1027B0008C1384E98093BC008091BC0084FDFCCF25
:1027C00008958093BB0084E88093BC008091BC0096
:1027D00087FFFCCF9091B900987F81E0983209F093
:1027E000089580E0089584EC8093BC008091BC0043
:1027F00087FFFCCF8091BB00089584E88093BC00E4
:102800008091BC0087FFFCCF8091BB000895879822
:1028100080E480937C0087E880937A00209A28984F
:102820000895209885B1817085B9879A8F9A2FEF86
:1028300031EE84E0215030408040E1F700C00000DC
:1028400083B187988F98209A289A9FEF21EE34E0E1
:10285000915020403040E1F700C0000081700895A1
:10286000982F80917A00806880937A002FEF31EE64
:1028700044E0215030404040E1F700C0000080912A
:102880007C00887F9770892B80937C0080917A00F0
:10289000806480937A0080917A0086FDFCCF20913D
:1028A0007800309179001092790010927800909120
:1028B0007A009F7790937A008FEF91EE44E08150F9
:1028C00090404040E1F700C00000C90108957698AB
:1028D0006E9A8FE797E00197F1F700C000006E98BD
:1028E000EFEEF0E03197F1F700C000008CB1EFE8B7
:1028F000F6E03197F1F700C00000807408957698F3
:102900006E9A95E09A95F1F7000081116E988FEE1E
:1029100090E00197F1F700C000006E980895769856
:102920006E9A85E08A95F1F700006E989AE49A9580
:10293000F1F700C08CB190EF9A95F1F786FB8827EC
:1029400080F9089598E076986E9A25E02A95F1F737
:10295000000080FD6E98EFEEF0E03197F1F700C0D7
:1029600000006E988695915071F7089598E080E088
:1029700076986E9A25E02A95F1F700006E982AE481
:102980002A95F1F700C04CB120EF2A95F1F746FBEC
:10299000222720F930E0A9015695542F4427579556
:1029A00047958695842B915019F708950F931F939F
:1029B000CF93DF9300D000D0CDB7DEB7F8947698F0
:1029C0006E9A8FE797E00197F1F700C000006E98CC
:1029D0008FEE90E00197F1F700C000008CB18FE816
:1029E00096E00197F1F700C000008CEC0E94A21461
:1029F00084E40E94A214789476986E9A95E09A9551
:102A0000F1F700006E982AE42A95F1F700C0669B62
:102A100075C080EF8A95F1F7F89476986E9A8FE7F3
:102A200097E00197F1F700C000006E988FEE90E0FC
:102A30000197F1F700C000008CB18FE896E0019794
:102A4000F1F700C000008CEC0E94A2148EEB0E94F3
:102A5000A21488E0198276986E9A95E09A95F1F71B
:102A600000006E982AE42A95F1F700C09CB130EF7F
:102A70003A95F1F796FB002700F910E0980136959A
:102A8000322F22273795279549814695422B498336
:102A9000815009F70E94B614789490E0982F882707
:102AA0005981850F911D9C01990F440B550B29836A
:102AB0003A834B835C83CA01B9010E94B62020E0AF
:102AC00030E040E85DE369837A838B839C8369818E
:102AD0007A818B819C810E946B2169837A838B83AD
:102AE0009C8369817A818B819C810F900F900F90DC
:102AF0000F90DF91CF911F910F91089530EF3A958C
:102B0000F1F776986E9A45E04A95F1F700006E98D5
:102B10005AE45A95F1F700C0669BF0CF7ACF109235
:102B2000CD0087E08093CC0088E98093C90086E0DF
:102B30008093CA001092810108958091C80087FF98
:102B4000FCCF8091CE0008959091C80095FFFCCFF6
:102B50008093CE000895FC019081992351F0319625
:102B60008091C80085FFFCCF9093CE009191911188
:102B7000F7CF08959B01672B69F0FC01280F391FDF
:102B800091918091C80085FFFCCF9093CE00E21711
:102B9000F307B1F708952F923F924F925F926F9291
:102BA0007F928F929F92AF92BF92CF92DF92EF92DD
:102BB000FF920F931F93CF93DF93CDB7DEB7E797C5
:102BC0000FB6F894DEBF0FBECDBF922E832E742EAB
:102BD000652E562E472E382E292EA0E00E94951FD6
:102BE00009F49AC0A0E00E94951F0CF483C0FE0176
:102BF0003196FFABEEAB1BAAAEA9BFA9EBA9AE0FF6
:102C0000B11DBDABACAB8AE0A82EB12CC12CD12C30
:102C1000E12CF12C00E010E0292D382D472D562D08
:102C2000652D742D832D922D0E94B21E205DACA9BE
:102C3000BDA92C93292D382D472D562D652D742D8A
:102C4000832D922D0E94B41E922E832E742E652EFB
:102C5000562E472E382E292EBBA9BF5FBBABA0E056
:102C60000E94951F49F6AEA9BFA9FBA9AF0FB11DE0
:102C70001C928F2F8695B9F0EEA9FFA9BD01AF0177
:102C80004F5F5F4F8150480F511D8191DB019E9135
:102C9000BD019F0121503109D9019C93DB018C9327
:102CA0004E175F0791F79981992359F0FE013296EB
:102CB0008091C80085FFFCCF9093CE009191911137
:102CC000F7CFE7960FB6F894DEBF0FBECDBFDF910A
:102CD000CF911F910F91FF90EF90DF90CF90BF9019
:102CE000AF909F908F907F906F905F904F903F90AC
:102CF0002F9008958DE28983832D0E94421F922E8A
:102D0000832E742E652E562E472E382E292ECE0158
:102D100002969FAB8EAB6FCF80E389831A8290E3DC
:102D2000C5CF9093830180938201089580918101A2
:102D300008951F920F920FB60F9211242F933F9375
:102D40004F935F936F937F938F939F93AF93BF93B3
:102D5000EF93FF93F8948091C80060918401809173
:102D6000CE00E62FF0E0EB57FE4F80836F5F60935D
:102D70008401613069F16230F9F0623028F18091AC
:102D800085018B3169F180918601823049F1109281
:102D9000840110928101FF91EF91BF91AF919F91BA
:102DA0008F917F916F915F914F913F912F910F90F4
:102DB0000FBE0F901F90189560918601623039F711
:102DC000809185018B3191F181E08093810106C072
:102DD000809185018B31D9F6609381017894DBCFA6
:102DE0006F3FA9F281E080938101862F90E08B579D
:102DF0009E4FFC01329720812B3181F7FC013197E6
:102E000030813230F1F00197FC018081833031F75D
:102E1000E0918201F0918301309701F385E891E020
:102E200009951092840110928101D8CF81E080939E
:102E3000810187E891E00197FC018081833071F680
:102E4000E7CF209385013093860130938401C6CF6C
:102E50006A9A3F9A5798729A0895CF93DF9300D059
:102E600000D0CDB7DEB772988FE99FE00197F1F7F8
:102E700000C0000020E087E090E061E070E047984B
:102E8000AFE9BFE01197F1F700C000004F9B07C00A
:102E9000AB01082E01C0440F0A94EAF7242B479A8D
:102EA000EFE9FFE03197F1F700C00000019738F734
:102EB00030E0322F222740E087E090E0E1E0F0E0D0
:102EC0004798AFE9BFE01197F1F700C000004F9BB2
:102ED00007C0BF01082E01C0660F0A94EAF7462B0F
:102EE000479AAFE9BFE01197F1F700C000000197E2
:102EF00038F7242B729A22FD2FC0C9019695879529
:102F000096958795969587959C0150E040E029839A
:102F10003A834B835C83CA01B9010E94B42020E04C
:102F200030E040E85EE369837A838B839C83698128
:102F30007A818B819C810E946B2169837A838B8348
:102F40009C8369817A818B819C810F900F900F9077
:102F50000F90DF91CF91089560E070E088EC92ECE3
:102F6000ECCFCF93DF9300D000D0CDB7DEB70E9477
:102F70002D1720E030E040E151E469837A838B83B0
:102F80009C8369817A818B819C810E946B2120E0E6
:102F900030E040EA50E469837A838B839C836981C3
:102FA0007A818B819C810E94132020E030E040E0F8
:102FB00052E469837A838B839C8369817A818B81D4
:102FC0009C810E94A21F69837A838B839C83698181
:102FD0007A818B819C810F900F900F900F90DF91E1
:102FE000CF91089589B182958695877091E0892760
:102FF000817090E00895CF93DF9300D000D0CDB7DB
:10300000DEB74D99FECF5D9A25E02A95F1F70000D5
:103010005E9835E03A95F1F700004D99FECF28E132
:1030200080E090E0DC015E9A45E04A95F1F700000F
:10303000880F991FAA1FBB1F5E9855E05A95F1F79C
:1030400000004D9B03C00196A11DB11D215059F7F1
:1030500026E0B695A795979587952A95D1F75E9A1C
:1030600065E06A95F1F700005E9825E02A95F1F792
:1030700000009C01AD014058CA01B9010F900F90AA
:103080000F900F90DF91CF910895803439F0803800
:1030900089F0803249F05E980C94FB1783E08093AE
:1030A0008C025E980C94FB1782E080938C025E98F1
:1030B0000C94FB1781E080938C025E980C94FB17B4
:1030C000569A55985D9A803439F0803889F080326C
:1030D00049F05E980C94FB1783E080938C025E9815
:1030E0000C94FB1782E080938C025E980C94FB1783
:1030F00081E080938C025E980C94FB178F929F92D4
:10310000AF92BF92CF92DF92EF92FF92CF93DF9375
:1031100000D000D000D0CDB7DEB78E83882E912CA2
:10312000B12CA12C882349F11D82C12CD12C760110
:103130000E94FB17C60ED71EE81EF91E8D818F5FF9
:103140008D839E819813F4CFC701B601A501940128
:103150000E94761EB901CA0126960FB6F894DEBF0A
:103160000FBECDBFDF91CF91FF90EF90DF90CF905A
:10317000BF90AF909F908F90089560E070E080E0E6
:1031800090E0EACF8F929F92AF92BF92CF92DF9260
:10319000EF92FF92CF93DF9300D000D000D0CDB755
:1031A000DEB78E83882E912CB12CA12C882309F4B4
:1031B00049C01D82C12CD12C76010E94FB17C60E7E
:1031C000D71EE81EF91E8D818F5F8D839E81981317
:1031D000F4CFC701B601A50194010E94761E298390
:1031E0003A834B835C83CA01B9010E94B4202091C9
:1031F00088023091890240918A0250918B02698342
:103200007A838B839C8369817A818B819C810E94E4
:10321000A11F69837A838B839C8369817A818B81E7
:103220009C8126960FB6F894DEBF0FBECDBFDF910E
:10323000CF91FF90EF90DF90CF90BF90AF909F9095
:103240008F90089560E070E080E090E0D0CF8F92A2
:103250009F92AF92BF92CF92DF92EF92FF92CF9365
:10326000DF9300D000D000D0CDB7DEB78E83882E9C
:10327000912CB12CA12C882309F45BC01D82C12C98
:10328000D12C76010E94FB17C60ED71EE81EF91E30
:103290008D818F5F8D839E819813F4CFC701B60116
:1032A000A50194010E94761E29833A834B835C8397
:1032B000CA01B9010E94B42020918802309189028C
:1032C00040918A0250918B0269837A838B839C831D
:1032D00069817A818B819C810E94A11F2091840247
:1032E00030918502409186025091870269837A83EA
:1032F0008B839C8369817A818B819C810E941320BE
:1033000069837A838B839C8369817A818B819C8199
:1033100026960FB6F894DEBF0FBECDBFDF91CF91DA
:10332000FF90EF90DF90CF90BF90AF909F908F90E5
:10333000089560E070E080E090E0BECF8F929F92B1
:10334000AF92BF92CF92DF92EF92FF92CF93DF9333
:1033500000D000D000D0CDB7DEB78E83882E912C60
:10336000B12CA12C8823E1F11D82C12CD12C760136
:103370000E94FB17C60ED71EE81EF91E8D818F5FB7
:103380008D839E819813F4CFC701B601A5019401E6
:103390000E94761E29833A834B835C83CA01B9015C
:1033A0000E94B420362F272F432F522FBC01409369
:1033B00088025093890260938A0270938B0226964A
:1033C0000FB6F894DEBF0FBECDBFDF91CF91FF9057
:1033D000EF90DF90CF90BF90AF909F908F90089527
:1033E00030E020E080E090E0DFCF609384027093D3
:1033F000850280938602909387020895CF93DF938E
:1034000000D000D0CDB7DEB78091840290918502C4
:10341000A0918602B0918702BC01CD010F900F9060
:103420000F900F90DF91CF91089560938802709371
:10343000890280938A0290938B020895CF93DF9341
:1034400000D000D0CDB7DEB780918802909189027C
:10345000A0918A02B0918B02BC01CD010F900F9018
:103460000F900F90DF91CF9108955E985E9A87E15B
:1034700091E00197F1F700C0000008955E9808956B
:1034800047E050E080E05E9A29B12072042E01C02E
:10349000220F0A94EAF7822B5E984150510998F75F
:1034A0000895F8943E9A4698E4E9F0E0118210827B
:1034B000109299001092980010929B0010929A001E
:1034C00010929D0010929C0081E88093900089E00A
:1034D00080939100118210827894089580939800CF
:1034E0000895F894279AA4E8B0E011961C921E92D1
:1034F000E8E8F0E01182108210928B0010928A00AE
:1035000010928D0010928C0089E08093810082E0FF
:1035100080936F0011961C921E9280E89EE3918327
:1035200080831092A6021092A7021092A802109215
:10353000A9021092A2021092A3021092A402109269
:10354000A50278940895CF93DF9300D000D0CDB733
:10355000DEB79B01AC01F8942436310541055105D5
:10356000A9F12115310541055105E9F42093A60281
:103570003093A7024093A8025093A9021092A2028E
:103580001092A3021092A4021092A502109285003C
:10359000109284002F9878940F900F900F900F90B6
:1035A000DF91CF910895ACE3B0E00E94A71E69833C
:1035B0007A838B839C8324E630E040E050E00E94D5
:1035C000761E265F3F4F4F4F5F4FD0CF21E030E058
:1035D00040E050E0CBCFF894549A10929E021092A3
:1035E0009F021092A0021092A10210929A021092D1
:1035F0009B0210929C0210929D0278940895F89478
:1036000060939E0270939F028093A0029093A10208
:1036100010929A0210929B0210929C0210929D02AC
:1036200010928500109284005C98789408956091BF
:103630008D0270918E0280918F0290919002209164
:103640009102209192022091930220919402089578
:1036500010928D0210928E0210928F0210929002A0
:103660001092910210929202109293021092940280
:103670000895CF92DF92EF92FF92CF93DF9300D025
:1036800000D00F92CDB7DEB780919602909197024D
:10369000A0919802B0919902809195020E94D6144F
:1036A0006B017C0187E00E9430148D83809196022B
:1036B00090919702A0919802B091990289839A8380
:1036C000AB83BC83A7019601BC01CD010E940E20F3
:1036D000811102C080919502C0929602D092970209
:1036E000E0929802F09299029D81909395020F903A
:1036F0000F900F900F900F90DF91CF91FF90EF9070
:10370000DF90CF90089508954091A6025091A702AE
:103710006091A8027091A9024115510561057105DA
:1037200019F18091A2029091A302A091A402B091FC
:10373000A5020196A11DB11D8093A2029093A30240
:10374000A093A402B093A502481759076A077B0704
:1037500058F485B1805885B91092A2021092A30244
:103760001092A4021092A502089540919E025091D9
:103770009F026091A0027091A1024115510561055F
:10378000710521F180919A0290919B02A0919C0277
:10379000B0919D020196A11DB11D80939A02909354
:1037A0009B02A0939C02B0939D02481759076A0799
:1037B0007B0760F48BB190E189278BB910929A0254
:1037C00010929B0210929C0210929D0208951F92EB
:1037D0000F920FB60F9211242F933F934F935F9345
:1037E0006F937F938F939F93AF93BF93EF93FF93C9
:1037F00020918D0230918E0240918F025091900263
:103800006091910270919202809193029091940242
:10381000A1E00E94891F20938D0230938E02409375
:103820008F02509390026093910270939202809362
:103830009302909394020E94841B0E94B51BFF91F7
:10384000EF91BF91AF919F918F917F916F915F9118
:103850004F913F912F910F900FBE0F901F90189591
:10386000CF93DF938EED0E948C1380E00E94E113D2
:103870000E94D9138FED0E948C1380E00E94E11307
:103880000E94F313C82F0E94D9138EED0E948C134F
:1038900080E00E94E1138C2F80680E94E1130E9457
:1038A000D913DFEF08C08FE99FE00197F1F700C05F
:1038B0000000D150B1F08EED0E948C1383E00E9485
:1038C000E1130E94D9138FED0E948C1383E00E94B4
:1038D000E1130E94F313C82F0E94D913C5FFE3CF51
:1038E000D1E08D2FDF91CF910895CF930E94301CAE
:1038F0008EED0E948C1383E00E94E1130E94D91385
:103900008FED0E948C1383E00E94E1130E94F31359
:10391000C82F0E94D9138EED0E948C1383E00E9461
:10392000E1138C2F88600E94E1130E94D91381E07B
:1039300090E09093AB028093AA02CF910895CF9329
:10394000DF938EED0E948C1380E00E94E1130E94B1
:10395000D9138FED0E948C1380E00E94E1130E9426
:10396000F313C82F0E94D9138EED0E948C1380E0B0
:103970000E94E1138C2F8F770E94E1130E94D913CC
:10398000DFEF08C08FE99FE00197F1F700C000006A
:10399000D150D1F08EED0E948C1383E00E94E11390
:1039A0000E94D9138FED0E948C1383E00E94E113D3
:1039B0000E94F313C82F0E94D9138C2F8072C5FD6B
:1039C000E1CFDF91CF91089581E0DF91CF9108950C
:1039D0006F927F928F929F92AF92BF92CF92DF921F
:1039E000EF92FF920F931F93CF93DF933C014B0114
:1039F0005A016901E8018091AA029091AB02892BDA
:103A0000D9F4F3011082FB011082FA011082F9014E
:103A100010821882F70111821082DF91CF911F91DD
:103A20000F91FF90EF90DF90CF90BF90AF909F905D
:103A30008F907F906F9008958EED0E948C1380E0A0
:103A40000E94E1130E94D913FFEF24E38CE0F150B0
:103A500020408040E1F700C000008FED0E948C13F1
:103A60000E94F313982F282F22952770822F880FFA
:103A7000880F820F880F9F70890FF30180830E9447
:103A8000F313982F282F22952770822F880F880FE5
:103A9000820F880F9F70890FF40180830E94F313B7
:103AA000982F282F22952370822F880F880F820F3E
:103AB000880F9F70890FF50180830E94F3130E9485
:103AC000F313982F282F22952370822F880F880FA9
:103AD000820F880F9F70890FF60180830E94F31375
:103AE000982F84FB222720F9822F880F880F820FBE
:103AF000880F9F70890F88830E94FD13982F282FAD
:103B000022952F70822F880F880F820F880F9F7049
:103B1000890F90E08053984FF701918380830E9432
:103B2000D913FFEF24E38CE0F15020408040E1F70F
:103B300000C0000072CFDF92EF92FF920F931F93AD
:103B4000CF93DF93D82EF62E142FD22F8091AA0276
:103B50009091AB02892B41F4DF91CF911F910F918E
:103B6000FF90EF90DF9008950E949F1CCDECDC9EAB
:103B7000912D1124292F269526952695822F829501
:103B8000807F922F990F990F920F990FD91AD80E03
:103B90008EED0E948C1380E00E94E1138D2D0E9417
:103BA000E1130E94D913FC9E912D1124292F2695F3
:103BB00026952695622F6295607F922F990F990F17
:103BC000920F990FF91AF60E8EED0E948C1381E078
:103BD0000E94E1138F2D0E94E1130E94D9131C9FB4
:103BE000912D1124292F269526952695422F429511
:103BF000407F922F990F990F920F990F191B140F55
:103C00008EED0E948C1382E00E94E113812F0E94AE
:103C1000E1130E94D913DC9F912D1124392F369581
:103C200036953695232F2295207F932F990F990F44
:103C3000930F990FD91BD20F8EED0E948C1384E045
:103C40000E94E1138D2F0E94E1130E94D9130C9F53
:103C5000912D1124292F269526952695822F829520
:103C6000807F922F990F990F920F990F091B080FC0
:103C70008EED0E948C1385E00E94E113802F0E943C
:103C8000E1130E94D91380E3E80EEC9EC12D1124AC
:103C9000C695C695C6958C2F8295807F9C2F990FCF
:103CA000990FC90FCC0FEC1AE80E8EED0E948C1301
:103CB00086E00E94E1138E2D0E94E1130E94D91329
:103CC000DF91CF911F910F91FF90EF90DF900C94B7
:103CD000301CF999FECF0C94DF21F999FECF0C949A
:103CE000E5210E94B8110E94E011FFCFA1E21A2E37
:103CF000AA1BBB1BFD010DC0AA1FBB1FEE1FFF1F90
:103D0000A217B307E407F50720F0A21BB30BE40BDF
:103D1000F50B661F771F881F991F1A9469F7609526
:103D20007095809590959B01AC01BD01CF010895E0
:103D3000A29FB001B39FC001A39F700D811D1124EC
:103D4000911DB29F700D811D1124911D08950E9437
:103D5000981EA59F900DB49F900DA49F800D911D5E
:103D600011240895689401C0E894F92FF12B12F002
:103D70000C94E61EA0E0B0E0E0ECFEE10C94581FCD
:103D8000092E059422F40E94421F112392F4F0E8B8
:103D90000F26FFEFE094F09400951095B094C09436
:103DA000D094A194BF0ACF0ADF0AEF0AFF0A0F0BD3
:103DB0001F0B0E94F11E07FC0E94421FCDB7DEB709
:103DC000ECE00C94741F689401C0E8948F929F9269
:103DD000CF93DF930E94F11EDF91CF919F908F9040
:103DE000089588249924F401E401B0E49F93AA275C
:103DF0009A158B049C04ED05FE05CF05D007A1079D
:103E000098F4AD2FDC2FCF2FFE2FE92D982C892E83
:103E1000982F872F762F652F542F432F322F22274D
:103E2000B85031F7BF9127C01B2EBF91BB27220F7F
:103E3000331F441F551F661F771F881F991F881C3B
:103E4000991CEE1FFF1FCC1FDD1FAA1FBB1F8A146A
:103E50009B04EC05FD05CE05DF05A007B10748F082
:103E60008A189B08EC09FD09CE09DF09A00BB10BEC
:103E700021601A94E1F62EF49401AF01BE01CD0148
:103E8000000C0895609570958095909530954095BB
:103E9000509521953F4F4F4F5F4F6F4F7F4F8F4F43
:103EA0009F4F08952F923F924F925F926F927F9211
:103EB0008F929F92AF92BF92CF92DF92EF92FF923A
:103EC0000F931F93CF93DF93CDB7DEB7CA1BDB0BE6
:103ED0000FB6F894DEBF0FBECDBF09942A8839888B
:103EE00048885F846E847D848C849B84AA84B98492
:103EF000C884DF80EE80FD800C811B81AA81B9819E
:103F0000CE0FD11D0FB6F894DEBF0FBECDBFED01B1
:103F100008950024A7FD00942A0F301D401D501D58
:103F2000601D701D801D901D08950024A7FD009444
:103F30002A1730054005500560057005800590057D
:103F400008955058BB27AA270E94B91F0C942C2112
:103F50000E941E2138F00E94252120F039F49F3F55
:103F600019F426F40C941B210EF4E095E7FB0C9455
:103F70001521E92F0E943D2158F3BA1762077307F4
:103F80008407950720F079F4A6F50C945F210EF4D0
:103F9000E0950B2EBA2FA02D0B01B90190010C0159
:103FA000CA01A0011124FF27591B99F0593F50F471
:103FB000503E68F11A16F040A22F232F342F4427C9
:103FC000585FF3CF469537952795A795F0405395C1
:103FD000C9F77EF41F16BA0B620B730B840BBAF091
:103FE0009150A1F0FF0FBB1F661F771F881FC2F7FC
:103FF0000EC0BA0F621F731F841F48F48795779510
:104000006795B795F7959E3F08F0B0CF9395880FC9
:1040100008F09927EE0F9795879508950E94F12053
:1040200008F481E008950E9427200C942C210E941E
:10403000252158F00E941E2140F029F45F3F29F00D
:104040000C94152151110C9460210C941B210E9499
:104050003D2168F39923B1F3552391F3951B550B3B
:10406000BB27AA2762177307840738F09F5F5F4F4B
:10407000220F331F441FAA1FA9F335D00E2E3AF08A
:10408000E0E832D091505040E695001CCAF72BD0A2
:10409000FE2F29D0660F771F881FBB1F26173707F3
:1040A0004807AB07B0E809F0BB0B802DBF01FF2725
:1040B00093585F4F3AF09E3F510578F00C941521CC
:1040C0000C9460215F3FE4F3983ED4F38695779596
:1040D0006795B795F7959F5FC9F7880F911D9695DE
:1040E000879597F90895E1E0660F771F881FBB1F3A
:1040F000621773078407BA0720F0621B730B840BE7
:10410000BA0BEE1F88F7E09508950E94452188F0CC
:104110009F5798F0B92F9927B751B0F0E1F0660F8B
:10412000771F881F991F1AF0BA95C9F714C0B130CC
:1041300091F00E945F21B1E008950C945F21672FF8
:10414000782F8827B85F39F0B93FCCF386957795FB
:104150006795B395D9F73EF49095809570956195E4
:104160007F4F8F4F9F4F0895E89409C097FB3EF40F
:1041700090958095709561957F4F8F4F9F4F9923B4
:10418000A9F0F92F96E9BB279395F6958795779532
:104190006795B795F111F8CFFAF4BB0F11F460FFF2
:1041A0001BC06F5F7F4F8F4F9F4F16C0882311F04A
:1041B00096E911C0772321F09EE8872F762F05C05E
:1041C000662371F096E8862F70E060E02AF09A95F9
:1041D000660F771F881FDAF7880F9695879597F9EE
:1041E0000895990F0008550FAA0BE0E8FEEF161688
:1041F0001706E807F907C0F012161306E407F507DB
:1042000098F0621B730B840B950B39F40A2661F04E
:10421000232B242B252B21F408950A2609F4A140F1
:10422000A6958FEF811D811D089597F99F6780E8FE
:1042300070E060E008959FEF80EC089500240A94F8
:104240001616170618060906089500240A94121671
:104250001306140605060895092E0394000C11F4A4
:10426000882352F0BB0F40F4BF2B11F460FF04C051
:104270006F5F7F4F8F4F9F4F089557FD9058440FAA
:10428000551F59F05F3F71F04795880F97FB991FB5
:1042900061F09F3F79F08795089512161306140672
:1042A000551FF2CF4695F1DF08C0161617061806FF
:1042B000991FF1CF86957105610508940895E894DA
:1042C000BB2766277727CB0197F908950E94F12035
:1042D00008F48FEF08950E947E210C942C210E94F7
:1042E0001E2138F00E94252120F0952311F00C9416
:1042F00015210C941B2111240C9460210E943D2156
:1043000070F3959FC1F3950F50E0551F629FF00128
:10431000729FBB27F00DB11D639FAA27F00DB11D41
:10432000AA1F649F6627B00DA11D661F829F2227CA
:10433000B00DA11D621F739FB00DA11D621F839F51
:10434000A00D611D221F749F3327A00D611D231F27
:10435000849F600D211D822F762F6A2F11249F5775
:1043600050409AF0F1F088234AF0EE0FFF1FBB1F78
:10437000661F771F881F91505040A9F79E3F510537
:1043800080F00C9415210C9460215F3FE4F3983E7B
:10439000D4F3869577956795B795F795E7959F5FE1
:1043A000C1F7FE2B880F911D9695879597F9089573
:1043B000FB01DC0101900D920020E1F70895A8E1D6
:1043C000B0E042E050E00C94EC210E94FA21272F4B
:1043D0000C94FB21DC01CB01FC01F999FECF06C056
:1043E000F2BDE1BDF89A319600B40D9241505040B3
:1043F000B8F70895262FF999FECF1FBA92BD81BD57
:1044000020BD0FB6F894FA9AF99A0FBE0196089556
:04441000F894FFCF4E
:10441400414243444546FF000080BF1B02737300C2
:1044240000000000001B031B027374000000000066
:1044340000001B031B026565001B03000500060743
:10444400C10701020104075A0A020302040781108A
:104454000304030407130D0405040007B70805014A
:104464000500075B07060006000742070700070070
:104474000733081B0270701B030054454D503A204B
:0444840025640A00A1
:00000001FF
