:100000000C9456000C9468000C9468000C946800E2
:100010000C9468000C9468000C9468000C946800C0
:100020000C9468000C9468000C9468000C946800B0
:100030000C9468000C9468000C9468000C946800A0
:100040000C9468000C9468000C9468000C94680090
:100050000C9468000C9468000C9468000C94680080
:100060000C9468000C9468000C9468000C94680070
:100070000C9468000C9468000C9468000C94680060
:100080000C9468000C9468000C9468000C94680050
:100090000C9468000C9468000C9468000C94680040
:1000A0000C9468000C9468000C94680011241FBE26
:1000B000CFEFDAE0DEBFCDBF21E0A0E0B1E001C0CC
:1000C0001D92A330B207E1F70E94BC070C94950C77
:1000D0000C940000CF93DF93CDB7DEB78CE00E9485
:1000E000CA050E9412050E943C0580E00E941D0581
:1000F0000000DF91CF910895CF93DF93CDB7DEB7A6
:100100000E9412050000DF91CF910895CF93DF93F5
:10011000CDB7DEB70E943C050000DF91CF91089576
:10012000CF93DF9300D0CDB7DEB789836A836A812E
:1001300089810E94DE0400000F900F90DF91CF9123
:100140000895CF93DF9300D0CDB7DEB79A8389832C
:1001500089819A810E94820500000F900F90DF91A3
:10016000CF910895CF93DF93CDB7DEB72C970FB61D
:10017000F894DEBF0FBECDBF9C878B878B859C8597
:100180009E012F5F3F4FB9010E94D400CE0101961E
:100190000E94A10000002C960FB6F894DEBF0FBE9F
:1001A000CDBFDF91CF910895CF93DF9300D000D0E2
:1001B00000D00F92CDB7DEB79D838C837F836E8393
:1001C00019828C819D81892B59F48E819F8120E336
:1001D000FC0120838E819F810196FC01108284C0E6
:1001E0008C819D81992394F58E819F812DE2FC0164
:1001F00020838E819F8101969F838E838C819D8138
:100200009195819591099D838C8320C08C819D81DE
:100210002AE030E0B9010E94360A40E3480F8981A4
:10022000882F90E02E813F81820F931F242FFC01A5
:1002300020838C819D812AE030E0B9010E94360A3A
:10024000CB019D838C8389818F5F89838C819D8184
:1002500018161906DCF28981882F90E02E813F81E3
:10026000820F931FFC0110821A8239C08A81882F65
:1002700090E02E813F81820F931FFC0180818B8350
:100280008981282F30E08A81882F90E0A901481BBE
:10029000590BCA0101972E813F81280F391F8A818E
:1002A000882F90E04E815F81840F951FF901208196
:1002B000FC0120838981282F30E08A81882F90E0FB
:1002C000A901481B590BCA0101972E813F81820F5A
:1002D000931F2B81FC0120838A818F5F8A83898110
:1002E00086959A81981710F227960FB6F894DEBF7C
:1002F0000FBECDBFDF91CF910895CF93DF93CDB7E0
:10030000DEB780E390E0FC01208180E390E02C7870
:10031000FC0120838AE290E0FC0120818AE290E0E7
:100320002061FC0120838BE290E0FC0120818BE2C4
:1003300090E02F7EFC0120830000DF91CF91089593
:10034000CF93DF93CDB7DEB78BE290E0FC01208145
:100350008BE290E02061FC0120830000DF91CF91CF
:100360000895CF93DF93CDB7DEB78BE290E0FC0129
:1003700020818BE290E02F7EFC0120830000DF9142
:10038000CF910895CF93DF930F92CDB7DEB78983D6
:1003900041E0698181E00E94620600000F90DF91D8
:1003A000CF910895CF93DF930F92CDB7DEB78983B6
:1003B00040E0698181E00E94620600000F90DF91B9
:1003C000CF910895CF93DF93CDB7DEB788EB90E060
:1003D00028E1FC01208389EB90E0FC0110828CEB8A
:1003E00090E024E0FC0120830000DF91CF9108958C
:1003F000CF93DF9300D0CDB7DEB78A8360E08A81E8
:100400000E946B028CEB90E024E8FC01208300004A
:100410008CEB90E0FC0180818823D4F78BEB90E09B
:10042000FC01808189830E94530289810F900F9083
:10043000DF91CF910895CF93DF9300D0CDB7DEB792
:1004400089836A8361E089810E946B028BEB90E073
:100450002A81FC0120838CEB90E024E8FC012083BE
:1004600000008CEB90E0FC0180818823D4F70E948F
:10047000530200000F900F90DF91CF910895CF931A
:10048000DF93CDB7DEB78CEB90E024EAFC0120834C
:1004900000008CEB90E0FC0180818823D4F7000001
:1004A000DF91CF910895CF93DF93CDB7DEB78CEB7B
:1004B00090E024E9FC01208300008CEB90E0FC013B
:1004C0008081882F90E080719927892BB1F70000F7
:1004D000DF91CF910895CF93DF9300D0CDB7DEB7F2
:1004E00089836A830E943F026A8189810E947E0219
:1004F00000000F900F90DF91CF910895CF93DF937D
:1005000000D0CDB7DEB789836A838981882F90E0D8
:100510009C01220F331F8A81882F90E0822B932B1E
:1005200021E0892B09F420E08BEB90E0FC01208393
:100530008CEB90E024E8FC01208300008CEB90E041
:10054000FC0180818823D4F700000F900F90DF9189
:10055000CF910895CF93DF9300D0CDB7DEB79A83C4
:10056000898389819A81892B11F400C006C0898111
:100570009A810197F1F79A83898300000F900F9079
:10058000DF91CF910895CF93DF93CDB7DEB741E0F0
:1005900062E080E00E94620600C040E062E080E02D
:1005A0000E9462060000DF91CF910895CF93DF9300
:1005B00000D0CDB7DEB789836A838A81882331F082
:1005C0008091000181608093000105C0809100014D
:1005D0008E7F80930001809100018D7F80930001C8
:1005E00080910001682F80E00E943D06809100010B
:1005F0008F7780930001809100018F7B80930001B1
:10060000809100018F7D80930001809100018F7E99
:1006100080930001898188232CF4809100018068F7
:10062000809300018981882F90E080749927892B1D
:1006300029F0809100018064809300018981882FD6
:1006400090E080729927892B29F0809100018062C7
:10065000809300018981882F90E080719927892BF0
:1006600029F0809100018061809300018091000158
:10067000682F80E00E943D060E94C3028091000125
:100680008F7780930001809100018F7B8093000120
:10069000809100018F7D80930001809100018F7E09
:1006A000809300018981882F90E088709927892B99
:1006B00029F0809100018068809300018981882F52
:1006C00090E084709927892B29F080910001806443
:1006D000809300018981882F90E082709927892B6F
:1006E00029F0809100018062809300018981882F28
:1006F00090E081709927892B29F080910001806119
:100700008093000180910001682F80E00E943D06E7
:100710000E94C3028091000180618093000180915A
:1007200000018062809300018091000180648093C9
:100730000001809100018068809300018091000198
:10074000682F80E00E943D0600000F900F90DF911F
:10075000CF910895CF93DF9300D0CDB7DEB78A83D2
:100760008A81882331F080910001816080930001AB
:1007700005C0809100018E7F80930001809100016F
:1007800082608093000180910001682F80E00E94C8
:100790003D0641E062E080E00E94620600C01982EE
:1007A00064E080E00E94D506882319F48981806185
:1007B000898365E080E00E94D506882319F4898149
:1007C0008062898366E080E00E94D506882319F460
:1007D00089818064898367E080E00E94D506882350
:1007E00019F489818068898340E062E080E00E949A
:1007F000620600C041E062E080E00E94620600C044
:1008000064E080E00E94D506882319F48981816024
:10081000898365E080E00E94D506882319F48981E8
:100820008260898366E080E00E94D506882319F4FF
:1008300089818460898367E080E00E94D5068823EF
:1008400019F489818860898340E062E080E00E9439
:10085000620689810F900F90DF91CF9108951F93C9
:10086000CF93DF93CDB7DEB7000080E00E94AA03EC
:10087000182F812F8823CCF388E090E00E94AA02F1
:1008800080E00E94AA03DF91CF911F9108951F93EA
:10089000CF93DF930F92CDB7DEB7898389818431FF
:1008A00010F410E411C08981803428F089818435E6
:1008B00010F414E109C08981843128F089818034E1
:1008C00010F414E501C010E080E8810F0E946E046E
:1008D00000000F90DF91CF911F910895CF93DF9388
:1008E0000F92CDB7DEB789830E942F0460E0898123
:1008F0000E94D60200000F90DF91CF910895CF9310
:10090000DF930F92CDB7DEB789830E942F0461E099
:1009100089810E94D60200000F90DF91CF91089547
:100920001F93CF93DF93CDB7DEB710E00AC080E40A
:10093000810F0E946E0480E00E944705812F11E024
:10094000180F1034A0F30000DF91CF911F9108958C
:100950001F93CF93DF9300D000D00F92CDB7DEB7B7
:100960008B837D836C8310E08C819D819A83898346
:100970008B81883010F081E018C08B81885F880FF0
:10098000880F880F0E946E040DC0812F90E029818E
:100990003A81820F931FFC0180810E944705812FBD
:1009A00011E0180F183088F380E00F900F900F902F
:1009B0000F900F90DF91CF911F910895CF93DF9308
:1009C00000D0CDB7DEB789836A838A81882329F472
:1009D000898180580E946E0414C08A81813029F474
:1009E000898180540E946E040CC08A81823029F46F
:1009F00089818C560E946E0404C089818C520E94A9
:100A00006E0400000F900F90DF91CF910895CF9367
:100A1000DF93CDB7DEB70E942F04882F90E0DF91DF
:100A2000CF910895CF93DF93CDB7DEB781E00E94D9
:100A30006E040000DF91CF910895CF93DF930F9262
:100A4000CDB7DEB789838981882331F08091000199
:100A5000877F8093000105C08091000188608093AA
:100A6000000180910001682F80E00E943D06000097
:100A70000F90DF91CF910895CF93DF93CDB7DEB77D
:100A800082E00E946E040000DF91CF910895CF9321
:100A9000DF9300D0CDB7DEB78A830E942F0489830D
:100AA0008A818A3021F489810E94470425C0898186
:100AB000843129F460E080EC0E94D60217C089815D
:100AC000843529F460E084E90E94D6020FC0898150
:100AD000883229F460E084ED0E94D60207C0898143
:100AE000883621F460E080E80E94D6020E942F043C
:100AF0008A8161E00E94D60200000F900F90DF9182
:100B0000CF9108951F93CF93DF9300D0CDB7DEB779
:100B10009A83898303C0812F0E94470589819A8126
:100B20009C012F5F3F4F3A832983FC0110811123E1
:100B300091F700000F900F90DF91CF911F910895D2
:100B40001F93CF93DF9300D000D00F92CDB7DEB7C5
:100B50009D838C8303C0812F0E9447058C819D81DA
:100B60009C012F5F3F4F3D832C839A83898389812A
:100B70009A81FC0184918B838B81182F112359F763
:100B800000000F900F900F900F900F90DF91CF917A
:100B90001F910895CF93DF930F92CDB7DEB789836E
:100BA0000E9424061092000180910001682F80E0CD
:100BB0000E943D0680E09AEF0E94AA028091000107
:100BC0008062809300018091000180618093000128
:100BD00080910001682F80E00E943D060E94C302C0
:100BE00080E09EE40E94AA020E94C30280E091E09D
:100BF0000E94AA020E94C30280E091E00E94AA0221
:100C0000809100018F7E8093000180910001682F08
:100C100080E00E943D060E94C30280E091E00E94B5
:100C2000AA0288E20E946E0488E00E946E040E947C
:100C3000120586E00E946E0489810E946E04000005
:100C40000F90DF91CF910895CF93DF930F92CDB79F
:100C5000DEB719820AC08981882F90E08F5F9E4F8E
:100C6000FC01108289818F5F89838981823098F3AA
:100C700000000F90DF91CF910895CF93DF9300D0C4
:100C8000CDB7DEB789836A8389818230A8F48981F0
:100C9000882F90E08F5F9E4F2A81FC0120838981FD
:100CA000882F90E08F5F9E4FFC0190818981805E4C
:100CB000692F0E941B0201C000000F900F90DF916E
:100CC000CF910895CF93DF9300D00F92CDB7DEB7C9
:100CD00089836A834B838981823008F04CC08A8182
:100CE000883008F048C08B818823E1F08981882F03
:100CF00090E08F5F9E4FFC018081482F8A81282FD2
:100D000030E081E090E002C0880F991F2A95E2F759
:100D1000242F282B8981882F90E08F5F9E4FFC0124
:100D200020831CC08981882F90E08F5F9E4FFC013B
:100D30008081482F8A81282F30E081E090E002C036
:100D4000880F991F2A95E2F78095242F28238981FF
:100D5000882F90E08F5F9E4FFC0120838981882F30
:100D600090E08F5F9E4FFC0190818981805E692FAA
:100D70000E941B0201C000000F900F900F90DF91A6
:100D8000CF910895CF93DF930F92CDB7DEB78983CC
:100D90008981823010F080E004C08981805E0E94E9
:100DA000F8010F90DF91CF910895CF93DF9300D09A
:100DB0000F92CDB7DEB78A836B838A81823018F4B5
:100DC0008B81883010F080E011C08A81805E0E94A3
:100DD000F80189838981882F90E02B81222F30E0D0
:100DE00002C0959587952A95E2F781700F900F9034
:100DF0000F90DF91CF910895CF93DF9300D0CDB7BF
:100E0000DEB787E690E09A8389838CEC90E02981B5
:100E1000FC01208389819A81292F33278DEC90E072
:100E2000FC01208389EC90E028E1FC0120838AEC1E
:100E300090E026E0FC01208300000F900F90DF91EE
:100E4000CF910895CF93DF93CDB7DEB7000088EC44
:100E500090E0FC0180818823D4F78EEC90E0FC01C7
:100E60008081DF91CF910895CF93DF930F92CDB71B
:100E7000DEB78983000088EC90E0FC018081882F38
:100E800090E080729927892BB1F38EEC90E0298154
:100E9000FC01208300000F90DF91CF910895CF9344
:100EA000DF9300D0CDB7DEB79A8389830BC08981E9
:100EB0009A81FC0180810E94340789819A81019680
:100EC0009A83898389819A81FC018081882379F7BB
:100ED00000000F900F90DF91CF910895CF93DF9393
:100EE00000D000D000D0CDB7DEB79C838B837E834B
:100EF0006D831A8219820FC02B813C8189819A816E
:100F0000820F931FFC0180810E94340789819A819E
:100F100001969A83898329813A818D819E81281740
:100F2000390750F3000026960FB6F894DEBF0FBEC7
:100F3000CDBFDF91CF910895CF93DF93CDB7DEB7CB
:100F40000000DF91CF910895CF93DF93CDB7DEB747
:100F500080E090E0DC01BC01CD01DF91CF910895EC
:100F6000CF93DF93CDB7DEB780E090E0DC01BC012A
:100F7000CD01DF91CF910895CF93DF93CDB7DEB749
:100F80002E970FB6F894DEBF0FBECDBF84E290E07F
:100F9000FC01208184E290E02062FC01208385E254
:100FA00090E0FC01308185E290E020E22327FC0103
:100FB000208380E090E0AAE7B4E489839A83AB833E
:100FC000BC8320E030E04AE755E469817A818B8177
:100FD0009C810E94280CDC01CB018D839E83AF8312
:100FE000B88720E030E040E85FE36D817E818F814B
:100FF00098850E94CB0A88232CF481E090E09A87A0
:1010000089873FC020E03FEF4FE757E46D817E8145
:101010008F8198850E94230C18164CF520E030E053
:1010200040E251E469817A818B819C810E94280C85
:10103000DC01CB01BC01CD010E94420BDC01CB01E4
:101040009A8789870FC080E991E09C878B878B8581
:101050009C850197F1F79C878B8789859A850197F5
:101060009A87898789859A85892B69F714C06D814C
:101070007E818F8198850E94420BDC01CB019A878B
:10108000898789859A859E878D878D859E8501971D
:10109000F1F79E878D8783CFCF93DF93CDB7DEB7F0
:1010A00061970FB6F894DEBF0FBECDBF1B8287E0FD
:1010B00090E09A8389839BC088E290E0FC012081C4
:1010C00088E290E02F77FC01208380E090E0A0E8A8
:1010D000BFE38C839D83AE83BF8320E030E04AE78B
:1010E00055E46C817D818E819F810E94280CDC01FA
:1010F000CB0188879987AA87BB8720E030E040E84A
:101100005FE3688579858A859B850E94CB0A882361
:101110002CF481E090E09D878C873FC020E03FEF7A
:101120004FE757E4688579858A859B850E94230C63
:1011300018164CF520E030E040E251E46C817D81EE
:101140008E819F810E94280CDC01CB01BC01CD0166
:101150000E94420BDC01CB019D878C870FC080E988
:1011600091E09F878E878E859F850197F1F79F87F6
:101170008E878C859D8501979D878C878C859D8525
:10118000892B69F714C0688579858A859B850E94BB
:10119000420BDC01CB019D878C878C859D85998BCB
:1011A000888B888999890197F1F7998B888B8BE2D5
:1011B00090E0FC018081882364F481E090E0098064
:1011C00002C0880F991F0A94E2F7982F8B81892B10
:1011D0008B8388E290E0FC01208188E290E0206827
:1011E000FC01208389819A8101979A83898389816F
:1011F0009A8199230CF060CF8B8161960FB6F89499
:10120000DEBF0FBECDBFDF91CF910895CF93DF93A7
:10121000CDB7DEB760970FB6F894DEBF0FBECDBF77
:101220008EE290E0FC0120818EE290E02B7FFC01B9
:10123000208380E090E0A0E8BFE38B839C83AD83B4
:10124000BE8320E030E04AE755E46B817C818D81EC
:101250009E810E94280CDC01CB018F839887A9878F
:10126000BA8720E030E040E85FE36F8178858985C8
:101270009A850E94CB0A88232CF481E090E09C8719
:101280008B873FC020E03FEF4FE757E46F817885C1
:1012900089859A850E94230C18164CF520E030E0D1
:1012A00040E251E46B817C818D819E810E94280CFB
:1012B000DC01CB01BC01CD010E94420BDC01CB0162
:1012C0009C878B870FC080E991E09E878D878D85F5
:1012D0009E850197F1F79E878D878B859C85019769
:1012E0009C878B878B859C85892B69F714C06F81C0
:1012F000788589859A850E94420BDC01CB019C8709
:101300008B878B859C85988B8F878F859889019794
:10131000F1F7988B8F870E944C08882F90E09A8372
:10132000898389819A81982F88279A8389830E944B
:101330004C08882F90E029813A81822B932B9A8345
:1013400089838EE290E0FC0120818EE290E02460AF
:10135000FC01208389819A8184709927892B29F047
:1013600080E090E0A8ECB2EC1FC089819A8196954C
:10137000879596958795969587959A838983898190
:101380009A81CC01A0E0B0E0BC01CD010E94710BBC
:10139000DC01CB0120E030E040E85EE3BC01CD01A0
:1013A0000E94280CDC01CB01BC01CD0160960FB678
:1013B000F894DEBF0FBECDBFDF91CF910895CF93DC
:1013C000DF93CDB7DEB787E290E0FC01208187E2B2
:1013D00090E02068FC0120838DE290E0FC012081F8
:1013E0008DE290E02460FC0120838AE290E0FC0121
:1013F00020818AE290E02F77FC0120838EE290E04A
:10140000FC0120818EE290E02460FC01208300003A
:10141000DF91CF910895CF93DF93CDB7DEB70E94D0
:101420000609DC01CB0120E030E040E151E4BC01E1
:10143000CD010E94280CDC01CB0120E030E040EA25
:1014400050E4BC01CD010E94D00ADC01CB0120E0B8
:1014500030E040E052E4BC01CD010E945F0ADC01B3
:10146000CB01BC01CD01DF91CF91089597FB072EF1
:1014700016F4009407D077FD09D00E944A0A07FCB1
:1014800005D03EF4909581959F4F08957095619594
:101490007F4F0895AA1BBB1B51E107C0AA1FBB1FAA
:1014A000A617B70710F0A61BB70B881F991F5A95F0
:1014B000A9F780959095BC01CD0108955058BB27A0
:1014C000AA270E94760A0C94E90B0E94DB0B38F0E5
:1014D0000E94E20B20F039F49F3F19F426F40C949B
:1014E000D80B0EF4E095E7FB0C94D20BE92F0E9489
:1014F000FA0B58F3BA17620773078407950720F0B1
:1015000079F4A6F50C941C0C0EF4E0950B2EBA2F72
:10151000A02D0B01B90190010C01CA01A0011124F9
:10152000FF27591B99F0593F50F4503E68F11A16A5
:10153000F040A22F232F342F4427585FF3CF469536
:1015400037952795A795F0405395C9F77EF41F1658
:10155000BA0B620B730B840BBAF09150A1F0FF0F22
:10156000BB1F661F771F881FC2F70EC0BA0F621F0E
:10157000731F841F48F4879577956795B795F795FE
:101580009E3F08F0B0CF9395880F08F09927EE0F93
:101590009795879508950E94AE0B08F481E0089511
:1015A0000E94E40A0C94E90B0E94E20B58F00E949E
:1015B000DB0B40F029F45F3F29F00C94D20B511162
:1015C0000C941D0C0C94D80B0E94FA0B68F3992311
:1015D000B1F3552391F3951B550BBB27AA2762172F
:1015E0007307840738F09F5F5F4F220F331F441F3C
:1015F000AA1FA9F335D00E2E3AF0E0E832D0915070
:101600005040E695001CCAF72BD0FE2F29D0660F5C
:10161000771F881FBB1F261737074807AB07B0E89F
:1016200009F0BB0B802DBF01FF2793585F4F3AF0A5
:101630009E3F510578F00C94D20B0C941D0C5F3F2B
:10164000E4F3983ED4F3869577956795B795F7952B
:101650009F5FC9F7880F911D9695879597F9089513
:10166000E1E0660F771F881FBB1F621773078407AF
:10167000BA0720F0621B730B840BBA0BEE1F88F7BE
:10168000E09508950E94020C88F09F5798F0B92FBA
:101690009927B751B0F0E1F0660F771F881F991FA7
:1016A0001AF0BA95C9F714C0B13091F00E941C0C21
:1016B000B1E008950C941C0C672F782F8827B85F31
:1016C00039F0B93FCCF3869577956795B395D9F7FF
:1016D0003EF490958095709561957F4F8F4F9F4F09
:1016E0000895E89409C097FB3EF490958095709515
:1016F00061957F4F8F4F9F4F9923A9F0F92F96E95E
:10170000BB279395F695879577956795B795F111D2
:10171000F8CFFAF4BB0F11F460FF1BC06F5F7F4F6F
:101720008F4F9F4F16C0882311F096E911C0772381
:1017300021F09EE8872F762F05C0662371F096E88A
:10174000862F70E060E02AF09A95660F771F881F59
:10175000DAF7880F9695879597F90895990F0008FD
:10176000550FAA0BE0E8FEEF16161706E807F90773
:10177000C0F012161306E407F50798F0621B730B0E
:10178000840B950B39F40A2661F0232B242B252B8F
:1017900021F408950A2609F4A140A6958FEF811D32
:1017A000811D089597F99F6780E870E060E00895D3
:1017B0009FEF80EC089500240A9416161706180669
:1017C0000906089500240A94121613061406050645
:1017D0000895092E0394000C11F4882352F0BB0FD6
:1017E00040F4BF2B11F460FF04C06F5F7F4F8F4F39
:1017F0009F4F089557FD9058440F551F59F05F3F74
:1018000071F04795880F97FB991F61F09F3F79F022
:1018100087950895121613061406551FF2CF4695A4
:10182000F1DF08C0161617061806991FF1CF869526
:101830007105610508940895E894BB27662777270A
:10184000CB0197F908950E94AE0B08F48FEF08952D
:101850000E943B0C0C94E90B0E94DB0B38F00E94B9
:10186000E20B20F0952311F00C94D20B0C94D80BC2
:1018700011240C941D0C0E94FA0B70F3959FC1F378
:10188000950F50E0551F629FF001729FBB27F00D2E
:10189000B11D639FAA27F00DB11DAA1F649F662783
:1018A000B00DA11D661F829F2227B00DA11D621FD2
:1018B000739FB00DA11D621F839FA00D611D221F8C
:1018C000749F3327A00D611D231F849F600D211D70
:1018D000822F762F6A2F11249F5750409AF0F1F0F3
:1018E00088234AF0EE0FFF1FBB1F661F771F881F5C
:1018F00091505040A9F79E3F510580F00C94D20BB7
:101900000C941D0C5F3FE4F3983ED4F386957795D5
:101910006795B795F795E7959F5FC1F7FE2B880F01
:0E192000911D9695879597F90895F894FFCF3D
:00000001FF
