:100000000C9456000C9473000C9473000C947300C1
:100010000C9473000C9473000C9473000C94730094
:100020000C9473000C9484020C9473000C94730071
:100030000C9473000C9473000C9473000C94730074
:100040000C9473000C946D160C9473000C94730054
:100050000C9473000C9473000C9473000C94730054
:100060000C9473000C9473000C9473000C94730044
:100070000C9473000C9473000C9473000C94730034
:100080000C9473000C9473000C9473000C94730024
:100090000C9473000C9473000C9473000C94730014
:1000A0000C9473000C9473000C94730011241FBE05
:1000B000CFEFDAE0DEBFCDBF19E0A0E0B1E0E4E7CA
:1000C000FBE302C005900D92AA32B107D9F729E0EF
:1000D000AAE2B9E001C01D92AD36B207E1F70E9475
:1000E0000B1A0C94B81D0C94000080B38C7880BB64
:1000F000549A5C9840E064E084E00C94471761E017
:1001000070E080E090E00C94651560E070E0CB0159
:100110000C9465152FB130E0A90102C055954795A3
:100120008A95E2F7CA018095909581700895682FAD
:1001300041E084E00C944717682F40E084E00C9481
:100140004717CF93DF93D82FC92F63E08AE00E942F
:10015000770486E395E00E94790463E08AE00E94D8
:1001600077048D2F9C2FDF91CF910C947B04EF921D
:10017000FF920F931F93CF93DF937C01EB018A01D2
:1001800061E08AE00E94770486E395E00E947904AA
:100190000115110539F061E08AE00E947704C80179
:1001A0000E94790462E08AE00E94770486E395E089
:1001B0000E94790462E08AE00E947704C7010E94ED
:1001C000790463E08AE00E94770486E395E00E9468
:1001D0007904209769F063E08AE00E947704CE01F9
:1001E000DF91CF911F910F91FF90EF900C947904C4
:1001F000DF91CF911F910F91FF90EF900895F894A8
:1002000084B184B9E8E6F0E0808181608083EBE628
:10021000F0E0808180658083789481E0809331096B
:1002200083B18295817080932F0983B185FB8827E4
:1002300080F980932E0983B186FB882780F980930B
:10024000300960E080E00E94770481E495E00E943C
:10025000790461E080E00E94770481E495E00E94E7
:10026000790462E080E00E94770481E495E00E94D6
:10027000790463E080E00E94770481E495E00E94C5
:10028000790460E08CE00E9477048BE495E00E94A2
:10029000790462E089E00E94770481E595E00E949C
:1002A000790480913109E82FF0E09F01220F331F7C
:1002B000E20FF31FEE0FFF1FEE0FFF1FE050FF4F87
:1002C000E281F0E0EE0FFF1FE459FB4F6081718186
:1002D00024593B4F50E040E0F901808191810E9418
:1002E000B70010922B090895EF92FF920F931F937E
:1002F000CF93DF93D82FC92F8B018EE290E00E941D
:10030000071A7C0160E080E00E94770488E395E0B2
:100310000E94790460E080E00E94770483E595E024
:100320000E947904C7010E947B0486E595E00E9443
:100330007904C8010E947B0461E080E00E94770498
:1003400088E395E00E94790461E080E00E947704F0
:1003500088E595E00E9479048D2F9C2F0E947B04F4
:100360008BE595E0DF91CF911F910F91FF90EF907A
:100370000C9479040F931F93CF93DF938C01D62FA6
:10038000C72F62E080E00E94770488E395E00E9436
:10039000790462E080E00E947704C8010E94790439
:1003A00063E080E00E94770488E395E00E9479048E
:1003B00063E080E00E9477048D2F9C2FDF91CF9126
:1003C0001F910F910C94790480912A09833049F090
:1003D000843009F485C0823009F447C010922A099C
:1003E0000895E0913109F0E0EE0FFF1FE459FB4F53
:1003F00050E040E070E060E0808191810E94B700B1
:10040000E09131098E2F90E0FC01EE0FFF1FE80F05
:10041000F91FEE0FFF1FEE0FFF1FE050FF4F85810A
:1004200090E00E94071A9C0190932D0980932C095B
:10043000E09131098E2F90E0FC01EE0FFF1FE80FD5
:10044000F91FEE0FFF1FEE0FFF1FE050FF4F8681D9
:1004500097812817390708F44CC040855185421709
:10046000530708F446C0C9013FC040913109E42F49
:10047000F0E09F01220F331FD901A459BB4F8D918A
:100480009C91D901AE0FBF1FAA0FBB1FAA0FBB1FA4
:10049000A050BF4F1296AC914A1781F1AA2371F177
:1004A000B0E0AA0FBB1FA459BB4F6D917C91E20F26
:1004B000F31FEE0FFF1FEE0FFF1FE050FF4FE38112
:1004C0004E17F9F0EE23E9F0F0E0EE0FFF1FE459CC
:1004D000FB4F408151810E94B70010922A09089574
:1004E00080912C0990912D090E94A10010922A0957
:1004F000089590932D0980932C09F6CF70E060E069
:10050000D6CF50E040E0E7CF1F920F920FB60F9288
:100510001124EF92FF921F932F933F934F935F937A
:100520006F937F938F939F93AF93BF93CF93DF93FB
:10053000EF93FF93F894C3B1C295C17013B115FB4B
:10054000112710F9D3B1D6FBDD27D0F980912F09FF
:100550008C1709F492C0DD2329F09091300999237A
:1005600009F497C0CC2341F180E090912B09890FC9
:1005700080932B0982305CF58F3F0CF4A6C0C093AA
:100580002F0910932E09D09330097894FF91EF91A1
:10059000DF91CF91BF91AF919F918F917F916F919B
:1005A0005F914F913F912F911F91FF90EF900F908E
:1005B0000FBE0F901F90189581E01123B1F28FEFBD
:1005C00090912B09890F80932B098230ACF22091F6
:1005D0003109822F90E0FC01EE0FFF1FE80FF91F99
:1005E000EE0FFF1FEE0FFF1FE050FF4F81818230A3
:1005F00009F487C092812917E9F190933109E92F15
:10060000F0E09F01220F331FD901A459BB4FED9099
:10061000FC90D901AE0FBF1FAA0FBB1FAA0FBB1FB3
:10062000A050BF4F1296AC919A1709F464C0AA2348
:1006300009F461C0B0E0AA0FBB1FA459BB4F6D9174
:100640007C91E20FF31FEE0FFF1FEE0FFF1FE05034
:10065000FF4FE3819E1709F451C0EE2309F44EC009
:10066000F0E0EE0FFF1FE459FB4F40815181C701BD
:100670000E94B70010922B0982CF90912E099117FA
:1006800009F451C0DD2309F46FCF90913009911125
:100690006BCFE09131092E2F30E0F901EE0FFF1FF3
:1006A000E20FF31FEE0FFF1FEE0FFF1FE050FF4F93
:1006B0009181923009F44EC0933009F4A4C0913076
:1006C00009F4ABC0C8134ECF4FCF20913109822F10
:1006D00090E0FC01EE0FFF1FE80FF91FEE0FFF1F68
:1006E000EE0FFF1FE050FF4F8181823009F19381AF
:1006F000291383CFBFCF70E060E0A3CF50E040E08C
:10070000B6CF80912C0990912D09208531858217D3
:10071000930708F0AFCF019690932D0980932C0991
:100720000E94A100A7CF909130099D13ABCF2DCF90
:1007300080912C0990912D0926813781281739073E
:1007400008F098CF019790932D0980932C090E946F
:10075000A10090CF60912C0970912D09858190E0C6
:100760000E94091AE09131098E2F90E0FC01EE0FF2
:10077000FF1FE80FF91FEE0FFF1FEE0FFF1FE050E6
:10078000FF4F448140933109E42FF0E09F01220F95
:10079000331FD901A459BB4F8D919C91D901AE0F44
:1007A000BF1FAA0FBB1FAA0FBB1FA050BF4F12969F
:1007B000AC914A1711F1AA2301F1B0E0AA0FBB1FB7
:1007C000A459BB4F6D917C91E20FF31FEE0FFF1FF9
:1007D000EE0FFF1FE050FF4FE3814E1789F0EE232D
:1007E00079F0F0E0EE0FFF1FE459FB4F408151819B
:1007F0000E94B70080912F0965CF70E060E0E4CFE0
:1008000050E040E0F5CF0284F385E02D309709F405
:1008100059CF099580912F0955CF448140933109D3
:10082000E42FF0E09F01220F331FD901A459BB4FE1
:100830008D919C91D901AE0FBF1FAA0FBB1FAA0FAC
:10084000BB1FA050BF4F11965C911197523009F019
:10085000AECF50E040E070E060E00E94B7008091D1
:10086000310990E0FC01EE0FFF1FE80FF91FEE0FBA
:10087000FF1FEE0FFF1FE050FF4F858190E00E94A9
:10088000071A9C0190932D0980932C0980913109BE
:1008900090E0FC01EE0FFF1FE80FF91FEE0FFF1FA6
:1008A000EE0FFF1FE050FF4F868197812817390711
:1008B00058F0808591858217930730F0C9010E9416
:1008C000A10080912F09FECE90932D0980932C09D1
:1008D000F6CF8CE00E94A4190E941A190E943619C2
:1008E00080E00C9420190C941A190C9436190C946D
:1008F000EE180C948319CF92DF92EF92FF920F9330
:100900001F93CF93DF93CDB7DEB72A970FB6F89436
:10091000DEBF0FBECDBF009709F44EC097FD41C0AA
:100920008E010F5F1F4FF80120E03AE0C32ED12C5B
:100930007F01E20EF11CB6010E94101A805DD70102
:100940008C93CB012F5F009799F7DF01A20FB11DA8
:100950001C922695A1F0BD01CF0101962150820F76
:10096000911D2191DB013E91BD01AF014150510923
:10097000DA013C93DB012C938E179F0791F7C80196
:100980000E9483192A960FB6F894DEBF0FBECDBF22
:10099000DF91CF911F910F91FF90EF90DF90CF905B
:1009A00008952DE22983919581959109FE01329652
:1009B0008E010F5F1F4FB8CF80E389831A828E01AB
:1009C0000F5F1F4FDCCF4F925F926F927F928F929B
:1009D0009F92AF92BF92CF92DF92EF92FF920F93CE
:1009E0001F93CF93DF9300D000D000D0CDB7DEB7F8
:1009F00084E190E00E94071A7C0188E190E00E9467
:100A0000071A87E00E94F70F0E947B104B015C01E0
:100A100080913209813009F460C1109232098982D3
:100A20009A82AB82BC8269817A818B819C810E948F
:100A30003C1C6D837E832D813E81232BC1F40E945B
:100A40007B104B015C0169839A828B83BC82698134
:100A50007A818B819C810E943C1C6D837E838D8179
:100A60009E81892B61F380913209813011F01092BF
:100A700032098AE0782EC12CD12C00E010E087E00A
:100A80000E94F70F9C0150E040E029833A834B839A
:100A90005C83CA01B9010E946B1C9B01AC01C98235
:100AA000DA820B831C8369817A818B819C810E940D
:100AB000591B6B018C017A947110E1CF20E030E07A
:100AC00040E251E46983DA828B831C8369817A81F5
:100AD0008B819C810E94CA1B69837A838B839C8350
:100AE00069817A818B819C810E943C1C2B01C7010A
:100AF000B0E0A0E089839A83AB83BC83B701CD01CA
:100B00000E946B1C9401A50169837A838B839C836B
:100B100069817A818B819C810E94C51B87FF07C0F8
:100B200080913209813019F081E08093320992017D
:100B300050E040E029833A834B835C83CA01B201D1
:100B40000E946B1C20E030EC4FE754E469837A8309
:100B50008B839C8369817A818B819C810E94581B45
:100B600020E030E048EC52E469837A838B839C83F5
:100B700069817A818B819C810E94221D20E030EC6A
:100B800046E654EC69837A838B839C8369817A81FE
:100B90008B819C810E94CA1B20E030E0A9016983FF
:100BA0007A838B839C8369817A818B819C810E946B
:100BB000591B69837A838B839C8369817A818B81BA
:100BC0009C810E943C1C6B01CB01B0E0A0E08983BA
:100BD0009A83AB83BC83CD010E946B1C3B018C01CB
:100BE00020913509309136094091370950913809E3
:100BF00069837A828B831C8369817A818B819C8152
:100C00000E94C51B811156C09401A501609139094C
:100C100070913A0980913B0990913C090E94C51B53
:100C2000811148C0A301B80140933509509336099A
:100C30006093370970933809C401D501809339094D
:100C400090933A09A0933B09B0933C0980913309F2
:100C5000909132099817A9F0F89480913209823066
:100C600009F455C078F5882309F449C067E676E0B1
:100C700080E796E00E94BA010E947F0078948091FC
:100C800032098093330926960FB6F894DEBF0FBE63
:100C9000CDBFDF91CF911F910F91FF90EF90DF902B
:100CA000CF90BF90AF909F908F907F906F905F900C
:100CB0004F900895F894B6018D819E810E94740131
:100CC0007894B0CF8330D1F664E876E08BE796E095
:100CD0000E94BA010E947F00D1CF89829A82AB82A2
:100CE000BC8269817A818B819C810E943C1C6D83CE
:100CF0007E834D815E81452B09F4A1CEBACE6FEF84
:100D000076E0CB010E94BA010E948500B7CF66E76A
:100D100076E08BE796E00E94BA010E947F00AECF9A
:100D20000F931F93CF93DF93CDB7DEB728970FB6FE
:100D3000F894DEBF0FBECDBF82E690E00E94071A96
:100D40008C0188E190E00E94071A8D839E8370E0F9
:100D500060E090E080E00E94091A0E94921580E015
:100D60000E94F81484E00E949C00C801B0E0A0E05A
:100D700089839A83AB83BC83B801CD010E946B1C2D
:100D800020E030E040E251E469837A838B839C83E6
:100D900069817A818B819C810E94221D20E030E054
:100DA00048EC52E469837A838B839C8369817A81DE
:100DB0008B819C810E94CA1B20E030E040E251E41C
:100DC00069837A838B839C8369817A818B819C81FF
:100DD0000E94591B69837A838B839C8369817A8102
:100DE0008B819C810E943C1C862F90E0B0E0A0E0AB
:100DF00089839A83AB83BC83BC01CD010E942D15EE
:100E000088E896E00E942C11AD81BE81CD01B0E052
:100E1000A0E08D839E83AF83B8870E94E3046D8139
:100E20007E818F8198850E946B1C209139093091B9
:100E30003A0940913B0950913C0969837A838B833D
:100E40009C8369817A818B819C810E941D1D18166B
:100E500024F781EA96E00E942C1160E070E0CB015B
:100E60000E942D1580E028960FB6F894DEBF0FBEC5
:100E7000CDBFDF91CF911F910F910895CF930E9425
:100E8000E30480913209813071F0C0913409CC23A0
:100E900021F0C1E08C2FCF91089580E00E94F814DA
:100EA0008C2FCF910895C3E08C2FCF910895CF93CD
:100EB000DF9300D000D00F92CDB7DEB780E190E095
:100EC0000E94071A89839A830E94E3040E94921564
:100ED00080913209813009F440C0811135C090E021
:100EE00080E00E94071A892B79F1A981BA81CD018E
:100EF000B0E0A0E089839A83AB83BC83BC01CD01C1
:100F00000E946B1CB1E0BD832091390930913A09F0
:100F100040913B0950913C0969837A838B839C8380
:100F200069817A818B819C810E941D1D18160CF0AD
:100F30001D8281E02D8182270F900F900F900F90DE
:100F40000F90DF91CF91089582E00F900F900F9056
:100F50000F900F90DF91CF91089583E00F900F9045
:100F60000F900F900F90DF91CF910895CF93DF9363
:100F700000D000D0CDB7DEB70E94E3040E949215E6
:100F800080913209813031F180913409811117C08B
:100F900090E080E00E94071A9C0181E0232B39F445
:100FA0000F900F900F900F90DF91CF91089580E0F8
:100FB0000F900F900F900F90DF91CF9108958FEFCA
:100FC0000E94F81482E00F900F900F900F90DF9125
:100FD000CF91089588E190E00E94071A9C0150E0AB
:100FE00040E029833A834B835C83CA01B9010E94A4
:100FF0006B1C2091390930913A0940913B0950917D
:101000003C0969837A838B839C8369817A818B8194
:101010009C810E94C51B18160CF4B6CF83E0C0CF8C
:101020004F925F926F927F928F929F92AF92BF92F8
:10103000CF92DF92EF92FF92CF93DF93CDB7DEB7DF
:101040002A970FB6F894DEBF0FBECDBF80E390E0C5
:101050000E94071A9C01A8EEB3E00E94461A2B01D9
:101060003C018EE290E00E94071A7C0182E690E04B
:101070000E94071A6C0180E690E00E94071A8A8796
:1010800099870E947D150E947D1580E00E94F814CA
:1010900084E00E949C00C601B0E0A0E089839A83AE
:1010A000AB83BC83B601CD010E946B1C20E030E015
:1010B00040E251E469837A838B839C8369817A81DE
:1010C0008B819C810E94221D20E030E048EC52E49C
:1010D00069837A838B839C8369817A818B819C81EC
:1010E0000E94CA1B20E030E040E251E469837A8329
:1010F0008B839C8369817A818B819C810E94591B9F
:1011000069837A838B839C8369817A818B819C81BB
:101110000E943C1C862F90E0B0E0A0E089839A8377
:10112000AB83BC83BC01CD010E942D150E947D15AF
:101130004B015C010E947D1589EB96E00E942C1109
:10114000C701B0E0A0E08D839E83AF83B8870E9483
:10115000E3040E947D156B017C018091320981308E
:1011600009F45DC06D817E818F8198850E946B1C22
:10117000209135093091360940913709509138094D
:1011800069837A838B839C8369817A818B819C813B
:101190000E941D1D87FD40C0C818D908EA08FB0839
:1011A000C414D504E604F70490F287EE96E00E949A
:1011B0002C110E947D154B015C010E947D156B0175
:1011C0007C0180E097E00E942C112A853985A8EEE9
:1011D000B3E00E94461A2B013C010AC00E94E304BE
:1011E0000E947D156B017C01809132098130B9F03C
:1011F000C818D908EA08FB08C414D504E604F704A3
:1012000068F389E197E00E942C1160E070E0CB0167
:101210000E942D1580E008C04601570198CF83ED4C
:1012200096E00E942C1183E02A960FB6F894DEBF58
:101230000FBECDBFDF91CF91FF90EF90DF90CF90A9
:10124000BF90AF909F908F907F906F905F904F90E6
:1012500008954F925F926F927F928F929F92AF927A
:10126000BF92CF92DF92EF92FF920F931F93CF9393
:10127000DF93CDB7DEB768970FB6F894DEBF0FBE29
:10128000CDBF84E590E00E94071A782E80E590E0BB
:101290000E94071A6C0182E590E00E94071A28EE6E
:1012A000E22E23E0F22E8E9D40018F9D900C9E9D9C
:1012B000900C112482E190E00E94071A8C018EE2CA
:1012C00090E00E94071A8D839E8380E390E00E9445
:1012D000071A8E9D50018F9DB00C9E9DB00C11245D
:1012E0000E947D150E947D15272D30E050E040E0E2
:1012F00029833A834B835C83CA01B9010E942D156F
:10130000CE9CC001CF9C900DDE9C900D11249C01C1
:1013100050E040E02D873E874F87588BC12CD12C61
:101320007601AD81BE81CD01B0E0A0E08D839E83CA
:10133000AF83B887950150E040E0298B3A8B4B8B07
:101340005C8BC801B0E0A0E089879A87AB87BC8737
:10135000940150E040E02D8B3E8B4F8B588F8FEFE8
:101360000E94F8140E947D152B013C010E947D15FE
:101370004B015C0181E397E00E942C113DC0C11438
:10138000D104E104F10409F486C090E080E00E94F9
:10139000071A892B09F48CC0D501C4018C199D0949
:1013A000AE09BF0929893A894B895C892817390711
:1013B0004A075B0708F43BC180913209813009F488
:1013C0005CC069857A858B859C850E946B1C209109
:1013D000390930913A0940913B0950913C096983A0
:1013E0007A838B839C8369817A818B819C810E9423
:1013F000C51B18160CF074C084189508A608B70809
:101400008D859E85AF85B88988169906AA06BB0684
:1014100008F074C00E94E3040E947D154B015C013A
:101420006D817E818F8198850E946B1C209135098A
:1014300030913609409137095091380969837A8390
:101440008B839C8369817A818B819C810E941D1D85
:1014500018160CF494CF8EE597E00E942C1190E0C2
:1014600080E00E94071A892B19F1C12CD12C76013A
:1014700080913209813009F0A4CF80E00E94F814F5
:1014800060E070E0CB010E942D158AEA97E00E948F
:101490002C1183E00EC089E497E00E942C1190E0AB
:1014A00080E00E94071A892B19F07501640184CF2E
:1014B00082E068960FB6F894DEBF0FBECDBFDF9115
:1014C000CF911F910F91FF90EF90DF90CF90BF9041
:1014D000AF909F908F907F906F905F904F90089506
:1014E00080E00E94F81460E070E0CB010E942D15AE
:1014F00089EB97E00E942C1180E0DBCF80E00E9416
:10150000F81488EC97E00E942C110E947D152B01A5
:101510003C010E947D154B015C013DC0C114D1040A
:10152000E104F10409F475C090E080E00E94071A1C
:10153000892B09F4BDCFD501C4018C199D09AE09D1
:10154000BF0929893A894B895C89281739074A07D5
:101550005B0708F46CC080913209813009F48DCFAB
:1015600069857A858B859C850E946B1C2091390941
:1015700030913A0940913B0950913C0969837A8343
:101580008B839C8369817A818B819C810E94C51B9E
:1015900018160CF0A5CF84189508A608B7088D89F1
:1015A0009E89AF89B88D88169906AA06BB0608F0F1
:1015B000D6CE0E94E3040E947D154B015C016D8133
:1015C0007E818F8198850E946B1C20913509309116
:1015D0003609409137095091380969837A838B83A2
:1015E0009C8369817A818B819C810E941D1D1816C4
:1015F0000CF494CF8EE597E00E942C1190E080E0EF
:101600000E94071A892B09F453CFC12CD12C7601E3
:10161000A2CF89E497E00E942C1190E080E00E9424
:10162000071A892B09F444CF7501640194CF60E057
:1016300070E0CB010E942D1580E00E94F81487E72E
:1016400097E00E942C118CE897E00E942C118EE903
:1016500097E00E942C1182E02CCF4F925F926F9204
:101660007F928F929F92AF92BF92CF92DF92EF9232
:10167000FF920F931F93CF93DF9300D000D000D041
:10168000CDB7DEB780E490E00E94071A8D839E8379
:1016900088E490E00E94071A8C0182E490E00E94A6
:1016A000071A28EEC22E23E0D22E8C9D20018D9D9C
:1016B000500C9C9D500C112484E490E00E94071A69
:1016C0008C9D70018D9DF00C9C9DF00C11240E944E
:1016D0007D150E947D15C801B0E0A0E089839A8342
:1016E000AB83BC83B801CD010E946B1C20E030E0CD
:1016F00048E951E469837A838B839C8369817A8189
:101700008B819C810E94221D20E030E048EC52E455
:1017100069837A838B839C8369817A818B819C81A5
:101720000E94CA1B20E030E040E85FE369837A83CF
:101730008B839C8369817A818B819C810E94591B58
:1017400069837A838B839C8369817A818B819C8175
:101750000E943C1C862F90E0B0E0A0E0BC01CD01CF
:101760000E942D15AD81BE81AB2B09F464C0712C94
:10177000612C10E000E0C701B0E0A0E089839A830B
:10178000AB83BC838FEF0E94F8140E947D154B0140
:101790005C010E947D156B017C0112C00E94E30474
:1017A0000E947D156B017C0180913209813009F422
:1017B00061C090E080E00E94071A892B09F042C0C6
:1017C000C818D908EA08FB08C414D504E604F704CD
:1017D00028F380E00E94F8140E947D154B015C0103
:1017E0000E947D156B017C0111C00E94E3040E94E0
:1017F0007D156B017C0180913209813009F444C070
:1018000090E080E00E94071A892BE1F0C818D908FF
:10181000EA08FB0889819A81AB81BC81C816D90688
:10182000EA06FB0610F30F5F1F4FAD81BE81A017C4
:10183000B10709F0A7CF60E070E0CB010E942D1541
:1018400080E001C082E026960FB6F894DEBF0FBE9E
:10185000CDBFDF91CF911F910F91FF90EF90DF905F
:10186000CF90BF90AF909F908F907F906F905F9040
:101870004F90089584E00E949C0060E070E0CB01EE
:101880000E942D1583E0DFCF60E070E0CB010E9465
:101890002D1583E0D8CF2F923F924F925F926F9297
:1018A0007F928F929F92AF92BF92CF92DF92EF92F0
:1018B000FF920F931F93CF93DF93CDB7DEB76D9752
:1018C0000FB6F894DEBF0FBECDBF82E290E00E945B
:1018D000071A582E80E290E00E94071A3C0184E229
:1018E00090E00E94071A8D8B9E8B88E290E00E9408
:1018F000071A8D8799878CE290E00E94071A898BDE
:101900008AE290E00E94071A8C0184E690E00E942F
:10191000071A89839A8388E690E00E94071A1C01BF
:101920000E947D154B015C010E947D156B017C01BD
:1019300080EE97E00E942C1123E1529EC0011124F9
:1019400064E670E00E94101A6F5F862F90E0B0E0AE
:10195000A0E0BC01CD010E942D1588EE93E0689EA9
:101960002001699E500C789E500C1124712C612C22
:1019700012C00E94E3040E947D156B017C018091DE
:101980003209813009F454C190E080E00E94071AC6
:10199000892B09F433C1C818D908EA08FB08C41414
:1019A000D504E604F70428F360E070E0CB010E9460
:1019B0002D1586E198E00E942C118FEF0E94F814FB
:1019C0008DE298E00E942C110E947D154B015C0174
:1019D0000E947D156B017C0188EE93E0AD89BE8984
:1019E000A89F2001A99F500CB89F500C1124712C66
:1019F000612C12C00E94E3040E947D156B017C01E2
:101A000080913209813009F42DC190E080E00E947C
:101A1000071A892B09F4F2C0C818D908EA08FB088C
:101A2000C414D504E604F70428F32D853985A8EEFF
:101A3000B3E00E94461A6D877E878F87988B80E07F
:101A40000E94F8148DE298E00E942C1184E00E941C
:101A500097008AE498E00E942C110E947D156D8306
:101A60007E838F8398870E947D15DC01CB012D81B9
:101A70003E814F815885821B930BA40BB50B2D859E
:101A80003E854F85588982179307A407B50708F04C
:101A9000A9C048EE53E0049FC001059F900D149F1C
:101AA000900D11249C0150E040E029873A874B8734
:101AB0005C87498933E1439FC001112464E670E0EB
:101AC0000E94101A6F5F862F90E0B0E0A0E0898F2F
:101AD0009A8FAB8FBC8FA8EEB3E02A9EC0012B9EDD
:101AE000900D3A9E900D11249C0150E040E02D8B0A
:101AF0003E8B4F8B588F812C912C54011D8EA981C8
:101B0000BA81CD01B0E0A0E0898B9A8BAB8BBC8B06
:101B10001EC081149104A104B10409F48FC0C81837
:101B2000D908EA08FB088D899E89AF89B88D8C1584
:101B30009D05AE05BF0508F49DC02D853E854F85EA
:101B40005889421653066406750608F04BC00E9479
:101B5000E3040E947D156B017C0180913209813084
:101B600009F482C090E080E00E94071A892B09F4F2
:101B700045C0260137012D813E814F815885421A8B
:101B8000530A640A750A89859A85AB85BC8548160F
:101B900059066A067B0620F09D8D992309F455C0ED
:101BA00069897A898B899C890E946B1C20913509EF
:101BB00030913609409137095091380969837A8309
:101BC0008B839C8369817A818B819C810E94C51B58
:101BD00087FD9FCF83EA98E00E942C11812C912CE5
:101BE0005401ABCF60E070E0CB010E942D1584E082
:101BF0000E949C0084E698E00E942C1182E06D9681
:101C00000FB6F894DEBF0FBECDBFDF91CF911F910D
:101C10000F91FF90EF90DF90CF90BF90AF909F908B
:101C20008F907F906F905F904F903F902F9008958E
:101C300087EF97E00E942C1183E0E1CF89E898E0DC
:101C40000E942C114601570178CF80EE97E00E9448
:101C50002C11698D7A8D8B8D9C8D0E942D15A1E0A4
:101C6000AD8F9ECF83E0CBCF85E798E00E942C110B
:101C700083E0C5CF60E070E0CB010E942D1584E0C9
:101C80000E949C0081EC98E00E942C1180EE97E06D
:101C90000E942C118BED98E00E942C1180E0AFCFB8
:101CA00010923D0910923209109233090E941211CC
:101CB0000E94B6160E9475000E94DB140E94FB145D
:101CC0000E9451150E94EF0F78940E9469040E94AF
:101CD000FF002FEF83ED90E3215080409040E1F72B
:101CE00000C0000090E080E00E94071A892B21F4D8
:101CF0008EEE98E00C942C1182E190E00E94071A7D
:101D00008EE290E00E94071A0E947B1087E00E94FA
:101D1000F70F85E080933D098EEE98E00C942C112E
:101D200080913209882311F1E0913D0987E0E89F15
:101D3000F0011124E250FB4F0580F681E02D09955A
:101D4000823009F469C0C8F5882309F459C0E091CC
:101D50003D0987E0E89FF0011124E250FB4F8281AA
:101D600080933D09809132098111DECF8FEF98E099
:101D70000E942C1120913D0930E040E050E060E0ED
:101D800070E080E090E00E944C118EEF96E00E949F
:101D90002C11F89480913D09833009F456C0E0F489
:101DA000813009F459C0823011F56FEF76E084E19B
:101DB00099E00E94BA017894B7CF833009F0B0CF90
:101DC000E0913D0987E0E89FF0011124E250FB4FCC
:101DD000848180933D09A4CF843051F1853079F519
:101DE0006FEF76E082E299E00E94BA01E4CF8111C0
:101DF00026C06FEF76E087E099E00E94BA01DBCF62
:101E0000E0913D0987E0E89FF0011124E250FB4F8B
:101E1000818180933D0984CFE0913D0987E0E89F6F
:101E2000F0011124E250FB4F838180933D0978CF6C
:101E30006FEF76E08AE199E00E94BA01BCCF6FEFC4
:101E400076E0CB010E94BA01B6CF6FEF76E082E771
:101E500096E00E94BA01AFCF6FEF76E08CE099E098
:101E60000E94BA01A8CF61E070E090E080E00E949B
:101E7000091A10923209089570E060E090E080E065
:101E80000E94091A10923209089581E08093340962
:101E9000089510923409089580913D09811106C07A
:101EA00061E070E090E080E00C94091A70E060E07E
:101EB00090E080E00C94091A80913D09882319F084
:101EC000863009F0089580913409882319F0109222
:101ED0003409089581E08093340908951092B9007F
:101EE00088E18093B800089594EA9093BC009091A3
:101EF000BC0097FFFCCF9091B900987F983011F00B
:101F0000903191F48093BB0084E88093BC00809171
:101F1000BC0087FFFCCF9091B900987F983131F0D9
:101F200081E0903419F0089581E0089580E00895EB
:101F300024EA34E844E92093BC009091BC0097FF68
:101F4000FCCF9091B900987F983011F0903199F7BB
:101F50008093BB003093BC009091BC0097FFFCCFF6
:101F60009091B900987F903219F0983509F0089552
:101F70004093BC009091BC0094FDFCCFDCCF0C944E
:101F8000740F84E98093BC008091BC0084FDFCCF79
:101F900008958093BB0084E88093BC008091BC00CE
:101FA00087FFFCCF9091B900987F81E0983209F0CB
:101FB000089580E0089584EC8093BC008091BC007B
:101FC00087FFFCCF8091BB00089584E88093BC001C
:101FD0008091BC0087FFFCCF8091BB00089587985B
:101FE00080E480937C0087E880937A000895909144
:101FF0007C00987F8770982B90937C0080917A006A
:10200000806480937A0080917A0086FDFCCF809175
:10201000780090917900089576986E9A8FE797E00E
:102020000197F1F700C000006E98EFEEF0E03197F5
:10203000F1F700C000008CB1EFE8F6E03197F1F75E
:1020400000C000008074089576986E9A95E09A9585
:10205000F1F7000081116E988FEE90E00197F1F793
:1020600000C000006E98089576986E9A85E08A9573
:10207000F1F700006E989AE49A95F1F700C08CB1E0
:1020800090EF9A95F1F786FB882780F9089598E0FC
:1020900076986E9A25E02A95F1F7000080FD6E98FB
:1020A000EFEEF0E03197F1F700C000006E988695F2
:1020B000915071F7089598E080E076986E9A25E047
:1020C0002A95F1F700006E982AE42A95F1F700C0EE
:1020D0004CB120EF2A95F1F746FB222720F930E09A
:1020E000A9015695542F4427579547958695842BDB
:1020F000915019F70895CF93DF9300D000D0CDB75A
:10210000DEB7F89476986E9A8FE797E00197F1F72B
:1021100000C000006E98AFEEB0E01197F1F700C07C
:1021200000008CB18FE896E00197F1F700C0000045
:102130008CEC0E94471084E40E94471078947698B3
:102140006E9A95E09A95F1F700006E98AAE4AA9528
:10215000F1F700C0669910C0B0EFBA95F1F7769824
:102160006E9A85E08A95F1F700006E989AE49A9548
:10217000F1F700C0669BF0CFA0EFAA95F1F7F894B5
:1021800076986E9A8FE797E00197F1F700C000000C
:102190006E98AFEEB0E01197F1F700C000008CB17F
:1021A0008FE896E00197F1F700C000008CEC0E94E8
:1021B00047108EEB0E9447100E945B1089830E949B
:1021C0005B10282F789430E0322F22279981290F35
:1021D000311DC901330FAA0BBB0B89839A83AB83D3
:1021E000BC83BC01CD010E946D1C20E030E040E8C2
:1021F0005DE369837A838B839C8369817A818B8198
:102200009C810E94221D69837A838B839C836981D0
:102210007A818B819C810F900F900F900F90DF91AE
:10222000CF9108951092CD0087E68093CC0088E18D
:102230008093C90086E08093CA0008958091C80009
:1022400087FFFCCF8091CE0008959091C80095FF44
:10225000FCCF8093CE000895FC019081992351F02A
:1022600031968091C80085FFFCCF9093CE0091916C
:102270009111F7CF08959B01672B69F0FC01280F9E
:10228000391F91918091C80085FFFCCF9093CE00BB
:10229000E217F307B1F708952F923F924F925F92A2
:1022A0006F927F928F929F92AF92BF92CF92DF9266
:1022B000EF92FF920F931F93CF93DF93CDB7DEB7CB
:1022C000E7970FB6F894DEBF0FBECDBF922E832ED8
:1022D000742E652E562E472E382E292EA0E00E94F1
:1022E000381B09F49BC0A0E00E94381B0CF484C08A
:1022F000FE013196FFABEEAB1BAAAEA9BFA9EBA9BD
:10230000AE0FB11DBDABACAB8AE0A82EB12CC12C79
:10231000D12CE12CF12C00E010E0292D382D472D97
:10232000562D652D742D832D922D0E94551A205DFA
:10233000ACA9BDA92C93292D382D472D562D652DDF
:10234000742D832D922D0E94571A922E832E742E57
:10235000652E562E472E382E292EBBA9BF5FBBAB4C
:10236000A0E00E94381B49F6AEA9BFA9FBA9AF0F98
:10237000B11D1C928F2F8695C1F0EEA9FFA9BD015A
:102380009F012F5F3F4F8150820F932F911D21910D
:10239000DB013E91BD01AF0141505109DA013C938F
:1023A000DB012C938E179F0791F79981992359F0A0
:1023B000FE0132968091C80085FFFCCF9093CE003D
:1023C00091919111F7CFE7960FB6F894DEBF0FBE4B
:1023D000CDBFDF91CF911F910F91FF90EF90DF90D4
:1023E000CF90BF90AF909F908F907F906F905F90B5
:1023F0004F903F902F9008958DE28983832D0E9406
:10240000E51A922E832E742E652E562E472E382EC8
:10241000292ECE0102969FAB8EAB6ECF80E38983CF
:102420001A8290E3C5CF6A9A3F9A5798729A089594
:10243000CF93DF9300D000D0CDB7DEB772988FE98D
:102440009FE00197F1F700C0000020E087E090E0F6
:1024500061E070E04798AFE9BFE01197F1F700C085
:1024600000004F9B07C0AB01082E01C0440F0A9427
:10247000EAF7242B479AEFE9FFE03197F1F700C024
:102480000000019738F730E0322F222740E087E044
:1024900090E0E1E0F0E04798AFE9BFE01197F1F795
:1024A00000C000004F9B07C0BF01082E01C0660F8F
:1024B0000A94EAF7462B479AAFE9BFE01197F1F784
:1024C00000C00000019738F7242B729A22FD2FC01C
:1024D000C9019695879596958795969587959C01C0
:1024E00050E040E029833A834B835C83CA01B90101
:1024F0000E946B1C20E030E040E85EE369837A8351
:102500008B839C8369817A818B819C810E94221DAF
:1025100069837A838B839C8369817A818B819C8197
:102520000F900F900F900F90DF91CF91089560E082
:1025300070E088EC92ECECCFCF93DF9300D000D02A
:10254000CDB7DEB70E94181220E030E040E151E440
:1025500069837A838B839C8369817A818B819C8157
:102560000E94221D20E030E040EA50E469837A8333
:102570008B839C8369817A818B819C810E94CA1B99
:1025800020E030E040E052E469837A838B839C83CF
:1025900069817A818B819C810E94591B69837A832E
:1025A0008B839C8369817A818B819C810F900F90B2
:1025B0000F900F90DF91CF91089589B18295869504
:1025C000877091E08927817090E00895CF93DF9321
:1025D00000D000D0CDB7DEB74D99FECF5D9A25E093
:1025E0002A95F1F700005E9835E03A95F1F7000082
:1025F0004D99FECF28E180E090E0DC015E9A45E055
:102600004A95F1F70000880F991FAA1FBB1F5E981B
:1026100055E05A95F1F700004D9B03C00196A11DAE
:10262000B11D215059F726E0B695A7959795879546
:102630002A95D1F75E9A65E06A95F1F700005E98F9
:1026400025E02A95F1F700009C01AD014058CA0130
:10265000B9010F900F900F900F90DF91CF910895D7
:10266000803439F0803889F0803249F05E980C94DB
:10267000E61283E0809368095E980C94E61282E08B
:10268000809368095E980C94E61281E08093680953
:102690005E980C94E612569A55985D9A0C943013F5
:1026A0008F929F92AF92BF92CF92DF92EF92FF9262
:1026B000CF93DF9300D000D000D0CDB7DEB78E83AC
:1026C000882E912CB12CA12C882379F11D82C12C4C
:1026D000D12C76010E94E612C60ED71EE81EF91E06
:1026E0008D818F5F8D839E819813F4CFC701B601D2
:1026F000A50194010E94241A29833A834B835C83A9
:1027000069817A818B819C8126960FB6F894DEBF11
:102710000FBECDBFDF91CF91FF90EF90DF90CF90B4
:10272000BF90AF909F908F90089519821A821B825C
:102730001C82E6CF8F929F92AF92BF92CF92DF9290
:10274000EF92FF92CF93DF9300D000D000D0CDB7AF
:10275000DEB78E83882E912CB12CA12C882309F40E
:1027600049C01D82C12CD12C76010E94E612C60EF2
:10277000D71EE81EF91E8D818F5F8D839E81981371
:10278000F4CFC701B601A50194010E94241A298340
:102790003A834B835C83CA01B9010E946B1C209170
:1027A0006409309165094091660950916709698310
:1027B0007A838B839C8369817A818B819C810E943F
:1027C000581B69837A838B839C8369817A818B818F
:1027D0009C8126960FB6F894DEBF0FBECDBFDF9169
:1027E000CF91FF90EF90DF90CF90BF90AF909F90F0
:1027F0008F90089560E070E080E090E0D0CFCF93BC
:10280000DF9300D000D0CDB7DEB70E949A1320919D
:10281000690930916A0940916B0950916C0969838B
:102820007A838B839C8369817A818B819C810E94CE
:10283000CA1B69837A838B839C8369817A818B81AC
:102840009C810F900F900F900F90DF91CF91089582
:102850008F929F92AF92BF92CF92DF92EF92FF92B0
:10286000CF93DF9300D000D000D0CDB7DEB78E83FA
:10287000882E912CB12CA12C8823E1F11D82C12C32
:10288000D12C76010E94E612C60ED71EE81EF91E54
:102890008D818F5F8D839E819813F4CFC701B60120
:1028A000A50194010E94241A29833A834B835C83F7
:1028B000CA01B9010E946B1C362F272F432F522FBC
:1028C000BC01409364095093650960936609709355
:1028D000670926960FB6F894DEBF0FBECDBFDF9115
:1028E000CF91FF90EF90DF90CF90BF90AF909F90EF
:1028F0008F90089530E020E080E090E0DFCF60939B
:10290000690970936A0980936B0990936C09089523
:10291000CF93DF9300D000D0CDB7DEB780916909A7
:1029200090916A09A0916B09B0916C09BC01CD012D
:102930000F900F900F900F90DF91CF9108956093BB
:1029400064097093650980936609909367090895F7
:10295000CF93DF9300D000D0CDB7DEB7809164096C
:1029600090916509A0916609B0916709BC01CD01FC
:102970000F900F900F900F90DF91CF9108955E9878
:102980005E9A87E191E00197F1F700C00000089599
:102990005E98089547E050E080E05E9A29B1207289
:1029A000042E01C0220F0A94EAF7822B5E98415050
:1029B000510998F70895F8943E9A4698E4E9F0E0B2
:1029C00011821082109299001092980010929B0030
:1029D00010929A0010929D0010929C0081E88093C2
:1029E000900089E08093910011821082789408957C
:1029F000809398000895F894279AA4E8B0E011967F
:102A00001C921E92E8E8F0E01182108210928B0076
:102A100010928A0010928D0010928C0089E08093B1
:102A2000810082E080936F0011961C921E9280E8D4
:102A30009EE3918380831092570910925809109257
:102A4000590910925A091092530910925409109280
:102A500055091092560978940895462F572FBC01B6
:102A6000F894443151056105710521F441E050E0CD
:102A700060E070E0409357095093580960935909FA
:102A800070935A09109253091092540910925509E3
:102A90001092560910928500109284002F98789415
:102AA0000895F894549A10924F0910925009109278
:102AB00051091092520910924B0910924C09109230
:102AC0004D0910924E0978940895F89460934F0937
:102AD00070935009809351099093520910924B09B9
:102AE00010924C0910924D0910924E0910928500D7
:102AF000109284005C987894089550913E0940911A
:102B00003F0930914009209141098091420980910B
:102B100043098091440980914509652F742F832FC3
:102B2000922F089510923E0910923F091092400989
:102B300010924109109242091092430910924409DF
:102B40001092450908951F93CF93DF93CDB7DEB759
:102B50002A970FB6F894DEBF0FBECDBF809147090C
:102B600090914809A0914909B0914A09809146097C
:102B70000E947B10462F572FBC0149835A836B83D9
:102B80007C8387E00E94F70F89879A87182F8091AE
:102B9000470990914809A0914909B0914A098D834C
:102BA0009E83AF83B88729813A814B815C81BC01C8
:102BB000CD010E94C51B811104C080914609811777
:102BC00079F069817A818B819C810E943C1C362F2F
:102BD000272F69857A857727832F922F0E9474018A
:102BE00089819A81AB81BC81809347099093480980
:102BF000A0934909B0934A099985909346092A966A
:102C00000FB6F894DEBF0FBECDBFDF91CF911F91FD
:102C100008950895409157095091580960915909B4
:102C200070915A09411551056105710519F180919D
:102C3000530990915409A0915509B09156090196F4
:102C4000A11DB11D8093530990935409A093550978
:102C5000B0935609481759076A077B0758F485B19E
:102C6000805885B910925309109254091092550951
:102C700010925609089540914F0950915009609162
:102C8000510970915209411551056105710521F1F4
:102C900080914B0990914C09A0914D09B0914E093A
:102CA0000196A11DB11D80934B0990934C09A093EF
:102CB0004D09B0934E09481759076A077B0760F41E
:102CC0008BB190E189278BB910924B0910924C0976
:102CD00010924D0910924E0908951F920F920FB64F
:102CE0000F9211242F933F934F935F936F937F9392
:102CF0008F939F93AF93BF93EF93FF9320913E09E0
:102D000030913F0940914009509141096091420939
:102D1000709143098091440990914509A1E00E9476
:102D20002C1B20933E0930933F0940934009509358
:102D30004109609342097093430980934409909339
:102D400045090E940A160E943B16FF91EF91BF9120
:102D5000AF919F918F917F916F915F914F913F9133
:102D60002F910F900FBE0F901F9018950E946E0F1D
:102D700085E38A95F1F70000ECE5F9E01082118215
:102D80001282138214821582168217820895883067
:102D900030F4E82FF0E0E45AF64F808108958FEF89
:102DA0000895883088F4683078F4E82FF0E0E45A29
:102DB000F64F8081082E000C990B02C095958795DF
:102DC0006A95E2F7817008958FEF0895CF93C62F2B
:102DD0008830A8F4E82FF0E0E45AF64F6083805E74
:102DE000880F0E94740F81110CC08C2F0E94C90F94
:102DF000811107C00E94C10F80E0CF9108958FEF2D
:102E0000FCCF0E94C10F8FEFF8CFCF93DF938830B4
:102E1000D0F5E62FE41BFF0BDF01AF3FFFEFBF074D
:102E200094F16150673078F5442369F1E82FF0E0C0
:102E3000E45AF64F90811196022E000C330B0A2EA5
:102E400001C0220F0A94EAF7C1E0D0E002C0CC0F23
:102E5000DD1F4A95E2F72197AE0101C0440FAA9504
:102E6000EAF7C92FC227C423C927C083805E880F11
:102E70000E94740F8C2F0E94C90F0E94C10F80E026
:102E8000DF91CF9108958FEFDF91CF910895CF9388
:102E9000883020F5683010F5E82FF0E0E45AF64F5E
:102EA000C08121E030E001C0220F6A95EAF74111AC
:102EB00013C02095C223C083805E880F0E94740FC8
:102EC00081110EC08C2F0E94C90F811109C00E9470
:102ED000C10F80E0CF910895C22BEDCF8FEFFACFD5
:102EE0000E94C10F8FEFF6CF41E00C94471740E0EE
:102EF0000C944717CF93883080F490E08096880F29
:102F0000991F81600E94740F0E94E50FC82FC09521
:102F10000E94C10F8C2FCF910895CFEFFBCFCF939D
:102F2000C62F883088F4683078F40E947A178F3F73
:102F300059F0082E000C990B02C095958795CA95FB
:102F4000E2F78170CF9108958FEFCF91089562E0FD
:102F500080E00E94741700C062E080E00C94771754
:102F6000CF93C82F80915B09662309F444C0816028
:102F700080935B0980915B098D7F80935B096091F1
:102F80005B0980E00E94E616811132C080915B09E6
:102F90008F7780935B0980915B098F7B80935B09BE
:102FA00080915B098F7D80935B0980915B098F7EA7
:102FB00080935B09C7FD7DC0C6FF05C080915B099A
:102FC000806480935B09C5FF05C080915B098062C6
:102FD00080935B09C4FF05C080915B098061809389
:102FE0005B0960915B0980E00E94E616882339F056
:102FF00080E0CF9108958E7F80935B09BBCF0E94C4
:10300000A71780915B098F7780935B0980915B099B
:103010008F7B80935B0980915B098F7D80935B0937
:1030200080915B098F7E80935B09C3FF05C080910F
:103030005B09806880935B09C2FF05C080915B09D2
:10304000806480935B09C1FF05C080915B09806249
:1030500080935B09C0FF05C080915B09806180930C
:103060005B0960915B0980E00E94E6168111C0CF88
:103070000E94A71780915B09806180935B09809112
:103080005B09806280935B0980915B098064809317
:103090005B0980915B09806880935B0960915B09A3
:1030A00080E00E94E616982F81E0992309F4A1CFD1
:1030B0009FCF80915B09806880935B09C6FF83CFB7
:1030C0007DCFCF9380915B098E7F80935B09809148
:1030D0005B09826080935B0960915B0980E00E94DC
:1030E000E61662E080E00E94741700C064E080E0B1
:1030F0000E948F17C0E18111C0E065E080E00E946E
:103100008F17811101C0C06266E080E00E948F17B6
:10311000811101C0C06467E080E00E948F178111B7
:1031200001C0C06862E080E00E94771700C062E0E2
:1031300080E00E94741700C064E080E00E948F1756
:10314000811101C0C16065E080E00E948F1781118C
:1031500001C0C26066E080E00E948F17811101C04B
:10316000C46067E080E00E948F17811101C0C860D1
:1031700062E080E00E9477178C2FCF9108950E9423
:10318000611887FDFCCF88E090E00197F1F70C947F
:103190006118CF93C82F0E94BF1860E08C2FCF9189
:1031A0000C94B017CF93C82F0E94BF1861E08C2FEA
:1031B000CF910C94B017CF93C0E40E94BF1860E089
:1031C0008C2F0E94B0170E94BF1861E080E00E941F
:1031D000B017CF5FC03889F7CF910895CF93C82F2C
:1031E0006623A1F06130D1F0623041F00E94BF1837
:1031F00060E084ED8C0FCF910C94B0170E94BF1843
:1032000060E084E98C0FCF910C94B0170E94BF1836
:1032100060E080E88C0FCF910C94B0170E94BF182B
:1032200060E080EC8C0FCF910C94B0170E94BF1817
:1032300090E008950E94BF1860E081E00C94B01700
:10324000882351F080915B09877F80935B096091AF
:103250005B0980E00C94E61680915B09886080939E
:103260005B0960915B0980E00C94E6160E94BF1830
:1032700060E082E00C94B017CF93C82F0E94BF1873
:10328000CA3029F061E08C2FCF910C94B017C0ECBC
:10329000843148F090EC980FC4E9943120F08451C7
:1032A000C0E88C3238F00E94BF1860E08C2FCF91BC
:1032B0000C94B017C4EDF7CF0F931F93CF93DF9308
:1032C000C82F8B0181E0C83028F0DF91CF911F918A
:1032D0000F9108950E94BF1888E08C0F60E0880F5E
:1032E000880F880F0E94B017E801085F1F4F89916F
:1032F0000E943C19C017D107D1F780E0DF91CF9130
:103300001F910F910895CF93DF93EC0104C00E94A9
:103310003C19882329F0888121968111F8CF81E01A
:10332000DF91CF910895CF93DF93EC0105C00E9408
:103330003C192196882329F0FE0184918111F7CF51
:1033400081E0DF91CF9108951F93CF93DF93182FE2
:103350000E94B61610925B0960915B0980E00E94A2
:10336000E61680E09AEF0197F1F780915B098062A1
:1033700080935B0980915B09806180935B09609118
:103380005B0980E00E94E6160E94A71780E09EE499
:103390000197F1F70E94A717C0E0D1E0CE01019795
:1033A000F1F70E94A717CE010197F1F780915B0911
:1033B0008F7E80935B0960915B0980E00E94E61636
:1033C0000E94A7172197F1F70E94BF1860E088E2DA
:1033D0000E94B0170E94BF1860E088E00E94B017FA
:1033E0000E94BF1860E081E00E94B0170E94BF18E1
:1033F00060E086E00E94B0170E94BF1860E0812F55
:103400000E94B01781E0DF91CF911F9108950C9435
:103410008F1D0C94951D0E94500E0E94900EFFCFA0
:1034200097FB072E16F4009407D077FD09D00E9471
:10343000441B07FC05D03EF4909581959F4F08955D
:10344000709561957F4F0895A1E21A2EAA1BBB1BB0
:10345000FD010DC0AA1FBB1FEE1FFF1FA217B30760
:10346000E407F50720F0A21BB30BE40BF50B661F76
:10347000771F881F991F1A9469F76095709580953A
:1034800090959B01AC01BD01CF010895A29FB001B1
:10349000B39FC001A39F700D811D1124911DB29F88
:1034A000700D811D1124911D0895689401C0E89448
:1034B000F92FF12B12F00C94891AA0E0B0E0E3E6AA
:1034C000FAE10C94FB1A092E059422F40E94E51AE5
:1034D000112392F4F0E80F26FFEFE094F0940095AA
:1034E0001095B094C094D094A194BF0ACF0ADF0A7B
:1034F000EF0AFF0A0F0B1F0B0E94941A07FC0E9491
:10350000E51ACDB7DEB7ECE00C94171B689401C048
:10351000E8948F929F92CF93DF930E94941ADF9149
:10352000CF919F908F90089588249924F401E4010D
:10353000B0E49F93AA279A158B049C04ED05FE0521
:10354000CF05D007A10798F4AD2FDC2FCF2FFE2F8A
:10355000E92D982C892E982F872F762F652F542FA1
:10356000432F322F2227B85031F7BF9127C01B2E8F
:10357000BF91BB27220F331F441F551F661F771FA4
:10358000881F991F881C991CEE1FFF1FCC1FDD1F71
:10359000AA1FBB1F8A149B04EC05FD05CE05DF05A1
:1035A000A007B10748F08A189B08EC09FD09CE096D
:1035B000DF09A00BB10B21601A94E1F62EF49401FF
:1035C000AF01BE01CD01000C089560957095809506
:1035D000909530954095509521953F4F4F4F5F4FB7
:1035E0006F4F7F4F8F4F9F4F08952F923F924F9273
:1035F0005F926F927F928F929F92AF92BF92CF9283
:10360000DF92EF92FF920F931F93CF93DF93CDB78B
:10361000DEB7CA1BDB0B0FB6F894DEBF0FBECDBF03
:1036200009942A88398848885F846E847D848C84D4
:103630009B84AA84B984C884DF80EE80FD800C81DD
:103640001B81AA81B981CE0FD11D0FB6F894DEBFC0
:103650000FBECDBFED0108950024A7FD00942A0FF1
:10366000301D401D501D601D701D801D901D089552
:103670000024A7FD00942A17300540055005600579
:103680007005800590050895AA1BBB1B51E107C07A
:10369000AA1FBB1FA617B70710F0A61BB70B881FE2
:1036A000991F5A95A9F780959095BC01CD01089571
:1036B0005058BB27AA270E94701B0C94E31C0E9441
:1036C000D51C38F00E94DC1C20F039F49F3F19F41F
:1036D00026F40C94D21C0EF4E095E7FB0C94CC1C61
:1036E000E92F0E94F41C58F3BA1762077307840786
:1036F000950720F079F4A6F50C94161D0EF4E095CC
:103700000B2EBA2FA02D0B01B90190010C01CA019B
:10371000A0011124FF27591B99F0593F50F4503E46
:1037200068F11A16F040A22F232F342F4427585F38
:10373000F3CF469537952795A795F0405395C9F750
:103740007EF41F16BA0B620B730B840BBAF0915008
:10375000A1F0FF0FBB1F661F771F881FC2F70EC0A7
:10376000BA0F621F731F841F48F48795779567957A
:10377000B795F7959E3F08F0B0CF9395880F08F066
:103780009927EE0F9795879508950E94A81C08F435
:1037900081E008950E94DE1B0C94E31C0E94DC1C57
:1037A00058F00E94D51C40F029F45F3F29F00C949A
:1037B000CC1C51110C94171D0C94D21C0E94F41CAB
:1037C00068F39923B1F3552391F3951B550BBB2750
:1037D000AA2762177307840738F09F5F5F4F220F95
:1037E000331F441FAA1FA9F335D00E2E3AF0E0E88C
:1037F00032D091505040E695001CCAF72BD0FE2FD6
:1038000029D0660F771F881FBB1F26173707480769
:10381000AB07B0E809F0BB0B802DBF01FF27935821
:103820005F4F3AF09E3F510578F00C94CC1C0C94FD
:10383000171D5F3FE4F3983ED4F38695779567951F
:10384000B795F7959F5FC9F7880F911D9695879556
:1038500097F90895E1E0660F771F881FBB1F621775
:1038600073078407BA0720F0621B730B840BBA0B33
:10387000EE1F88F7E09508950E94FC1C88F09F5782
:1038800098F0B92F9927B751B0F0E1F0660F771F84
:10389000881F991F1AF0BA95C9F714C0B13091F07A
:1038A0000E94161DB1E008950C94161D672F782F05
:1038B0008827B85F39F0B93FCCF38695779567953F
:1038C000B395D9F73EF490958095709561957F4FAB
:1038D0008F4F9F4F0895E89409C097FB3EF4909551
:1038E0008095709561957F4F8F4F9F4F9923A9F0D9
:1038F000F92F96E9BB279395F69587957795679568
:10390000B795F111F8CFFAF4BB0F11F460FF1BC0AB
:103910006F5F7F4F8F4F9F4F16C0882311F096E93E
:1039200011C0772321F09EE8872F762F05C06623EC
:1039300071F096E8862F70E060E02AF09A95660FA5
:10394000771F881FDAF7880F9695879597F908955E
:10395000990F0008550FAA0BE0E8FEEF16161706A0
:10396000E807F907C0F012161306E407F50798F008
:10397000621B730B840B950B39F40A2661F0232B21
:10398000242B252B21F408950A2609F4A140A6959D
:103990008FEF811D811D089597F99F6780E870E082
:1039A00060E008959FEF80EC089500240A941616B5
:1039B000170618060906089500240A94121613061D
:1039C000140605060895092E0394000C11F48823AB
:1039D00052F0BB0F40F4BF2B11F460FF04C06F5FC7
:1039E0007F4F8F4F9F4F089557FD9058440F551F9D
:1039F00059F05F3F71F04795880F97FB991F61F071
:103A00009F3F79F087950895121613061406551FE7
:103A1000F2CF4695F1DF08C0161617061806991F53
:103A2000F1CF86957105610508940895E894BB2748
:103A300066277727CB0197F908950E94A81C08F400
:103A40008FEF08950E94351D0C94E31C0E94D51C35
:103A500038F00E94DC1C20F0952311F00C94CC1C53
:103A60000C94D21C11240C94171D0E94F41C70F3AA
:103A7000959FC1F3950F50E0551F629FF001729F13
:103A8000BB27F00DB11D639FAA27F00DB11DAA1F22
:103A9000649F6627B00DA11D661F829F2227B00D6F
:103AA000A11D621F739FB00DA11D621F839FA00DFA
:103AB000611D221F749F3327A00D611D231F849F4A
:103AC000600D211D822F762F6A2F11249F575040A1
:103AD0009AF0F1F088234AF0EE0FFF1FBB1F661F1C
:103AE000771F881F91505040A9F79E3F510580F0E5
:103AF0000C94CC1C0C94171D5F3FE4F3983ED4F358
:103B0000869577956795B795F795E7959F5FC1F788
:103B1000FE2B880F911D9695879597F90895A8E13A
:103B2000B0E042E050E00C949C1D0E94AA1D272F9B
:103B30000C94AB1DDC01CB01FC01F999FECF06C052
:103B4000F2BDE1BDF89A319600B40D92415050405B
:103B5000B8F70895262FF999FECF1FBA92BD81BDFF
:103B600020BD0FB6F894FA9AF99A0FBE01960895FF
:043B7000F894FFCFF7
:103B7400000100000100000000000000010102013A
:103B840043000000000000000201030146000000A1
:103B940000000000030104020D000000000000000A
:103BA40004010503120000000000000005010604E2
:103BB4001400000000000000060107051F000000BB
:103BC40000000000070108062800000000000000B3
:103BD400080109072F0000000000000009010A087D
:103BE40034000000000000000A010B090A00000074
:103BF400000000000B010B0A3D0000000000000063
:103C04000C010C0B00000000000000000D010E0D63
:103C140010000000000000000E010F0D1100000054
:103C2400000000000F010F0E030000000000000060
:103C3400100200000D1000006300000011020000DB
:103C44000E1200006300000012011312190000009C
:103C540000000000130142121A00000000000000DE
:103C6400140115141B0000000000000015011614B7
:103C74001C00000000000000160117151D000000C4
:103C840000000000170118161E00000000000000CC
:103C940018011817050000000000000019020000B8
:103CA400122000002C0100001A0200001322000060
:103CB400640000001B0200001424000064000000E3
:103CC4001C02000015280000E70300001D0200008C
:103CD400162A00002C0100001E020000172C000010
:103CE400640000001F01201F2400000000000000E9
:103CF4002001211F250000000000000021012220D6
:103D040026000000000000002201232127000000FB
:103D14000000000023012322060000000000000030
:103D2400240200001F42000063000000250200007E
:103D34002044000063000000260200002148000027
:103D44006400000027020000224000002C01000053
:103D5400280129282C0000000000000029012A283D
:103D64002D000000000000002A012B292E00000075
:103D7400000000002B012B2A0700000000000000B7
:103D84002C02000028500000630000002D020000F7
:103D940029520000630000002E0200002A54000093
:103DA400640000002F01302F3200000000000000EA
:103DB4003001312F330000000000000031013130A8
:103DC4000800000000000000320200002F60000024
:103DD4002C01000033020000306200006400000087
:103DE4003401353439000000000000003501363458
:103DF4003A00000000000000360137353B000000A7
:103E040000000000370138363C00000000000000CC
:103E140038013837090000000000000039020000B2
:103E2400342E0000640000003A0200003530000027
:103E3400630000003B0200003664000064000000E0
:103E44003C02000037680000630000003D013E3D75
:103E540040000000000000003E013F3D4100000022
:103E6400000000003F013F3E0B0000000000000086
:103E7400400200003D140000630000004102000005
:103E84003E180000630000004201421304000000D9
:103E94000000000043034443000000000000330F0F
:103EA400440345434400000000003C0F45014544E1
:103EB4000100000000000000460347460000000027
:103EC4000000450F47034846000000000000490F6A
:103ED400480148470200000000000000FF065D059D
:103EE4006805730578057E0586058E0592059A0595
:103EF4009E05A905B005B605BA05B005B605BA050F
:103F0400BE05C405CB05D505E005EB05B005BE052A
:103F1400C405CB05D505E005EB05F505FF05EB0567
:103F24000906B005F5051306EB050906F5051306A4
:103F3400EB05B005F5051306EB051D06EB05B0050D
:103F44001D06EB0526062E0639064106B005260693
:103F54002E06390641064C065606B0054C06560692
:103F6400B00561066305B00561066305B00500058B
:103F7400000607B60701020104074B0C0203020402
:103F8400072D0B0304030407290904050400071083
:103F9400080501050007570706000600073E070746
:103FA4000007000790062020202020202020202029
:103FB4000020202020202020207C004D454E493A1E
:103FC400003E00533A002F00543A004300537461FA
:103FD40072742F53746F700050757A204F6E2F4F88
:103FE40066660054656D700050726F762E00506FD7
:103FF4007470616C610053746162696C2E0052616B
:104004006400476173656E6A65004F6B6F004461BD
:1040140074756D2069205672005365727669730059
:10402400497A6C617A004D696E004D617800567270
:10403400656D650042727A696E6100506F636574E4
:104044006E6F204400562E20506F7470616C6500B2
:1040540043656B616E6A6520562E0042727A696E02
:104064006120562E00446F7A6972616E6A6500445D
:104074006F7A2E5061757A610042726F6A20706F98
:104084006E2E005061757A612E446F7A0056726507
:104094006D6520562E004F6B6F206D696E004F6B5F
:1040A4006F206D696E20562E004F6B6F206D617806
:1040B400004F6B6F206D617820562E004B7269742F
:1040C4002074656D700053746172742074656D7032
:1040D400005374617274004B5249542054454D008E
:1040E400473A5241440054454D5000473A53454ED7
:1040F4005A4F52004F4B4F00435249544943414C8D
:104104003A2053746172742077616974696E670A26
:1041140000435249544943414C3A2053746F702030
:1041240077616974696E670A0053544F5050494E61
:10413400473A20466C616D652073746F7070696EC8
:10414400670A0053544F5050494E473A204372690E
:10415400746963616C0A0053544F5050494E473A96
:1041640020466C616D652073746F707065640A001D
:1041740053544F5050494E473A205374617274203F
:1041840077616974696E670A0053544F5050494E01
:10419400473A2053746F702077616974696E670AB7
:1041A4000052554E3A2044697370656E73657220EF
:1041B400737461727465640A0052554E3A20466CF9
:1041C400616D652064657465637465640A005255A5
:1041D4004E3A20466C616D65206E6F742064657480
:1041E40065637465640A0052554E3A2048656174EB
:1041F40065722073746F707065640A0052554E3A8C
:104204002046616E20737461727465640A005255AD
:104214004E3A204572726F720A0052554E3A20434C
:104224007269746963616C0A0052554E3A204D619B
:10423400782074656D700A0052554E3A20446973B3
:1042440070656E7365722073746F707065640A00B4
:104254005354415254494E473A2046616E20737478
:1042640061727465640A005354415254494E473A8A
:104274002054657065726174757265206372697427
:104284006963616C0A005354415254494E473A20C1
:1042940046616E2073746F707065640A00535441F4
:1042A4005254494E473A2044697370656E7365727F
:1042B40020737461727465640A0053544152544902
:1042C4004E473A2048656174657220737461727454
:1042D40065640A005354415254494E473A2045728A
:1042E400726F720A005354415254494E473A204364
:1042F4007269746963616C0A005354415254494EA3
:10430400473A20466C616D65206465746563746525
:10431400640A005354415254494E473A20466C6152
:104324006D65206E6F742064657465637465640ADA
:10433400005354415254494E473A204865617465CC
:10434400722073746F707065640A00535441525440
:10435400494E473A20537563636573730A00534D9E
:104364003A20496E697469616C697A65640A00531C
:10437400746174653A200053544F5000504F5450A8
:10438400414C4100535441422E00474153454E4A4B
:0A439400450043454B414E4A4500E9
:00000001FF
