:100000000C9456000C9473000C9473000C947300C1
:100010000C9473000C9473000C9473000C94730094
:100020000C9473000C9473000C9473000C94730084
:100030000C9473000C9473000C9473000C94730074
:100040000C9473000C947E1B0C9473000C9473003E
:100050000C9473000C9473000C9473000C94730054
:100060000C9473000C9479160C9473000C94730028
:100070000C9473000C9473000C9473000C94730034
:100080000C9473000C9473000C9473000C94730024
:100090000C9473000C9473000C9473000C94730014
:1000A0000C9473000C9473000C94730011241FBE05
:1000B000CFEFDAE0DEBFCDBF11E0A0E0B1E0E8E7CE
:1000C000F9E402C005900D92A637B107D9F722E0F6
:1000D000A6E7B1E001C01D92AB3AB207E1F70E947A
:1000E00001210C94BA240C9400002F923F924F925D
:1000F0005F927F928F929F92AF92BF92CF92DF9248
:10010000EF92FF920F931F93CF93DF9300D000D015
:1001100000D0CDB7DEB72D833E83942E852E562E8C
:10012000472E382E292E0B831C83A0E00E944722E5
:100130000CF46CC0712C4B815C81470D511D5A83AE
:1001400049838AE0A82EB12CC12CD12CE12CF12CB2
:1001500000E010E02D813E81492D582D652D742D34
:10016000832D922D0E944221205DA981BA812C937A
:100170002D813E81492D582D652D742D832D922D75
:100180000E9444212D833E83942E852E562E472E89
:10019000382E292E7394A0E00E94472261F6AB818D
:1001A000BC81A70DB11D1C92872D8695B9F0EB81FE
:1001B000FC81BD019F012F5F3F4F8150280F311DF2
:1001C0008191DB019E91BD018F0101501109D80180
:1001D0009C93DB018C932E173F0791F726960FB661
:1001E000F894DEBF0FBECDBFDF91CF911F910F916D
:1001F000FF90EF90DF90CF90BF90AF909F908F9047
:100200007F905F904F903F902F900895EB81FC81FD
:100210008DE28193832D0E94D2212D833E83942EE3
:10022000852E562E472E382E292EFC83EB8382CF27
:100230000C941011F8940E94381178940895CF937B
:10024000DF9300D000D00F92CDB7DEB790E3998353
:1002500098E79A83E82FE295EF70803AF8F0EA5039
:10026000F0E0E050FF4F90819B838F708A30D8F090
:100270008A50E82FF0E0E050FF4F80818C831D8290
:10028000F894CE0101960E94381178940F900F9047
:100290000F900F900F90DF91CF910895E05DEB8369
:1002A0008F708A3028F7805D8C83E9CF9F92AF9260
:1002B000BF92CF92DF92EF92FF920F931F93CF9353
:1002C000DF93CDB7DEB72F970FB6F894DEBF0FBE22
:1002D000CDBFF82FE92FA0E00E944722F9F0CE0110
:1002E00001965C018C018F2F9E2F0E947500F8945F
:1002F000C5010E94381178942F960FB6F894DEBF8E
:100300000FBECDBFDF91CF911F910F91FF90EF9066
:10031000DF90CF90BF90AF909F90089580E3898346
:100320001A82CE0101965C01E2CFDB0190E39C933F
:1003300098E711969C931197E82FE295EF70803A19
:10034000B8F0EA50F0E0E050FF4F908112969C9395
:1003500012978F708A3098F08A50E82FF0E0E050C2
:10036000FF4F808113968C93139714961C920895D7
:10037000E05D1296EC9312978F708A3068F7805D7B
:1003800013968C93139714961C9208957F928F92D4
:100390009F92AF92BF92CF92DF92EF92FF920F9314
:1003A0001F93CF93DF93CDB7DEB7CE50D1400FB6BA
:1003B000F894DEBF0FBECDBFCE01825E9E4FFC0122
:1003C000619171916F018D5191400E948A249981B0
:1003D000992309F446C09E012F5F3F4F79015E01CA
:1003E000B39480E3982E07C07F018FEFE81AF80AD4
:1003F0009181992371F1F7019532B1F71082E216DC
:10040000F30629F0F894C9010E9438117894F70195
:100410008181843609F453C0833709F445C082369C
:10042000A9F1BE01665F7E4F0E949501F894CE014E
:10043000865F9E4F0E9438117894F701319697019C
:100440002E5F3F4F7F018FEFE81AF80A91819111DB
:10045000D2CF2E153F0529F0F894C9010E9438111A
:100460007894C25FDE4F0FB6F894DEBF0FBECDBFEB
:10047000DF91CF911F910F91FF90EF90DF90CF9080
:10048000BF90AF909F908F907F900895F601B50137
:100490008081F2E0CF0ED11C0E949501F894C50135
:1004A0000E9438117894C9CFF60180819181F2E0E1
:1004B000CF0ED11CF8940E9438117894BECFF6016B
:1004C000B08122E0C20ED11CF181EF2FEE0FEE0BB6
:1004D0002B2F3F2F4E2F5E2F6E2F7E2F8E2F9E2F76
:1004E000A0E07A2C8B2C0E94472251F085010E94BB
:1004F0007500F894872D982D0E94381178949DCF1F
:10050000F50190821182F5CFAF92BF92DF92EF9208
:10051000FF920F931F93CF93DF93A0E00E94472297
:1005200061F00E947500DF91CF911F910F91FF90B4
:10053000EF90DF90BF90AF90089580E3F801808343
:100540001182F1CF61E070E080E090E00C94DF1A5E
:1005500060E070E0CB010C94DF1A2FB130E0A9010C
:1005600002C0559547958A95E2F7CA018095909506
:10057000817008951F93CF93DF93CDB7DEB72D978A
:100580000FB6F894DEBF0FBECDBF182F86E0EFE6A2
:10059000F1E0DE01189601900D928A95E1F706C010
:1005A0008FE99FE00197F1F700C000000E947616E6
:1005B0008111F6CF66E070E0CE0108960E949A1590
:1005C0009FEF21EE84E0915020408040E1F700C091
:1005D00000008BE1898392E09A8392E79B839EE6F9
:1005E0009C831D838E8383E08F8306C08FE99FE009
:1005F0000197F1F700C000000E9476168111F6CF36
:1006000067E070E0CE0101960E949A159FEF21EEFF
:1006100084E0915020408040E1F700C0000082E774
:100620008B8706C08FE99FE00197F1F700C00000BB
:100630000E9476168111F6CF66E070E0CE01089632
:100640000E949A152D960FB6F894DEBF0FBECDBF4F
:10065000DF91CF911F9108951F93CF93DF93CDB773
:10066000DEB72D970FB6F894DEBF0FBECDBF182FA3
:1006700086E0EFE6F1E0DE01189601900D928A9592
:10068000E1F706C08FE99FE00197F1F700C0000095
:100690000E9476168111F6CF66E070E0CE010896D2
:1006A0000E949A159FEF21EE84E0915020408040F7
:1006B000E1F700C000008BE1898392E09A8392E722
:1006C0009B8396E69C831D838E8383E08F8306C085
:1006D0008FE99FE00197F1F700C000000E947616B5
:1006E0008111F6CF67E070E0CE0101960E949A1565
:1006F0009FEF21EE84E0915020408040E1F700C060
:10070000000082E78B8706C08FE99FE00197F1F731
:1007100000C000000E9476168111F6CF66E070E0FE
:10072000CE0108960E949A152D960FB6F894DEBF5A
:100730000FBECDBFDF91CF911F91089580B38C780C
:1007400080BB549A5C9886E00C942C03CF92DF9285
:10075000EF92FF920F931F93CF93DF93CDB7DEB746
:1007600028970FB6F894DEBF0FBECDBF6C01DC0139
:1007700012968C911297873609F464C08337A9F0DA
:10078000833609F493C0823709F47EC028960FB6E9
:10079000F894DEBF0FBECDBFDF91CF911F910F91B7
:1007A000FF90EF90DF90CF90089513968C91139760
:1007B000853609F4A7C0843749F786E7E82E81E03B
:1007C000F82E08E711E029E731E04AE751E066E05A
:1007D00071E08BE791E00E94541EF60184818F3F07
:1007E00009F4D2C080937B01D60115966C916F3FBE
:1007F00009F4C7C060930601F60146814F3F09F432
:10080000BDC040937A01D60117962C912F3F09F471
:10081000B2C020937901F60100850F3F09F4A8C00A
:1008200000937801D6011996ED91FC91FE2EEF2EE2
:10083000319609F498C0F0927701E09276010E9417
:10084000071FA4CF13968C91853609F09FCF88E0BF
:10085000EFE0F1E0DE01119601900D928A95E1F74B
:10086000F601848195819827892798270E94D51FB2
:100870009827892798279E838D8368E070E0CE01B2
:1008800001960E949A1582CFF6018381843609F081
:100890007DCF10E000E070E060E0C8010E94D91F49
:1008A0000F5F1F4F0F3F1105B1F770CFF601838126
:1008B0008237E1F0833709F44BC0863609F066CF02
:1008C00087E00E94C312882309F460CF15E0F12C61
:1008D000E12C87E00E94E212E816F90608F47C0198
:1008E0001150B9F7B70180E990E019C084818823DD
:1008F00031F161E070E090E080E00E94D91F109239
:100900007C0144CF16966D917C91179776276727C7
:10091000762714968D919C91982789279827289659
:100920000FB6F894DEBF0FBECDBFDF91CF911F9100
:100930000F91FF90EF90DF90CF900C94D91F70E053
:1009400060E090E080E00E94D91F10927C011ECFF1
:1009500014968C91882321F081E080937E0116CF3C
:1009600010927E0113CFE0907601F090770167CF6F
:100970000091780157CF209179014DCF40917A01B4
:1009800042CF6091060138CF80917B012DCF4F92ED
:100990005F926F927F928F929F92AF92BF92CF920F
:1009A000DF92EF92FF920F931F93CF93DF93CDB718
:1009B000DEB7A0970FB6F894DEBF0FBECDBF84E1BF
:1009C00090E00E94D51F4C0188E190E00E94D51F65
:1009D0008EE290E00E94D51F6C0180E990E00E94B9
:1009E000D51F5C0180917C01813011F010927C0157
:1009F0001F8A1E8A10E000E020E44CE250E06DE225
:100A000070E08EE290E00E94D2132FEF83ED90E32E
:100A1000215080409040E1F700C00000DE01569672
:100A20007D0120E44CE250E06DE270E08EE290E067
:100A30000E94AE140E891F890115110509F468C1C1
:100A40007801F294E2948FE0E822EF24F822EF2478
:100A5000C701B0E0A0E08D8F9E8FAF8FB8A3B70124
:100A6000CD010E946623762E672E582E492E012F27
:100A700002950F701E2D80917C01813039F08E140B
:100A80009F0408F0D3C181E080937C0187E00E943D
:100A9000C31281114CC1F0907C01FF2009F4A5C163
:100AA000E12CF12CB12CA12C86E0EFE6F1E0DE0187
:100AB0001E9601900D928A95E1F706C0AFE9BFE05E
:100AC0001197F1F700C000000E9476168111F6CF51
:100AD000BFEF21EE84E0B15020408040E1F700C03C
:100AE000000066E070E0CE010E960E949A158CE040
:100AF000E7E1F1E0DE01119601900D928A95E1F7B0
:100B00000D831E83FF82E886DC24CD24DC24DA8674
:100B1000C98606C0AFE9BFE01197F1F700C0000039
:100B20000E9476168111F6CFBFEF21EE84E0B1501E
:100B300020408040E1F700C000006CE070E0CE0192
:100B400001960E949A15DE0154967D018E01085E81
:100B50001F4F9E01275E3F4FAE01465E5F4FBE01B5
:100B6000655E7F4FCE014C960E94541E2B8D809166
:100B700006013A8D498D588D281709F440C18C899A
:100B80009D892093060130937A0140937901509317
:100B9000780190937701809376016DE0E3E2F1E0D4
:100BA000DE01119601900D926A95E1F760917B014B
:100BB0006D832E833F8348875987982789279827F5
:100BC0009B878A8706C08FE99FE00197F1F700C0F5
:100BD00000000E9476168111F6CF9FEFA1EEB4E0DF
:100BE0009150A040B040E1F700C000006DE070E01F
:100BF000CE0101960E949A15C501B0E0A0E08D8F4C
:100C00009E8FAF8FB8A3B501CD010E94662360937C
:100C10000701709308018093090190930A01872DC1
:100C2000962DA52DB42D80930B0190930C01A093CC
:100C30000D01B0930E0190917C0180917D01981778
:100C400049F187E0E0E3F1E0DE01119601900D92B9
:100C50008A95E1F7992309F4CFC09D8306C0AFE9D7
:100C6000BFE01197F1F700C000000E9476168111D5
:100C7000F6CFBFEF21EE84E0B15020408040E1F795
:100C800000C0000067E070E0CE0101960E949A1556
:100C900080917C0180937D0106C0AFE9BFE0119790
:100CA000F1F700C000000E9476168111F6CFBFEF69
:100CB00021EE84E0B15020408040E1F700C0000008
:100CC00082E7898B66E070E0CE010E960E949A154D
:100CD0009FEFA1EEB4E09150A040B040E1F700C01A
:100CE0000000A0960FB6F894DEBF0FBECDBFDF9117
:100CF000CF911F910F91FF90EF90DF90CF90BF9019
:100D0000AF909F908F907F906F905F904F900895DD
:100D100082E080937C0110E000E0712C612C512C6A
:100D2000412C87E00E94C312882309F4B4CE87E0E7
:100D30000E94E2129C018A159B0508F4B1CE2A1983
:100D40003B09C901B0E0A0E08D8F9E8FAF8FB8A3A3
:100D5000B901CD010E94662320E030E048EC52E466
:100D60006D8F7E8F8F8F98A36D8D7E8D8F8D98A1C7
:100D70000E941D244B017C01C501B0E0A0E08D8FD5
:100D80009E8FAF8FB8A3B501CD010E9466239B0152
:100D9000AC0160E070EC8FE794E40E9453229B0169
:100DA000AC018D8E9E8EEF8EF8A26D8D7E8D8F8D17
:100DB00098A10E94C52220E030E0A9016D8F7E8FAE
:100DC0008F8F98A36D8D7E8D8F8D98A10E94542258
:100DD0006D8F7E8F8F8F98A36D8D7E8D8F8D98A157
:100DE0000E9437237B015B015FCE83E080937C010F
:100DF000E12CB12CA12C58CE8EE68C8336CF8C8979
:100E00009D8960917A013613BCCE6091790164139B
:100E1000B8CE609178016513B4CE6091760170917F
:100E200077016817790709F0ACCEE6CE10927C0105
:100E30002DCECF930E94C70480917C01813071F048
:100E4000C0917E01CC2321F0C1E08C2FCF91089579
:100E500080E00E944E1A8C2FCF910895C3E08C2F12
:100E6000CF9108950F931F93CF93DF93CDB7DEB744
:100E70002B970FB6F894DEBF0FBECDBF80E190E098
:100E80000E94D51F8C010E94C7040E94081B8BE1A1
:100E9000898392E09A8393E79B8393E69C8398E00F
:100EA0009D838E8383E08F8367E070E0CE0101969F
:100EB0000E949A1584E00E942C0380917C0181306D
:100EC000C1F1811134C090E080E00E94D51F892BD0
:100ED00071F1C801B0E0A0E088879987AA87BB8735
:100EE000B801CD010E94662311E020910B013091E1
:100EF0000C0140910D0150910E01688779878A8716
:100F00009B87688579858A859B850E941824181699
:100F10000CF010E081E081272B960FB6F894DEBF2D
:100F20000FBECDBFDF91CF911F910F91089582E049
:100F3000F3CF83E0F1CF0F931F93CF93DF93CDB720
:100F4000DEB72B970FB6F894DEBF0FBECDBF0E9461
:100F5000C7040E94081B8BE1898392E09A8393E780
:100F60009B8393E69C8391E09D838E8383E08F83B4
:100F700067E070E0CE0101960E949A1584E00E941D
:100F80002C0380917C018130F1F080917E018111F0
:100F900015C090E080E00E94D51F9C0181E0232BCA
:100FA00059F42B960FB6F894DEBF0FBECDBFDF917C
:100FB000CF911F910F91089580E0F3CF8FEF0E94A2
:100FC0004E1A82E0EECF84E190E00E94D51F8C01A2
:100FD00088E190E00E94D51F081B190BC801B0E002
:100FE000A0E088879987AA87BB87B801CD010E94B6
:100FF000662320910B0130910C0140910D0150911D
:101000000E01688779878A879B87688579858A85B5
:101010009B850E94C02218160CF4B7CF83E0C1CF85
:10102000FF920F931F93CF93DF93CDB7DEB72B972C
:101030000FB6F894DEBF0FBECDBF82E690E00E94EF
:10104000D51FF82E84E190E00E94D51F8C0188E125
:1010500090E00E94D51F081B190B70E060E090E043
:1010600080E00E94D91F0E94081B8BE1898392E0D7
:101070009A8393E79B8393E69C839AE09D838E8378
:1010800083E08F8367E070E0CE0101960E949A159D
:1010900080E00E944E1A86E00E942C038F2D90E083
:1010A000B0E0A0E088879987AA87BB87BC01CD0103
:1010B0000E94831A60910B0170910C0180910D01C7
:1010C00090910E010E943723688779878A879B87D2
:1010D000A885B985A017B107A8F00E94C704609140
:1010E0000B0170910C0180910D0190910E010E94F5
:1010F0003723688779878A879B87888599858017B2
:10110000910758F760E070E0CB010E94831A80E0FD
:101110002B960FB6F894DEBF0FBECDBFDF91CF91F7
:101120001F910F91FF9008952F923F924F925F92DF
:101130006F927F928F929F92AF92BF92CF92DF92E7
:10114000EF92FF920F931F93CF93DF93CDB7DEB74C
:101150006B970FB6F894DEBF0FBECDBF0E94F71A93
:101160006D877E878F87988B0E94F71A0E94F71AE7
:101170006F8B788F898F9A8F8BE1898392E09A8326
:1011800093E79B8393E69C8396E09D838E8383E025
:101190008F8367E070E0CE0101960E949A1560E0AF
:1011A00070E0CB010E94831A1B8E21E02E8B412C14
:1011B000512C320184E590E00E94D51FF82E80E585
:1011C00090E00E94D51FB82EA92E82E590E00E94E3
:1011D000D51F982E892E82E190E00E94D51F1C0118
:1011E0008EE290E00E94D51F8C0180E390E00E9487
:1011F000D51F8C87998B88E590E00E94D51F8A8B3C
:101200009B8B86E590E00E94D51F8C8B9D8B8F2D4C
:1012100090E0B0E0A0E0BC01CD010E94831A0E94E2
:10122000F71A6B017C010E94C704980150E040E06E
:10123000288739874A875B87CA01B8010E946623DD
:1012400020910701309108014091090150910A0154
:10125000688779878A879B87688579858A859B8552
:101260000E94182490E018160CF472C080E00E94CE
:10127000D51F892B09F409C1412C512C612C712CEB
:1012800080917C01813009F476C0C101B0E0A0E01A
:1012900088879987AA87BB87B101CD010E94662301
:1012A00020910B0130910C0140910D0150910E01E4
:1012B000688779878A879B87688579858A859B85F2
:1012C0000E94C02218160CF0FAC09E89992309F4D6
:1012D0005CC02B2D3A2DA8EEB3E00E942821688730
:1012E00079878A879B87D701C6012D853E854F85E3
:1012F0005889821B930BA40BB50B288539854A8529
:101300005B8582179307A407B50708F0A2C08FEF8B
:101310000E944E1A460157018F89988DA98DBA8D6A
:10132000881A990AAA0ABB0A9B8D992309F44EC010
:101330002C893D89A8EEB3E00E94282186169706E5
:10134000A806B90608F08EC084E00E94BA0232CF27
:1013500080E0411451046104710409F047C00E9407
:10136000D51F892B09F491C02601370180917C019A
:10137000813009F08ACF80E00E944E1A60E070E070
:10138000CB010E94831A83E081C0292D382DA8EE5D
:10139000B3E00E942821688779878A879B87D701D5
:1013A000C6012D853E854F855889821B930BA40B62
:1013B000B50B288539854A855B8582179307A40775
:1013C000B507E8F580E00E944E1AA4CF2A893B8930
:1013D000A0E6BAEE0E94282186169706A806B9064E
:1013E00008F049C084E00E942C03E4CE0E94D51F7F
:1013F000892B09F44AC02C853989A8EEB3E00E94F4
:101400002821688779878A879B87D701C601841935
:101410009509A609B709288539854A855B85281766
:1014200039074A075B0708F02BCF60E070E0CB017B
:101430000E94831A80E00E944E1A82E027C08FEF3C
:101440000E944E1ACD86DE86EF86F88A31E03E8B0A
:10145000B1CE80E00E944E1ACD86DE86EF86F88AF5
:101460001E8AA8CE84E00E942C03CF8AD88EE98EF3
:10147000FA8E1B8E9FCE84E00E94BA02CF8AD88E4D
:10148000E98EFA8EA1E0AB8F95CE82E06B960FB617
:10149000F894DEBF0FBECDBFDF91CF911F910F91AA
:1014A000FF90EF90DF90CF90BF90AF909F908F9084
:1014B0007F906F905F904F903F902F90089580E0C5
:1014C0000E944E1A60E070E0CB010E94831A80E017
:1014D000DDCF4F925F926F927F928F929F92AF92E9
:1014E000BF92CF92DF92EF92FF920F931F93CF9311
:1014F000DF93CDB7DEB767970FB6F894DEBF0FBEA8
:10150000CDBF80E390E00E94D51F8EE290E00E9464
:10151000D51F82E690E00E94D51F182F80E690E04C
:101520000E94D51F80E790E00E94D51F9C01A0E695
:10153000BAEE0E9428216C8B7D8B8E8B9F8B0E9434
:10154000F71A0E94F71A0E94F71A6C877D878E8718
:101550009F878BE1898392E09A8393E79B8393E64D
:101560009C8397E09D838E8383E08F8367E070E0A8
:10157000CE0101960E949A1580E00E944E1A86E0E4
:101580000E942C03212F30E050E040E0CA01B90155
:101590000E94831A84E00E94BA020E94F71A688BA4
:1015A000798B8A8B9B8B0E94F71A80E390E00E94D4
:1015B000D51F5C018EE290E00E94D51F8C0182E66F
:1015C00090E00E94D51FF82E80E690E00E94D51F83
:1015D000982E892E8F2D90E0B0E0A0E0BC01CD01C7
:1015E0000E94831A0E94C7040E94F71A6B017C01B3
:1015F00080917C01813009F4B1C0260137012C852E
:101600003D854E855F85421A530A640A750AC801F2
:10161000B0E0A0E088879987AA87BB87B801CD0191
:101620000E94662320910701309108014091090131
:1016300050910A01688779878A879B8768857985B1
:101640008A859B850E94182487FDA0C02889398936
:101650004A895B89C21AD30AE40AF50A9501A8EE01
:10166000B3E00E942821688779878A879B878C89C5
:101670009D89AE89BF89481659066A067B0608F01F
:1016800093C0288539854A855B85C216D306E40652
:10169000F50608F48ACF292D382DA8EEB3E00E9474
:1016A0002821688779878A879B870E94F71A6B01B0
:1016B0007C010E94F71A4B015C014C885D886E88A2
:1016C0007F8805C080917C01813009F447C0D50135
:1016D000C4018C199D09AE09BF09288539854A8541
:1016E0005B8582179307A407B50708F065C080E300
:1016F00090E00E94D51F8EE290E00E94D51F82E606
:1017000090E00E94D51F80E690E00E94D51F9C01CA
:10171000A8EEB3E00E942821688779878A879B8793
:101720000E94C7040E94F71A4B015C01DC01CB0147
:101730002C853D854E855F85821B930BA40BB50BD5
:1017400084159505A605B70508F4BCCF84E00E9472
:101750002C0380917C01813009F0B9CF83E067963A
:101760000FB6F894DEBF0FBECDBFDF91CF911F91B2
:101770000F91FF90EF90DF90CF90BF90AF909F9030
:101780008F907F906F905F904F9008958C899D8986
:10179000AE89BF89481659066A067B0648F4C88A8E
:1017A000D98AEA8AFB8A01CF84E00E942C0369CFA0
:1017B00084E00E942C03F3CF60E070E0CB010E9434
:1017C000831A8C859D85AE85BF85881A990AAA0AD9
:1017D000BB0A2C893D894E895F8982169306A4062F
:1017E000B506D8F48C849D84AE84BF8480E790E0F5
:1017F0000E94D51F8C010E94F71A6B017C01C8184A
:10180000D908EA08FB089801A0E6BAEE0E94282150
:10181000C616D706E806F90648F384E00E942C03B2
:1018200080E09DCF2F923F924F925F926F927F9276
:101830008F929F92AF92BF92CF92DF92EF92FF92E0
:101840000F931F93CF93DF93CDB7DEB768970FB693
:10185000F894DEBF0FBECDBF82E290E00E94D51F9C
:10186000682E80E290E00E94D51F5C0184E290E047
:101870000E94D51F4C0188E290E00E94D51F782E6F
:101880009C878CE290E00E94D51F8AE290E00E9443
:10189000D51F84E690E00E94D51F88E690E00E9464
:1018A000D51F81E390E00E94D51F8C010E94F71A9A
:1018B0001B012C010E94F71A6B017C019BE19983AB
:1018C00082E08A8383E78B8383E68C8383E08D8346
:1018D0009E838F8367E070E0CE0101960E949A1587
:1018E00084E00E94BA02262D30E050E040E0CA01B8
:1018F000B9010E94831AC218D308E408F5089501BB
:10190000A8EEB3E00E942821C616D706E806F9061D
:1019100008F024C200E61AEE0AC02C853D854E85EB
:101920005F85C216D306E406F50608F084C082E29D
:1019300090E00E94D51FF82E80E290E00E94D51F13
:101940009C01A8EEB3E00E9428216C877D878E87DA
:101950009F8784E290E00E94D51F888B9C8B88E251
:1019600090E00E94D51F3C018CE290E00E94D51FC0
:101970008AE290E00E94D51F84E690E00E94D51F85
:1019800088E690E00E94D51F81E390E00E94D51F79
:10199000809F4001819F900C909F900C1124B12C4E
:1019A000A12C8F2D90E0B0E0A0E0BC01CD010E9401
:1019B000831A0E94C7040E94F71A6B017C01809170
:1019C0007C018130B1F190E080E00E94D51F892B2D
:1019D000B1F0C218D308E408F508C814D904EA0421
:1019E000FB0408F49ACF84E00E942C0396CF60E0B9
:1019F00070E0CB010E94831A86E00E942C0382E0F3
:101A000068960FB6F894DEBF0FBECDBFDF91CF91C1
:101A10001F910F91FF90EF90DF90CF90BF90AF900C
:101A20009F908F907F906F905F904F903F902F90FE
:101A3000089583E0E5CF28893C89A8EEB3E00E94B1
:101A40002821688779878A879B8793010E942821AC
:101A5000688B798B8A8B9B8B60E070E0CB010E9456
:101A6000831AC814D904EA04FB0468F40E94F71A24
:101A7000DC01CB0182199309A409B50988159905E0
:101A8000AA05BB0598F384E00E942C038BE18983AF
:101A900092E09A8393E79B8393E69C8394E09D83F3
:101AA0008E8383E08F8367E070E0CE0101960E9411
:101AB0009A158FEF0E944E1A0E94F71A4B015C0193
:101AC0000E94F71A6B017C0144C082E290E00E9400
:101AD000D51F80E290E00E94D51F84E290E00E9432
:101AE000D51F9C01A8EEB3E00E9428216887798762
:101AF0008A879B8788E290E00E94D51F9C01A8EE10
:101B0000B3E00E942821688B798B8A8B9B8B8CE2B7
:101B100090E00E94D51F8AE290E00E94D51F84E6E3
:101B200090E00E94D51F88E690E00E94D51F0E9499
:101B3000C7040E94F71A6B017C0180917C018130FF
:101B400009F477CF90E080E00E94D51F892B09F43B
:101B500056CFC818D908EA08FB0888859985AA8550
:101B6000BB85C816D906EA06FB0608F4AECF80E0AE
:101B70000E944E1A86E00E94BA020E94F71A6C8BED
:101B80007D8B8E8B9F8B0E94F71ADC01CB012C89F9
:101B90003D894E895F89821B930BA40BB50B288965
:101BA00039894A895B8982179307A407B50708F02A
:101BB0001ECF812C912C5401188A40C038893323C0
:101BC00009F4C0C0388D232F30E050E040E0CA0156
:101BD000B9010E94831A41E0488BC801B0E0A0E03F
:101BE00088879987AA87BB87B801CD010E946623A1
:101BF00020910701309108014091090150910A019B
:101C0000688779878A879B87688579858A859B8598
:101C10000E94C02287FF72C081149104A104B10404
:101C200009F071C0460157012C853D854E855F85C1
:101C3000421653066406750608F0D9CE82E290E09B
:101C40000E94D51F80E290E00E94D51F84E290E0C0
:101C50000E94D51F88E290E00E94D51F9C01A8EE4B
:101C6000B3E00E9428216C877D878E879F878CE256
:101C700090E00E94D51F888F8AE290E00E94D51FD5
:101C80009C01A8EEB3E00E942821688779878A87A3
:101C90009B8784E690E00E94D51F8C0188E690E047
:101CA0000E94D51F1C010E94C7040E94F71A6B01F5
:101CB0007C0180917C01813009F4BBCE90E080E012
:101CC0000E94D51F892B09F49ACE260137018C89F1
:101CD0009D89AE89BF89481A590A6A0A7B0A2885F4
:101CE00039854A855B85421653066406750608F0F9
:101CF00065CFB889BB2309F470CF64CF812C912CB8
:101D0000A12CB12C91CFC818D908EA08FB0848EEDD
:101D100053E0249EC001259E900D349E900D112409
:101D2000B0E0A0E08C159D05AE05BF0508F07CCFA6
:101D300060E070E0CB010E94831A86E00E942C03D1
:101D400080E05ECE988D892F90E0B0E0A0E0BC01ED
:101D5000CD010E94831AA1E0A88B3FCF9401A8EE89
:101D6000B3E00E942821688779878A879B87272D7F
:101D70003C850E942821688B798B8A8B9B8B80E61F
:101D80009AEE089F4001099F900C189F900C112417
:101D9000B12CA12C61CE4F925F926F927F92AF9245
:101DA000BF92CF92DF92EF92FF920F931F93CF9348
:101DB000DF93CDB7DEB72F970FB6F894DEBF0FBE17
:101DC000CDBF80E490E00E94D51F8C0188E490E0B4
:101DD0000E94D51FF82E82E490E00E94D51F84E473
:101DE00090E00E94D51F0E94F71A0E94F71A80E027
:101DF000012BA9F42F960FB6F894DEBF0FBECDBF0E
:101E0000DF91CF911F910F91FF90EF90DF90CF90D6
:101E1000BF90AF907F906F905F904F9008958BE14F
:101E2000898392E09A8393E79B8393E69C8395E072
:101E30009D838E8383E08F8367E070E0CE010196FF
:101E40000E949A158F2D90E0B0E0A0E0BC01CD017A
:101E50000E94831AB12CA12C80E490E00E94D51F2F
:101E60008C0188E490E00E94D51F82E490E00E94FB
:101E7000D51F9C01A8EEB3E00E94282168877987CE
:101E80008A879B8784E490E00E94D51F9C01A8EE7E
:101E9000B3E00E9428216C877D878E879F878FEF14
:101EA0000E944E1A0E94F71A2B013C010E94F71A59
:101EB0006B017C0135C080E490E00E94D51F8C014D
:101EC00088E490E00E94D51F82E490E00E94D51F34
:101ED0009C01A8EEB3E00E942821688779878A8751
:101EE0009B8784E490E00E94D51F9C01A8EEB3E09C
:101EF0000E9428216C877D878E879F870E94C70458
:101F00000E94F71A6B017C0180917C01813009F4F9
:101F100068C090E080E00E94D51F892B09F45FC063
:101F2000C418D508E608F70888859985AA85BB8571
:101F3000C816D906EA06FB0608F4BDCF80E00E9469
:101F40004E1A0E94F71A2B013C010E94F71A6B01EE
:101F50007C012AC080E490E00E94D51F8C0188E4B7
:101F600090E00E94D51F82E490E00E94D51F84E497
:101F700090E00E94D51F9C01A8EEB3E00E942821AA
:101F80006C877D878E879F870E94C7040E94F71AFF
:101F90006B017C0180917C01813069F190E080E0EF
:101FA0000E94D51F892BD9F0C418D508E608F70878
:101FB0008C859D85AE85BF85C816D906EA06FB06C9
:101FC00048F29FEFA91AB90AA016B10608F444CF47
:101FD00060E070E0CB010E94831A80E00BCF82E0CA
:101FE00009CF86E00E942C0360E070E0CB010E94E4
:101FF000831A83E0FFCE60E070E0CB010E94831A79
:1020000083E0F8CEEF92FF920F931F93CF93DF936D
:1020100000D0CDB7DEB7F89410927F0110927C010A
:1020200010927D010E9418010E946F1586EA93E0CC
:102030000E9471160E949E030E94311A0E94511A3A
:102040000E94CB1A0E94B91278942FEF83ED90E38F
:10205000215080409040E1F700C000008FEF809356
:10206000060180E090E0A0E8BFEB80930B01909325
:102070000C01A0930D01B0930E0180930701909382
:102080000801A0930901B0930A010E94C7042FEF31
:1020900083ED90E3215080409040E1F700C00000C4
:1020A00090E080E00E94D51F892B49F40F900F909B
:1020B000DF91CF911F910F91FF90EF90089582E1F2
:1020C00090E00E94D51F8EE290E00E94D51F80E92B
:1020D00090E00E94D51F10E000E020E44CE250E0C8
:1020E0006DE270E08EE290E00E94D2132FEF83ED5C
:1020F00090E3215080409040E1F700C00000CE0105
:1021000001967C0120E44CE250E06DE270E08EE24A
:1021100090E00E94AE1487E00E94E21285E0809376
:102120007F01C4CFE0917F0187E0E89FF001112497
:10213000E95CFE4F0580F681E02D09958230E9F0DB
:1021400070F4882331F1E0917F0187E0E89FF0018E
:102150001124E95CFE4FE281E0937F01E5CF8330FB
:1021600009F7E0917F0187E0E89FF0011124E95C25
:10217000FE4FE481E0937F01D7CFE0917F0187E0BC
:10218000E89FF0011124E95CFE4FE381E0937F01B9
:10219000CBCFE0917F0187E0E89FF0011124E95C5B
:1021A000FE4FE181E0937F01BFCF61E070E090E0FE
:1021B00080E00E94D91F10927C01089570E060E0D9
:1021C00090E080E00E94D91F10927C01089581E088
:1021D00080937E01089510927E01089580917F0181
:1021E000811106C061E070E090E080E00C94D91F9E
:1021F00070E060E090E080E00C94D91F80917F0156
:10220000882319F0863009F0089580917E01882393
:1022100019F010927E01089581E080937E01089567
:10222000259A2D9A0895F8942D98EFE9F1E03197C9
:10223000F1F700C0000028E030E091E00BC02D9ADB
:10224000EFE9F1E03197F1F700C00000990F21505C
:10225000310929F0482F492391F72D98F1CF2D9A74
:102260008FE991E00197F1F700C00000789408959C
:10227000CF93DF93EC018881882331F021960E946F
:10228000131189918111FBCFDF91CF9108958A308D
:1022900018F0895A0C941311805D0C941311CF938C
:1022A000C82F82958F70C03A58F0895A0E94131136
:1022B0008C2F8F708A3058F0895ACF910C9413115B
:1022C000805D0E9413118C2F8F708A30A8F7805D7B
:1022D000CF910C941311CF93DF93EC018D2F829546
:1022E0008F70D03AD8F0895A0E9413118D2F8F70B9
:1022F0008A30D8F0895A0E9413118C2F82958F70E2
:10230000C03AD8F0895A0E9413118C2F8F708A30EE
:10231000D8F0895ADF91CF910C941311805D0E94FF
:1023200013118D2F8F708A3028F7805D0E94131152
:102330008C2F82958F70C03A28F7805D0E94131110
:102340008C2F8F708A3028F7805DDF91CF910C94AD
:1023500013118F929F92AF92BF92CF92DF92EF9222
:10236000FF92CF93DF936B017C014701AA24BB242A
:10237000CF2DDD278F2D82958F709FE99F1508F057
:102380004BC0895A0E9413118C2F8F708A3008F429
:102390004BC0895A0E941311882D82958F709FE936
:1023A000981508F04BC0895A0E941311882D8F7020
:1023B0008A3008F44BC0895A0E941311CD2DDD27B5
:1023C0008D2D82958F709FE99D1508F04DC0895A1B
:1023D0000E9413118C2F8F708A3008F441C0895AE3
:1023E0000E9413118C2D82958F709FE99C15A0F58A
:1023F000895A0E9413118C2D8F708A3058F1895A96
:10240000DF91CF91FF90EF90DF90CF90BF90AF9092
:102410009F908F900C941311805D0E9413118C2F4C
:102420008F708A3008F0B5CF805D0E941311882D1F
:1024300082958F709FE9981508F4B5CF805D0E9452
:102440001311882D8F708A3008F0B5CF805D0E94FF
:102450001311B4CF805DD4CF805D0E941311CBCF18
:10246000805D0E941311BECF805D0E941311B2CF18
:102470001092B90088E18093B800089594EA90938F
:10248000BC009091BC0097FFFCCF9091B900987F61
:10249000983011F0903191F48093BB0084E88093E0
:1024A000BC008091BC0087FFFCCF9091B900987F61
:1024B000983131F081E0903419F0089581E0089569
:1024C00080E0089524EA34E844E92093BC00909128
:1024D000BC0097FFFCCF9091B900987F983011F025
:1024E000903199F78093BB003093BC009091BC0071
:1024F00097FFFCCF9091B900987F903219F09835F2
:1025000009F008954093BC009091BC0094FDFCCF6D
:10251000DCCF0C943E1284E98093BC008091BC0017
:1025200084FDFCCF08958093BB0084E88093BC00B9
:102530008091BC0087FFFCCF9091B900987F81E02B
:10254000983209F0089580E0089584EC8093BC00EF
:102550008091BC0087FFFCCF8091BB00089584E888
:102560008093BC008091BC0087FFFCCF8091BB00B2
:102570000895879880E480937C0087E880937A00B0
:10258000209A28980895209885B1817085B9879AF6
:102590008F9A2FEF31EE84E0215030408040E1F7F8
:1025A00000C0000083B187988F98209A289A9FEFE7
:1025B00021EE34E0915020403040E1F700C00000AF
:1025C00081700895982F80917A00806880937A00B6
:1025D0002FEF31EE44E0215030404040E1F700C0A1
:1025E000000080917C00887F9770892B80937C000D
:1025F00080917A00806480937A0080917A0086FDD1
:10260000FCCF2091780030917900109279001092DF
:10261000780090917A009F7790937A008FEF91EEF7
:1026200044E0815090404040E1F700C00000C90103
:102630000895262F6623B9F0FC01BC016F5F7F4F20
:102640002150620F711D80E04CE8219198E0382FF5
:102650003227869530FD842726959150C1F7E617DD
:10266000F70799F7089580E008957F928F929F92DF
:10267000AF92BF92CF92DF92EF92FF920F931F9390
:10268000CF93DF937C016B014A01722EE801209702
:10269000F9F005E50E944B205E0188E0A80EB11C10
:1026A0000991272DA401B601C7010E944B20CA152C
:1026B000DB05B1F7DF91CF911F910F91FF90EF9064
:1026C000DF90CF90BF90AF909F908F907F900895B4
:1026D0000CEC0E944B20EECF5F926F927F928F9214
:1026E0009F92AF92BF92CF92DF92EF92FF920F93A1
:1026F0001F93CF93DF935C014B013A01522E670188
:102700000E9435130EEB252DA301B401C5010E94D3
:102710004B208701075F1F4FE701252DA301B4015F
:10272000C5010E94B8208993C017D107B1F7F601FF
:1027300020818181822B9281892B9381892B9481A5
:10274000892B9581892B9681892B9781892B41F142
:102750003196B601685F7F4F90E04CE888E0392FF2
:102760003227969530FD942726958150C1F7E617BC
:10277000F70711F02191F2CFF6012085291382E0AD
:10278000DF91CF911F910F91FF90EF90DF90CF904D
:10279000BF90AF909F908F907F906F905F900895C3
:1027A00083E0EECFBF92CF92DF92EF92FF920F9332
:1027B0001F93CF93DF93D82FC92F7B016A01B22ECD
:1027C0000E94DD1F813081F02B2DA601B7018D2FD6
:1027D0009C2F0E94351304E42B2DA601B7018D2FE9
:1027E0009C2F0E944B2080E0DF91CF911F910F9191
:1027F000FF90EF90DF90CF90BF9008959F92AF929F
:10280000BF92CF92DF92EF92FF920F931F93CF93DD
:10281000DF93D82FC92F6B015A01922E0E94DD1F22
:10282000813039F0292DA501B6018D2F9C2F0E94F2
:102830006C13DF91CF911F910F91FF90EF90DF907C
:10284000CF90BF90AF909F9008958F929F92AF923C
:10285000BF92CF92DF92EF92FF920F931F93CF938D
:10286000DF93D82FC92FD62EF72E942EB52E822E79
:102870000E94DD1F813091F1282D492D5B2D6D2D9A
:102880007F2D8D2F9C2F0E9435130EE4282D492D6E
:102890005B2D6D2D7F2D8D2F9C2F0E944B200E2D9B
:1028A000282D492D5B2D6D2D7F2D8D2F9C2F0E9466
:1028B0004B200C2D282D492D5B2D6D2D7F2D8D2F1F
:1028C0009C2F0E944B200A2D282D492D5B2D6D2D0C
:1028D0007F2D8D2F9C2F0E944B2080E0DF91CF9188
:1028E0001F910F91FF90EF90DF90CF90BF90AF902E
:1028F0009F908F900895BF92CF92DF92EF92FF92B8
:102900000F931F93CF93DF936C01EB01B42EE52E51
:10291000F22E0E94DD1F8130B9F02F2D4B2D5E2D40
:10292000BE01C6010E94351308E42F2D4B2D5E2DEC
:10293000BE01C6010E944B20F60180818F29808351
:102940002881F22AF88280E0DF91CF911F910F91C8
:10295000FF90EF90DF90CF90BF9008955F926F92BD
:102960007F928F929F92AF92BF92CF92DF92EF921F
:10297000FF920F931F93CF93DF93CDB7DEB72997C5
:102980000FB6F894DEBF0FBECDBF5C014B013A011C
:10299000522E67010E94DD1F813059F1CE01019650
:1029A0007C01252DA301B401C5010E946C13811186
:1029B00020C02A8130E0322F22279981290F311D32
:1029C000F6013183208329960FB6F894DEBF0FBE3F
:1029D000CDBFDF91CF911F910F91FF90EF90DF90CE
:1029E000CF90BF90AF909F908F907F906F905F90AF
:1029F0000895F60111821082E6CF7F928F929F9206
:102A0000AF92BF92CF92DF92EF92FF920F931F93FC
:102A1000CF93DF937C016B014A01722EE80184E0C1
:102A2000209709F445C0C7010E94DD1F813009F4D9
:102A30003FC003E3272DA401B601C7010E944B202C
:102A40005E0188E0A80EB11C8E01272DA401B601FD
:102A5000C7010E94B820F80181938F01AE16BF060E
:102A6000A1F728815F818981822B9A81892B9B81A3
:102A7000892B9C81892B9D81892B9E81892B852B7C
:102A800061F1FE013196BE01695F7F4F90E04CE835
:102A900088E0392F3227969530FD9427269581506E
:102AA000C1F76E177F0711F02191F2CF59130EC0B5
:102AB000DF91CF911F910F91FF90EF90DF90CF901A
:102AC000BF90AF909F908F907F90089588E0FE0117
:102AD00011928A95E9F782E0EBCF83E0E9CF10927B
:102AE000CD0087E08093CC0088E98093C90086E020
:102AF0008093CA001092800108958091C80087FFDA
:102B0000FCCF8091CE0008959091C80095FFFCCF36
:102B10008093CE000895FC019081992351F0319665
:102B20008091C80085FFFCCF9093CE0091919111C8
:102B3000F7CF08959B01672B69F0FC01280F391F1F
:102B400091918091C80085FFFCCF9093CE00E21751
:102B5000F307B1F708952F923F924F925F926F92D1
:102B60007F928F929F92AF92BF92CF92DF92EF921D
:102B7000FF920F931F93CF93DF93CDB7DEB7E79705
:102B80000FB6F894DEBF0FBECDBF922E832E742EEB
:102B9000652E562E472E382E292EA0E00E94472261
:102BA00009F49AC0A0E00E9447220CF483C0FE0101
:102BB0003196FFABEEAB1BAAAEA9BFA9EBA9AE0F36
:102BC000B11DBDABACAB8AE0A82EB12CC12CD12C71
:102BD000E12CF12C00E010E0292D382D472D562D49
:102BE000652D742D832D922D0E944221205DACA96C
:102BF000BDA92C93292D382D472D562D652D742DCB
:102C0000832D922D0E944421922E832E742E652EA8
:102C1000562E472E382E292EBBA9BF5FBBABA0E096
:102C20000E94472249F6AEA9BFA9FBA9AF0FB11D6B
:102C30001C928F2F8695B9F0EEA9FFA9BD01AF01B7
:102C40004F5F5F4F8150480F511D8191DB019E9175
:102C5000BD019F0121503109D9019C93DB018C9367
:102C60004E175F0791F79981992359F0FE0132962B
:102C70008091C80085FFFCCF9093CE009191911177
:102C8000F7CFE7960FB6F894DEBF0FBECDBFDF914A
:102C9000CF911F910F91FF90EF90DF90CF90BF9059
:102CA000AF909F908F907F906F905F904F903F90EC
:102CB0002F9008958DE28983832D0E94D221922E38
:102CC000832E742E652E562E472E382E292ECE0199
:102CD00002969FAB8EAB6FCF80E389831A8290E31D
:102CE000C5CF9093820180938101089580918001E6
:102CF00008951F920F920FB60F9211242F933F93B6
:102D00004F935F936F937F938F939F93AF93BF93F3
:102D1000EF93FF93F8948091C800609183018091B4
:102D2000CE00E62FF0E0EC57FE4F80836F5F60939C
:102D30008301613069F16230F9F0623028F18091ED
:102D400084018B3169F180918501823049F11092C3
:102D5000830110928001FF91EF91BF91AF919F91FC
:102D60008F917F916F915F914F913F912F910F9034
:102D70000FBE0F901F90189560918501623039F752
:102D8000809184018B3191F181E08093800106C0B4
:102D9000809184018B31D9F6609380017894DBCFE8
:102DA0006F3FA9F281E080938001862F90E08C57DD
:102DB0009E4FFC01329720812B3181F7FC01319726
:102DC00030813230F1F00197FC018081833031F79E
:102DD000E0918101F0918201309701F384E891E064
:102DE00009951092830110928001D8CF81E08093E1
:102DF000800186E891E00197FC018081833071F6C3
:102E0000E7CF209384013093850130938301C6CFAF
:102E10006A9A3F9A5798729A0895CF93DF9300D099
:102E200000D0CDB7DEB772988FE99FE00197F1F738
:102E300000C0000020E087E090E061E070E047988B
:102E4000AFE9BFE01197F1F700C000004F9B07C04A
:102E5000AB01082E01C0440F0A94EAF7242B479ACD
:102E6000EFE9FFE03197F1F700C00000019738F774
:102E700030E0322F222740E087E090E0E1E0F0E010
:102E80004798AFE9BFE01197F1F700C000004F9BF2
:102E900007C0BF01082E01C0660F0A94EAF7462B4F
:102EA000479AAFE9BFE01197F1F700C00000019722
:102EB00038F7242B729A22FD2FC0C9019695879569
:102EC00096958795969587959C0150E040E02983DB
:102ED0003A834B835C83CA01B9010E94662320E0D8
:102EE00030E040E85EE369837A838B839C83698169
:102EF0007A818B819C810E941D2469837A838B83D4
:102F00009C8369817A818B819C810F900F900F90B7
:102F10000F90DF91CF91089560E070E088EC92EC23
:102F2000ECCFCF93DF9300D000D0CDB7DEB70E94B7
:102F30000D1720E030E040E151E469837A838B8310
:102F40009C8369817A818B819C810E941D2420E071
:102F500030E040EA50E469837A838B839C83698103
:102F60007A818B819C810E94C52220E030E040E084
:102F700052E469837A838B839C8369817A818B8114
:102F80009C810E94542269837A838B839C8369810C
:102F90007A818B819C810F900F900F900F90DF9121
:102FA000CF91089589B182958695877091E08927A0
:102FB000817090E00895CF93DF9300D000D0CDB71B
:102FC000DEB74D99FECF5D9A25E02A95F1F7000016
:102FD0005E9835E03A95F1F700004D99FECF28E173
:102FE00080E090E0DC015E9A45E04A95F1F7000050
:102FF000880F991FAA1FBB1F5E9855E05A95F1F7DD
:1030000000004D9B03C00196A11DB11D215059F731
:1030100026E0B695A795979587952A95D1F75E9A5C
:1030200065E06A95F1F700005E9825E02A95F1F7D2
:1030300000009C01AD014058CA01B9010F900F90EA
:103040000F900F90DF91CF910895803439F0803840
:1030500089F0803249F05E980C94DB1783E080930E
:103060008B025E980C94DB1782E080938B025E9853
:103070000C94DB1781E080938B025E980C94DB1735
:10308000569A55985D9A803439F0803889F08032AC
:1030900049F05E980C94DB1783E080938B025E9876
:1030A0000C94DB1782E080938B025E980C94DB1704
:1030B00081E080938B025E980C94DB178F929F9235
:1030C000AF92BF92CF92DF92EF92FF92CF93DF93B6
:1030D00000D000D000D0CDB7DEB78E83882E912CE3
:1030E000B12CA12C882349F11D82C12CD12C760151
:1030F0000E94DB17C60ED71EE81EF91E8D818F5F5A
:103100008D839E819813F4CFC701B601A501940168
:103110000E940621B901CA0126960FB6F894DEBFB7
:103120000FBECDBFDF91CF91FF90EF90DF90CF909A
:10313000BF90AF909F908F90089560E070E080E026
:1031400090E0EACF8F929F92AF92BF92CF92DF92A0
:10315000EF92FF92CF93DF9300D000D000D0CDB795
:10316000DEB78E83882E912CB12CA12C882309F4F4
:1031700049C01D82C12CD12C76010E94DB17C60EDE
:10318000D71EE81EF91E8D818F5F8D839E81981357
:10319000F4CFC701B601A50194010E94062129833D
:1031A0003A834B835C83CA01B9010E946623209154
:1031B0008702309188024091890250918A02698386
:1031C0007A838B839C8369817A818B819C810E9425
:1031D000532269837A838B839C8369817A818B8173
:1031E0009C8126960FB6F894DEBF0FBECDBFDF914F
:1031F000CF91FF90EF90DF90CF90BF90AF909F90D6
:103200008F90089560E070E080E090E0D0CF8F92E2
:103210009F92AF92BF92CF92DF92EF92FF92CF93A5
:10322000DF9300D000D000D0CDB7DEB78E83882EDC
:10323000912CB12CA12C882309F45BC01D82C12CD8
:10324000D12C76010E94DB17C60ED71EE81EF91E90
:103250008D818F5F8D839E819813F4CFC701B60156
:10326000A50194010E94062129833A834B835C8344
:10327000CA01B9010E946623209187023091880219
:103280004091890250918A0269837A838B839C835F
:1032900069817A818B819C810E94532220918302D3
:1032A00030918402409185025091860269837A832D
:1032B0008B839C8369817A818B819C810E94C5224A
:1032C00069837A838B839C8369817A818B819C81DA
:1032D00026960FB6F894DEBF0FBECDBFDF91CF911B
:1032E000FF90EF90DF90CF90BF90AF909F908F9026
:1032F000089560E070E080E090E0BECF8F929F92F2
:10330000AF92BF92CF92DF92EF92FF92CF93DF9373
:1033100000D000D000D0CDB7DEB78E83882E912CA0
:10332000B12CA12C8823E1F11D82C12CD12C760176
:103330000E94DB17C60ED71EE81EF91E8D818F5F17
:103340008D839E819813F4CFC701B601A501940126
:103350000E94062129833A834B835C83CA01B90109
:103360000E946623362F272F432F522FBC014093F4
:103370008702509388026093890270938A0226968E
:103380000FB6F894DEBF0FBECDBFDF91CF91FF9097
:10339000EF90DF90CF90BF90AF909F908F90089567
:1033A00030E020E080E090E0DFCF60938302709314
:1033B000840280938502909386020895CF93DF93D1
:1033C00000D000D0CDB7DEB7809183029091840207
:1033D000A0918502B0918602BC01CD010F900F90A3
:1033E0000F900F90DF91CF910895609387027093B3
:1033F00088028093890290938A020895CF93DF9385
:1034000000D000D0CDB7DEB78091870290918802BE
:10341000A0918902B0918A02BC01CD010F900F905A
:103420000F900F90DF91CF9108955E985E9A87E19B
:1034300091E00197F1F700C0000008955E980895AB
:1034400047E050E080E05E9A29B12072042E01C06E
:10345000220F0A94EAF7822B5E984150510998F79F
:103460000895F8943E9A4698E4E9F0E011821082BB
:10347000109299001092980010929B0010929A005E
:1034800010929D0010929C0081E88093900089E04A
:10349000809391001182108278940895809398000F
:1034A0000895F894279AA4E8B0E011961C921E9211
:1034B000E8E8F0E01182108210928B0010928A00EE
:1034C00010928D0010928C0089E08093810082E040
:1034D00080936F0011961C921E9280E89EE3918368
:1034E00080831092A5021092A6021092A702109259
:1034F000A8021092A1021092A2021092A3021092AE
:10350000A40278940895CF93DF9300D000D0CDB774
:10351000DEB79B01AC01F894243631054105510515
:10352000A9F12115310541055105E9F42093A502C2
:103530003093A6024093A7025093A8021092A102D2
:103540001092A2021092A3021092A402109285007F
:10355000109284002F9878940F900F900F900F90F6
:10356000DF91CF910895ACE3B0E00E9437216983E9
:103570007A838B839C8324E630E040E050E00E9415
:103580000621265F3F4F4F4F5F4FD0CF21E030E005
:1035900040E050E0CBCFF894549A10929D021092E4
:1035A0009E0210929F021092A00210929902109215
:1035B0009A0210929B0210929C0278940895F894BB
:1035C00060939D0270939E0280939F029093A0024D
:1035D0001092990210929A0210929B0210929C02F1
:1035E00010928500109284005C9878940895609100
:1035F0008C0270918D0280918E0290918F022091A9
:1036000090022091910220919202209193020895BC
:1036100010928C0210928D0210928E0210928F02E4
:1036200010929002109291021092920210929302C4
:103630000895089508954091A5025091A6026091C1
:10364000A7027091A802411551056105710519F194
:103650008091A1029091A202A091A302B091A40234
:103660000196A11DB11D8093A1029093A202A09387
:10367000A302B093A402481759076A077B0758F4BE
:1036800085B1805885B91092A1021092A2021092C1
:10369000A3021092A402089540919D0250919E02AF
:1036A00060919F027091A00241155105610571055D
:1036B00021F18091990290919A02A0919B02B09180
:1036C0009C020196A11DB11D8093990290939A02CC
:1036D000A0939B02B0939C02481759076A077B0787
:1036E00060F48BB190E189278BB910929902109206
:1036F0009A0210929B0210929C0208951F920F92C0
:103700000FB60F9211242F933F934F935F936F93B4
:103710007F938F939F93AF93BF93EF93FF932091EA
:103720008C0230918D0240918E0250918F026091F7
:103730009002709191028091920290919302A1E087
:103740000E94322220938C0230938D0240938E028D
:1037500050938F0260939002709391028093920233
:10376000909393020E941B1B0E944C1BFF91EF91B0
:10377000BF91AF919F918F917F916F915F914F9189
:103780003F912F910F900FBE0F901F9018952F9281
:103790003F924F925F926F927F928F929F92AF92E1
:1037A000BF92CF92DF92EF92FF920F931F93CF932E
:1037B000DF93CDB7DEB7AB970FB6F894DEBF0FBE81
:1037C000CDBF382E292E79834A83422E0E871F873C
:1037D000E8A2F9A2CAA2DBA22FB72CA38E859F85EF
:1037E000892B09F453C1188A198A1A8A1B8A1C8AE0
:1037F0001D8A1E8A1F8A19A6542C432C322C262E71
:10380000852E942E7F83252D492D582D622D7F8165
:10381000842D932D0E94DD1F813009F480C100EFBB
:10382000252D492D582D622D7F81842D932D0E94A9
:103830004B20188E198E1A8E1B8E1C8E1D8E1E8E7E
:103840001F8EE1E0E9831A821B821C821D821E8288
:10385000612C712C882D8F803BA6372C792C922CD3
:10386000242C462C682E252D472D562D692D782D7C
:10387000822D9BA50E948D208F83252D472D562DAF
:10388000692D782D822D9BA50E948D20182F110F58
:10389000BF811B2B13300CF052C011160CF470C0FA
:1038A00011116FC029813A814B815C816D817E81CC
:1038B000842D932D01E00E9419222F833887498798
:1038C0005A876B877C878D879AA72981388923231C
:1038D0002DA38A81998989238EA3AB81BA89AB23D1
:1038E000AFA3EC81FB89EF23E8A7BD812C89B2232C
:1038F000AE813D89A323FE89F421EF89E3212F8145
:1039000038858D859AA5A888B988CA88DB88EC880F
:10391000FD880E891F890E943E2211F008F089C09F
:1039200011E02DA13EA14FA158A56B2F7A2F8F2F0B
:103930009E2FA0E00E944722B9F110E035C013305D
:1039400001F5EE85FF851082FCA1FFBF81E0AB96FB
:103950000FB6F894DEBF0FBECDBFDF91CF911F91A0
:103960000F91FF90EF90DF90CF90BF90AF909F901E
:103970008F907F906F905F904F903F902F90089521
:10398000117029813A814B815C816D817E81842D0A
:10399000932D01E00E9419222F83388749875A8787
:1039A0006B877C878D879AA7012F252D472D562D54
:1039B000692D782D822D9BA50E9418201123F1F0EE
:1039C000288D3981232B288F898D9A81892B898F86
:1039D000AA8DBB81AB2BAA8FEB8DFC81EF2BEB8FDC
:1039E0002C8D3D81232B2C8F8D8D9E81892B8D8F4E
:1039F000AE8DA429AE8FBF8DB329BF8F2F8138859F
:103A000049855A856B857C858D859AA5A0E00E94A5
:103A10004722F1F1FF81F98328852A8339853B8389
:103A20008A858C839B859D83AC85AE834D843AA427
:103A30001ACF11E02DA13EA14FA158A56B2F7A2FCF
:103A40008F2F9E2FA0E00E94472209F410E0888962
:103A500099818927888BA989BA81AB27A98BEA89A3
:103A6000FB81EF27EA8B2B893C8123272B8B8C89C9
:103A70009D8189278C8BAD89BE81AB27AD8BEE896B
:103A8000E425EE8BFF89F325FF8B8ECF84E05FCF9B
:103A9000422C3BA4292C8F824301E8A1F9A1EF2BF2
:103AA00051F129A5E22FF0E0CF010196880F991F6F
:103AB000880F991F880F991FAAA1BBA1A817B90742
:103AC000D0F0EE0FFF1FEE0FFF1FEE0FFF1F28A11C
:103AD00039A1E20FF31F388D3083898D81839A8D50
:103AE0009283AB8DA383BC8DB4832D8D25833E8DB6
:103AF00036838F8D8783E9A5EF5F99A59F3F09F4F2
:103B000020CF288939894A895B896C897D898E898A
:103B10009F89A0E00E94472241F0E9A774CEAE85BC
:103B2000BF851C92BCA1BFBF12CFAE85BF85EC93F1
:103B3000BCA1BFBF80E00BCFCF93DF938EED0E947F
:103B40003E1280E00E9493120E948B128FED0E9421
:103B50003E1280E00E9493120E94A512C82F0E947C
:103B60008B128EED0E943E1280E00E9493128C2FE9
:103B700080680E9493120E948B12DFEF08C08FE9C9
:103B80009FE00197F1F700C00000D150B1F08EED39
:103B90000E943E1283E00E9493120E948B128FEDCE
:103BA0000E943E1283E00E9493120E94A512C82F29
:103BB0000E948B12C5FFE3CFD1E08D2FDF91CF9113
:103BC0000895CF930E949C1D8EED0E943E1283E0CB
:103BD0000E9493120E948B128FED0E943E1283E08E
:103BE0000E9493120E94A512C82F0E948B128EED84
:103BF0000E943E1283E00E9493128C2F88600E94E4
:103C000093120E948B1281E090E09093AA0280931D
:103C1000A902CF910895CF93DF938EED0E943E12BB
:103C200080E00E9493120E948B128FED0E943E1240
:103C300080E00E9493120E94A512C82F0E948B124E
:103C40008EED0E943E1280E00E9493128C2F8F779F
:103C50000E9493120E948B12DFEF08C08FE99FE051
:103C60000197F1F700C00000D150D1F08EED0E9415
:103C70003E1283E00E9493120E948B128FED0E94ED
:103C80003E1283E00E9493120E94A512C82F0E9448
:103C90008B128C2F8072C5FDE1CFDF91CF910895FB
:103CA00081E0DF91CF9108956F927F928F929F92E2
:103CB000AF92BF92CF92DF92EF92FF920F931F933A
:103CC000CF93DF933C014B015A016901E8018091D8
:103CD000A9029091AA02892BD9F4F3011082FB0169
:103CE0001082FA011082F90110821882F701118204
:103CF0001082DF91CF911F910F91FF90EF90DF9095
:103D0000CF90BF90AF909F908F907F906F900895CD
:103D10008EED0E943E1280E00E9493120E948B1250
:103D2000FFEF24E38CE0F15020408040E1F700C039
:103D300000008FED0E943E120E94A512982F282F9E
:103D400022952770822F880F880F820F880F9F700F
:103D5000890FF30180830E94A512982F282F2295A6
:103D60002770822F880F880F820F880F9F70890F0E
:103D7000F40180830E94A512982F282F229523708A
:103D8000822F880F880F820F880F9F70890FF5018F
:103D900080830E94A5120E94A512982F282F229599
:103DA0002370822F880F880F820F880F9F70890FD2
:103DB000F60180830E94A512982F84FB222720F908
:103DC000822F880F880F820F880F9F70890F88833A
:103DD0000E94AF12982F282F22952F70822F880FC4
:103DE000880F820F880F9F70890F90E08053984F43
:103DF000F701918380830E948B12FFEF24E38CE014
:103E0000F15020408040E1F700C0000072CFDF9207
:103E1000EF92FF920F931F93CF93DF93D82EF62E3E
:103E2000142FD22F8091A9029091AA02892B41F4DC
:103E3000DF91CF911F910F91FF90EF90DF90089548
:103E40000E940B1ECDECDC9E912D1124292F26956E
:103E500026952695822F8295807F922F990F990F14
:103E6000920F990FD91AD80E8EED0E943E1280E063
:103E70000E9493128D2D0E9493120E948B12FC9E21
:103E8000912D1124292F269526952695622F62952E
:103E9000607F922F990F990F920F990FF91AF60ED2
:103EA0008EED0E943E1281E00E9493128F2D0E949F
:103EB00093120E948B121C9F912D1124292F26955D
:103EC00026952695422F4295407F922F990F990F64
:103ED000920F990F191B140F8EED0E943E1282E073
:103EE0000E949312812F0E9493120E948B12DC9FDA
:103EF000912D1124392F369536953695232F2295FD
:103F0000207F932F990F990F930F990FD91BD20FE1
:103F10008EED0E943E1284E00E9493128D2F0E942B
:103F200093120E948B120C9F912D1124292F2695FC
:103F300026952695822F8295807F922F990F990F33
:103F4000920F990F091B080F8EED0E943E1285E01B
:103F50000E949312802F0E9493120E948B1280E382
:103F6000E80EEC9EC12D1124C695C695C6958C2FE2
:103F70008295807F9C2F990F990FC90FCC0FEC1A57
:103F8000E80E8EED0E943E1286E00E9493128E2D66
:103F90000E9493120E948B12DF91CF911F910F917B
:103FA000FF90EF90DF900C949C1DF999FECF0C943C
:103FB0009124F999FECF0C949724CF93DF93DC01E1
:103FC000FB01EA014FB78C91822B8C938081822B6D
:103FD00080839C91322F309593239C938FE599E0B9
:103FE0000197F1F700C0000080818323808387E17F
:103FF00091E00197F1F700C000008881CFE1D3E0A4
:104000002197F1F700C000009C91922B9C93908126
:10401000922B9083EFE5F9E03197F1F700C00000B3
:104020004FBF282381E009F480E0DF91CF9108950C
:104030000F93FC01DB019FB78081822B80838C91E1
:10404000822B8C933081822F809583238083002361
:10405000A1F08AE28A95F1F700C08081282B2083A5
:10406000AFE3B1E01197F1F700C000009FBF81E01E
:10407000011101C080E00F910895AFE3B1E0119705
:10408000F1F700C000008081282B2083BAE0BA95A8
:10409000F1F700C0EBCF0F93CF93DF93FC01DB016F
:1040A0007FB7622F609548E050E091E012C08AE24D
:1040B0008A95F1F700C08081822B8083CFE3D1E025
:1040C0002197F1F700C000003FBF990F41505109FF
:1040D000F9F03FB78081822B80838C91822B8C9367
:1040E000808186238083802F892309F7CFE3D1E065
:1040F0002197F1F700C000008081822B8083DAE0F5
:10410000DA95F1F700C03FBF990F4150510909F707
:104110007FBFDF91CF910F910895CF93DF93DC01A3
:10412000FB01EA014FB78C91822B8C938081822B0B
:1041300080839C91322F309593239C938AE08A95BB
:10414000F1F700C0808183238083EAE1EA95F1F7EB
:1041500000C08881EFEEF0E03197F1F700C0000079
:104160004FBF282381E009F480E0DF91CF910895CB
:10417000CF92DF92EF92FF920F931F93CF93DF9333
:10418000DC01FB016A010FB7122F109568E070E0A7
:1041900031E080E04FB79C91922B9C939081922BC1
:1041A00090839C9191239C939AE09A95F1F700C09B
:1041B000908191239083CAE1CA95F1F700C0E6018E
:1041C0009881CFEED0E02197F1F700C000004FBFFB
:1041D000922341E050E009F440E0349F7001359FA4
:1041E000F00C11248E29330F6150710999F60FBF1D
:1041F000DF91CF911F910F91FF90EF90DF90CF90C3
:1042000008950E9402100E949210FFCFA1E21A2E80
:10421000AA1BBB1BFD010DC0AA1FBB1FEE1FFF1F6A
:10422000A217B307E407F50720F0A21BB30BE40BBA
:10423000F50B661F771F881F991F1A9469F7609501
:104240007095809590959B01AC01BD01CF010895BB
:10425000A29FB001B39FC001A39F700D811D1124C7
:10426000911DB29F700D811D1124911D08950E9412
:104270002821A59F900DB49F900DA49F800D911DA6
:1042800011240895689401C0E894F92FF12B12F0DD
:104290000C947621A0E0B0E0E0E5F1E20C94E82196
:1042A000092E059422F40E94D221112392F4F0E801
:1042B0000F26FFEFE094F09400951095B094C09411
:1042C000D094A194BF0ACF0ADF0AEF0AFF0A0F0BAE
:1042D0001F0B0E94812107FC0E94D221CDB7DEB7BF
:1042E000ECE00C940422689401C0E8948F929F92B1
:1042F000CF93DF930E948121DF91CF919F908F9088
:10430000089588249924F401E401B0E49F93AA2736
:104310009A158B049C04ED05FE05CF05D007A10777
:1043200098F4AD2FDC2FCF2FFE2FE92D982C892E5E
:10433000982F872F762F652F542F432F322F222728
:10434000B85031F7BF9127C01B2EBF91BB27220F5A
:10435000331F441F551F661F771F881F991F881C16
:10436000991CEE1FFF1FCC1FDD1FAA1FBB1F8A1445
:104370009B04EC05FD05CE05DF05A007B10748F05D
:104380008A189B08EC09FD09CE09DF09A00BB10BC7
:1043900021601A94E1F62EF49401AF01BE01CD0123
:1043A000000C089560957095809590953095409596
:1043B000509521953F4F4F4F5F4F6F4F7F4F8F4F1E
:1043C0009F4F08952F923F924F925F926F927F92EC
:1043D0008F929F92AF92BF92CF92DF92EF92FF9215
:1043E0000F931F93CF93DF93CDB7DEB7CA1BDB0BC1
:1043F0000FB6F894DEBF0FBECDBF09942A88398866
:1044000048885F846E847D848C849B84AA84B9846C
:10441000C884DF80EE80FD800C811B81AA81B98178
:10442000CE0FD11D0FB6F894DEBF0FBECDBFED018C
:104430000895002E083090F0982F872F762F652F43
:10444000542F432F322F22270850F4CF220F331F2F
:10445000441F551F661F771F881F991F0A95B2F7C3
:10446000002D08950024A7FD00942A0F301D401D43
:10447000501D601D701D801D901D08952A153B055F
:104480004C055D056E057F058007910708950024A2
:10449000A7FD00942A1730054005500560057005FA
:1044A0008005900508955058BB27AA270E946B22CB
:1044B0000C94DE230E94D02338F00E94D72320F0F2
:1044C00039F49F3F19F426F40C94CD230EF4E095B3
:1044D000E7FB0C94C723E92F0E94EF2358F3BA1788
:1044E000620773078407950720F079F4A6F50C940A
:1044F00011240EF4E0950B2EBA2FA02D0B01B9015B
:1045000090010C01CA01A0011124FF27591B99F049
:10451000593F50F4503E68F11A16F040A22F232F55
:10452000342F4427585FF3CF469537952795A795A5
:10453000F0405395C9F77EF41F16BA0B620B730B4C
:10454000840BBAF09150A1F0FF0FBB1F661F771FBD
:10455000881FC2F70EC0BA0F621F731F841F48F472
:10456000879577956795B795F7959E3F08F0B0CFFB
:104570009395880F08F09927EE0F979587950895E2
:104580000E94A32308F481E008950E94D9220C948C
:10459000DE230E94D72358F00E94D02340F029F454
:1045A0005F3F29F00C94C72351110C9412240C94F2
:1045B000CD230E94EF2368F39923B1F3552391F3A0
:1045C000951B550BBB27AA2762177307840738F082
:1045D0009F5F5F4F220F331F441FAA1FA9F335D0DF
:1045E0000E2E3AF0E0E832D091505040E695001C93
:1045F000CAF72BD0FE2F29D0660F771F881FBB1F4D
:10460000261737074807AB07B0E809F0BB0B802D2A
:10461000BF01FF2793585F4F3AF09E3F510578F056
:104620000C94C7230C9412245F3FE4F3983ED4F318
:10463000869577956795B795F7959F5FC9F7880F2A
:10464000911D9695879597F90895E1E0660F771F7C
:10465000881FBB1F621773078407BA0720F0621B0D
:10466000730B840BBA0BEE1F88F7E09508950E9438
:10467000F72388F09F5798F0B92F9927B751B0F0DA
:10468000E1F0660F771F881F991F1AF0BA95C9F7D6
:1046900014C0B13091F00E941124B1E008950C943F
:1046A0001124672F782F8827B85F39F0B93FCCF3F2
:1046B000869577956795B395D9F73EF49095809553
:1046C000709561957F4F8F4F9F4F0895E89409C073
:1046D00097FB3EF490958095709561957F4F8F4F35
:1046E0009F4F9923A9F0F92F96E9BB279395F6954B
:1046F000879577956795B795F111F8CFFAF4BB0FC9
:1047000011F460FF1BC06F5F7F4F8F4F9F4F16C02C
:10471000882311F096E911C0772321F09EE8872FB6
:10472000762F05C0662371F096E8862F70E060E072
:104730002AF09A95660F771F881FDAF7880F9695EB
:10474000879597F90895990F0008550FAA0BE0E88F
:10475000FEEF16161706E807F907C0F01216130643
:10476000E407F50798F0621B730B840B950B39F483
:104770000A2661F0232B242B252B21F408950A26E9
:1047800009F4A140A6958FEF811D811D089597F929
:104790009F6780E870E060E008959FEF80EC0895E7
:1047A00000240A9416161706180609060895002410
:1047B0000A9412161306140605060895092E03948A
:1047C000000C11F4882352F0BB0F40F4BF2B11F4FE
:1047D00060FF04C06F5F7F4F8F4F9F4F089557FD5D
:1047E0009058440F551F59F05F3F71F04795880F5F
:1047F00097FB991F61F09F3F79F0879508951216F6
:1048000013061406551FF2CF4695F1DF08C01616A1
:1048100017061806991FF1CF869571056105089452
:104820000895E894BB2766277727CB0197F9089569
:104830000E94A32308F48FEF08950E9430240C9463
:10484000DE230E94D02338F00E94D72320F0952346
:1048500011F00C94C7230C94CD2311240C94122432
:104860000E94EF2370F3959FC1F3950F50E0551F01
:10487000629FF001729FBB27F00DB11D639FAA27B5
:10488000F00DB11DAA1F649F6627B00DA11D661F04
:10489000829F2227B00DA11D621F739FB00DA11D25
:1048A000621F839FA00D611D221F749F3327A00DDF
:1048B000611D231F849F600D211D822F762F6A2F7B
:1048C00011249F5750409AF0F1F088234AF0EE0FE0
:1048D000FF1FBB1F661F771F881F91505040A9F70D
:1048E0009E3F510580F00C94C7230C9412245F3F27
:1048F000E4F3983ED4F3869577956795B795F79549
:10490000E7959F5FC1F7FE2B880F911D96958795C0
:1049100097F90895FB01DC0101900D920020E1F769
:104920000895A8E1B0E042E050E00C949E240E947B
:10493000AC24272F0C94AD24DC01CB01FC01F999A8
:10494000FECF06C0F2BDE1BDF89A319600B40D92DB
:1049500041505040B8F70895262FF999FECF1FBA5D
:1049600092BD81BD20BD0FB6F894FA9AF99A0FBE98
:0849700001960895F894FFCFB1
:10497800414243444546FF000080BF000080BF1B02
:1049880002676500001B031B027373000000000030
:10499800001B031B027374000000000000001B03CF
:1049A8001B026565001B0300050006079B07010243
:1049B800010407120C0203020407CB0E03040304CC
:1049C8000794080405040007690A05010500073271
:1049D8000706000600071907070007000710081B4D
:0649E8000270701B0300C9
:00000001FF
