:100000000C9456000C9473000C9473000C947300C1
:100010000C9473000C9473000C9473000C94730094
:100020000C9473000C94BA000C9473000C9473003D
:100030000C9473000C9473000C9473000C94730074
:100040000C9473000C9429070C9473000C947300A7
:100050000C9473000C9473000C9473000C94730054
:100060000C9473000C9473000C9473000C94730044
:100070000C9473000C9473000C9473000C94730034
:100080000C9473000C9473000C9473000C94730024
:100090000C9473000C9473000C9473000C94730014
:1000A0000C9473000C9473000C94730011241FBE05
:1000B000CFEFDAE0DEBFCDBF15E0A0E0B1E0E4E9CC
:1000C000FAE102C005900D92AA3AB107D9F725E0EE
:1000D000AAEAB5E001C01D92A23DB207E1F70E9475
:1000E000810A0C94480D0C94000080B38C7880BB7E
:1000F000549A5C9808955C9A08955C98089591B319
:1001000021E030E001C0220F8A95EAF7892F82238F
:100110000895682F41E084E00C94D807682F40E0F0
:1001200084E00C94D8070895089508950895F894EC
:1001300084B184B9E8E6F0E0808181608083EBE6F9
:10014000F0E0808180678083789481E08093AF05C0
:1001500083B1829581708093AD0583B185FB88273B
:1001600080F98093AC0583B186FB882780F9809362
:10017000AE0508951F920F920FB60F9211241F9390
:100180002F933F934F935F936F937F938F939F939F
:10019000AF93BF93CF93DF93EF93FF93C3B1C29518
:1001A000C17013B115FB112710F9D3B1D6FBDD27B0
:1001B000D0F98091AD058C1709F45AC0DD2329F0E0
:1001C0008091AE05882309F45DC0C11335C08BE969
:1001D00094E00E94E1022091AF05822F90E0FC01A3
:1001E000EE0FFF1FE80FF91FEE0FFF1FEE0FFF1FAF
:1001F000EE57FE4F8181823009F47AC08381281343
:100200008093AF05C093AD051093AC05D093AE05B8
:10021000FF91EF91DF91CF91BF91AF919F918F911E
:100220007F916F915F914F913F912F911F910F900F
:100230000FBE0F901F90189585E994E00E94E1028F
:100240002091AF05822F90E0FC01EE0FFF1FE80F19
:10025000F91FEE0FFF1FEE0FFF1FEE57FE4F8181BC
:100260008230B1F18281281769F28093AF05CACF3D
:100270008091AC05811739F1DD2321F28091AE0523
:100280008111C0CF8EE894E00E94E102E091AF05B9
:100290008E2F90E0FC01EE0FFF1FE80FF91FEE0F0D
:1002A000FF1FEE0FFF1FEE57FE4F8181823081F15D
:1002B000833009F44AC0813009F44FC08091AD0504
:1002C000C81383CF9FCF8091AE058D13D5CFA0CF1C
:1002D0008091AA059091AB052085318582179307FF
:1002E00008F090CF01969093AB058093AA058ACF32
:1002F0008091AA059091AB0526813781281739078F
:1003000008F080CF01979093AB058093AA057ACF30
:100310006091AA057091AB05858190E00E947F0AEB
:10032000E091AF058E2F90E0FC01EE0FFF1FE80F6C
:10033000F91FEE0FFF1FEE0FFF1FEE57FE4F8481D8
:100340008093AF058091AD05BBCF0284F385E02D8E
:10035000309709F4B3CF0995B1CFE481E093AF05AD
:100360008E2F90E0FC01EE0FFF1FE80FF91FEE0F3C
:10037000FF1FEE0FFF1FEE57FE4F8181823009F005
:100380009DCF858190E00E947D0A9093AB0580937C
:10039000AA058091AD0594CF8CE00E941C0A0E94B2
:1003A00092090E94AE0980E00C9498090C9492097D
:1003B0000C94AE090C9466090C94FB09CF92DF9261
:1003C000EF92FF920F931F93CF93DF93CDB7DEB7DA
:1003D0002A970FB6F894DEBF0FBECDBF009709F481
:1003E0004EC097FD41C08E010F5F1F4FF80120E006
:1003F0003AE0C32ED12C7F01E20EF11CB6010E941F
:10040000C50A805DD7018C93CB012F5F009799F7C8
:10041000DF01A20FB11D1C922695A1F0BD01CF01F5
:1004200001962150820F911D2191DB013E91BD016A
:10043000AF0141505109DA013C93DB012C938E1737
:100440009F0791F7C8010E94FB092A960FB6F894FE
:10045000DEBF0FBECDBFDF91CF911F910F91FF90F7
:10046000EF90DF90CF9008952DE2298391958195AB
:100470009109FE0132968E010F5F1F4FB8CF80E3C6
:1004800089831A828E010F5F1F4FDCCF1092B90053
:1004900088E18093B800089594EA9093BC0090910D
:1004A000BC0097FFFCCF9091B900987F983011F075
:1004B000903191F48093BB0084E88093BC008091DC
:1004C000BC0087FFFCCF9091B900987F983131F044
:1004D00081E0903419F0089581E0089580E0089556
:1004E00024EA34E844E92093BC009091BC0097FFD3
:1004F000FCCF9091B900987F983011F0903199F726
:100500008093BB003093BC009091BC0097FFFCCF60
:100510009091B900987F903219F0983509F00895BC
:100520004093BC009091BC0094FDFCCFDCCF0C94B8
:100530004C0284E98093BC008091BC0084FDFCCF18
:1005400008958093BB0084E88093BC008091BC0038
:1005500087FFFCCF9091B900987F81E0983209F035
:10056000089580E0089584EC8093BC008091BC00E5
:1005700087FFFCCF8091BB00089584E88093BC0086
:100580008091BC0087FFFCCF8091BB000895109242
:10059000CD0087E68093CC0088E18093C90086E097
:1005A0008093CA0008958091C80087FFFCCF809196
:1005B000CE0008959091C80095FFFCCF8093CE00A7
:1005C0000895FC019081992351F031968091C800E3
:1005D00085FFFCCF9093CE0091919111F7CF0895B4
:1005E0009B01672B69F0FC01280F391F91918091C5
:1005F000C80085FFFCCF9093CE00E217F307B1F758
:100600000895EF92FF920F931F93CF93DF93CDB78F
:10061000DEB72A970FB6F894DEBF0FBECDBF0097A6
:1006200009F452C0FE01319697FD46C020E03AE041
:10063000E32EF12C8F01020F111DB7010E94C50A94
:10064000805DD8018C93CB012F5F009799F7DF0174
:10065000A20FB11D1C922695A1F0BD01CF010196FC
:100660002150820F911D2191DB013E91BD01AF010F
:1006700041505109DA013C93DB012C938E179F07FF
:1006800091F79981992359F0FE0132968091C80023
:1006900085FFFCCF9093CE0091919111F7CF2A96D0
:1006A0000FB6F894DEBF0FBECDBFDF91CF911F9183
:1006B0000F91FF90EF9008952DE2298391958195F8
:1006C0009109FE013296B2CF80E389831A8290E3CA
:1006D000DBCF6A9A3F9A5798729A0895CF93DF9327
:1006E00000D000D0CDB7DEB772988FE99FE00197B8
:1006F000F1F700C0000020E087E090E061E070E0EA
:100700004798AFE9BFE01197F1F700C000004F9B99
:1007100007C0AB01082E01C0440F0A94EAF7242B4E
:10072000479AEFE9FFE03197F1F700C00000019729
:1007300038F730E0322F222740E087E090E0E1E018
:10074000F0E04798AFE9BFE01197F1F700C0000073
:100750004F9B07C0BF01082E01C0660F0A94EAF73D
:10076000462B479AAFE9BFE01197F1F700C00000B0
:10077000019738F7242B729A22FD2FC0C901969554
:10078000879596958795969587959C0150E040E0D2
:1007900029833A834B835C83CA01B9010E94240CEC
:1007A00020E030E040E85EE369837A838B839C83BA
:1007B00069817A818B819C810E94B20C69837A83E2
:1007C0008B839C8369817A818B819C810F900F90B0
:1007D0000F900F90DF91CF91089560E070E088EC6A
:1007E00092ECECCFCF93DF9300D000D0CDB7DEB743
:1007F0000E946E0320E030E040E151E469837A8397
:100800008B839C8369817A818B819C810E94B20C4D
:1008100020E030E040EA50E469837A838B839C8354
:1008200069817A818B819C810E947C0B20E030E081
:1008300040E052E469837A838B839C8369817A8167
:100840008B819C810E94100B69837A838B839C83AC
:1008500069817A818B819C810F900F900F900F900E
:10086000DF91CF91089589B182958695877091E047
:100870008927817090E00895CF93DF9300D000D056
:10088000CDB7DEB74D99FECF5D9A25E02A95F1F7F9
:1008900000005E9835E03A95F1F700004D99FECFE3
:1008A00028E180E090E0DC015E9A45E04A95F1F7AE
:1008B0000000880F991FAA1FBB1F5E9855E05A952C
:1008C000F1F700004D9B03C00196A11DB11D215001
:1008D00059F726E0B695A795979587952A95D1F76C
:1008E0005E9A65E06A95F1F700005E9825E02A952A
:1008F000F1F700009C01AD014058CA01B9010F9009
:100900000F900F900F90DF91CF910895803439F0C0
:10091000803889F0803249F05E980C943C0483E082
:100920008093CD055E980C943C0482E08093CD05C5
:100930005E980C943C0481E08093CD055E980C9405
:100940003C04569A55985D9A0C9486048F929F9217
:10095000AF92BF92CF92DF92EF92FF92CF93DF934D
:1009600000D000D000D0CDB7DEB78E83882E912C7A
:10097000B12CA12C882379F11D82C12CD12C7601B8
:100980000E943C04C60ED71EE81EF91E8D818F5FA3
:100990008D839E819813F4CFC701B601A501940100
:1009A0000E94D90A29833A834B835C8369817A81C7
:1009B0008B819C8126960FB6F894DEBF0FBECDBF0B
:1009C000DF91CF91FF90EF90DF90CF90BF90AF90ED
:1009D0009F908F90089519821A821B821C82E6CF05
:1009E0008F929F92AF92BF92CF92DF92EF92FF923F
:1009F000CF93DF9300D000D000D0CDB7DEB78E8389
:100A0000882E912CB12CA12C882309F449C01D8279
:100A1000C12CD12C76010E943C04C60ED71EE81EC4
:100A2000F91E8D818F5F8D839E819813F4CFC7014E
:100A3000B601A50194010E94D90A29833A834B8308
:100A40005C83CA01B9010E94240C2091C905309130
:100A5000CA054091CB055091CC0569837A838B837D
:100A60009C8369817A818B819C810E940F0B6983B1
:100A70007A838B839C8369817A818B819C81269682
:100A80000FB6F894DEBF0FBECDBFDF91CF91FF90C0
:100A9000EF90DF90CF90BF90AF909F908F90089590
:100AA00060E070E080E090E0D0CFCF93DF9300D0A3
:100AB00000D0CDB7DEB70E94F0042091CE05309172
:100AC000CF054091D0055091D10569837A838B83FE
:100AD0009C8369817A818B819C810E947C0B6983D4
:100AE0007A838B839C8369817A818B819C810F902F
:100AF0000F900F900F90DF91CF9108958F929F925A
:100B0000AF92BF92CF92DF92EF92FF92CF93DF939B
:100B100000D000D000D0CDB7DEB78E83882E912CC8
:100B2000B12CA12C8823E1F11D82C12CD12C76019E
:100B30000E943C04C60ED71EE81EF91E8D818F5FF1
:100B40008D839E819813F4CFC701B601A50194014E
:100B50000E94D90A29833A834B835C83CA01B90175
:100B60000E94240C362F272F432F522FBC01409375
:100B7000C9055093CA056093CB057093CC052696A2
:100B80000FB6F894DEBF0FBECDBFDF91CF91FF90BF
:100B9000EF90DF90CF90BF90AF909F908F9008958F
:100BA00030E020E080E090E0DFCF6093CE057093EE
:100BB000CF058093D0059093D1050895CF93DF930F
:100BC00000D000D0CDB7DEB78091CE059091CF0593
:100BD000A091D005B091D105BC01CD010F900F902F
:100BE0000F900F90DF91CF9108956093C905709396
:100BF000CA058093CB059093CC050895CF93DF93DE
:100C000000D000D0CDB7DEB78091C9059091CA055C
:100C1000A091CB05B091CC05BC01CD010F900F90F8
:100C20000F900F90DF91CF9108955E985E9A87E1C3
:100C300091E00197F1F700C0000008955E980895D3
:100C400047E050E080E05E9A29B12072042E01C096
:100C5000220F0A94EAF7822B5E984150510998F7C7
:100C60000895F8943E9AE4E9F0E01182108210921F
:100C700099001092980010929B0010929A00109286
:100C80009D0010929C0081E88093900089E0809301
:100C900091001182108278940895809398000895AD
:100CA000F894279AA4E8B0E011961C921E92E8E806
:100CB000F0E01182108210928B0010928A00109244
:100CC0008D0010928C0089E08093810082E08093F7
:100CD0006F0011961C921E9280E89EE391838083A0
:100CE0001092BC051092BD051092BE051092BF0572
:100CF0001092B8051092B9051092BA051092BB0572
:100D000078940895F8946093BC057093BD05809322
:100D1000BE059093BF051092B8051092B9051092C8
:100D2000BA051092BB0510928500109284002F988E
:100D300078940895F894549A1092B4051092B505D9
:100D40001092B6051092B7051092B0051092B10539
:100D50001092B2051092B30578940895F8946093B8
:100D6000B4057093B5058093B6059093B7051092BE
:100D7000B0051092B1051092B2051092B305109211
:100D80008500109284005C98789408954091BC0589
:100D90005091BD056091BE057091BF05411551058B
:100DA0006105710519F18091B8059091B905A0917F
:100DB000BA05B091BB050196A11DB11D8093B80580
:100DC0009093B905A093BA05B093BB05481759078E
:100DD0006A077B0758F485B1805885B91092B80529
:100DE0001092B9051092BA051092BB050895409172
:100DF000B4055091B5056091B6057091B7054115E0
:100E000051056105710521F18091B0059091B10501
:100E1000A091B205B091B3050196A11DB11D8093BB
:100E2000B0059093B105A093B205B093B3054817F0
:100E300059076A077B0760F48BB190E189278BB96A
:100E40001092B0051092B1051092B2051092B30540
:100E500008951F920F920FB60F9211242F933F9374
:100E60004F935F936F937F938F939F93AF93BF93B2
:100E7000EF93FF930E94C6060E94F706FF91EF9141
:100E8000BF91AF919F918F917F916F915F914F91A2
:100E90003F912F910F900FBE0F901F9018950E94B9
:100EA000460285E38A95F1F70000E1ECF5E0108257
:100EB000118212821382148215821682178208957B
:100EC000883030F4E82FF0E0EF53FA4F8081089536
:100ED0008FEF0895883088F4683078F4E82FF0E0D8
:100EE000EF53FA4F8081082E000C990B02C09595A4
:100EF00087956A95E2F7817008958FEF0895CF93F3
:100F0000C62F883088F4E82FF0E0EF53FA4F608363
:100F1000805E880F0E944C028C2F0E94A1020E94CA
:100F2000990280E0CF9108958FEFFCCFCF93DF93AC
:100F30008830D0F5E62FE41BFF0BDF01AF3FFFEF5A
:100F4000BF0794F16150673078F5442369F1E82FC9
:100F5000F0E0EF53FA4F90811196022E000C330B04
:100F60000A2E01C0220F0A94EAF7C1E0D0E002C0C5
:100F7000CC0FDD1F4A95E2F72197AE0101C0440F67
:100F8000AA95EAF7C92FC227C423C927C083805E68
:100F9000880F0E944C028C2F0E94A1020E9499028D
:100FA00080E0DF91CF9108958FEFDF91CF91089589
:100FB000CF93883000F56830F0F4E82FF0E0EF537D
:100FC000FA4FC08121E030E001C0220F6A95EAF7B4
:100FD00041110FC02095C223C083805E880F0E94FC
:100FE0004C028C2F0E94A1020E94990280E0CF91B6
:100FF0000895C22BF1CF8FEFFACF41E00C94D807C0
:1010000040E00C94D807CF93883080F490E080962D
:10101000880F991F81600E944C020E94BD02C82F58
:10102000C0950E9499028C2FCF910895CFEFFBCFEE
:10103000CF93C62F883088F4683078F40E94030874
:101040008F3F59F0082E000C990B02C0959587959B
:10105000CA95E2F78170CF9108958FEFCF910895EF
:1010600062E080E00E94FD0700C062E080E00C9436
:101070000008CF93C82F8091C005662309F495C05E
:1010800081608093C0058091C0058D7F8093C005ED
:101090006091C00580E00E947F078091C0058F7736
:1010A0008093C0058091C0058F7B8093C00580919F
:1010B000C0058F7D8093C0058091C0058F7E809391
:1010C000C005C7FF05C08091C00580688093C0053A
:1010D000C6FF05C08091C00580648093C005C5FF30
:1010E00005C08091C00580628093C005C4FF05C023
:1010F0008091C00580618093C0056091C00580E04B
:101100000E947F070E9430088091C0058F778093EE
:10111000C0058091C0058F7B8093C0058091C0057C
:101120008F7D8093C0058091C0058F7E8093C00520
:10113000C3FF05C08091C00580688093C005C2FFD1
:1011400005C08091C00580648093C005C1FF05C0C3
:101150008091C00580628093C005C0FF05C080916A
:10116000C00580618093C0056091C00580E00E9449
:101170007F070E9430088091C00580618093C00580
:101180008091C00580628093C0058091C005806415
:101190008093C0058091C00580688093C0056091F0
:1011A000C00580E0CF910C947F078E7F8093C005AF
:1011B0006ACFCF938091C0058E7F8093C0058091C8
:1011C000C00582608093C0056091C00580E00E94E8
:1011D0007F0762E080E00E94FD0700C064E080E0DD
:1011E0000E941808C0E18111C0E065E080E00E9423
:1011F0001808811101C0C06266E080E00E941808F2
:10120000811101C0C06467E080E00E94180881116C
:1012100001C0C06862E080E00E94000800C062E097
:1012200080E00E94FD0700C064E080E00E94180892
:10123000811101C0C16065E080E00E941808811141
:1012400001C0C26066E080E00E941808811101C000
:10125000C46067E080E00E941808811101C0C86086
:1012600062E080E00E9400088C2FCF9108950E94D8
:10127000D90887FDFCCF88E090E00197F1F70C9446
:10128000D908CF93C82F0E94370960E08C2FCF91E7
:101290000C943908CF93C82F0E94370961E08C2F36
:1012A000CF910C943908CF93C0E40E94370960E0D5
:1012B0008C2F0E9439080E94370961E080E00E946B
:1012C0003908CF5FC03889F7CF910895CF93C82FE1
:1012D000662361F06130D1F0623081F00E943709FD
:1012E00060E084ED8C0FCF910C9439080E9437098F
:1012F00060E080E88C0FCF910C9439080E94370988
:1013000060E084E98C0FCF910C9439080E94370972
:1013100060E080EC8C0FCF910C9439080E94370963
:1013200090E008950E94370960E081E00C9439084C
:10133000882351F08091C005877F8093C00560911C
:10134000C00580E00C947F078091C0058860809381
:10135000C0056091C00580E00C947F070E943709AA
:1013600060E082E00C943908CF93C82F0E943709BF
:10137000CA3029F061E08C2FCF910C943908C0EC71
:10138000843148F090EC980FC4E9943120F08451F6
:10139000C0E88C3238F00E94370960E08C2FCF9182
:1013A0000C943908C4EDF7CF0F931F93CF93DF93BD
:1013B000C82F8B0181E0C83028F0DF91CF911F91B9
:1013C0000F9108950E94370988E08C0F60E0880F24
:1013D000880F880F0E943908E801085F1F4F899124
:1013E0000E94B409C017D107D1F780E0DF91CF91F7
:1013F0001F910F910895CF93DF93EC01899188237A
:1014000031F00E94B409888121968111FACFDF91D1
:10141000CF910895CF93DF93FC01EC012196849145
:10142000882339F00E94B409FE018491219681112C
:10143000F9CFDF91CF9108951F93CF93DF93182FAA
:101440000E944F071092C0056091C00580E00E9485
:101450007F0780E09AEF0197F1F78091C0058062E5
:101460008093C0058091C00580618093C005609124
:10147000C00580E00E947F070E94300880E09EE463
:101480000197F1F70E943008C0E0D1E0CE0101974A
:10149000F1F70E943008CE010197F1F78091C00565
:1014A0008F7E8093C0056091C00580E00E947F0719
:1014B0000E9430082197F1F70E94370960E088E226
:1014C0000E9439080E94370960E088E00E943908CC
:1014D0000E94370960E081E00E9439080E943709C4
:1014E00060E086E00E9439080E94370960E0812FA1
:1014F000DF91CF911F910C9439080C941F0D0C941F
:10150000250D00D000D0CDB7DEB70E94C70282EA19
:1015100095E00E94E10280E80E94A10460E070E092
:1015200080E89FE30E94D50580E80E9486048AE057
:101530000E947E050E94FE052FEF89E698E121506A
:1015400080409040E1F700C000008AE00E94A604BD
:101550000E94240C69837A838B839C8369817A81BE
:101560008B819C810E94EE0BCB010E94010383E9D9
:1015700094E00E94E1022FEF81EE94E02150804040
:101580009040E1F700C00000E0CF97FB072E16F473
:10159000009407D077FD09D00E94FB0A07FC05D014
:1015A0003EF4909581959F4F0895709561957F4F7A
:1015B0000895A1E21A2EAA1BBB1BFD010DC0AA1F94
:1015C000BB1FEE1FFF1FA217B307E407F50720F0AC
:1015D000A21BB30BE40BF50B661F771F881F991F27
:1015E0001A9469F760957095809590959B01AC0170
:1015F000BD01CF010895AA1BBB1B51E107C0AA1F63
:10160000BB1FA617B70710F0A61BB70B881F991FA3
:101610005A95A9F780959095BC01CD010895505831
:10162000BB27AA270E94270B0C94780C0E946A0CF7
:1016300038F00E94710C20F039F49F3F19F426F421
:101640000C94670C0EF4E095E7FB0C94610CE92F09
:101650000E94890C58F3BA1762077307840795072D
:1016600020F079F4A6F50C94AB0C0EF4E0950B2E5B
:10167000BA2FA02D0B01B90190010C01CA01A001E4
:101680001124FF27591B99F0593F50F4503E68F13F
:101690001A16F040A22F232F342F4427585FF3CF80
:1016A000469537952795A795F0405395C9F77EF451
:1016B0001F16BA0B620B730B840BBAF09150A1F09A
:1016C000FF0FBB1F661F771F881FC2F70EC0BA0F20
:1016D000621F731F841F48F4879577956795B795A8
:1016E000F7959E3F08F0B0CF9395880F08F09927A3
:1016F000EE0F9795879508950E94900B0C94780CA7
:101700000E94710C58F00E946A0C40F029F45F3F6F
:1017100029F00C94610C51110C94AC0C0C94670CD6
:101720000E94890C68F39923B1F3552391F3951B1B
:10173000550BBB27AA2762177307840738F09F5FF2
:101740005F4F220F331F441FAA1FA9F335D00E2E5F
:101750003AF0E0E832D091505040E695001CCAF7CC
:101760002BD0FE2F29D0660F771F881FBB1F26178F
:1017700037074807AB07B0E809F0BB0B802DBF0166
:10178000FF2793585F4F3AF09E3F510578F00C9435
:10179000610C0C94AC0C5F3FE4F3983ED4F3869557
:1017A00077956795B795F7959F5FC9F7880F911D56
:1017B0009695879597F90895E1E0660F771F881F42
:1017C000BB1F621773078407BA0720F0621B730BF5
:1017D000840BBA0BEE1F88F7E09508950E94F50B75
:1017E0006894B1110C94AC0C08950E94910C88F08F
:1017F0009F5798F0B92F9927B751B0F0E1F0660FD5
:10180000771F881F991F1AF0BA95C9F714C0B13015
:1018100091F00E94AB0CB1E008950C94AB0C672FD3
:10182000782F8827B85F39F0B93FCCF38695779544
:101830006795B395D9F73EF490958095709561952D
:101840007F4F8F4F9F4F0895E89409C097FB3EF458
:1018500090958095709561957F4F8F4F9F4F9923FD
:10186000A9F0F92F96E9BB279395F695879577957B
:101870006795B795F111F8CFFAF4BB0F11F460FF3B
:101880001BC06F5F7F4F8F4F9F4F16C0882311F093
:1018900096E911C0772321F09EE8872F762F05C0A7
:1018A000662371F096E8862F70E060E02AF09A9542
:1018B000660F771F881FDAF7880F9695879597F937
:1018C000089597F99F6780E870E060E008959FEFC2
:1018D00080EC089500240A941616170618060906C7
:1018E000089500240A941216130614060506089596
:1018F000092E0394000C11F4882352F0BB0F40F41E
:10190000BF2B11F460FF04C06F5F7F4F8F4F9F4F5D
:10191000089557FD9058440F551F59F05F3F71F0DF
:101920004795880F97FB991F61F09F3F79F0879546
:101930000895121613061406551FF2CF4695F1DFCF
:1019400008C0161617061806991FF1CF869571055F
:10195000610508940895E894BB2766277727CB0193
:1019600097F908950E94C50C0C94780C0E946A0C9B
:1019700038F00E94710C20F0952311F00C94610C4A
:101980000C94670C11240C94AC0C0E94890C70F31D
:10199000959FC1F3950F50E0551F629FF001729F14
:1019A000BB27F00DB11D639FAA27F00DB11DAA1F23
:1019B000649F6627B00DA11D661F829F2227B00D70
:1019C000A11D621F739FB00DA11D621F839FA00DFB
:1019D000611D221F749F3327A00D611D231F849F4B
:1019E000600D211D822F762F6A2F11249F575040A2
:1019F0009AF0F1F088234AF0EE0FFF1FBB1F661F1D
:101A0000771F881F91505040A9F79E3F510580F0E5
:101A10000C94610C0C94AC0C5F3FE4F3983ED4F34F
:101A2000869577956795B795F795E7959F5FC1F789
:101A3000FE2B880F911D9695879597F90895A8E13B
:101A4000B0E042E050E00C942C0D0E943A0D272F9C
:101A50000C943B0DDC01CB01FC01F999FECF06C0D3
:101A6000F2BDE1BDF89A319600B40D92415050405C
:101A7000B8F70895262FF999FECF1FBA92BD81BD00
:101A800020BD0FB6F894FA9AF99A0FBE0196089500
:041A9000F894FFCFF8
:101A94009404A104AC04B704BC04C404CF04D30468
:101AA400DB04E204ED04F404FA04FE04F404FA048E
:101AB400FE0402050D0517051F0527053205F4046C
:101AC40002050D0517051F05270532053C054705C9
:101AD40052055A05F4043C05470552055A053C05D0
:101AE40047055205F4043C054705520564055205B3
:101AF400F404640552056D0574057D058405F4043C
:101B04006D0574057D0584058D059705F4048D0523
:101B1400970500010000010000000000000001031F
:101B24000201000000000000930002030301000012
:101B3400000000009400030104020C0000000000F7
:101B4400000004010503110000000000000005016D
:101B540006041E000000000000000601070527001F
:101B6400000000000000070108062E00000000002D
:101B7400000008010907330000000000000009010B
:101B84000A0809000000000000000A010A093C00DC
:101B94000000000000000B010B0A00000000000020
:101BA40000000C010D0C0F000000000000000D01EE
:101BB4000E0C10000000000000000E010E0D0300CA
:101BC4000000000000000F0200000C100000630081
:101BD4000000100200000D1200006300000011015B
:101BE4001211180000000000000012011311190066
:101BF400000000000000130114121A00000000008D
:101C04000000140115131B00000000000000150162
:101C140016141C00000000000000160117151D001A
:101C24000000000000001701171604000000000067
:101C3400000018020000112000002C01000019020D
:101C4400000012220000640000001A0200001324A5
:101C54000000640000001B02000014280000E703D9
:101C640000001C020000152A00002C0100001D02C7
:101C74000000162C0000640000001E011F1E23003B
:101C84000000000000001F01201E240000000000CE
:101C940000002001211F2500000000000000210198
:101CA400222026000000000000002201222105005D
:101CB400000000000000230200001E420000630038
:101CC4000000240200001F440000630000002502FD
:101CD40000002048000064000000260200002140AB
:101CE40000002C010000270128272B000000000021
:101CF4000000280129272C00000000000000290111
:101D04002A282D000000000000002A012A290600CC
:101D14000000000000002B020000275000006300B8
:101D240000002C02000028520000630000002D0275
:101D3400000029540000640000002E012F2E310001
:101D44000000000000002F01302E320000000000CF
:101D540000003001302F07000000000000003102B5
:101D640000002E6000002C010000320200002F62EF
:101D74000000630000003301343338000000000029
:101D84000000340135333900000000000000350143
:101D940036343A00000000000000360137353B00BD
:101DA4000000000000003701373608000000000082
:101DB400000038020000332E0000640000003902E5
:101DC400000034300000630000003A020000356473
:101DD4000000640000003B0200003668000063005D
:101DE40000003C013D3C3F000000000000003D01BC
:101DF4003E3C40000000000000003E013E3D0A0061
:101E04000000000000003F0200003C1400006300DA
:101E14000000400200003D18000063000000434C35
:101E240049434B0A004E4558540A00505245560A3D
:101E34000053746172742F53746F700050757A205C
:101E44004F6E2F4F66660054656D7000506F74704E
:101E5400616C61005374616269696C697A610052F2
:101E6400616400476173656E6A6500506C616D65FD
:101E74006E00446174756D2069205672005365725A
:101E840076697300497A6C617A004D696E004D6120
:101E9400780042727A696E6120562031005672656C
:101EA4006D6520562031005672656D6520440056DC
:101EB40072656D6520470042727A696E6120562012
:101EC40032005672656D652056203200446F7A6187
:101ED400746F72206F6E00446F7A61746F72206F3A
:101EE40066005672656D65205600556B75706E6F91
:101EF4002076720042727A696E61205600506C201E
:101F04006D696E00506C206D696E207600506C20F7
:101F14006D617800506C206D61782076004B726999
:101F2400742074656D700053746172742074656DEF
:0A1F3400700053544152540A00009B
:00000001FF
