:100000000C9456000C9473000C9473000C947300C1
:100010000C9473000C9473000C9473000C94730094
:100020000C9473000C9473000C9473000C94730084
:100030000C9473000C9473000C9473000C94730074
:100040000C9473000C9462160C9473000C9473005F
:100050000C9473000C9473000C9473000C94730054
:100060000C9473000C9471110C9473000C94730035
:100070000C9473000C9473000C9473000C94730034
:100080000C9473000C9473000C9473000C94730024
:100090000C9473000C9473000C9473000C94730014
:1000A0000C9473000C9473000C94730011241FBE05
:1000B000CFEFDAE0DEBFCDBF11E0A0E0B1E0E4ECCD
:1000C000FEE302C005900D92A238B107D9F722E0F5
:1000D000A2E8B1E001C01D92A13CB207E1F70E9485
:1000E000A11B0C94601F0C9400002F923F924F9222
:1000F0005F927F928F929F92AF92BF92CF92DF9248
:10010000EF92FF920F931F93CF93DF9300D000D015
:1001100000D0CDB7DEB72D833E83942E852E562E8C
:10012000472E382E292E0B831C83A0E00E94D91C59
:100130000CF46DC0712C4B815C81470D511D5A83AD
:1001400049838AE0A82EB12CC12CD12CE12CF12CB2
:1001500000E010E02D813E81492D582D652D742D34
:10016000832D922D0E94F61B205DA981BA812C93CC
:100170002D813E81492D582D652D742D832D922D75
:100180000E94F81B2D833E83942E852E562E472EDB
:10019000382E292E7394A0E00E94D91C61F6AB8101
:1001A000BC81A70DB11D1C92872D8695C1F0EB81F6
:1001B000FC81BD019F012F5F3F4F8150820F932F24
:1001C000911D2191DB013E91BD018F01015011096B
:1001D000D8013C93DB012C938E179F0791F726964D
:1001E0000FB6F894DEBF0FBECDBFDF91CF911F9148
:1001F0000F91FF90EF90DF90CF90BF90AF909F90C6
:100200008F907F905F904F903F902F900895EB815B
:10021000FC818DE28193832D0E94861C2D833E8379
:10022000942E852E562E472E382E292EFC83EB83B6
:1002300081CF0C94300E0C94580ECF93DF9300D0E6
:1002400000D00F92CDB7DEB790E3998398E79A83F9
:10025000E82FE295EF70803AE8F0EA50F0E0E050E5
:10026000FF4F90819B838F708A30C8F08A50E82FAF
:10027000F0E0E050FF4F80818C831D82CE0101961B
:100280000E94580E0F900F900F900F900F90DF91DB
:10029000CF910895E05DEB838F708A3038F7805DF1
:1002A0008C83EBCF9F92AF92BF92CF92DF92EF926F
:1002B000FF920F931F93CF93DF93CDB7DEB72F97A6
:1002C0000FB6F894DEBF0FBECDBFF82FE92FA0E028
:1002D0000E94D91CE9F0CE0101965C018C018F2FA0
:1002E0009E2F0E947500C5010E94580E2F960FB6D2
:1002F000F894DEBF0FBECDBFDF91CF911F910F915C
:10030000FF90EF90DF90CF90BF90AF909F900895B7
:1003100080E389831A82CE0101965C01E4CF9F922B
:10032000AF92BF92CF92DF92EF92FF920F931F9303
:10033000CF93DF93CDB7DEB7C950D1400FB6F89455
:10034000DEBF0FBECDBFCE01895E9E4FFC01619125
:1003500071916F01865191400E94301F99819923BC
:10036000C1F19E012F5F3F4F790180E3B82E48E72E
:10037000A42E07C07F018FEFE81AF80A9181992314
:1003800011F1F7019532B1F710822E153F0519F0E2
:10039000C9010E94580EF7018181843609F468C0B2
:1003A000833709F45CC0823639F10E941D01F701E0
:1003B000319697012E5F3F4F7F018FEFE81AF80AC1
:1003C00091819111DECF2E153F0519F0C9010E94D0
:1003D000580EC75FDE4F0FB6F894DEBF0FBECDBF1D
:1003E000DF91CF911F910F91FF90EF90DF90CF9011
:1003F000BF90AF909F900895F601E081F2E0CF0E9C
:10040000D11CC050DF4FB882C050D140CF5FDE4F0B
:10041000A882C150D140AE2FA295AF70E03A08F04B
:1004200045C0A05DCE5FDE4FA883C250D140EF70C3
:10043000EA3008F449C0EA50F0E0E050FF4F808114
:10044000CD5FDE4F8883C350D140CC5FDE4F188232
:10045000C450D140CE0193950E94580EA8CFF6010A
:1004600080819181E2E0CE0ED11C0E94580E9FCF78
:10047000F601B18122E0C20ED11C9080EB2FEE0F6D
:10048000EE0B292D3B2F4E2F5E2F6E2F7E2F8E2FA2
:100490009E2FA0E00E94D91CF1F08E0113950E94BE
:1004A0007500CE0193950E94580E81CFAA50B0E0FE
:1004B000A050BF4F8C91CE5FDE4F8883C250D14099
:1004C000EF70EA3008F0B7CFE05DCD5FDE4FE88334
:1004D000C350D140BACFC050DF4FB882C050D140D6
:1004E000CF5FDE4F1882C150D140DBCFDB0190E3FC
:1004F0009C9398E711969C931197E82FE295EF70E3
:10050000803AB8F0EA50F0E0E050FF4F9081129648
:100510009C9312978F708A3098F08A50E82FF0E001
:10052000E050FF4F808113968C93139714961C9282
:100530000895E05D1296EC9312978F708A3068F7F9
:10054000805D13968C93139714961C920895AF9226
:10055000BF92DF92EF92FF920F931F93CF93DF939F
:10056000A0E00E94D91C61F00E947500DF91CF913C
:100570001F910F91FF90EF90DF90BF90AF90089583
:1005800080E3F80180831182F1CF80B38C7880BB47
:10059000549A5C9840E067E084E00C943C1761E07A
:1005A00070E080E090E00C94761560E070E0CB01A4
:1005B0000C9476152FB130E0A90102C055954795EE
:1005C0008A95E2F7CA018095909581700895682F09
:1005D00041E084E00C943C17682F40E084E00C94E8
:1005E0003C178CE00E943A1B0E94B01A0E94CC1A61
:1005F00080E00C94B61A0C94B01A0C94CC1A0C949B
:10060000841A0C94191BCF92DF92EF92FF920F93F2
:100610001F93CF93DF93CDB7DEB72A970FB6F89429
:10062000DEBF0FBECDBF009709F44EC097FD41C09D
:100630008E010F5F1F4FF80120E03AE0C32ED12C4E
:100640007F01E20EF11CB6010E94A61B805DD7015E
:100650008C93CB012F5F009799F7DF01A20FB11D9B
:100660001C922695A1F0BD01CF0101962150820F69
:10067000911D2191DB013E91BD01AF014150510916
:10068000DA013C93DB012C938E179F0791F7C80189
:100690000E94191B2A960FB6F894DEBF0FBECDBF7D
:1006A000DF91CF911F910F91FF90EF90DF90CF904E
:1006B00008952DE22983919581959109FE01329645
:1006C0008E010F5F1F4FB8CF80E389831A828E019E
:1006D0000F5F1F4FDCCF6F927F928F929F92AF92EE
:1006E000BF92CF92DF92EF92FF920F931F93CF931F
:1006F000DF93CDB7DEB76E970FB6F894DEBF0FBEAF
:10070000CDBF86E0E3E6F1E0DE011E9601900D929A
:100710008A95E1F706C08FE99FE00197F1F700C0E5
:1007200000000E946E118111F6CF66E070E0CE01EC
:100730000E960E94911084E190E00E949D1B4C0156
:1007400088E190E00E949D1B8EE290E00E949D1B3C
:100750007C010E94CF0FD62EC72EB82EA92E8091D5
:100760008701813009F45DC110928701DB8ECC8E48
:10077000BD8EAE8E6B8D7C8D8D8D9E8D0E94DD1D10
:100780006B8F7C8F8D8F9E8FAB8DBC8DAB2B09F0CB
:10079000C4C10E94CF0FD62EC72EB82EA92E14E0AA
:1007A000DB8ECC8EBD8EAE8E6B8D7C8D8D8D9E8DB9
:1007B0000E94DD1D6B8F7C8F8D8F9E8F2B8D3C8DCE
:1007C000232B09F0A5C10E94CF0FD62EC72EB82E1D
:1007D000A92E115029F782E080938701C401B0E06F
:1007E000A0E08B8F9C8FAD8FBE8FB401CD010E9496
:1007F0000C1E9B01AC01DB8ECC8EBD8EAE8E6B8D44
:100800007C8D8D8D9E8D0E94BE1E18161CF481E07D
:100810008093870187E00E94280F811116C1809183
:100820008701882309F4F3C0612C712C812C912C51
:1008300010E000E09301A40160918A0170918B01A6
:1008400080918C0190918D010E94661D811111C0D3
:100850002D2D3C2D4B2D5A2D6091070170910801D3
:100860008091090190910A010E94661D882309F474
:10087000C8C08CE0EBE0F1E0DE01119601900D9232
:100880008A95E1F7DB8ECC8EBD8EAE8E6B8D7C8D26
:100890008D8D9E8D0E94DD1D462F572F5627452793
:1008A00054275E834D8310270127102718870F8355
:1008B000FE24EF24FE24FA86E9866CE070E0CE0187
:1008C00001960E949110DE0154967D018E010A5E10
:1008D0001F4F9E01295E3F4FAE01485E5F4FBE0134
:1008E000675E7F4FCE014A960E940C18298D809139
:1008F0000601388D4F895E89281390C08C899D89A7
:1009000060918601361709F4F2C0209306013093F6
:1009100086014093850150938401909383018093D5
:1009200082016DE0E7E1F1E0DE01119601900D92A8
:100930006A95E1F72E833F8348875987982789274F
:1009400098279B878A876DE070E0CE0101960E9410
:100950009110C301D40180938A0190938B01A093DD
:100960008C01B0938D018D2D9C2DAB2DBA2D8093D4
:10097000070190930801A0930901B0930A01909197
:100980008701809188019817A1F087E0E4E2F1E007
:10099000DE01119601900D928A95E1F79923D9F124
:1009A0009D8367E070E0CE0101960E9491108091D6
:1009B00087018093880182E7898B66E070E0CE0131
:1009C0000E960E949110BFEF21EE34E0B15020400E
:1009D0003040E1F700C000006E960FB6F894DEBF1D
:1009E0000FBECDBFDF91CF911F910F91FF90EF9080
:1009F000DF90CF90BF90AF909F908F907F906F903F
:100A0000089580918701882309F45DCF32CF83E078
:100A10008093870109CF8EE68C83C3CF8C899D8913
:100A200074CFDB8ECC8EBD8EAE8E6B8D7C8D8D8D1E
:100A30009E8D0E94DD1D6B8F7C8F8D8F9E8FAB8D69
:100A4000BC8DAB2B09F4A5CEE5CE87E00E942A0F22
:100A50009C0150E040E02B8F3C8F4D8F5E8FCA0190
:100A6000B9010E940C1E20E030E048EC52E46B8F8C
:100A70007C8F8D8F9E8F6B8D7C8D8D8D9E8D0E943A
:100A8000C31E20E030EC4FE754E46B8F7C8F8D8FDA
:100A90009E8F6B8D7C8D8D8D9E8D0E946B1D20E0B9
:100AA00030E0A9016B8F7C8F8D8F9E8F6B8D7C8D3D
:100AB0008D8D9E8D0E94FA1C6B8F7C8F8D8F9E8FEB
:100AC0006B8D7C8D8D8D9E8D0E94DD1D462F572F49
:100AD0008A01CA01B0E0A0E08B8F9C8FAD8FBE8FE2
:100AE000BC01CD010E940C1E3B014C01A3CE6091C4
:100AF000850146130ACF60918401651306CF60918A
:100B00008201709183016817790709F0FECE21CF29
:100B100080918701813009F47DCEC401B0E0A0E06E
:100B20008B8F9C8FAD8FBE8FB401CD010E940C1EA8
:100B3000109287015ECE1F93CF93DF93CDB7DEB7C0
:100B400028970FB6F894DEBF0FBECDBF82E690E0C7
:100B50000E949D1B182F88E190E00E949D1B8D83B1
:100B60009E8370E060E090E080E00E949F1B0E9406
:100B7000A31580E00E94E51487E00E94EC02812F1B
:100B800090E0B0E0A0E089839A83AB83BC83BC0192
:100B9000CD010E941A15AD81BE81CD01B0E0A0E06B
:100BA0008D839E83AF83B8870E946B036D817E81A6
:100BB0008F8198850E940C1E2091070130910801B9
:100BC0004091090150910A0169837A838B839C8348
:100BD00069817A818B819C810E94BE1E181624F740
:100BE00060E070E0CB010E941A1580E028960FB6F5
:100BF000F894DEBF0FBECDBFDF91CF911F91089556
:100C0000CF930E946B0380918701813071F0C09176
:100C10008901CC2321F0C1E08C2FCF91089580E091
:100C20000E94E5148C2FCF910895C3E08C2FCF91B3
:100C30000895CF93DF9300D000D00F92CDB7DEB7E9
:100C400080E190E00E949D1B89839A830E946B0340
:100C50000E94A31580918701813009F440C0811161
:100C600035C090E080E00E949D1B892B79F1A9811D
:100C7000BA81CD01B0E0A0E089839A83AB83BC83C5
:100C8000BC01CD010E940C1EB1E0BD832091070183
:100C9000309108014091090150910A0169837A83DA
:100CA0008B839C8369817A818B819C810E94BE1E8B
:100CB00018160CF01D8281E02D8182270F900F9075
:100CC0000F900F900F90DF91CF91089582E00F90D9
:100CD0000F900F900F900F90DF91CF91089583E0C8
:100CE0000F900F900F900F900F90DF91CF9108957C
:100CF000CF93DF9300D000D0CDB7DEB70E946B0357
:100D00000E94A31580918701813031F18091890182
:100D1000811117C090E080E00E949D1B9C0181E042
:100D2000232B39F40F900F900F900F90DF91CF91FC
:100D3000089580E00F900F900F900F90DF91CF916A
:100D400008958FEF0E94E51482E00F900F900F90AE
:100D50000F90DF91CF91089588E190E00E949D1B54
:100D60009C0150E040E029833A834B835C83CA01B5
:100D7000B9010E940C1E2091070130910801409199
:100D8000090150910A0169837A838B839C8369816D
:100D90007A818B819C810E94661D18160CF4B6CF57
:100DA00083E0C0CF6F927F928F929F92AF92BF925B
:100DB000CF92DF92EF92FF920F931F93CF93DF9327
:100DC00000D000D000D0CDB7DEB780E390E00E9425
:100DD0009D1B8EE290E00E949D1B82E690E00E94A7
:100DE0009D1B898380E690E00E949D1B0E948E15CA
:100DF0000E948E1580E00E94E51487E00E94EC02BC
:100E00009981892F90E0B0E0A0E0BC01CD010E9463
:100E10001A150E948E154B015C010E948E1580E30D
:100E200090E00E949D1B8C018EE290E00E949D1B31
:100E30008D839E8382E690E00E949D1BF82E80E6C3
:100E400090E00E949D1B3C018F2D90E0B0E0A0E05F
:100E5000BC01CD010E941A150E946B030E948E15E1
:100E60006B017C0180918701813009F47CC0AD81E8
:100E7000BE81CD01B0E0A0E089839A83AB83BC83BF
:100E8000BC01CD010E940C1E20918A0130918B0182
:100E900040918C0150918D0169837A838B839C836F
:100EA00069817A818B819C810E94BE1E87FD58C01A
:100EB000C818D908EA08FB089801A8EEB3E00E9418
:100EC000DC1BC616D706E806F90608F4A8CF93017E
:100ED0000E94DC1B69837A838B839C830E948E151E
:100EE0006B017C010E948E15462F572FBC0124C038
:100EF00080E390E00E949D1B8EE290E00E949D1B8B
:100F000082E690E00E949D1B80E690E00E949D1B7F
:100F10009C01A8EEB3E00E94DC1B69837A838B837B
:100F20009C830E946B030E948E15462F572FBC0195
:100F3000809187018130B9F04C195D096E097F09F4
:100F400089819A81AB81BC81481759076A077B0761
:100F500078F260E070E0CB010E941A1580E004C0D6
:100F6000460157015CCF83E026960FB6F894DEBFAA
:100F70000FBECDBFDF91CF911F910F91FF90EF90EA
:100F8000DF90CF90BF90AF909F908F907F906F90A9
:100F900008952F923F924F925F926F927F928F921D
:100FA0009F92AF92BF92CF92DF92EF92FF920F93F8
:100FB0001F93CF93DF93CDB7DEB72E970FB6F8947C
:100FC000DEBF0FBECDBF0E948E150E948E15812CF4
:100FD000912C540184E590E00E949D1B898380E55B
:100FE00090E00E949D1B9C01A8EEB3E00E94DC1BD8
:100FF0006D837E838F83988782E590E00E949D1B9E
:101000009C01A8EEB3E00E94DC1B69877A878B877E
:101010009C8782E190E00E949D1B8EE290E00E94FE
:101020009D1B80E390E00E949D1B3981232F30E0BF
:1010300050E040E0CA01B9010E941A158FEF0E94EA
:10104000E5140E948E152B013C010E948E156B0148
:101050007C012EC080E00E949D1B892B09F4DAC020
:10106000812C912C540180918701813009F4A0C01A
:10107000C801B0E0A0E089839A83AB83BC83B80148
:10108000CD010E940C1E2091070130910801409172
:10109000090150910A0169837A838B839C8369815A
:1010A0007A818B819C810E94661D18160CF0CCC041
:1010B000C418D508E608F7082D813E814F81588570
:1010C000C216D306E406F50608F0C8C084E590E031
:1010D0000E949D1BF82E80E590E00E949D1B9C01C4
:1010E000A8EEB3E00E94DC1B6D837E838F8398871C
:1010F00082E590E00E949D1B9C01A8EEB3E00E9457
:10110000DC1B69877A878B879C8782E190E00E944D
:101110009D1B8C018EE290E00E949D1B8D879E8717
:1011200080E390E00E949D1B382E292E8F2D90E0A9
:10113000B0E0A0E0BC01CD010E941A150E946B0333
:101140000E948E156B017C014D855E859A0150E0F1
:1011500040E029833A834B835C83CA01B9010E9432
:101160000C1E20918A0130918B0140918C0150918D
:101170008D0169837A838B839C8369817A818B81DA
:101180009C810E94BE1E90E018160CF063CF80E098
:1011900081149104A104B104A9F40E949D1B892B20
:1011A000C9F14601570180918701813009F060CF74
:1011B00080E00E94E51460E070E0CB010E941A1507
:1011C00083E029C00E949D1B892B21F1232D322D04
:1011D000A8EEB3E00E94DC1B69837A838B839C8337
:1011E000D701C60188199909AA09BB0929813A8141
:1011F0004B815C81281739074A075B0708F033CF1A
:1012000060E070E0CB010E941A1580E00E94E514B6
:1012100082E001C082E02E960FB6F894DEBF0FBECA
:10122000CDBFDF91CF911F910F91FF90EF90DF9095
:10123000CF90BF90AF909F908F907F906F905F9076
:101240004F903F902F90089580E00E94E51460E059
:1012500070E0CB010E941A1580E0DDCF80E00E9493
:10126000E5140E948E152B013C010E948E156B0126
:101270007C012DC080E00E949D1B892B59F2812C9E
:10128000912C540180918701813009F491CFC801DC
:10129000B0E0A0E089839A83AB83BC83B801CD0121
:1012A0000E940C1E20910701309108014091090114
:1012B00050910A0169837A838B839C8369817A8147
:1012C0008B819C810E94661D18160CF0BDCFC4183E
:1012D000D508E608F70829853A854B855C85C2164E
:1012E000D306E406F50608F075CE84E590E00E948A
:1012F0009D1BF82E80E590E00E949D1B82E590E00A
:101300000E949D1B9C01A8EEB3E00E94DC1B698734
:101310007A878B879C8782E190E00E949D1B8C01DD
:101320008EE290E00E949D1B8D839E8380E390E07F
:101330000E949D1B382E292E8F2D90E0B0E0A0E05A
:10134000BC01CD010E941A150E946B030E948E15EC
:101350006B017C014D815E819A0150E040E0298360
:101360003A834B835C83CA01B9010E940C1E209111
:101370008A0130918B0140918C0150918D016983DC
:101380007A838B839C8369817A818B819C810E9483
:10139000BE1E90E018160CF06DCF80E08114910411
:1013A000A104B10441F40E949D1B892B09F432CFA2
:1013B0004601570167CF0E949D1B892B09F42ACF54
:1013C000232D322DA8EEB3E00E94DC1B69837A83C3
:1013D0008B839C83D701C60188199909AA09BB0987
:1013E00029813A814B815C81281739074A075B07BD
:1013F00008F048CF05CF8F929F92AF92BF92CF92C5
:10140000DF92EF92FF920F931F93CF93DF93CDB7AD
:10141000DEB72A970FB6F894DEBF0FBECDBF80E4CB
:1014200090E00E949D1B89839A8388E490E00E944B
:101430009D1B182F82E490E00E949D1B84E490E0A5
:101440000E949D1B0E948E150E948E1589819A8193
:10145000892BA1F480E02A960FB6F894DEBF0FBE68
:10146000CDBFDF91CF911F910F91FF90EF90DF9053
:10147000CF90BF90AF909F908F900895812F90E074
:10148000B0E0A0E0BC01CD010E941A1510E000E020
:1014900080E490E00E949D1B89879A8788E490E011
:1014A0000E949D1B82E490E00E949D1B9C01A8EE7F
:1014B000B3E00E94DC1B69837A838B839C8384E482
:1014C00090E00E949D1B9C01A8EEB3E00E94DC1BF3
:1014D0006D837E838F8398878FEF0E94E5140E942F
:1014E0008E154B015C010E948E156B017C0136C08C
:1014F00080E490E00E949D1B89879A8788E490E0B1
:101500000E949D1B82E490E00E949D1B9C01A8EE1E
:10151000B3E00E94DC1B69837A838B839C8384E421
:1015200090E00E949D1B9C01A8EEB3E00E94DC1B92
:101530006D837E838F8398870E946B030E948E1534
:101540006B017C0180918701813009F46AC090E0D1
:1015500080E00E949D1B892B09F061C0C818D90842
:10156000EA08FB0889819A81AB81BC81C816D9063B
:10157000EA06FB0608F4BCCF80E00E94E5140E9456
:101580008E154B015C010E948E156B017C012BC0F6
:1015900080E490E00E949D1B89879A8788E490E010
:1015A0000E949D1B82E490E00E949D1B84E490E0D9
:1015B0000E949D1B9C01A8EEB3E00E94DC1B6D8382
:1015C0007E838F8398870E946B030E948E156B0128
:1015D0007C0180918701813071F190E080E00E9470
:1015E0009D1B892BE1F0C818D908EA08FB088D81FA
:1015F0009E81AF81B885C816D906EA06FB0640F27F
:101600000F5F1F4FA985BA850A171B0708F440CF43
:1016100060E070E0CB010E941A1580E01CCF82E0F0
:101620001ACF87E00E94EC0260E070E0CB010E94DC
:101630001A1583E010CF60E070E0CB010E941A150C
:1016400083E009CF2F923F924F925F926F927F92E9
:101650008F929F92AF92BF92CF92DF92EF92FF92C2
:101660000F931F93CF93DF93CDB7DEB764970FB679
:10167000F894DEBF0FBECDBF82E290E00E949D1BBA
:101680008D8380E290E00E949D1B9C01A8EEB3E058
:101690000E94DC1B69837A838B839C8384E290E0C5
:1016A0000E949D1B9C01A8EEB3E00E94DC1B698791
:1016B0007A878B879C8788E290E00E949D1B9C0123
:1016C000A8EEB3E00E94DC1B6D877E878F87988B26
:1016D0008CE290E00E949D1B8AE290E00E949D1B9C
:1016E00084E690E00E949D1B88E690E00E949D1B8E
:1016F0000E948E154B015C010E948E156B017C01CE
:101700003D81232F30E050E040E0CA01B9010E9442
:101710001A1557C082E290E00E949D1B8D8380E2E3
:1017200090E00E949D1B9C01A8EEB3E00E94DC1B90
:1017300069837A838B839C8384E290E00E949D1B63
:101740009C01A8EEB3E00E94DC1B69877A878B8737
:101750009C8788E290E00E949D1B9C01A8EEB3E06C
:101760000E94DC1B6D877E878F87988B8CE290E0D0
:101770000E949D1B8AE290E00E949D1B84E690E0FF
:101780000E949D1B88E690E00E949D1B9D81892FF1
:1017900090E0B0E0A0E0BC01CD010E941A150E94CB
:1017A0006B030E948E156B017C0180918701813053
:1017B00009F463C190E080E00E949D1B892B09F42D
:1017C00042C1C818D908EA08FB0829813A814B812F
:1017D0005C81C216D306E406F50608F49BCF60E0F0
:1017E00070E0CB010E941A158FEF0E94E5140E9451
:1017F0008E154B015C010E948E156B017C0144C06B
:1018000082E290E00E949D1B80E290E00E949D1B7E
:1018100084E290E00E949D1B9C01A8EEB3E00E9430
:10182000DC1B69877A878B879C8788E290E00E941F
:101830009D1B9C01A8EEB3E00E94DC1B6D877E8798
:101840008F87988B8CE290E00E949D1B8AE290E04B
:101850000E949D1B84E690E00E949D1B88E690E01C
:101860000E949D1B0E946B030E948E156B017C01E0
:1018700080918701813009F400C190E080E00E94EE
:101880009D1B892B09F4DFC0C818D908EA08FB089A
:1018900089859A85AB85BC85C816D906EA06FB06FC
:1018A00008F4AECF80E00E94E51487E00E94E702D2
:1018B0000E948E15698B7A8B8B8B9C8B0E948E1568
:1018C000DC01CB0129893A894B895C89821B930B06
:1018D000A40BB50B2D853E854F855889821793073C
:1018E000A407B50708F0A7C0412C512C3201198676
:1018F00041C03985332309F4E5C0222D30E050E0A2
:1019000040E0CA01B9010E941A1531E03987AD855E
:10191000BE85CD01B0E0A0E089839A83AB83BC8310
:10192000BC01CD010E940C1E20918A0130918B01D7
:1019300040918C0150918D0169837A838B839C83C4
:1019400069817A818B819C810E94661D87FF97C087
:10195000411451046104710409F095C02601370156
:101960002D813E814F81588582169306A406B506C7
:1019700008F061C082E290E00E949D1B282E80E268
:1019800090E00E949D1B84E290E00E949D1B88E2F3
:1019900090E00E949D1B9C01A8EEB3E00E94DC1B1E
:1019A0006D837E838F8398878CE290E00E949D1BDD
:1019B000382E8AE290E00E949D1B9C01A8EEB3E0C5
:1019C0000E94DC1B69837A838B839C8384E690E08E
:1019D0000E949D1B8D879E8788E690E00E949D1B3C
:1019E0008C010E946B030E948E156B017C0180911B
:1019F0008701813009F441C090E080E00E949D1B86
:101A0000892B09F14601570189899A89AB89BC89DB
:101A1000881A990AAA0ABB0A29813A814B815C81FA
:101A200082169306A406B50608F063CFA985AA23FB
:101A300009F46DCF62CF60E070E0CB010E941A150F
:101A400087E00E94EC0282E064960FB6F894DEBF55
:101A50000FBECDBFDF91CF911F910F91FF90EF90FF
:101A6000DF90CF90BF90AF909F908F907F906F90BE
:101A70005F904F903F902F90089583E0E5CF412CE9
:101A8000512C32016DCFC418D508E608F70848EE8E
:101A900053E0049FC001059F900D149F900D1124E9
:101AA000B0E0A0E08C159D05AE05BF0508F058CF4D
:101AB00060E070E0CB010E941A1587E00E94EC0202
:101AC00080E0C2CF832D90E0B0E0A0E0BC01CD016A
:101AD0000E941A1591E099871ACFF89410928E01FE
:101AE00010928701109288010E94190178942C9815
:101AF000249A2C9A03E711E0CAE6D1E0249885B134
:101B0000807185B9879A8F9A2FEF31EE84E021504A
:101B100030408040E1F700C0000083B1249A2C9A45
:101B200087988F989FEF21EE34E09150204030400D
:101B3000E1F700C0000084FF0EC087E00E942A0F7A
:101B40009F938F93DF93CF930E948F010F900F90FD
:101B50000F900F90D3CF1F930F930E948F010F9080
:101B60000F90CCCFE0918E0187E0E89FF001112427
:101B7000E55DFE4F0580F681E02D09958230E9F0A4
:101B800070F4882331F1E0918E0187E0E89FF00145
:101B90001124E55DFE4FE281E0938E01E5CF8330B5
:101BA00009F7E0918E0187E0E89FF0011124E55DDF
:101BB000FE4FE481E0938E01D7CFE0918E0187E064
:101BC000E89FF0011124E55DFE4FE381E0938E0173
:101BD000CBCFE0918E0187E0E89FF0011124E55D15
:101BE000FE4FE181E0938E01BFCF61E070E090E0B5
:101BF00080E00E949F1B10928701089570E060E0D2
:101C000090E080E00E949F1B10928701089581E080
:101C100080938901089510928901089580918E0121
:101C2000811106C061E070E090E080E00C949F1BA1
:101C300070E060E090E080E00C949F1B80918E014A
:101C4000882319F0863009F008958091890188234E
:101C500019F010928901089581E080938901089517
:101C6000539A5B9A0895F8945B98EFE9F1E0319705
:101C7000F1F700C0000028E030E091E00BC05B9A73
:101C8000EFE9F1E03197F1F700C00000990F215022
:101C9000310929F0482F492391F75B98F1CF5B9ADE
:101CA0008FE991E00197F1F700C000007894089562
:101CB000CF93DF93EC018881882331F021960E9435
:101CC000330E89918111FBCFDF91CF9108958A3036
:101CD00018F0895A0C94330E805D0C94330ECF9318
:101CE000C82F82958F700E94670E8C2F8F70CF91B6
:101CF0000C94670ECF93DF93EC018D2F82958F703C
:101D00000E94670E8D2F8F700E94670E8C2F829518
:101D10008F700E94670E8C2F8F70DF91CF910C9483
:101D2000670ECF93DF93D62FC72F0E947A0E8D2F89
:101D30009C2FDF91CF910C947A0E1092B90088E11C
:101D40008093B800089594EA9093BC009091BC00F1
:101D500097FFFCCF9091B900987F983011F09031A7
:101D600091F48093BB0084E88093BC008091BC0018
:101D700087FFFCCF9091B900987F983131F081E0D6
:101D8000903419F0089581E0089580E0089524EAE0
:101D900034E844E92093BC009091BC0097FFFCCF4D
:101DA0009091B900987F983011F0903199F7809315
:101DB000BB003093BC009091BC0097FFFCCF90918A
:101DC000B900987F903219F0983509F00895409342
:101DD000BC009091BC0094FDFCCFDCCF0C94A30E12
:101DE00084E98093BC008091BC0084FDFCCF089501
:101DF0008093BB0084E88093BC008091BC0087FF87
:101E0000FCCF9091B900987F81E0983209F0089555
:101E100080E0089584EC8093BC008091BC0087FF33
:101E2000FCCF8091BB00089584E88093BC00809132
:101E3000BC0087FFFCCF8091BB000895879880E4A9
:101E400080937C0087E880937A00209A28980895F0
:101E500081E00895982F80917A00806880937A00BD
:101E60002FEF31EE84E0215030408040E1F700C098
:101E7000000080917C00887F9770892B80937C0084
:101E800080917A00806480937A0080917A0086FD48
:101E9000FCCF80917A008F7780937A009FEF21EEBC
:101EA00034E0915020403040E1F700C000008091C4
:101EB000780090917900109279001092780008953E
:101EC00076986E9A8FE797E00197F1F700C00000CF
:101ED0006E98EFEEF0E03197F1F700C000008CB1A2
:101EE000EFE8F6E03197F1F700C000008074089544
:101EF00076986E9A95E09A95F1F7000081116E98A8
:101F00008FEE90E00197F1F700C000006E98089501
:101F100076986E9A85E08A95F1F700006E989AE4BB
:101F20009A95F1F700C08CB190EF9A95F1F786FB86
:101F3000882780F9089598E076986E9A25E02A958A
:101F4000F1F7000080FD6E98EFEEF0E03197F1F7C9
:101F500000C000006E988695915071F7089598E042
:101F600080E076986E9A25E02A95F1F700006E9849
:101F70002AE42A95F1F700C04CB120EF2A95F1F739
:101F800046FB222720F930E0A9015695542F44271B
:101F9000579547958695842B915019F70895CF93BF
:101FA000DF9300D000D0CDB7DEB7F89476986E9A64
:101FB0008FE797E00197F1F700C000006E98AFEE51
:101FC000B0E01197F1F700C000008CB18FE896E007
:101FD0000197F1F700C000008CEC0E949B0F84E495
:101FE0000E949B0F789476986E9A95E09A95F1F7F7
:101FF00000006E98AAE4AA95F1F700C0669910C097
:10200000B0EFBA95F1F776986E9A85E08A95F1F778
:1020100000006E989AE49A95F1F700C0669BF0CFA5
:10202000A0EFAA95F1F7F89476986E9A8FE797E06B
:102030000197F1F700C000006E98AFEEB0E0119785
:10204000F1F700C000008CB18FE896E00197F1F73E
:1020500000C000008CEC0E949B0F8EEB0E949B0F37
:102060000E94AF0F89830E94AF0F282F789430E031
:10207000322F22279981290F311DC901330FAA0B55
:10208000BB0B89839A83AB83BC83BC01CD010E94C7
:102090000E1E20E030E040E85DE369837A838B83A5
:1020A0009C8369817A818B819C810E94C31E698394
:1020B0007A838B839C8369817A818B819C810F9049
:1020C0000F900F900F90DF91CF9108951092CD0057
:1020D00087E08093CC0088E98093C90086E08093F4
:1020E000CA0010928F0108958091C80087FFFCCF2D
:1020F0008091CE0008959091C80095FFFCCF809309
:10210000CE000895FC019081992351F03196809181
:10211000C80085FFFCCF9093CE0091919111F7CF2D
:1021200008959B01672B69F0FC01280F391F9191DD
:102130008091C80085FFFCCF9093CE00E217F30793
:10214000B1F708952F923F924F925F926F927F92D4
:102150008F929F92AF92BF92CF92DF92EF92FF92B7
:102160000F931F93CF93DF93CDB7DEB7E7970FB6EB
:10217000F894DEBF0FBECDBF922E832E742E652E37
:10218000562E472E382E292EA0E00E94D91C09F485
:102190009BC0A0E00E94D91C0CF484C0FE013196C3
:1021A000FFABEEAB1BAAAEA9BFA9EBA9AE0FB11D49
:1021B000BDABACAB8AE0A82EB12CC12CD12CE12C4C
:1021C000F12C00E010E0292D382D472D562D652DDE
:1021D000742D832D922D0E94F61B205DACA9BDA904
:1021E0002C93292D382D472D562D652D742D832D9B
:1021F000922D0E94F81B922E832E742E652E562E41
:10220000472E382E292EBBA9BF5FBBABA0E00E9492
:10221000D91C49F6AEA9BFA9FBA9AF0FB11D1C92ED
:102220008F2F8695C1F0EEA9FFA9BD019F012F5FF9
:102230003F4F8150820F932F911D2191DB013E91E1
:10224000BD01AF0141505109DA013C93DB012C93F0
:102250008E179F0791F79981992359F0FE013296C5
:102260008091C80085FFFCCF9093CE009191911191
:10227000F7CFE7960FB6F894DEBF0FBECDBFDF9164
:10228000CF911F910F91FF90EF90DF90CF90BF9073
:10229000AF909F908F907F906F905F904F903F9006
:1022A0002F9008958DE28983832D0E94861C922EA3
:1022B000832E742E652E562E472E382E292ECE01B3
:1022C00002969FAB8EAB6ECF80E389831A8290E338
:1022D000C5CF9093910180939001089580918F01D3
:1022E00008951F920F920FB60F9211242F933F93D0
:1022F0004F935F936F937F938F939F93AF93BF930E
:10230000EF93FF93F8948091C800609192018091BF
:10231000CE00E62FF0E0ED56FE4F80836F5F6093B6
:102320009201613069F16230F9F0623028F18091F8
:1023300093018B3169F180919401823049F11092BF
:10234000920110928F01FF91EF91BF91AF919F91F8
:102350008F917F916F915F914F913F912F910F904E
:102360000FBE0F901F90189560919401623039F75D
:10237000809193018B3191F181E080938F0106C0B0
:10238000809193018B31D9F660938F017894DBCFE4
:102390006F3FA9F281E080938F01862F90E08D56E8
:1023A0009E4FFC01329720812B3181F7FC01319740
:1023B00030813230F1F00197FC018081833031F7B8
:1023C000E0919001F0919101309701F383E991E060
:1023D00009951092920110928F01D8CF81E08093DD
:1023E0008F0185E991E00197FC018081833071F6CE
:1023F000E7CF209393013093940130939201C6CF9D
:102400006A9A3F9A5798729A0895CF93DF9300D0B3
:1024100000D0CDB7DEB772988FE99FE00197F1F752
:1024200000C0000020E087E090E061E070E04798A5
:10243000AFE9BFE01197F1F700C000004F9B07C064
:10244000AB01082E01C0440F0A94EAF7242B479AE7
:10245000EFE9FFE03197F1F700C00000019738F78E
:1024600030E0322F222740E087E090E0E1E0F0E02A
:102470004798AFE9BFE01197F1F700C000004F9B0C
:1024800007C0BF01082E01C0660F0A94EAF7462B69
:10249000479AAFE9BFE01197F1F700C0000001973C
:1024A00038F7242B729A22FD2FC0C9019695879583
:1024B00096958795969587959C0150E040E02983F5
:1024C0003A834B835C83CA01B9010E940C1E20E051
:1024D00030E040E85EE369837A838B839C83698183
:1024E0007A818B819C810E94C31E69837A838B834E
:1024F0009C8369817A818B819C810F900F900F90D2
:102500000F90DF91CF91089560E070E088EC92EC3D
:10251000ECCFCF93DF9300D000D0CDB7DEB70E94D1
:10252000051220E030E040E151E469837A838B8337
:102530009C8369817A818B819C810E94C31E20E0EB
:1025400030E040EA50E469837A838B839C8369811D
:102550007A818B819C810E946B1D20E030E040E0FD
:1025600052E469837A838B839C8369817A818B812E
:102570009C810E94FA1C69837A838B839C83698186
:102580007A818B819C810F900F900F900F90DF913B
:10259000CF91089589B182958695877091E08927BA
:1025A000817090E00895CF93DF9300D000D0CDB735
:1025B000DEB74D99FECF5D9A25E02A95F1F7000030
:1025C0005E9835E03A95F1F700004D99FECF28E18D
:1025D00080E090E0DC015E9A45E04A95F1F700006A
:1025E000880F991FAA1FBB1F5E9855E05A95F1F7F7
:1025F00000004D9B03C00196A11DB11D215059F74C
:1026000026E0B695A795979587952A95D1F75E9A76
:1026100065E06A95F1F700005E9825E02A95F1F7EC
:1026200000009C01AD014058CA01B9010F900F9004
:102630000F900F90DF91CF910895803439F080385A
:1026400089F0803249F05E980C94D31283E0809335
:10265000BC025E980C94D31282E08093BC025E9818
:102660000C94D31281E08093BC025E980C94D31238
:10267000569A55985D9A0C941D138F929F92AF9223
:10268000BF92CF92DF92EF92FF92CF93DF9300D071
:1026900000D000D0CDB7DEB78E83882E912CB12C20
:1026A000A12C882379F11D82C12CD12C76010E94A6
:1026B000D312C60ED71EE81EF91E8D818F5F8D8343
:1026C0009E819813F4CFC701B601A50194010E9421
:1026D000BA1B29833A834B835C8369817A818B811E
:1026E0009C8126960FB6F894DEBF0FBECDBFDF915A
:1026F000CF91FF90EF90DF90CF90BF90AF909F90E1
:102700008F90089519821A821B821C82E6CF8F92C5
:102710009F92AF92BF92CF92DF92EF92FF92CF93B0
:10272000DF9300D000D000D0CDB7DEB78E83882EE7
:10273000912CB12CA12C882309F449C01D82C12CF5
:10274000D12C76010E94D312C60ED71EE81EF91EA8
:102750008D818F5F8D839E819813F4CFC701B60161
:10276000A50194010E94BA1B29833A834B835C83A1
:10277000CA01B9010E940C1E2091B8023091B90221
:102780004091BA025091BB0269837A838B839C8308
:1027900069817A818B819C810E94F91C69837A838B
:1027A0008B839C8369817A818B819C8126960FB66D
:1027B000F894DEBF0FBECDBFDF91CF91FF90EF90B9
:1027C000DF90CF90BF90AF909F908F90089560E082
:1027D00070E080E090E0D0CFCF93DF9300D000D0C6
:1027E000CDB7DEB70E9487132091BD023091BE02A3
:1027F0004091BF025091C00269837A838B839C838E
:1028000069817A818B819C810E946B1D69837A83A7
:102810008B839C8369817A818B819C810F900F903F
:102820000F900F90DF91CF9108958F929F92AF926A
:10283000BF92CF92DF92EF92FF92CF93DF9300D0BF
:1028400000D000D0CDB7DEB78E83882E912CB12C6E
:10285000A12C8823E1F11D82C12CD12C76010E948C
:10286000D312C60ED71EE81EF91E8D818F5F8D8391
:102870009E819813F4CFC701B601A50194010E946F
:10288000BA1B29833A834B835C83CA01B9010E9436
:102890000C1E362F272F432F522FBC014093B80216
:1028A0005093B9026093BA027093BB0226960FB69A
:1028B000F894DEBF0FBECDBFDF91CF91FF90EF90B8
:1028C000DF90CF90BF90AF909F908F90089530E0B1
:1028D00020E080E090E0DFCF6093BD027093BE0205
:1028E0008093BF029093C0020895CF93DF9300D0EE
:1028F00000D0CDB7DEB78091BD029091BE02A0910D
:10290000BF02B091C002BC01CD010F900F900F909B
:102910000F90DF91CF9108956093B8027093B90240
:102920008093BA029093BB020895CF93DF9300D0B7
:1029300000D0CDB7DEB78091B8029091B902A091D6
:10294000BA02B091BB02BC01CD010F900F900F9065
:102950000F90DF91CF9108955E985E9A87E191E0A4
:102960000197F1F700C0000008955E98089547E0D0
:1029700050E080E05E9A29B12072042E01C0220F3F
:102980000A94EAF7822B5E984150510998F708950E
:10299000F8943E9A4698E4E9F0E011821082109291
:1029A00099001092980010929B0010929A00109239
:1029B0009D0010929C0081E88093900089E08093B4
:1029C0009100118210827894089580939800089560
:1029D000F894279AA4E8B0E011961C921E92E8E8B9
:1029E000F0E01182108210928B0010928A001092F7
:1029F0008D0010928C0089E08093810082E08093AA
:102A00006F0011961C921E9280E89EE39183808352
:102A10001092AB021092AC021092AD021092AE0274
:102A20001092A7021092A8021092A9021092AA0274
:102A300078940895CF93DF9300D000D0CDB7DEB760
:102A40009B01AC01F8942436310541055105A9F1EB
:102A50002115310541055105E9F42093AB0230936E
:102A6000AC024093AD025093AE021092A7021092B6
:102A7000A8021092A9021092AA0210928500109248
:102A800084002F9878940F900F900F900F90DF9103
:102A9000CF910895ACE3B0E00E94EB1B69837A8389
:102AA0008B839C8324E630E040E050E00E94BA1B18
:102AB000265F3F4F4F4F5F4FD0CF21E030E040E0E7
:102AC00050E0CBCFF894549A1092A3021092A40233
:102AD0001092A5021092A60210929F021092A002DC
:102AE0001092A1021092A20278940895F894609333
:102AF000A3027093A4028093A5029093A602109261
:102B00009F021092A0021092A1021092A2021092B3
:102B10008500109284005C987894089550919202F8
:102B200040919302309194022091950280919602F7
:102B3000809197028091980280919902652F742F5D
:102B4000832F922F08951092920210929302109266
:102B5000940210929502109296021092970210928F
:102B60009802109299020895CF92DF92EF92FF920D
:102B7000CF93DF9300D000D00F92CDB7DEB7809116
:102B80009B0290919C02A0919D02B0919E02809127
:102B90009A020E94CF0F6B017C0187E00E942A0FEE
:102BA0008D8380919B0290919C02A0919D02B09197
:102BB0009E0289839A83AB83BC83A7019601BC01E3
:102BC000CD010E94661D811102C080919A02C092BF
:102BD0009B02D0929C02E0929D02F0929E029D8107
:102BE00090939A020F900F900F900F900F90DF919B
:102BF000CF91FF90EF90DF90CF900895089540918E
:102C0000AB025091AC026091AD027091AE024115E1
:102C100051056105710519F18091A7029091A802F3
:102C2000A091A902B091AA020196A11DB11D8093A5
:102C3000A7029093A802A093A902B093AA024817F2
:102C400059076A077B0758F485B1805885B91092F7
:102C5000A7021092A8021092A9021092AA02089547
:102C60004091A3025091A4026091A5027091A60226
:102C7000411551056105710521F180919F029091E7
:102C8000A002A091A102B091A2020196A11DB11DC6
:102C900080939F029093A002A093A102B093A202FE
:102CA000481759076A077B0760F48BB190E18927C1
:102CB0008BB910929F021092A0021092A102109262
:102CC000A20208951F920F920FB60F9211242F9314
:102CD0003F934F935F936F937F938F939F93AF93A4
:102CE000BF93EF93FF932091920230919302409112
:102CF0009402509195026091960270919702809192
:102D0000980290919902A1E00E94CD1C209392021A
:102D100030939302409394025093950260939602ED
:102D20007093970280939802909399020E94FF15E6
:102D30000E943016FF91EF91BF91AF919F918F91BB
:102D40007F916F915F914F913F912F910F900FBEA7
:102D50000F901F9018950E949D0E85E38A95F1F7BC
:102D60000000E0EBF2E010821182128213821482E2
:102D70001582168217820895883030F4E82FF0E02B
:102D8000E055FD4F808108958FEF0895883088F4D5
:102D9000683078F4E82FF0E0E055FD4F8081082E90
:102DA000000C990B02C0959587956A95E2F78170A2
:102DB00008958FEF0895CF93C62F8830A8F4E82F99
:102DC000F0E0E055FD4F6083805E880F0E94A30E07
:102DD00081110CC08C2F0E94F80E811107C00E9437
:102DE000F00E80E0CF9108958FEFFCCF0E94F00E9F
:102DF0008FEFF8CFCF93DF938830D0F5E62FE41B29
:102E0000FF0BDF01AF3FFFEFBF0794F16150673069
:102E100078F5442369F1E82FF0E0E055FD4F90810B
:102E20001196022E000C330B0A2E01C0220F0A94B9
:102E3000EAF7C1E0D0E002C0CC0FDD1F4A95E2F70F
:102E40002197AE0101C0440FAA95EAF7C92FC22706
:102E5000C423C927C083805E880F0E94A30E8C2FD5
:102E60000E94F80E0E94F00E80E0DF91CF9108954D
:102E70008FEFDF91CF910895CF93883020F56830A0
:102E800010F5E82FF0E0E055FD4FC08121E030E083
:102E900001C0220F6A95EAF7411113C02095C223A1
:102EA000C083805E880F0E94A30E81110EC08C2FFC
:102EB0000E94F80E811109C00E94F00E80E0CF91AF
:102EC0000895C22BEDCF8FEFFACF0E94F00E8FEF57
:102ED000F6CF41E00C943C1740E00C943C17CF93A4
:102EE000883080F490E08096880F991F81600E945E
:102EF000A30E0E94140FC82FC0950E94F00E8C2FB5
:102F0000CF910895CFEFFBCFCF93C62F883088F4B1
:102F1000683078F40E946F178F3F59F0082E000C2C
:102F2000990B02C095958795CA95E2F78170CF916C
:102F300008958FEFCF910895CF93DF93D82FC62FA9
:102F40008EED0E94A30E8D2F0E94F80E8C2F0E94F2
:102F5000F80EDF91CF910C94F00ECF93C82F8EED29
:102F60000E94A30E8C2F0E94F80E0E94F00E8FED8F
:102F70000E94A30E8C2F0E94F80E0E940A0FC82FE9
:102F80000E94F00E8C2FCF910895CF9380E00E9485
:102F9000AD17682F606880E00E949C17CFEF08C0D3
:102FA0008FE99FE00197F1F700C00000C15031F0B8
:102FB00083E00E94AD1785FFF3CFC1E08C2FCF9146
:102FC00008950E94C51783E00E94AD17682F6860BE
:102FD00083E00C949C17CF9380E00E94AD17682F7C
:102FE0006F7780E00E949C17CFEF08C08FE99FE0C9
:102FF0000197F1F700C00000C15051F083E00E943A
:10300000AD17982F907285FDF1CF892FCF9108953C
:1030100091E0892FCF9108956F927F928F929F9226
:10302000AF92BF92CF92DF92EF92FF920F931F93D6
:10303000CF93DF934C015B016A01E9018EED0E94A1
:10304000A30E80E00E94F80E0E94F00E2FEF84E3A2
:103050009CE0215080409040E1F700C000008FEDDF
:103060000E94A30E0E940A0F982F282F22952770E6
:10307000822F880F880F820F880F9F70890FF401AD
:1030800080830E940A0F982F282F22952770822F65
:10309000880F880F820F880F9F70890FF50180833A
:1030A0000E940A0F982F282F22952370822F880FB5
:1030B000880F820F880F9F70890FF60180830E940E
:1030C0000A0F0E940A0F982F282F22952370822F13
:1030D000880F880F820F880F9F70890F88830E9446
:1030E0000A0F982F84FB222720F9822F880F880F40
:1030F000820F880F9F70890FF80180830E94140F40
:10310000982F282F22952F70822F880F880F820FDB
:10311000880F9F70890F90E08053984FF70191833B
:1031200080830E94F00EFFEF24E38CE0F1502040FA
:103130008040E1F700C00000DF91CF911F910F9117
:10314000FF90EF90DF90CF90BF90AF909F908F90C7
:103150007F906F900895CF92DF92EF92FF920F933E
:103160001F93CF93DF93C82ED62EF42E122F0E94DA
:10317000EB17CDECCC9E912D1124292F2695269569
:103180002695622F6295607F922F990F990F920F6B
:10319000990FC91A6C0D80E00E949C17DC9E812D4E
:1031A0001124982F969596959695692F6295607F34
:1031B000892F880F880F890F880FD81A6D0D81E02D
:1031C0000E949C17FC9E812D1124982F9695969510
:1031D0009695692F6295607F892F880F880F890FD8
:1031E000880FF81A6F0D82E00E949C171C9F812D9A
:1031F0001124982F969596959695692F6295607FE4
:10320000892F880F880F890F880F181B610F84E0A2
:103210000E949C170C9F812D1124982F96959695AE
:103220009695692F6295607F892F880F880F890F87
:10323000880F081B600F85E00E949C1780E38E0DAD
:103240008C9FC12D1124C695C695C6956C2F62958D
:10325000607F9C2F990F990FC90FCC0F8C1B680FA3
:1032600086E00E949C17DF91CF911F910F91FF90F4
:10327000EF90DF90CF900C94C51762E080E00E9441
:10328000691700C062E080E00C946C17CF93C82FE0
:103290008091AF02662309F444C081608093AF023D
:1032A0008091AF028D7F8093AF026091AF0280E08A
:1032B0000E94DB16811132C08091AF028F7780931C
:1032C000AF028091AF028F7B8093AF028091AF02FB
:1032D0008F7D8093AF028091AF028F7E8093AF028B
:1032E000C7FD7DC0C6FF05C08091AF02806480939A
:1032F000AF02C5FF05C08091AF0280628093AF022C
:10330000C4FF05C08091AF0280618093AF026091DD
:10331000AF0280E00E94DB16882339F080E0CF9175
:1033200008958E7F8093AF02BBCF0E943D1980919C
:10333000AF028F778093AF028091AF028F7B809333
:10334000AF028091AF028F7D8093AF028091AF0278
:103350008F7E8093AF02C3FF05C08091AF0280686B
:103360008093AF02C2FF05C08091AF02806480935A
:10337000AF02C1FF05C08091AF0280628093AF02AF
:10338000C0FF05C08091AF0280618093AF02609161
:10339000AF0280E00E94DB168111C0CF0E943D1970
:1033A0008091AF0280618093AF028091AF02806212
:1033B0008093AF028091AF0280648093AF028091CE
:1033C000AF0280688093AF026091AF0280E00E94FC
:1033D000DB16982F81E0992309F4A1CF9FCF80912C
:1033E000AF0280688093AF02C6FF83CF7DCFCF93BB
:1033F0008091AF028E7F8093AF028091AF02826096
:103400008093AF026091AF0280E00E94DB1662E021
:1034100080E00E94691700C064E080E00E94841789
:10342000C0E18111C0E065E080E00E948417811155
:1034300001C0C06266E080E00E948417811101C073
:10344000C06467E080E00E948417811101C0C068F9
:1034500062E080E00E946C1700C062E080E00E94A1
:10346000691700C064E080E00E948417811101C0E8
:10347000C16065E080E00E948417811101C0C260D4
:1034800066E080E00E948417811101C0C46067E09B
:1034900080E00E948417811101C0C86062E080E072
:1034A0000E946C178C2FCF9108950E94F71987FD09
:1034B000FCCF88E090E00197F1F70C94F719CF93D7
:1034C000C82F0E94551A60E08C2FCF910C9446199A
:1034D000CF93C82F0E94551A61E08C2FCF910C9486
:1034E0004619CF93C0E40E94551A60E08C2F0E94C9
:1034F00046190E94551A61E080E00E944619CF5F8C
:10350000C03889F7CF910895CF93C82F6623A1F0D3
:103510006130D1F0623041F00E94551A60E084EDD4
:103520008C0FCF910C9446190E94551A60E084E9E3
:103530008C0FCF910C9446190E94551A60E080E8D8
:103540008C0FCF910C9446190E94551A60E080ECC4
:103550008C0FCF910C9446190E94551A90E0089553
:103560000E94551A60E081E00C944619882351F0BE
:103570008091AF02877F8093AF026091AF0280E0BD
:103580000C94DB168091AF0288608093AF0260914B
:10359000AF0280E00C94DB160E94551A60E082E0D6
:1035A0000C944619CF93C82F0E94551ACA3029F09F
:1035B00061E08C2FCF910C944619C0EC843148F017
:1035C00090EC980FC4E9943120F08451C0E88C321B
:1035D00038F00E94551A60E08C2FCF910C94461958
:1035E000C4EDF7CF0F931F93CF93DF93C82F8B01B9
:1035F00081E0C83028F0DF91CF911F910F9108959D
:103600000E94551A88E08C0F60E0880F880F880FA1
:103610000E944619E801085F1F4F89910E94D21A43
:10362000C017D107D1F780E0DF91CF911F910F91A3
:103630000895CF93DF93EC0104C00E94D21A88232F
:1036400029F0888121968111F8CF81E0DF91CF9117
:103650000895CF93DF93EC0105C00E94D21A219602
:10366000882329F0FE0184918111F7CF81E0DF9159
:10367000CF9108951F93CF93DF93182F0E94AB161D
:103680001092AF026091AF0280E00E94DB1680E0F2
:103690009AEF0197F1F78091AF0280628093AF02B9
:1036A0008091AF0280618093AF026091AF0280E0B1
:1036B0000E94DB160E943D1980E09EE40197F1F71D
:1036C0000E943D19C0E0D1E0CE010197F1F70E94C0
:1036D0003D19CE010197F1F78091AF028F7E809363
:1036E000AF026091AF0280E00E94DB160E943D199C
:1036F0002197F1F70E94551A60E088E20E9446196E
:103700000E94551A60E088E00E9446190E94551AEE
:1037100060E081E00E9446190E94551A60E086E050
:103720000E9446190E94551A60E0812F0E94461996
:1037300081E0DF91CF911F9108950C94371F0C9475
:103740003D1F0E946D0D0E94B20DFFCF97FB072E0B
:1037500016F4009407D077FD09D00E94E51C07FC01
:1037600005D03EF4909581959F4F08957095619591
:103770007F4F0895A1E21A2EAA1BBB1BFD010DC0AD
:10378000AA1FBB1FEE1FFF1FA217B307E407F50711
:1037900020F0A21BB30BE40BF50B661F771F881FED
:1037A000991F1A9469F760957095809590959B0183
:1037B000AC01BD01CF010895A29FB001B39FC0012C
:1037C000A39F700D811D1124911DB29F700D811D4D
:1037D0001124911D08950E94DC1BA59F900DB49F9C
:1037E000900DA49F800D911D11240895689401C02F
:1037F000E894F92FF12B12F00C942A1CA0E0B0E011
:10380000E4E0FCE10C949C1C092E059422F40E9437
:10381000861C112392F4F0E80F26FFEFE094F09459
:1038200000951095B094C094D094A194BF0ACF0A8B
:10383000DF0AEF0AFF0A0F0B1F0B0E94351C07FC63
:103840000E94861CCDB7DEB7ECE00C94B81C6894DF
:1038500001C0E8948F929F92CF93DF930E94351C12
:10386000DF91CF919F908F90089588249924F4013F
:10387000E401B0E49F93AA279A158B049C04ED05FC
:10388000FE05CF05D007A10798F4AD2FDC2FCF2F71
:10389000FE2FE92D982C892E982F872F762F652FB4
:1038A000542F432F322F2227B85031F7BF9127C012
:1038B0001B2EBF91BB27220F331F441F551F661FAE
:1038C000771F881F991F881C991CEE1FFF1FCC1F94
:1038D000DD1FAA1FBB1F8A149B04EC05FD05CE0546
:1038E000DF05A007B10748F08A189B08EC09FD091D
:1038F000CE09DF09A00BB10B21601A94E1F62EF47A
:103900009401AF01BE01CD01000C08956095709542
:103910008095909530954095509521953F4F4F4F0C
:103920005F4F6F4F7F4F8F4F9F4F08952F923F9262
:103930004F925F926F927F928F929F92AF92BF92BF
:10394000CF92DF92EF92FF920F931F93CF93DF936B
:10395000CDB7DEB7CA1BDB0B0FB6F894DEBF0FBEC8
:10396000CDBF09942A88398848885F846E847D8415
:103970008C849B84AA84B984C884DF80EE80FD8017
:103980000C811B81AA81B981CE0FD11D0FB6F8948D
:10399000DEBF0FBECDBFED0108950024A7FD00944A
:1039A0002A0F301D401D501D601D701D801D901D73
:1039B00008950024A7FD00942A17300540055005FE
:1039C00060057005800590050895AA1BBB1B51E199
:1039D00007C0AA1FBB1FA617B70710F0A61BB70B7F
:1039E000881F991F5A95A9F780959095BC01CD0124
:1039F00008955058BB27AA270E94111D0C94841EBD
:103A00000E94761E38F00E947D1E20F039F49F3F00
:103A100019F426F40C94731E0EF4E095E7FB0C9455
:103A20006D1EE92F0E94951E58F3BA17620773079F
:103A30008407950720F079F4A6F50C94B71E0EF4D0
:103A4000E0950B2EBA2FA02D0B01B90190010C01AE
:103A5000CA01A0011124FF27591B99F0593F50F4C6
:103A6000503E68F11A16F040A22F232F342F44271E
:103A7000585FF3CF469537952795A795F040539516
:103A8000C9F77EF41F16BA0B620B730B840BBAF0E6
:103A90009150A1F0FF0FBB1F661F771F881FC2F751
:103AA0000EC0BA0F621F731F841F48F48795779565
:103AB0006795B795F7959E3F08F0B0CF9395880F1F
:103AC00008F09927EE0F9795879508950E94491E53
:103AD00008F481E008950E947F1D0C94841E0E94CA
:103AE0007D1E58F00E94761E40F029F45F3F29F0B9
:103AF0000C946D1E51110C94B81E0C94731E0E94F0
:103B0000951E68F39923B1F3552391F3951B550B3B
:103B1000BB27AA2762177307840738F09F5F5F4FA0
:103B2000220F331F441FAA1FA9F335D00E2E3AF0DF
:103B3000E0E832D091505040E695001CCAF72BD0F7
:103B4000FE2F29D0660F771F881FBB1F2617370748
:103B50004807AB07B0E809F0BB0B802DBF01FF277A
:103B600093585F4F3AF09E3F510578F00C946D1ECC
:103B70000C94B81E5F3FE4F3983ED4F38695779596
:103B80006795B795F7959F5FC9F7880F911D969533
:103B9000879597F90895E1E0660F771F881FBB1F8F
:103BA000621773078407BA0720F0621B730B840B3C
:103BB000BA0BEE1F88F7E09508950E949D1E88F0CD
:103BC0009F5798F0B92F9927B751B0F0E1F0660FE1
:103BD000771F881F991F1AF0BA95C9F714C0B13022
:103BE00091F00E94B71EB1E008950C94B71E672FA4
:103BF000782F8827B85F39F0B93FCCF38695779551
:103C00006795B395D9F73EF4909580957095619539
:103C10007F4F8F4F9F4F0895E89409C097FB3EF464
:103C200090958095709561957F4F8F4F9F4F992309
:103C3000A9F0F92F96E9BB279395F6958795779587
:103C40006795B795F111F8CFFAF4BB0F11F460FF47
:103C50001BC06F5F7F4F8F4F9F4F16C0882311F09F
:103C600096E911C0772321F09EE8872F762F05C0B3
:103C7000662371F096E8862F70E060E02AF09A954E
:103C8000660F771F881FDAF7880F9695879597F943
:103C90000895990F0008550FAA0BE0E8FEEF1616DD
:103CA0001706E807F907C0F012161306E407F50730
:103CB00098F0621B730B840B950B39F40A2661F0A4
:103CC000232B242B252B21F408950A2609F4A14047
:103CD000A6958FEF811D811D089597F99F6780E854
:103CE00070E060E008959FEF80EC089500240A944E
:103CF0001616170618060906089500240A941216C7
:103D00001306140605060895092E0394000C11F4F9
:103D1000882352F0BB0F40F4BF2B11F460FF04C0A6
:103D20006F5F7F4F8F4F9F4F089557FD9058440FFF
:103D3000551F59F05F3F71F04795880F97FB991F0A
:103D400061F09F3F79F087950895121613061406C7
:103D5000551FF2CF4695F1DF08C016161706180654
:103D6000991FF1CF86957105610508940895E8942F
:103D7000BB2766277727CB0197F908950E94491E34
:103D800008F48FEF08950E94D61E0C94841E0E94A2
:103D9000761E38F00E947D1E20F0952311F00C94C1
:103DA0006D1E0C94731E11240C94B81E0E94951E57
:103DB00070F3959FC1F3950F50E0551F629FF0017E
:103DC000729FBB27F00DB11D639FAA27F00DB11D97
:103DD000AA1F649F6627B00DA11D661F829F222720
:103DE000B00DA11D621F739FB00DA11D621F839FA7
:103DF000A00D611D221F749F3327A00D611D231F7D
:103E0000849F600D211D822F762F6A2F11249F57CA
:103E100050409AF0F1F088234AF0EE0FFF1FBB1FCD
:103E2000661F771F881F91505040A9F79E3F51058C
:103E300080F00C946D1E0C94B81E5F3FE4F3983E26
:103E4000D4F3869577956795B795F795E7959F5F36
:103E5000C1F7FE2B880F911D9695879597F90895C8
:103E6000FB01DC0101900D920020E1F70895A8E12B
:103E7000B0E042E050E00C94441F0E94521F272FF4
:103E80000C94531FDC01CB01FC01F999FECF06C055
:103E9000F2BDE1BDF89A319600B40D924150504008
:103EA000B8F70895262FF999FECF1FBA92BD81BDAC
:103EB00020BD0FB6F894FA9AF99A0FBE01960895AC
:043EC000F894FFCFA4
:103EC400414243444546FF000080BF1B0273730018
:103ED40000000000001B031B0273740000000000BC
:103EE40000001B031B026565001B03000500060799
:103EF40078060102010407220B0203020407FB09EE
:103F04000304030407C9070405040007D2060501D6
:103F1400050007190606000600070006070007004B
:103F2400079B051B0270701B03004144433A202584
:103F3400640A00446973636F6E6E65637465640A32
:023F440000007B
:00000001FF
