:100000000C9456000C9468000C9468000C946800E2
:100010000C9468000C9468000C9468000C946800C0
:100020000C9468000C9468000C9468000C946800B0
:100030000C9468000C9468000C9468000C946800A0
:100040000C9468000C9426060C9468000C946800CC
:100050000C9468000C9468000C9468000C94680080
:100060000C9468000C9468000C9468000C94680070
:100070000C9468000C9468000C9468000C94680060
:100080000C9468000C9468000C9468000C94680050
:100090000C9468000C9468000C9468000C94680040
:1000A0000C9468000C9468000C94680011241FBE26
:1000B000CFEFDAE0DEBFCDBF21E0A0E0B1E001C0CC
:1000C0001D92A031B207E1F70E948D030C94F10B51
:1000D0000C940000CF93DF93CDB7DEB780E390E0C0
:1000E000FC01208180E390E02C78FC0120838AE2EF
:1000F00090E0FC0120818AE290E02061FC012083F5
:100100008BE290E0FC0120818BE290E02F7EFC01ED
:1001100020830000DF91CF910895CF93DF93CDB777
:10012000DEB78BE290E0FC0120818BE290E0206161
:10013000FC0120830000DF91CF910895CF93DF93DE
:10014000CDB7DEB78BE290E0FC0120818BE290E03E
:100150002F7EFC0120830000DF91CF910895CF9383
:10016000DF930F92CDB7DEB7898381E390E0FC0186
:100170008081482F8981282F30E081E090E002C003
:10018000880F991F2A95E2F784230F90DF91CF9172
:100190000895CF93DF930F92CDB7DEB7898341E007
:1001A000698184E00E94F70800000F90DF91CF91F1
:1001B0000895CF93DF930F92CDB7DEB7898340E0E8
:1001C000698184E00E94F70800000F90DF91CF91D1
:1001D0000895CF93DF93CDB7DEB70000DF91CF91C5
:1001E0000895CF93DF9300D000D0CDB7DEB780E085
:1001F00090E0DC0189839A83AB83BC8369817A8137
:100200008B819C810F900F900F900F90DF91CF9179
:100210000895CF93DF9300D000D0CDB7DEB780E054
:1002200090E0DC0189839A83AB83BC8369817A8106
:100230008B819C810F900F900F900F90DF91CF9149
:100240000895CF93DF93CDB7DEB7A5970FB6F89497
:10025000DEBF0FBECDBF1B8287E090E09A8389830B
:10026000B7C088E290E0DC012C9188E290E02F7723
:10027000FC01208380E090E0A0E8BFE38C839D83B5
:10028000AE83BF8320E030E04AE755E46C817D8196
:100290008E819F810E94840B6E8B7F8B888F998FBC
:1002A0008E899F89A88DB98D88879987AA87BB87F2
:1002B00020E030E040E85FE3688579858A859B85AA
:1002C0000E94270A88232CF481E090E09D878C8788
:1002D00054C020E03FEF4FE757E4688579858A8571
:1002E0009B850E947F0B1816D4F520E030E040E299
:1002F00051E46C817D818E819F810E94840B6A8F85
:100300007B8F8C8F9D8F8A8D9B8DAC8DBD8D8A8BC5
:100310009B8BAC8BBD8B6A897B898C899D890E9464
:100320009E0A6E8F7F8F88A399A3AE8DBF8DBD87E8
:10033000AC8710C080E991E09F878E878E859F856E
:100340000197F1F79F878E8700008C859D85019727
:100350009D878C878C859D85892B61F719C0688561
:1003600079858A859B850E949E0A6AA37BA38CA3BC
:100370009DA3EAA1FBA1FD87EC878C859D85998BC8
:10038000888B888999890197F1F7998B888B000070
:100390008BE290E0DC018C91882364F481E090E0B2
:1003A000098002C0880F991F0A94E2F7982F8B8169
:1003B000892B8B8388E290E0FC01208188E290E029
:1003C0002068DC012C9389819A8101979A83898323
:1003D00089819A8199230CF044CF8B81A5960FB621
:1003E000F894DEBF0FBECDBFDF91CF910895CF93BC
:1003F000DF93CDB7DEB7E4970FB6F894DEBF0FBE3C
:10040000CDBF8EE290E0DC012C918EE290E02B7F5C
:10041000FC01208380E090E0A0E8BFE38B839C8315
:10042000AD83BE8320E030E04AE755E46B817C81F8
:100430008D819E810E94840B6D8F7E8F8F8F98A3FC
:100440002D8D3E8D4F8D58A12F83388749875A8730
:1004500020E030E040E85FE36F81788589859A8508
:100460000E94270A88232CF481E090E09C878B87E8
:1004700054C020E03FEF4FE757E46F8178858985CE
:100480009A850E947F0B1816D4F520E030E040E2F8
:1004900051E46B817C818D819E810E94840B69A3D4
:1004A0007AA38BA39CA389A19AA1ABA1BCA18D8B9C
:1004B0009E8BAF8BB88F6D897E898F89988D0E94B6
:1004C0009E0A6DA37EA38FA398A7ADA1BEA1BC87F2
:1004D000AB8710C080E991E09E878D878D859E85D2
:1004E0000197F1F79E878D8700008B859C8501978A
:1004F0009C878B878B859C85892B61F719C06F81C1
:10050000788589859A850E949E0A69A77AA78BA714
:100510009CA7E9A5FAA5FC87EB878B859C85988B22
:100520008F878F8598890197F1F7988B8F870000C7
:100530000E942101882F90E09A83898389819A8182
:10054000982F88279A8389830E942101882F90E021
:1005500029813A81822B932B9A8389838EE290E0C2
:10056000DC012C918EE290E02460FC0120838981E3
:100570009A8184709927892B29F080E090E0A8EC7B
:10058000B2EC2FC089819A8196958795969587952B
:10059000969587959A83898389819A819C0140E009
:1005A00050E02DA73EA74FA758AB6DA57EA58FA500
:1005B00098A90E94CD0A698B7A8B8B8B9C8B20E04B
:1005C00030E040E85EE369897A898B899C890E94E2
:1005D000840B69AB7AAB8BAB9CAB89A99AA9ABA90D
:1005E000BCA9898F9A8FAB8FBC8F698D7A8D8B8DCB
:1005F0009C8DE4960FB6F894DEBF0FBECDBFDF91A1
:10060000CF910895CF93DF93CDB7DEB787E290E027
:10061000FC01208187E290E02068FC0120838DE2CC
:1006200090E0FC0120818DE290E02460FC012083B9
:100630008AE290E0FC0120818AE290E02F77FC01C1
:1006400020838EE290E0FC0120818EE290E0246025
:10065000FC0120830000DF91CF910895CF93DF93B9
:10066000CDB7DEB76C970FB6F894DEBF0FBECDBF27
:100670000E94F70169837A838B839C8320E030E0BA
:1006800040E151E469817A818B819C810E94840BD5
:10069000698B7A8B8B8B9C8B89899A89AB89BC8976
:1006A0008D839E83AF83B88720E030E040EA50E43A
:1006B0006D817E818F8198850E942C0A6D8B7E8B47
:1006C0008F8B988F8D899E89AF89B88D89879A87FE
:1006D000AB87BC8720E030E040E052E469857A8552
:1006E0008B859C850E94BB09698F7A8F8B8F9C8F2D
:1006F000898D9A8DAB8DBC8D8D879E87AF87B88B8A
:100700006D857E858F8598896C960FB6F894DEBFCF
:100710000FBECDBFDF91CF910895CF93DF93CDB7BB
:10072000DEB70E94BB04FFCFCF93DF93CDB7DEB718
:1007300089EB90E0FC01108288EB90E028E8FC0156
:1007400020830000DF91CF910895CF93DF9300D0F5
:10075000CDB7DEB78A838CEB90E024EAFC012083DE
:1007600000008CEB90E0FC0180818823D4F789EBBA
:1007700090E0FC018081887F89838981883029F01D
:100780008981803111F081E020C08BEB90E02A81DB
:10079000FC0120838CEB90E024E8FC012083000026
:1007A0008CEB90E0FC0180818823D4F789EB90E00A
:1007B000FC018081887F89838981883129F0898142
:1007C000803411F081E001C080E00F900F90DF9144
:1007D000CF910895CF93DF9300D0CDB7DEB78A8352
:1007E0008CEB90E024EAFC01208300008CEB90E08D
:1007F000FC0180818823D4F789EB90E0FC018081A3
:10080000887F89838981883019F08981803171F5E9
:100810008BEB90E02A81FC0120838CEB90E024E8B4
:10082000FC01208300008CEB90E0FC018081882398
:10083000D4F789EB90E0FC018081887F89838981EE
:10084000803219F08981883599F48CEB90E024E9A5
:10085000FC01208300008CEB90E0FC018081882F5C
:1008600090E080719927892BB1F701C00000B8CFC3
:10087000000000000F900F90DF91CF910895CF936B
:10088000DF930F92CDB7DEB7898389810E94A503DC
:100890000F90DF91CF910895CF93DF93CDB7DEB75F
:1008A0008CEB90E024E9FC01208300008CEB90E0CD
:1008B000FC018081882F90E080719927892BB1F706
:1008C00000000000DF91CF910895CF93DF9300D017
:1008D000CDB7DEB78A838BEB90E02A81FC012083C1
:1008E0008CEB90E024E8FC01208300008CEB90E08E
:1008F000FC0180818823D4F789EB90E0FC018081A2
:10090000887F89838981883211F081E001C080E08D
:100910000F900F90DF91CF910895CF93DF93CDB7D4
:10092000DEB78CEB90E024ECFC01208300008CEB24
:1009300090E0FC0180818823D4F78BEB90E0FC01F0
:100940008081DF91CF910895CF93DF93CDB7DEB74C
:100950008CEB90E024E8FC01208300008CEB90E01D
:10096000FC0180818823D4F78BEB90E0FC0180812F
:10097000DF91CF910895CF93DF9300D0CDB7DEB74D
:1009800087E690E09A83898389819A81292F33278A
:100990008DEC90E0FC0120838CEC90E02981FC013F
:1009A000208389EC90E028E1FC0120838AEC90E030
:1009B00026E0FC01208300000F900F90DF91CF9183
:1009C0000895CF93DF93CDB7DEB7000088EC90E0B9
:1009D000FC0180818823D4F78EEC90E0FC018081BB
:1009E000DF91CF910895CF93DF930F92CDB7DEB70C
:1009F0008983000088EC90E0FC018081882F90E0E2
:100A000080729927892BB1F38EEC90E02981FC014B
:100A1000208300000F90DF91CF910895CF93DF9353
:100A200000D0CDB7DEB79A8389830BC089819A81C4
:100A3000FC0180810E94F30489819A8101969A8346
:100A4000898389819A81FC018081882379F700005C
:100A500000000F900F90DF91CF910895CF93DF9317
:100A600000D000D000D0CDB7DEB79C838B837E83CF
:100A70006D831A8219820FC02B813C8189819A81F2
:100A8000820F931FFC0180810E94F30489819A8167
:100A900001969A83898329813A818D819E812817C5
:100AA000390750F30000000026960FB6F894DEBF19
:100AB0000FBECDBFDF91CF910895CF93DF93CDB718
:100AC000DEB7F89487E290E0FC01208187E290E0B5
:100AD0002064FC01208384E990E0FC0111821082F3
:100AE00088E990E0FC01118210828AE990E0FC0123
:100AF000118210828CE990E0FC011182108280E961
:100B000090E021E8FC01208381E990E029E0FC01EC
:100B1000208384E990E0FC01118210827894000027
:100B2000DF91CF910895CF93DF930F92CDB7DEB7CA
:100B3000898388E990E02981FC01208300000F90DF
:100B4000DF91CF910895CF93DF93CDB7DEB7F894BF
:100B500084E290E0FC01208184E290E02068FC01C6
:100B6000208384E890E0FC011182108288E890E004
:100B7000FC01118210828AE890E0FC01118210824F
:100B80008CE890E0FC011182108281E890E029E07D
:100B9000FC0120838FE690E022E0FC01208384E8C2
:100BA00090E0FC011182108288E890E020E83EE3AA
:100BB000FC013183208310920001109201011092F8
:100BC000020110920301109204011092050110928B
:100BD00006011092070178940000DF91CF910895EB
:100BE000CF93DF9300D000D0CDB7DEB769837A838F
:100BF0008B839C83F89489819A81AB81BC8180939B
:100C0000000190930101A0930201B093030110929F
:100C1000040110920501109206011092070184E868
:100C200090E0FC011182108285E290E0FC012081BD
:100C300085E290E02F77FC012083789400000F90EC
:100C40000F900F900F90DF91CF9108951F920F9208
:100C50000FB60F9211242F933F934F935F936F938F
:100C60007F938F939F93AF93BF93EF93FF93CF9314
:100C7000DF93CDB7DEB78091000190910101A09183
:100C80000201B0910301892B8A2B8B2BD9F1809122
:100C9000040190910501A0910601B0910701019610
:100CA000A11DB11D8093040190930501A09306013D
:100CB000B093070140910401509105016091060134
:100CC000709107018091000190910101A0910201B2
:100CD000B091030184179507A607B707A0F485E232
:100CE00090E0FC01308185E290E020E82327FC01C0
:100CF00020831092040110920501109206011092B7
:100D0000070101C00000DF91CF91FF91EF91BF91EA
:100D1000AF919F918F917F916F915F914F913F9193
:100D20002F910F900FBE0F901F901895CF93DF93C8
:100D3000CDB7DEB7C954D1090FB6F894DEBF0FBEE8
:100D4000CDBF0E94940380E090E0A0E2B1E48A83EA
:100D50009B83AC83BD832BEA3AEA4AEA5EE36A816D
:100D60007B818C819D810E94840B6EA37FA388A7C9
:100D700099A78EA19FA1A8A5B9A58E839F83A887B7
:100D8000B98720E030E040E85EE36A817B818C81B6
:100D90009D810E94840B6AA77BA78CA79DA78AA52B
:100DA0009BA5ACA5BDA58A879B87AC87BD8720E0A6
:100DB00030E040E85FE36E817F81888599850E94FD
:100DC000270A88231CF481E08E87E5C020E03FEFEE
:100DD0004FE757E46A857B858C859D850E947F0B54
:100DE00018160CF09EC020E030E04AE754E46A8117
:100DF0007B818C819D810E942C0A6EA77FA788AB86
:100E000099AB8EA59FA5A8A9B9A98F87988BA98B07
:100E1000BA8B20E030E04AE753E46F85788989890E
:100E20009A890E94840B6AAB7BAB8CAB9DAB8AA981
:100E30009BA9ACA9BDA98B8B9C8BAD8BBE8B20E0F5
:100E400030E040E85FE36B897C898D899E890E9450
:100E5000270A88232CF481E090E0988F8F8B56C06E
:100E600020E03FEF4FE757E46B897C898D899E89AD
:100E70000E947F0B1816D4F520E030E040E251E4E8
:100E80006F85788989899A890E94840B6EAB7FABC4
:100E900088AF99AF8EA99FA9A8ADB9AD8AA39BA32E
:100EA000ACA3BDA36AA17BA18CA19DA10E949E0AB7
:100EB0006AAF7BAF8CAF9DAFAAADBBADB88FAF8B28
:100EC00010C089E190E09A8F898F898D9A8D019762
:100ED000F1F79A8F898F00008F89988D0197988FED
:100EE0008F8B8F89988D892B61F755C06B897C8991
:100EF0008D899E890E949E0A22966CAF7DAF8EAF2F
:100F00009FAF2297EEADFFADF88FEF8B8F89988D55
:100F10009C8F8B8F8B8D9C8D0197F1F79C8F8B8F86
:100F20003AC020E030E04FE753E46E817F8188854E
:100F300099850E947F0B1816F4F46A857B858C8551
:100F40009D850E949E0A26966CAF7DAF8EAF9FAFA7
:100F5000269724968EAD9FAD24979E8F8D8F8D8D75
:100F60009E8D98A38F8F8F8D98A10197F1F798A3ED
:100F70008F8F000017C06E817F81888599850E94C0
:100F80009E0A2A966CAF7DAF8EAF9FAF2A972796A9
:100F90009FAD27979E878E8589A389A18A95F1F7B2
:100FA00089A30000198219820AC08981882F90E0E4
:100FB000885F9E4FDC011C9289818F5F89838981C4
:100FC000883098F300000000C75BDF4F0FB6F8943D
:100FD000DEBF0FBECDBFDF91CF910895CF93DF93DA
:100FE00000D0CDB7DEB78A838FEF89838A818830BE
:100FF00040F48A81882F90E0885F9E4FFC018081B9
:10100000898389810F900F90DF91CF910895CF93BD
:10101000DF9300D00F92CDB7DEB78A836B838FEF5B
:1010200089838A818830C8F48B818830B0F48A81C2
:10103000882F90E0885F9E4FFC01808189838981A1
:10104000082E000C990B2B81222F30E002C09595C1
:1010500087952A95E2F78170898389810F900F9097
:101060000F90DF91CF910895CF93DF9300D0CDB74C
:10107000DEB789836A8389818830A0F48981882FCB
:1010800090E0885F9E4F2A81FC0120838981805EE9
:10109000880F0E94A5038A810E9465040E944C0467
:1010A00080E001C08FEF0F900F90DF91CF910895F6
:1010B000CF93DF9300D000D000D0CDB7DEB78B83C5
:1010C0006C834D832E838B81883008F086C08C81A1
:1010D000282F30E08D81882F90E0A901481B590B03
:1010E000CA018F3F9F4F0CF478C08C81282F30E0CD
:1010F0008D81882F90E0B901681B790BCB018F3F60
:101100009F4F0CF46AC08C81883008F066C08C81D7
:10111000882309F462C08D81882309F45EC0198296
:101120008B81882F90E0885F9E4FFC0180818983AE
:101130008D81282F30E081E090E002C0880F991F58
:101140002A95E2F701972C81422F50E02D81222F22
:1011500030E0BA01621B730B9B012F5F3F4F02C04F
:10116000880F991F2A95E2F78A838E81082E000C3A
:10117000990B2C81422F50E02D81222F30E0FA0173
:10118000E21BF30B9F012F5F3F4F02C0880F991F97
:101190002A95E2F78E838A819E8189238E838A81B4
:1011A000982F909589818923898399818E81892BB4
:1011B00089838B81882F90E0885F9E4F2981FC0175
:1011C00020838B81805E880F0E94A50389810E9405
:1011D00065040E944C0480E001C08FEF26960FB694
:1011E000F894DEBF0FBECDBFDF91CF910895CF93AE
:1011F000DF9300D000D0CDB7DEB78A836B834C83FA
:101200008A81883008F040C08B818830E8F51982E7
:101210008A81882F90E0885F9E4FFC0180818983BE
:101220008C81882371F08B81282F30E081E090E061
:1012300002C0880F991F2A95E2F7982F8981892B80
:101240000EC08B81282F30E081E090E002C0880F33
:10125000991F2A95E2F7982F909589818923898390
:101260008A81882F90E0885F9E4F2981FC0120832E
:101270008A81805E880F0E94A50389810E9465048F
:101280000E944C0480E001C08FEF0F900F900F90F0
:101290000F90DF91CF910895CF93DF9300D0CDB71A
:1012A000DEB789836A8341E06A8189810E94F708F9
:1012B0000F900F90DF91CF910895CF93DF9300D0DF
:1012C000CDB7DEB789836A8340E06A8189810E9455
:1012D000F7080F900F90DF91CF910895CF93DF9390
:1012E00000D0CDB7DEB78A838FEF89838A818830BB
:1012F00078F48A81882F90E08096880F991F81600A
:101300000E94A5030E94A404809589830E944C0436
:1013100089810F900F90DF91CF910895CF93DF9344
:1013200000D00F92CDB7DEB78A836B838FEF8983AE
:101330008A818830C0F48B818830A8F48A810E9429
:101340006E09898389818F3F71F08981082E000C95
:10135000990B2B81222F30E002C0959587952A9515
:10136000E2F78170898389810F900F900F90DF9150
:10137000CF9108955058BB27AA270E94D2090C94F8
:10138000450B0E94370B38F00E943E0B20F039F4D9
:101390009F3F19F426F40C94340B0EF4E095E7FB10
:1013A0000C942E0BE92F0E94560B58F3BA176207C4
:1013B00073078407950720F079F4A6F50C94780B51
:1013C0000EF4E0950B2EBA2FA02D0B01B901900160
:1013D0000C01CA01A0011124FF27591B99F0593FA4
:1013E00050F4503E68F11A16F040A22F232F342FEC
:1013F0004427585FF3CF469537952795A795F0403A
:101400005395C9F77EF41F16BA0B620B730B840B4E
:10141000BAF09150A1F0FF0FBB1F661F771F881F06
:10142000C2F70EC0BA0F621F731F841F48F487955E
:1014300077956795B795F7959E3F08F0B0CF939550
:10144000880F08F09927EE0F9795879508950E94C9
:101450000A0B08F481E008950E94400A0C94450BA1
:101460000E943E0B58F00E94370B40F029F45F3F7A
:1014700029F00C942E0B51110C94790B0C94340B15
:101480000E94560B68F39923B1F3552391F3951BF2
:10149000550BBB27AA2762177307840738F09F5F95
:1014A0005F4F220F331F441FAA1FA9F335D00E2E02
:1014B0003AF0E0E832D091505040E695001CCAF76F
:1014C0002BD0FE2F29D0660F771F881FBB1F261732
:1014D00037074807AB07B0E809F0BB0B802DBF0109
:1014E000FF2793585F4F3AF09E3F510578F00C94D8
:1014F0002E0B0C94790B5F3FE4F3983ED4F3869562
:1015000077956795B795F7959F5FC9F7880F911DF8
:101510009695879597F90895E1E0660F771F881FE4
:10152000BB1F621773078407BA0720F0621B730B97
:10153000840BBA0BEE1F88F7E09508950E945E0BAE
:1015400088F09F5798F0B92F9927B751B0F0E1F084
:10155000660F771F881F991F1AF0BA95C9F714C034
:10156000B13091F00E94780BB1E008950C94780BA3
:10157000672F782F8827B85F39F0B93FCCF386956D
:1015800077956795B395D9F73EF4909580957095CA
:1015900061957F4F8F4F9F4F0895E89409C097FB47
:1015A0003EF490958095709561957F4F8F4F9F4F3A
:1015B0009923A9F0F92F96E9BB279395F69587957E
:1015C00077956795B795F111F8CFFAF4BB0F11F441
:1015D00060FF1BC06F5F7F4F8F4F9F4F16C08823E8
:1015E00011F096E911C0772321F09EE8872F762F1E
:1015F00005C0662371F096E8862F70E060E02AF05F
:101600009A95660F771F881FDAF7880F969587954A
:1016100097F90895990F0008550FAA0BE0E8FEEF1F
:1016200016161706E807F907C0F012161306E407A6
:10163000F50798F0621B730B840B950B39F40A269F
:1016400061F0232B242B252B21F408950A2609F47D
:10165000A140A6958FEF811D811D089597F99F6781
:1016600080E870E060E008959FEF80EC089500242A
:101670000A941616170618060906089500240A94F7
:1016800012161306140605060895092E0394000C7D
:1016900011F4882352F0BB0F40F4BF2B11F460FF0C
:1016A00004C06F5F7F4F8F4F9F4F089557FD905835
:1016B000440F551F59F05F3F71F04795880F97FB16
:1016C000991F61F09F3F79F08795089512161306D0
:1016D0001406551FF2CF4695F1DF08C016161706FF
:1016E0001806991FF1CF8695710561050894089534
:1016F000E894BB2766277727CB0197F908950E94C6
:101700000A0B08F48FEF08950E94970B0C94450B79
:101710000E94370B38F00E943E0B20F0952311F009
:101720000C942E0B0C94340B11240C94790B0E9406
:10173000560B70F3959FC1F3950F50E0551F629FB4
:10174000F001729FBB27F00DB11D639FAA27F00D1A
:10175000B11DAA1F649F6627B00DA11D661F829F41
:101760002227B00DA11D621F739FB00DA11D621F26
:10177000839FA00D611D221F749F3327A00D611D43
:10178000231F849F600D211D822F762F6A2F112425
:101790009F5750409AF0F1F088234AF0EE0FFF1F58
:1017A000BB1F661F771F881F91505040A9F79E3FAF
:1017B000510580F00C942E0B0C94790B5F3FE4F3F1
:1017C000983ED4F3869577956795B795F795E79505
:1017D0009F5FC1F7FE2B880F911D9695879597F90E
:0617E0000895F894FFCF0C
:00000001FF
