:100000000C9456000C9473000C9473000C947300C1
:100010000C9473000C9473000C9473000C94730094
:100020000C9473000C9473000C9473000C94730084
:100030000C9473000C9473000C9473000C94730074
:100040000C9473000C9473000C9473000C94730064
:100050000C9473000C9473000C9473000C94730054
:100060000C9473000C9473000C9473000C94730044
:100070000C9473000C9473000C9473000C94730034
:100080000C9473000C9473000C9473000C94730024
:100090000C9473000C9473000C9473000C94730014
:1000A0000C9473000C9473000C94730011241FBE05
:1000B000CFEFDAE0DEBFCDBF11E0A0E0B1E0EEEBC4
:1000C000F2E102C005900D92A630B107D9F721E008
:1000D000A6E0B1E001C01D92A930B207E1F70E948D
:1000E0008A070C945D090C940000CF93DF93CDB781
:1000F000DEB78CE00E9498050E94E0040E940A0589
:1001000080E00E94EB040000DF91CF910895CF932F
:10011000DF93CDB7DEB70E94E0040000DF91CF91FE
:100120000895CF93DF93CDB7DEB70E940A05000094
:10013000DF91CF910895CF93DF9300D0CDB7DEB795
:1001400089836A836A8189810E94AC0400000F90D0
:100150000F90DF91CF910895CF93DF9300D0CDB76B
:10016000DEB79A83898389819A810E9450050000B5
:100170000F900F90DF91CF910895CF93DF93CDB77C
:10018000DEB72C970FB6F894DEBF0FBECDBF9C87AD
:100190008B878B859C859E012F5F3F4FB9010E9405
:1001A000DF00CE0101960E94AC0000002C960FB635
:1001B000F894DEBF0FBECDBFDF91CF910895CF93EE
:1001C000DF9300D000D000D00F92CDB7DEB79D8373
:1001D0008C837F836E8319828C819D81892B59F456
:1001E0008E819F8120E3FC0120838E819F81019677
:1001F000FC01108284C08C819D81992394F58E81AD
:100200009F812DE2FC0120838E819F8101969F8337
:100210008E838C819D819195819591099D838C839D
:1002200020C08C819D812AE030E0B9010E941A082B
:1002300040E3480F8981882F90E02E813F81820F13
:10024000931F242FFC0120838C819D812AE030E0C4
:10025000B9010E941A08CB019D838C8389818F5F2D
:1002600089838C819D8118161906DCF28981882F7B
:1002700090E02E813F81820F931FFC0110821A8231
:1002800039C08A81882F90E02E813F81820F931F91
:10029000FC0180818B838981282F30E08A81882F1F
:1002A00090E0A901481B590BCA0101972E813F819B
:1002B000280F391F8A81882F90E04E815F81840F3B
:1002C000951FF9012081FC0120838981282F30E0CE
:1002D0008A81882F90E0A901481B590BCA01019718
:1002E0002E813F81820F931F2B81FC0120838A8105
:1002F0008F5F8A83898186959A81981710F2279655
:100300000FB6F894DEBF0FBECDBFDF91CF91089539
:10031000CF93DF93CDB7DEB70000DF91CF91089583
:10032000CF93DF930F92CDB7DEB7898341E0698128
:1003300081E00E94300600000F90DF91CF91089578
:10034000CF93DF930F92CDB7DEB7898340E0698109
:1003500081E00E94300600000F90DF91CF91089558
:10036000CF93DF93CDB7DEB788EB90E028E1FC01B7
:10037000208389EB90E0FC0110828CEB90E024E07C
:10038000FC0120830000DF91CF910895CF93DF938C
:1003900000D0CDB7DEB78A8360E08A810E9439023F
:1003A0008CEB90E024E8FC01208300008CEB90E0D3
:1003B000FC0180818823D4F78BEB90E0FC018081E5
:1003C00089830E94210289810F900F90DF91CF9144
:1003D0000895CF93DF9300D0CDB7DEB789836A83CA
:1003E00061E089810E9439028BEB90E02A81FC0157
:1003F00020838CEB90E024E8FC01208300008CEB50
:1004000090E0FC0180818823D4F70E942102000043
:100410000F900F90DF91CF910895CF93DF93CDB7D9
:10042000DEB78CEB90E024EAFC01208300008CEB2B
:1004300090E0FC0180818823D4F70000DF91CF9108
:100440000895CF93DF93CDB7DEB78CEB90E024E92E
:10045000FC01208300008CEB90E0FC018081882F60
:1004600090E080719927892BB1F70000DF91CF913F
:100470000895CF93DF9300D0CDB7DEB789836A8329
:100480000E940D026A8189810E944C0200000F9037
:100490000F90DF91CF910895CF93DF9300D0CDB728
:1004A000DEB789836A838981882F90E09C01220FBF
:1004B000331F8A81882F90E0822B932B21E0892B98
:1004C00009F420E08BEB90E0FC0120838CEB90E0C2
:1004D00024E8FC01208300008CEB90E0FC0180818B
:1004E0008823D4F700000F900F90DF91CF910895EB
:1004F000CF93DF9300D0CDB7DEB79A83898389810C
:100500009A81892B11F400C006C089819A810197D4
:10051000F1F79A83898300000F900F90DF91CF91BC
:100520000895CF93DF93CDB7DEB741E062E080E07E
:100530000E94300600C040E062E080E00E94300689
:100540000000DF91CF910895CF93DF9300D0CDB716
:10055000DEB789836A838A81882331F0809106011E
:1005600081608093060105C0809106018E7F809393
:100570000601809106018D7F80930601809106011E
:10058000682F80E00E940B06809106018F77809390
:100590000601809106018F7B809306018091060100
:1005A0008F7D80930601809106018F7E80930601E6
:1005B000898188232CF4809106018068809306014C
:1005C0008981882F90E080749927892B29F0809168
:1005D00006018064809306018981882F90E08072F3
:1005E0009927892B29F0809106018062809306016A
:1005F0008981882F90E080719927892B29F080913B
:10060000060180618093060180910601682F80E0D9
:100610000E940B060E949102809106018F778093C1
:100620000601809106018F7B80930601809106016F
:100630008F7D80930601809106018F7E8093060155
:100640008981882F90E088709927892B29F08091E3
:1006500006018068809306018981882F90E084706C
:100660009927892B29F080910601806480930601E7
:100670008981882F90E082709927892B29F08091B9
:1006800006018062809306018981882F90E0817045
:100690009927892B29F080910601806180930601BA
:1006A00080910601682F80E00E940B060E94910253
:1006B000809106018061809306018091060180622D
:1006C00080930601809106018064809306018091E9
:1006D000060180688093060180910601682F80E002
:1006E0000E940B0600000F900F90DF91CF910895AC
:1006F000CF93DF9300D0CDB7DEB78A838A8188237A
:1007000031F08091060181608093060105C08091DF
:1007100006018E7F8093060180910601826080939E
:10072000060180910601682F80E00E940B0641E0DF
:1007300062E080E00E94300600C0198264E080E040
:100740000E94A306882319F489818061898365E06A
:1007500080E00E94A306882319F48981806289833E
:1007600066E080E00E94A306882319F489818064F2
:10077000898367E080E00E94A306882319F48981B9
:100780008068898340E062E080E00E94300600C01B
:1007900041E062E080E00E94300600C064E080E05A
:1007A0000E94A306882319F489818160898365E00A
:1007B00080E00E94A306882319F4898182608983DE
:1007C00066E080E00E94A306882319F48981846092
:1007D000898367E080E00E94A306882319F4898159
:1007E0008860898340E062E080E00E943006898171
:1007F0000F900F90DF91CF9108951F93CF93DF93C8
:10080000CDB7DEB7000080E00E947803182F812F5B
:100810008823CCF388E090E00E94780280E00E9478
:100820007803DF91CF911F9108951F93CF93DF93AA
:100830000F92CDB7DEB789838981843110F410E43B
:1008400011C08981803428F08981843510F414E145
:1008500009C08981843128F08981803410F414E53D
:1008600001C010E080E8810F0E943C0400000F905E
:10087000DF91CF911F910895CF93DF930F92CDB762
:10088000DEB789830E94FD0360E089810E94A40293
:1008900000000F90DF91CF910895CF93DF930F92D7
:1008A000CDB7DEB789830E94FD0361E089810E9494
:1008B000A40200000F90DF91CF9108951F93CF9372
:1008C000DF93CDB7DEB710E00AC080E4810F0E944D
:1008D0003C0480E00E941505812F11E0180F1034B0
:1008E000A0F30000DF91CF911F9108951F93CF9344
:1008F000DF9300D000D00F92CDB7DEB78B837D831E
:100900006C8310E08C819D819A8389838B818830F0
:1009100010F081E018C08B81885F880F880F880FE6
:100920000E943C040DC0812F90E029813A81820F02
:10093000931FFC0180810E941505812F11E0180F83
:10094000183088F380E00F900F900F900F900F9069
:10095000DF91CF911F910895CF93DF9300D0CDB752
:10096000DEB789836A838A81882329F48981805844
:100970000E943C0414C08A81813029F4898180540A
:100980000E943C040CC08A81823029F489818C56F3
:100990000E943C0404C089818C520E943C040000E7
:1009A0000F900F90DF91CF910895CF93DF93CDB744
:1009B000DEB70E94FD03882F90E0DF91CF9108956C
:1009C000CF93DF93CDB7DEB781E00E943C040000F7
:1009D000DF91CF910895CF93DF930F92CDB7DEB71C
:1009E00089838981882331F080910601877F8093F4
:1009F000060105C080910601886080930601809100
:100A00000601682F80E00E940B0600000F90DF9126
:100A1000CF910895CF93DF93CDB7DEB782E00E94E8
:100A20003C040000DF91CF910895CF93DF9300D075
:100A3000CDB7DEB78A830E94FD0389838A818A301D
:100A400021F489810E94150425C08981843129F40B
:100A500060E080EC0E94A40217C08981843529F4EB
:100A600060E084E90E94A4020FC08981883229F4E1
:100A700060E084ED0E94A40207C08981883621F4D9
:100A800060E080E80E94A4020E94FD038A8161E088
:100A90000E94A40200000F900F90DF91CF91089563
:100AA0001F93CF93DF9300D0CDB7DEB79A838983AE
:100AB00003C0812F0E94150589819A819C012F5FB7
:100AC0003F4F3A832983FC011081112391F70000E5
:100AD0000F900F90DF91CF911F9108951F93CF93A7
:100AE000DF9300D000D00F92CDB7DEB79D838C830B
:100AF00003C0812F0E9415058C819D819C012F5F71
:100B00003F4F3D832C839A83898389819A81FC019D
:100B100084918B838B81182F112359F700000F903C
:100B20000F900F900F900F90DF91CF911F9108952C
:100B3000CF93DF930F92CDB7DEB789830E94F20582
:100B40001092060180910601682F80E00E940B063A
:100B500080E09AEF0E947802809106018062809383
:100B60000601809106018061809306018091060153
:100B7000682F80E00E940B060E94910280E09EE4B4
:100B80000E9478020E94910280E091E00E94780227
:100B90000E94910280E091E00E947802809106011B
:100BA0008F7E8093060180910601682F80E00E946D
:100BB0000B060E94910280E091E00E94780288E298
:100BC0000E943C0488E00E943C040E94E00486E00D
:100BD0000E943C0489810E943C0400000F90DF9138
:100BE000CF910895CF93DF930F92CDB7DEB71982DF
:100BF0000AC08981882F90E0895F9E4FFC01108296
:100C000089818F5F89838981823098F300000F90FA
:100C1000DF91CF910895CF93DF9300D0CDB7DEB7AA
:100C200089836A8389818230A8F48981882F90E042
:100C3000895F9E4F2A81FC0120838981882F90E063
:100C4000895F9E4FFC0190818981805E692F0E949F
:100C5000E90101C000000F900F90DF91CF9108953E
:100C6000CF93DF9300D00F92CDB7DEB789836A832D
:100C70004B838981823008F04CC08A81883008F02B
:100C800048C08B818823E1F08981882F90E0895FBB
:100C90009E4FFC018081482F8A81282F30E081E01F
:100CA00090E002C0880F991F2A95E2F7242F282B85
:100CB0008981882F90E0895F9E4FFC0120831CC0B2
:100CC0008981882F90E0895F9E4FFC018081482FA9
:100CD0008A81282F30E081E090E002C0880F991FC0
:100CE0002A95E2F78095242F28238981882F90E088
:100CF000895F9E4FFC0120838981882F90E0895F66
:100D00009E4FFC0190818981805E692F0E94E901DC
:100D100001C000000F900F900F90DF91CF910895C8
:100D2000CF93DF930F92CDB7DEB78983898182306D
:100D300010F080E004C08981805E0E94C6010F909F
:100D4000DF91CF910895CF93DF9300D00F92CDB76D
:100D5000DEB78A836B838A81823018F48B81883076
:100D600010F080E011C08A81805E0E94C6018983F4
:100D70008981882F90E02B81222F30E002C0959549
:100D800087952A95E2F781700F900F900F90DF9171
:100D9000CF910895CF93DF9300D0CDB7DEB787E62C
:100DA00090E09A8389838CEC90E02981FC01208378
:100DB00089819A81292F33278DEC90E0FC012083D3
:100DC00089EC90E028E1FC0120838AEC90E026E0A9
:100DD000FC01208300000F900F90DF91CF910895C8
:100DE000CF93DF93CDB7DEB7000088EC90E0FC0135
:100DF00080818823D4F78EEC90E0FC018081DF9124
:100E0000CF910895CF93DF930F92CDB7DEB789834B
:100E1000000088EC90E0FC018081882F90E08072D7
:100E20009927892BB1F38EEC90E02981FC01208376
:100E300000000F90DF91CF910895CF93DF9300D002
:100E4000CDB7DEB79A8389830BC089819A81FC0173
:100E500080810E94020789819A8101969A83898301
:100E600089819A81FC018081882379F700000F90A5
:100E70000F90DF91CF910895CF93DF9300D000D0F2
:100E800000D0CDB7DEB79C838B837E836D831A82BF
:100E900019820FC02B813C8189819A81820F931F17
:100EA000FC0180810E94020789819A8101969A83C0
:100EB000898329813A818D819E812817390750F3D2
:100EC000000026960FB6F894DEBF0FBECDBFDF91AF
:100ED000CF910895CF93DF93CDB7DEB70000DF91B8
:100EE000CF910895CF93DF93CDB7DEB780E090E048
:100EF000DC01BC01CD01DF91CF910895CF93DF9349
:100F0000CDB7DEB780E090E0DC01BC01CD01DF9120
:100F1000CF910895CF93DF93CDB7DEB72E970FB65D
:100F2000F894DEBF0FBECDBF84E290E0FC012081CB
:100F300084E290E02062FC01208385E290E0FC01E5
:100F4000308185E290E020E22327FC01208380E0CD
:100F500090E0AAE7B4E489839A83AB83BC8320E062
:100F600030E04AE755E469817A818B819C810E9457
:100F7000C808DC01CB018D839E83AF83B88720E056
:100F800030E040E85FE36D817E818F8198850E942B
:100F9000420888232CF481E090E09A8789873FC03B
:100FA00020E03FEF4FE757E46D817E818F81988588
:100FB0000E94C30818164CF520E030E040E251E4EE
:100FC00069817A818B819C810E94C808DC01CB01F8
:100FD000BC01CD010E944708DC01CB019A878987BB
:100FE0000FC080E991E09C878B878B859C8501975A
:100FF000F1F79C878B8789859A8501979A878987DE
:1010000089859A85892B69F714C06D817E818F81CE
:1010100098850E944708DC01CB019A8789878985DA
:101020009A859E878D878D859E850197F1F79E878E
:101030008D8783CF97FB072E16F4009407D077FD9A
:1010400009D00E942E0807FC05D03EF490958195AA
:101050009F4F0895709561957F4F0895AA1BBB1B04
:1010600051E107C0AA1FBB1FA617B70710F0A61BA8
:10107000B70B881F991F5A95A9F780959095BC01C9
:10108000CD0108950E94760808F481E008950E9439
:10109000A20888F09F5798F0B92F9927B751B0F060
:1010A000E1F0660F771F881F991F1AF0BA95C9F7EC
:1010B00014C0B13091F00E94BC08B1E008950C94C6
:1010C000BC08672F782F8827B85F39F0B93FCCF379
:1010D000869577956795B395D9F73EF49095809569
:1010E000709561957F4F8F4F9F4F0895990F00081E
:1010F000550FAA0BE0E8FEEF16161706E807F907EA
:10110000C0F012161306E407F50798F0621B730B84
:10111000840B950B39F40A2661F0232B242B252B05
:1011200021F408950A2609F4A140A6958FEF811DA8
:10113000811D089557FD9058440F551F59F05F3F8A
:1011400071F04795880F97FB991F61F09F3F79F0E9
:1011500087950895121613061406551FF2CF46956B
:10116000F1DF08C0161617061806991FF1CF8695ED
:101170007105610508940895E894BB2766277727D1
:10118000CB0197F908950E94760808F48FEF08952F
:101190000E94DB080C944C090E943E0938F00E9422
:1011A000450920F0952311F00C9435090C943B0966
:1011B00011240C94BD080E949A0870F3959FC1F306
:1011C000950F50E0551F629FF001729FBB27F00DF5
:1011D000B11D639FAA27F00DB11DAA1F649F66274A
:1011E000B00DA11D661F829F2227B00DA11D621F99
:1011F000739FB00DA11D621F839FA00D611D221F53
:10120000749F3327A00D611D231F849F600D211D36
:10121000822F762F6A2F11249F5750409AF0F1F0B9
:1012200088234AF0EE0FFF1FBB1F661F771F881F22
:1012300091505040A9F79E3F510580F00C9435091C
:101240000C94BD085F3FE4F3983ED4F38695779500
:101250006795B795F795E7959F5FC1F7FE2B880FC8
:10126000911D9695879597F9089597F99F6780E85E
:1012700070E060E008959FEF80EC089500240A94E8
:101280001616170618060906089500240A94121661
:101290001306140605060895092E0394000C11F494
:1012A000882352F0BB0F40F4BF2B11F460FF04C041
:0E12B0006F5F7F4F8F4F9F4F0895F894FFCFD1
:0612BE000605040100001A
:00000001FF
