:100000000C9456000C9473000C9473000C947300C1
:100010000C9473000C9473000C9473000C94730094
:100020000C9473000C94D7020C9473000C9473001E
:100030000C9473000C9473000C9473000C94730074
:100040000C9473000C948F110C9473000C94730037
:100050000C9473000C9473000C9473000C94730054
:100060000C9473000C9473000C9473000C94730044
:100070000C9473000C9473000C9473000C94730034
:100080000C9473000C9473000C9473000C94730024
:100090000C9473000C9473000C9473000C94730014
:1000A0000C9473000C9473000C94730011241FBE05
:1000B000CFEFDAE0DEBFCDBF16E0A0E0B1E0E6E7CB
:1000C000FFE202C005900D92AC31B107D9F726E0EE
:1000D000ACE1B6E001C01D92A635B207E1F70E947F
:1000E0000A150C94B9170C94000080B38C7880BB6F
:1000F000549A5C98089562E070E080E090E00C947F
:10010000AD1060E070E0CB010C94AD102FB130E089
:10011000A90102C0559547958A95E2F7CA018095D5
:10012000909581700895682F41E084E00C94461208
:10013000682F40E084E00C944612CF93DF93D82FD1
:10014000C92F63E08AE00E949C048FEB94E00E9438
:100150009E0463E08AE00E949C048D2F9C2FDF9117
:10016000CF910C94A004EF92FF920F931F93CF9323
:10017000DF937C01EB018A0161E08AE00E949C042C
:100180008FEB94E00E949E040115110539F061E0A7
:100190008AE00E949C04C8010E949E0462E08AE0FA
:1001A0000E949C048FEB94E00E949E0462E08AE02F
:1001B0000E949C04C7010E949E0463E08AE00E94A2
:1001C0009C048FEB94E00E949E04209769F063E00A
:1001D0008AE00E949C04CE01DF91CF911F910F9184
:1001E000FF90EF900C949E04DF91CF911F910F919F
:1001F000FF90EF900895F89484B184B9E8E6F0E0B8
:10020000808181608083EBE6F0E08081806580837F
:10021000789481E08093220683B1829581708093E7
:10022000200683B185FB882780F980931F0683B160
:1002300086FB882780F98093210660E080E00E9499
:100240009C048AEC94E00E949E0461E080E00E949D
:100250009C048AEC94E00E949E0462E080E00E948C
:100260009C048AEC94E00E949E0463E080E00E947B
:100270009C0484ED94E00E949E0460E08CE00E9467
:100280009C048EED94E00E949E0462E089E00E944E
:100290009C0484EE94E00E949E0480912206E82F44
:1002A000F0E09F01220F331FE20FF31FEE0FFF1F3D
:1002B000EE0FFF1FEE57FE4FE281F0E0EE0FFF1F43
:1002C000E050FF4F6081718120503F4F50E040E08F
:1002D000F901808191810C94B300EF92FF920F930A
:1002E0001F93CF93DF93D82FC92F8B018EE290E01D
:1002F0000E9406157C0160E080E00E949C0481EC75
:1003000094E00E949E0460E080E00E949C0486EEDF
:1003100094E00E949E04C7010E94A00489EE94E02C
:100320000E949E04C8010E94A00461E080E00E9437
:100330009C0481EC94E00E949E0461E080E00E94B5
:100340009C048BEE94E00E949E048D2F9C2F0E94B3
:10035000A0048EEE94E0DF91CF911F910F91FF905A
:10036000EF900C949E040F931F93CF93DF938C0117
:10037000D62FC72F62E080E00E949C0481EC94E0BD
:100380000E949E0462E080E00E949C04C8010E94DA
:100390009E0463E080E00E949C0481EC94E00E9453
:1003A0009E0463E080E00E949C048D2F9C2FDF91CF
:1003B000CF911F910F910C949E0480911C06833065
:1003C00009F452C008F042C0813009F491C0823073
:1003D000D1F540912206E42FF0E09F01220F331F58
:1003E000D901A050BF4F8D919C91D901AE0FBF1F75
:1003F000AA0FBB1FAA0FBB1FAE57BE4F1296AC91E0
:100400004A1779F1AA2369F1B0E0AA0FBB1FA050E7
:10041000BF4F6D917C91E20FF31FEE0FFF1FEE0FA8
:10042000FF1FEE57FE4FE3814E1709F4BDC0EE23C8
:1004300009F4BAC0F0E0EE0FFF1FE050FF4F40811B
:1004400051810E94B30010921C0608958430D9F7A0
:1004500080911D0690911E060E949D0010921C0620
:10046000089570E060E0D7CFE0912206F0E0EE0F53
:10047000FF1FE050FF4F50E040E070E060E08081FF
:1004800091810E94B300E09122068E2F90E0FC0142
:10049000EE0FFF1FE80FF91FEE0FFF1FEE0FFF1FFC
:1004A000EE57FE4F858190E00E9406159C019093C7
:1004B0001E0680931D06E09122068E2F90E0FC011F
:1004C000EE0FFF1FE80FF91FEE0FFF1FEE0FFF1FCC
:1004D000EE57FE4F868197812817390708F45DC0D3
:1004E000808591858217930708F457C0C901B4CF5E
:1004F0000E948E0460E080E00E949C048AEC94E0FC
:100500000E949E0461E080E00E949C048AEC94E0DA
:100510000E949E0462E080E00E949C048AEC94E0C9
:100520000E949E0463E080E00E949C0484ED94E0BD
:100530000E949E0460E08CE00E949C048EED94E09A
:100540000E949E0462E089E00E949C0484EE94E094
:100550000E949E0480912206E82FF0E09F01220F66
:10056000331FE20FF31FEE0FFF1FEE0FFF1FEE57BB
:10057000FE4FE281F0E0EE0FFF1FE050FF4F608181
:10058000718120503F4F50E040E0F901808191811E
:100590000E94B30010921C06089590931E0680934B
:1005A0001D060E949D005ACF50E040E04ACF1F92A6
:1005B0000F920FB60F921124EF92FF921F932F9379
:1005C0003F934F935F936F937F938F939F93AF93DB
:1005D000BF93CF93DF93EF93FF93C3B1C295C170E5
:1005E00013B115FB112710F9D3B1D6FBDD27D0F9D4
:1005F000809120068C1709F46DC0DD2329F09091BD
:100600002106992309F470C0C11148C02091220627
:10061000822F90E0FC01EE0FFF1FE80FF91FEE0F95
:10062000FF1FEE0FFF1FEE57FE4F8181112309F4CC
:100630008DC0823009F473C09381921779F1909341
:100640002206E92FF0E09F01220F331FD901A050AD
:10065000BF4FED90FC90D901AE0FBF1FAA0FBB1F7B
:10066000AA0FBB1FAE57BE4F1296AC919A1711F04E
:10067000A1117BC070E060E0E20FF31FEE0FFF1FDF
:10068000EE0FFF1FEE57FE4FE3819E1711F0E111B1
:1006900064C050E040E0C7010E94B300C093200650
:1006A00010931F06D0932106FF91EF91DF91CF9118
:1006B000BF91AF919F918F917F916F915F914F917A
:1006C0003F912F911F91FF90EF900F900FBE0F90D1
:1006D0001F90189590911F06911799F1DD23F1F263
:1006E000909121069111DACFE09122062E2F30E071
:1006F000F901EE0FFF1FE20FF31FEE0FFF1FEE0FCA
:10070000FF1FEE57FE4F91819230B9F1933009F4FB
:100710008DC0913009F494C0C81376CFBFCF8091BB
:100720001D0690911E06268137812817390708F08B
:10073000B5CF019790931E0680931D060E949D00E1
:10074000ADCF909121069D13C9CFAECF823009F471
:10075000CEC09281921373CFA1CFF0E0EE0FFF1FB6
:10076000E050FF4F4081518196CFB0E0AA0FBB1FF0
:10077000A050BF4F6D917C917FCF60911D0670910D
:100780001E06858190E00E940815E09122068E2FBA
:1007900090E0FC01EE0FFF1FE80FF91FEE0FFF1FA7
:1007A000EE0FFF1FEE57FE4F448140932206E42FC9
:1007B000F0E09F01220F331FD901A050BF4F8D9150
:1007C0009C91D901AE0FBF1FAA0FBB1FAA0FBB1F61
:1007D000AE57BE4F1296AC914A1711F1AA2301F100
:1007E000B0E0AA0FBB1FA050BF4F6D917C91E20FEC
:1007F000F31FEE0FFF1FEE0FFF1FEE57FE4FE381BB
:100800004E1789F0EE2379F0F0E0EE0FFF1FE05075
:10081000FF4F408151810E94B300809120067CCF20
:1008200070E060E0E4CF50E040E0F5CF0284F38573
:10083000E02D309709F470CF0995809120066CCF98
:10084000448140932206E42FF0E09F01220F331FE2
:10085000D901A050BF4F8D919C91D901AE0FBF1F00
:10086000AA0FBB1FAA0FBB1FAE57BE4F11965C91BC
:100870001197523009F0AECF50E040E070E060E0F8
:100880000E94B3008091220690E0FC01EE0FFF1F52
:10089000E80FF91FEE0FFF1FEE0FFF1FEE57FE4F81
:1008A000858190E00E9406159C0190931E0680931E
:1008B0001D068091220690E0FC01EE0FFF1FE80F5D
:1008C000F91FEE0FFF1FEE0FFF1FEE57FE4F868141
:1008D000978128173907E8F080859185821793075B
:1008E000C0F0C9010E949D008091200615CF809123
:1008F0001D0690911E06208531858217930708F00A
:10090000CDCE019690931E0680931D060E949D00F9
:10091000C5CE90931E0680931D06E4CF8CE00E9406
:10092000A3140E9419140E94351480E00C941F1423
:100930000C9419140C9435140C94ED130C9482142B
:10094000CF92DF92EF92FF920F931F93CF93DF939B
:10095000CDB7DEB72A970FB6F894DEBF0FBECDBF76
:10096000009709F44EC097FD41C08E010F5F1F4FE5
:10097000F80120E03AE0C32ED12C7F01E20EF11CF9
:10098000B6010E940F15805DD7018C93CB012F5FBC
:10099000009799F7DF01A20FB11D1C922695A1F0D7
:1009A000BD01CF0101962150820F911D2191DB01E4
:1009B0003E91BD01AF0141505109DA013C93DB0189
:1009C0002C938E179F0791F7C8010E9482142A96D4
:1009D0000FB6F894DEBF0FBECDBFDF91CF911F9150
:1009E0000F91FF90EF90DF90CF9008952DE2298333
:1009F000919581959109FE0132968E010F5F1F4FEF
:100A0000B8CF80E389831A828E010F5F1F4FDCCF3E
:100A10004F925F926F927F928F929F92AF92BF920E
:100A2000CF92DF92EF92FF920F931F93CF93DF93BA
:100A300000D000D000D0CDB7DEB787E00E94AF0B6A
:100A40005C010E94330C8B018E839D8369831A8322
:100A50008B839C8369817A818B819C810E943D1666
:100A60006B01672B09F4D8C010922306C501B0E0D2
:100A7000A0E089839A83AB83BC83B501CD010E943A
:100A80006C1620E030EC4FE754E469837A838B8363
:100A90009C8369817A818B819C810E94591520E019
:100AA00030E048EC52E469837A838B839C836981CC
:100AB0007A818B819C810E94231720E030EC46E6EE
:100AC00054EC69837A838B839C8369817A818B81DF
:100AD0009C810E94CB1520E030E0A90169837A83D4
:100AE0008B839C8369817A818B819C810E945A15BA
:100AF00069837A838B839C8369817A818B819C81D2
:100B00000E943D164B01CB01B0E0A0E089839A839F
:100B1000AB83BC83CD010E946C162B013C0120915C
:100B200026063091270640912806509129066983B0
:100B30005A828B837C8269817A818B819C810E941D
:100B4000C615811157C098014E815D8160912A06BA
:100B500070912B0680912C0690912D060E94C6154F
:100B6000811148C0C201D3018093260690932706C5
:100B7000A0932806B0932906A8016E817D81409339
:100B80002A0650932B0660932C0670932D068091B5
:100B90002406909123069817A1F0F89480912306DB
:100BA000823009F445C068F58823D1F16BEF75E018
:100BB00084E096E00E94B3010E947B0078948091CB
:100BC00023068093240626960FB6F894DEBF0FBE48
:100BD000CDBFDF91CF911F910F91FF90EF90DF90EC
:100BE000CF90BF90AF909F908F907F906F905F90CD
:100BF0004F900895F894B401C6010E946D01789455
:100C0000B1CF8330D9F668E176E08FE096E00E94BC
:100C1000B3010E947B00D2CF82E08093230626CFCF
:100C200069EC74E0CB010E94B3010E948100C6CF41
:100C30006AE076E08FE096E00E94B3010E947B00BC
:100C4000BDCF0E94080580912506882339F08FE3E7
:100C50009CE90197F1F700C0000081E008951F931F
:100C6000CF93DF9300D000D0CDB7DEB780E190E026
:100C70000E94061589839A830E9408051091230615
:100C8000111131C0A981BA81CD01B0E0A0E0898302
:100C90009A83AB83BC83BC01CD010E946C1620916A
:100CA0002A0630912B0640912C0650912D0669831F
:100CB0007A838B839C8369817A818B819C810E945A
:100CC0001E1718163CF08FE39CE90197F1F700C05E
:100CD000000011E0812F0F900F900F900F90DF9187
:100CE000CF911F91089512E0F5CF0E94080590E082
:100CF00080E00E940615892B41F48FE39CE901975F
:100D0000F1F700C0000081E0089580E00895CF92DF
:100D1000DF92EF92FF920F931F93CF93DF93CDB7A4
:100D2000DEB72A970FB6F894DEBF0FBECDBF88E6B8
:100D300090E00E940615E82E84E690E00E940615D9
:100D40006C0182E690E00E94061589839A8380E612
:100D500090E00E94061528EE33E0829F8001839F79
:100D6000100D929F100D1124A981BA81CD01B0E020
:100D7000A0E089839A83AB83BC83BC01CD010E9430
:100D80006C1620E030E040E251E469837A838B8383
:100D90009C8369817A818B819C810E94231720E04A
:100DA00030E048EC52E469837A838B839C836981C9
:100DB0007A818B819C810E94CB1520E030E040E25B
:100DC00051E469837A838B839C8369817A818B81E7
:100DD0009C810E945A1569837A838B839C836981E5
:100DE0007A818B819C810E943D16862F90E0B0E035
:100DF000A0E089839A83AB83BC83BC01CD010E94B0
:100E0000811088EEE89EE02C11240E2C000CFF08C7
:100E10001A861986C601B0E0A0E08D839E83AF8359
:100E2000B8870E9408056D817E818F8198850E9418
:100E30006C16209126063091270640912806509185
:100E4000290669837A838B839C8369817A818B816C
:100E50009C810E941E1787FD38C0A985BA851A9605
:100E6000BA87A987AE15BF0590F18FE39CE901977A
:100E7000F1F700C000000115110591F01A821982E6
:100E80000E9408058FE39CE90197F1F700C000007C
:100E9000A981BA811A96BA83A983A017B10780F3F2
:100EA00060E070E0CB010E94811080E02A960FB6CE
:100EB000F894DEBF0FBECDBFDF91CF911F910F9190
:100EC000FF90EF90DF90CF9008951A861986AFE3D8
:100ED000BCE91197F1F700C00000A3CFBF92CF92F9
:100EE000DF92EF92FF920F931F93CF93DF93CDB7D3
:100EF000DEB762970FB6F894DEBF0FBECDBF84E5B4
:100F000090E00E940615B82E80E590E00E9406153C
:100F100028EE33E0829F8001839F100D929F100D79
:100F2000112482E590E00E940615A8EEB3E08A9FA6
:100F300070018B9FF00C9A9FF00C112482E190E0DD
:100F40000E9406158D839E8384E190E00E94061521
:100F50006C018B2D90E0B0E0A0E089839A83AB8395
:100F6000BC83BC01CD010E948110AD81BE81CD0149
:100F7000B0E0A0E089879A87AB87BC87C601B0E064
:100F8000A0E08D879E87AF87B88B84E00E94930096
:100F90000115110509F46EC01A8A198A20C06D85E1
:100FA0007E858F8598890E946C169B01AC016D81AE
:100FB0007E818F8198850E941E1787FF51C0AFE305
:100FC000BCE91197F1F700C0000029893A89265F32
:100FD0003F4F3A8B298B2017310708F04BC00E94F6
:100FE000080580912A0690912B06A0912C06B091BD
:100FF0002D068D839E83AF83B88769857A858B851F
:101000009C850E946C162D813E814F815885698395
:101010007A838B839C8369817A818B819C810E94F6
:10102000C61518160CF4BBCF84E00E94980060E04F
:1010300070E0CB010E94811080E062960FB6F894B8
:10104000DEBF0FBECDBFDF91CF911F910F91FF90FB
:10105000EF90DF90CF90BF90089581E080932306BA
:1010600084E00E94980060E070E0CB010E94811053
:1010700083E0E3CF84E00E949800E114F10409F4D6
:1010800084CF1A8A198A20C06D857E858F859889BC
:101090000E946C169B01AC016D817E818F819885C9
:1010A0000E941E1787FFD9CFAFE3BCE91197F1F774
:1010B00000C0000029893A89265F3F4F3A8B298B6F
:1010C0002E153F0508F061CF0E94080580912A0681
:1010D00090912B06A0912C06B0912D068D839E83B6
:1010E000AF83B88769857A858B859C850E946C164D
:1010F0002D813E814F81588569837A838B839C83C0
:1011000069817A818B819C810E94C61518160CF426
:10111000BBCF8ACFAF92BF92CF92DF92EF92FF9276
:101120000F931F93CF93DF9300D000D0CDB7DEB7DE
:1011300080E490E00E9406155C0188E490E00E9443
:10114000061589839A8382E490E00E94061528EEB2
:10115000C22E23E0D22E8C9D80018D9D100D9C9D72
:10116000100D112484E490E00E9406158C9D7001FE
:101170008D9DF00C9C9DF00C1124A981BA81CD01AC
:10118000B0E0A0E089839A83AB83BC83BC01CD012E
:101190000E946C1620E030E048E951E469837A83CC
:1011A0008B839C8369817A818B819C810E94231728
:1011B00020E030E048EC52E469837A838B839C839F
:1011C00069817A818B819C810E94CB1520E030E07F
:1011D00040E85FE369837A838B839C8369817A81AA
:1011E0008B819C810E945A1569837A838B839C83AF
:1011F00069817A818B819C810E943D16862F90E0C7
:10120000B0E0A0E089839A83AB83BC83BC01CD01AD
:101210000E948110A114B104C1F1D12CC12C84E031
:101220000E9493000115110591F01A8219820E9403
:101230000805AFE3BCE91197F1F700C00000898110
:101240009A810A969A8389838017910780F384E0B4
:101250000E949800E114F10491F01A8219820E9410
:101260000805AFE3BCE91197F1F700C000008981E0
:101270009A810A969A8389838E159F0580F39FEF42
:10128000C91AD90AAC14BD0451F660E070E0CB0174
:101290000E94811080E00F900F900F900F90DF91CF
:1012A000CF911F910F91FF90EF90DF90CF90BF9063
:1012B000AF9008954F925F926F927F928F929F921C
:1012C000AF92BF92CF92DF92EF92FF920F931F9354
:1012D000CF93DF93CDB7DEB72E970FB6F894DEBF6E
:1012E0000FBECDBF82E290E00E940615582E80E22C
:1012F00090E00E94061528EEA22E23E0B22E8A9DD1
:1013000070018B9DF00C9A9DF00C112484E290E00A
:101310000E9406158A9D80018B9D100D9A9D100DCF
:10132000112488E290E00E9406158A9D90018B9D11
:10133000300D9A9D300D11243E872D878CE290E070
:101340000E94061533E1432E489EC001112444E655
:10135000842E912CB4010E940F1577247394760E7D
:101360008AE290E00E9406158A9D60018B9DD00C58
:101370009A9DD00C11248EE290E00E9406155C012B
:1013800080E390E00E94061598EE899F602C11245E
:10139000549CC0011124B4010E940F156F5F862F69
:1013A00090E0B0E0A0E089839A83AB83BC83BC016A
:1013B000CD010E948110E114F10481F0912C812C67
:1013C0000E940805AFE3BCE91197F1F700C00000E7
:1013D000BAE08B0E911C8E149F0490F360E070E0D5
:1013E000CB010E9481108FEF0E944C100115110556
:1013F00081F0F12CE12C0E9408058FE39CE9019714
:10140000F1F700C000009AE0E90EF11CE016F106C9
:1014100090F380E00E944C1084E00E949300AD8520
:10142000BE85AB2B09F457C010E000E0F12CE12C95
:10143000912CC501B0E0A0E08D839E83AF83B88777
:10144000872D90E0B0E0A0E089879A87AB87BC87C2
:10145000712C11C0012B81F58701AFE3BCE9119715
:10146000F1F700C00000BAE0EB0EF11C2D853E85BF
:10147000E216F30680F5EC14FD0410F0992011F14A
:101480000E9408056D817E818F8198850E946C166F
:101490002091260630912706409128065091290672
:1014A00069837A838B839C8369817A818B819C8118
:1014B0000E94C61587FDCECF6E147F0460F110E048
:1014C00000E0CBCF69857A858B859C850E94811051
:1014D00099249394D5CF60E070E0CB010E948110F5
:1014E00084E00E94980082E02E960FB6F894DEBF4A
:1014F0000FBECDBFDF91CF911F910F91FF90EF9065
:10150000DF90CF90BF90AF909F908F907F906F9023
:101510005F904F90089560E070E0CB010E948110D1
:1015200084E00E94980080E0DFCF10922E06109297
:101530002306109224060E94C50C0E94B5110E9439
:1015400075000E942F100E944F100E9499100E9457
:10155000A70B78940E948E040E94FB002FEF83ED6E
:1015600090E3215080409040E1F700C0000090E0FF
:1015700080E00E940615892B19F085E080932E06E5
:101580000895E0912E0687E0E89FF0011124E257CC
:10159000FB4F0580F681E02D0995E0912E06823003
:1015A000C9F060F4882301F187E0E89FF00111247D
:1015B000E257FB4FE281E0932E06E5CF833019F727
:1015C00087E0E89FF0011124E257FB4FE481E093AC
:1015D0002E06D9CF87E0E89FF0011124E257FB4F98
:1015E000E381E0932E06CFCF87E0E89FF00111243E
:1015F000E257FB4FE181E0932E06C5CF0895089591
:101600000895089580912E06811106C061E070E072
:1016100090E080E00C94081570E060E090E080E0DD
:101620000C94081580912E06882319F0863009F055
:10163000089580912506882319F0109225060895B3
:1016400081E0809325060895089508951092B900C9
:1016500088E18093B800089594EA9093BC0090913B
:10166000BC0097FFFCCF9091B900987F983011F0A3
:10167000903191F48093BB0084E88093BC0080910A
:10168000BC0087FFFCCF9091B900987F983131F072
:1016900081E0903419F0089581E0089580E0089584
:1016A00024EA34E844E92093BC009091BC0097FF01
:1016B000FCCF9091B900987F983011F0903199F754
:1016C0008093BB003093BC009091BC0097FFFCCF8F
:1016D0009091B900987F903219F0983509F00895EB
:1016E0004093BC009091BC0094FDFCCFDCCF0C94E7
:1016F0002C0B84E98093BC008091BC0084FDFCCF5E
:1017000008958093BB0084E88093BC008091BC0066
:1017100087FFFCCF9091B900987F81E0983209F063
:10172000089580E0089584EC8093BC008091BC0013
:1017300087FFFCCF8091BB00089584E88093BC00B4
:101740008091BC0087FFFCCF8091BB0008958798F3
:1017500080E480937C0087E880937A0008959091DC
:101760007C00987F8770982B90937C0080917A0002
:10177000806480937A0080917A0086FDFCCF80910E
:10178000780090917900089576986E9A8FE797E0A7
:101790000197F1F700C000006E98EFEEF0E031978E
:1017A000F1F700C000008CB1EFE8F6E03197F1F7F7
:1017B00000C000008074089576986E9A95E09A951E
:1017C000F1F7000081116E988FEE90E00197F1F72C
:1017D00000C000006E98089576986E9A85E08A950C
:1017E000F1F700006E989AE49A95F1F700C08CB179
:1017F00090EF9A95F1F786FB882780F9089598E095
:1018000076986E9A25E02A95F1F7000080FD6E9893
:10181000EFEEF0E03197F1F700C000006E9886958A
:10182000915071F7089598E080E076986E9A25E0DF
:101830002A95F1F700006E982AE42A95F1F700C086
:101840004CB120EF2A95F1F746FB222720F930E032
:10185000A9015695542F4427579547958695842B73
:10186000915019F70895CF93DF9300D000D0CDB7F2
:10187000DEB776986E9A8FE797E00197F1F700C090
:1018800000006E988FEE90E00197F1F700C0000025
:101890008CB18FE896E00197F1F700C000008CEC66
:1018A0000E94FF0B84E40E94FF0B76986E9A95E0ED
:1018B0009A95F1F700006E982AE42A95F1F700C096
:1018C000669910C030EF3A95F1F776986E9A45E038
:1018D0004A95F1F700006E985AE45A95F1F700C066
:1018E000669BF0CF80EF8A95F1F776986E9A8FE736
:1018F00097E00197F1F700C000006E988FEE90E03E
:101900000197F1F700C000008CB18FE896E00197D5
:10191000F1F700C000008CEC0E94FF0B8EEB0E94E0
:10192000FF0B0E94130C89830E94130C90E0982FE8
:1019300088272981820F911D9C01990F440B550B1B
:1019400029833A834B835C83CA01B9010E946E16D6
:1019500020E030E040E85DE369837A838B839C83F9
:1019600069817A818B819C810E94231769837A83A4
:101970008B839C8369817A818B819C810F900F90EE
:101980000F900F90DF91CF9108951092CD0087E6D0
:101990008093CC0088E18093C90086E08093CA00E0
:1019A00008958091C80087FFFCCF8091CE000895F4
:1019B0009091C80095FFFCCF8093CE000895FC0164
:1019C0009081992351F031968091C80085FFFCCF1A
:1019D0009093CE0091919111F7CF08959B01672BC1
:1019E00069F0FC01280F391F91918091C80085FF93
:1019F000FCCF9093CE00E217F307B1F70895EF9272
:101A0000FF920F931F93CF93DF93CDB7DEB72A9743
:101A10000FB6F894DEBF0FBECDBF009709F452C0D9
:101A2000FE01319697FD46C020E03AE0E32EF12C0E
:101A30008F01020F111DB7010E940F15805DD801A3
:101A40008C93CB012F5F009799F7DF01A20FB11D97
:101A50001C922695A1F0BD01CF0101962150820F65
:101A6000911D2191DB013E91BD01AF014150510912
:101A7000DA013C93DB012C938E179F0791F7998134
:101A8000992359F0FE0132968091C80085FFFCCF62
:101A90009093CE0091919111F7CF2A960FB6F894BA
:101AA000DEBF0FBECDBFDF91CF911F910F91FF9091
:101AB000EF9008952DE22983919581959109FE017A
:101AC0003296B2CF80E389831A8290E3DBCF6A9AA1
:101AD0003F9A5798729A0895CF93DF9300D000D021
:101AE000CDB7DEB772988FE99FE00197F1F700C09C
:101AF000000020E087E090E061E070E04798AFE907
:101B0000BFE01197F1F700C000004F9B07C0AB0189
:101B1000082E01C0440F0A94EAF7242B479AEFE9F4
:101B2000FFE03197F1F700C00000019738F730E08F
:101B3000322F222740E087E090E0E1E0F0E0479894
:101B4000AFE9BFE01197F1F700C000004F9B07C05D
:101B5000BF01082E01C0660F0A94EAF7462B479A88
:101B6000AFE9BFE01197F1F700C00000019738F727
:101B7000242B729A22FD2FC0C901969587959695C0
:101B80008795969587959C0150E040E029833A839C
:101B90004B835C83CA01B9010E946C1620E030E0DF
:101BA00040E85EE369837A838B839C8369817A81D1
:101BB0008B819C810E94231769837A838B839C830A
:101BC00069817A818B819C810F900F900F900F908B
:101BD000DF91CF91089560E070E088EC92ECECCF5B
:101BE000CF93DF9300D000D0CDB7DEB70E946C0D4D
:101BF00020E030E040E151E469837A838B839C8369
:101C000069817A818B819C810E94231720E030E0DA
:101C100040EA50E469837A838B839C8369817A816B
:101C20008B819C810E94CB1520E030E040E052E4A3
:101C300069837A838B839C8369817A818B819C8180
:101C40000E945A1569837A838B839C8369817A8188
:101C50008B819C810F900F900F900F90DF91CF910F
:101C6000089589B182958695877091E08927817062
:101C700090E00895CF93DF9300D000D0CDB7DEB7CA
:101C80004D99FECF5D9A25E02A95F1F700005E9808
:101C900035E03A95F1F700004D99FECF28E180E05C
:101CA00090E0DC015E9A45E04A95F1F70000880F6C
:101CB000991FAA1FBB1F5E9855E05A95F1F70000C7
:101CC0004D9B03C00196A11DB11D215059F726E07F
:101CD000B695A795979587952A95D1F75E9A65E071
:101CE0006A95F1F700005E9825E02A95F1F700006B
:101CF0009C01AD014058CA01B9010F900F900F909F
:101D00000F90DF91CF910895803439F0803889F0B9
:101D1000803249F05E980C943A0E83E0809351062D
:101D20005E980C943A0E82E0809351065E980C9473
:101D30003A0E81E0809351065E980C943A0E569AC2
:101D400055985D9A0C94840E8F929F92AF92BF9299
:101D5000CF92DF92EF92FF92CF93DF9300D000D02B
:101D600000D0CDB7DEB78E83882E912CB12CA12C5C
:101D7000882379F11D82C12CD12C76010E943A0E64
:101D8000C60ED71EE81EF91E8D818F5F8D839E8142
:101D90009813F4CFC701B601A50194010E94231541
:101DA00029833A834B835C8369817A818B819C810F
:101DB00026960FB6F894DEBF0FBECDBFDF91CF9150
:101DC000FF90EF90DF90CF90BF90AF909F908F905B
:101DD000089519821A821B821C82E6CF8F929F92ED
:101DE000AF92BF92CF92DF92EF92FF92CF93DF93A9
:101DF00000D000D000D0CDB7DEB78E83882E912CD6
:101E0000B12CA12C882309F449C01D82C12CD12CEE
:101E100076010E943A0EC60ED71EE81EF91E8D816D
:101E20008F5F8D839E819813F4CFC701B601A50102
:101E300094010E94231529833A834B835C83CA0152
:101E4000B9010E946C1620914D0630914E064091CA
:101E50004F065091500669837A838B839C836981F6
:101E60007A818B819C810E94591569837A838B8347
:101E70009C8369817A818B819C8126960FB6F89428
:101E8000DEBF0FBECDBFDF91CF91FF90EF90DF900F
:101E9000CF90BF90AF909F908F90089560E070E0DA
:101EA00080E090E0D0CFCF93DF9300D000D0CDB7CB
:101EB000DEB70E94EE0E20915206309153064091FB
:101EC00054065091550669837A838B839C8369817C
:101ED0007A818B819C810E94CB1569837A838B8365
:101EE0009C8369817A818B819C810F900F900F90E8
:101EF0000F90DF91CF9108958F929F92AF92BF92F2
:101F0000CF92DF92EF92FF92CF93DF9300D000D079
:101F100000D0CDB7DEB78E83882E912CB12CA12CAA
:101F20008823E1F11D82C12CD12C76010E943A0E4A
:101F3000C60ED71EE81EF91E8D818F5F8D839E8190
:101F40009813F4CFC701B601A50194010E9423158F
:101F500029833A834B835C83CA01B9010E946C16C2
:101F6000362F272F432F522FBC0140934D065093FD
:101F70004E0660934F067093500626960FB6F8945F
:101F8000DEBF0FBECDBFDF91CF91FF90EF90DF900E
:101F9000CF90BF90AF909F908F90089530E020E059
:101FA00080E090E0DFCF60935206709353068093F9
:101FB0005406909355060895CF93DF9300D000D038
:101FC000CDB7DEB78091520690915306A09154068A
:101FD000B0915506BC01CD010F900F900F900F905E
:101FE000DF91CF91089560934D0670934E068093D4
:101FF0004F06909350060895CF93DF9300D000D002
:10200000CDB7DEB780914D0690914E06A0914F0658
:10201000B0915006BC01CD010F900F900F900F9022
:10202000DF91CF9108955E985E9A87E191E00197E4
:10203000F1F700C0000008955E98089547E050E071
:1020400080E05E9A29B12072042E01C0220F0A940A
:10205000EAF7822B5E984150510998F70895F89459
:102060003E9A4698E4E9F0E01182108210929900BD
:102070001092980010929B0010929A0010929D006E
:1020800010929C0081E88093900089E080939100F9
:102090001182108278940895809398000895F8949E
:1020A000279AA4E8B0E011961C921E92E8E8F0E0AE
:1020B0001182108210928B0010928A0010928D0073
:1020C00010928C0089E08093810082E080936F0001
:1020D00011961C921E9280E89EE391838083109259
:1020E000400610924106109242061092430610924A
:1020F0003C0610923D0610923E0610923F067894E0
:102100000895F894609340067093410680934206C8
:102110009093430610923C0610923D0610923E06A4
:1021200010923F0610928500109284002F987894A8
:102130000895F894549A1092380610923906109225
:102140003A0610923B061092340610923506109211
:1021500036061092370678940895F89460933806FE
:102160007093390680933A0690933B06109234069A
:10217000109235061092360610923706109285009E
:10218000109284005C98789408951F93CF93DF9306
:10219000CDB7DEB72A970FB6F894DEBF0FBECDBF1E
:1021A0008091300690913106A0913206B0913306AD
:1021B00080912F060E94330C462F572FBC01498374
:1021C0005A836B837C8387E00E94AF0B89879A8751
:1021D000182F8091300690913106A0913206B0916F
:1021E00033068D839E83AF83B88729813A814B81E3
:1021F0005C81BC01CD010E94C615811104C0809193
:102200002F06811779F069817A818B819C810E94E8
:102210003D16362F272F69857A857727832F922FB2
:102220000E946D0189819A81AB81BC8180933006C7
:1022300090933106A0933206B0933306998590931C
:102240002F062A960FB6F894DEBF0FBECDBFDF91E2
:10225000CF911F91089508954091400650914106F5
:102260006091420670914306411551056105710563
:1022700019F180913C0690913D06A0913E06B091E7
:102280003F060196A11DB11D80933C0690933D062B
:10229000A0933E06B0933F06481759076A077B078D
:1022A00058F485B1805885B910923C0610923D06CD
:1022B00010923E0610923F060895409138065091C4
:1022C000390660913A0670913B064115510561054A
:1022D000710521F18091340690913506A091360662
:1022E000B09137060196A11DB11D809334069093DD
:1022F0003506A0933606B0933706481759076A0784
:102300007B0760F48BB190E189278BB9109234067A
:1023100010923506109236061092370608951F92D5
:102320000F920FB60F9211242F933F934F935F9309
:102330006F937F938F939F93AF93BF93EF93FF938D
:102340000E942C110E945D11FF91EF91BF91AF91FE
:102350009F918F917F916F915F914F913F912F91BD
:102360000F900FBE0F901F9018950E94260B85E3CB
:102370008A95F1F70000E5E4F6E0108211821282FE
:10238000138214821582168217820895883030F4E1
:10239000E82FF0E0EB5BF94F808108958FEF08950F
:1023A000883088F4683078F4E82FF0E0EB5BF94F80
:1023B0008081082E000C990B02C0959587956A952F
:1023C000E2F7817008958FEF0895CF93C62F88307C
:1023D000A8F4E82FF0E0EB5BF94F6083805E880F94
:1023E0000E942C0B81110CC08C2F0E94810B81113B
:1023F00007C00E94790B80E0CF9108958FEFFCCF4A
:102400000E94790B8FEFF8CFCF93DF938830D0F510
:10241000E62FE41BFF0BDF01AF3FFFEFBF0794F197
:102420006150673078F5442369F1E82FF0E0EB5B09
:10243000F94F90811196022E000C330B0A2E01C029
:10244000220F0A94EAF7C1E0D0E002C0CC0FDD1FF2
:102450004A95E2F72197AE0101C0440FAA95EAF729
:10246000C92FC227C423C927C083805E880F0E945A
:102470002C0B8C2F0E94810B0E94790B80E0DF9146
:10248000CF9108958FEFDF91CF910895CF9388304A
:1024900020F5683010F5E82FF0E0EB5BF94FC081D4
:1024A00021E030E001C0220F6A95EAF7411113C024
:1024B0002095C223C083805E880F0E942C0B81115F
:1024C0000EC08C2F0E94810B811109C00E94790BD4
:1024D00080E0CF910895C22BEDCF8FEFFACF0E940D
:1024E000790B8FEFF6CF41E00C94461240E00C944C
:1024F0004612CF93883080F490E08096880F991F21
:1025000081600E942C0B0E949D0BC82FC0950E94D9
:10251000790B8C2FCF910895CFEFFBCFCF93C62FA0
:10252000883088F4683078F40E9479128F3F59F02F
:10253000082E000C990B02C095958795CA95E2F775
:102540008170CF9108958FEFCF91089562E080E080
:102550000E94731200C062E080E00C947612CF9368
:10256000C82F80914406662309F444C0816080939B
:102570004406809144068D7F809344066091440612
:1025800080E00E94E511811132C0809144068F776E
:1025900080934406809144068F7B8093440680910B
:1025A00044068F7D80934406809144068F7E8093FD
:1025B0004406C7FD7DC0C6FF05C080914406806407
:1025C00080934406C5FF05C08091440680628093D5
:1025D0004406C4FF05C08091440680618093440690
:1025E0006091440680E00E94E511882339F080E084
:1025F000CF9108958E7F80934406BBCF0E94A61290
:10260000809144068F7780934406809144068F7BA7
:1026100080934406809144068F7D80934406809188
:1026200044068F7E80934406C3FF05C08091440614
:10263000806880934406C2FF05C080914406806490
:1026400080934406C1FF05C0809144068062809358
:102650004406C0FF05C08091440680618093440613
:102660006091440680E00E94E5118111C0CF0E9474
:10267000A6128091440680618093440680914406AE
:10268000806280934406809144068064809344066F
:10269000809144068068809344066091440680E0FF
:1026A0000E94E511982F81E0992309F4A1CF9FCFD3
:1026B00080914406806880934406C6FF83CF7DCF17
:1026C000CF93809144068E7F809344068091440688
:1026D0008260809344066091440680E00E94E51188
:1026E00062E080E00E94731200C064E080E00E941B
:1026F0008E12C0E18111C0E065E080E00E948E1280
:10270000811101C0C06266E080E00E948E128111DA
:1027100001C0C06467E080E00E948E12811101C098
:10272000C06862E080E00E94761200C062E080E053
:102730000E94731200C064E080E00E948E1281113A
:1027400001C0C16065E080E00E948E12811101C06D
:10275000C26066E080E00E948E12811101C0C460F8
:1027600067E080E00E948E12811101C0C86062E0C3
:1027700080E00E9476128C2FCF9108950E94601302
:1027800087FDFCCF88E090E00197F1F70C9460138F
:10279000CF93C82F0E94BE1360E08C2FCF910C9472
:1027A000AF12CF93C82F0E94BE1361E08C2FCF9140
:1027B0000C94AF12CF93C0E40E94BE1360E08C2F44
:1027C0000E94AF120E94BE1361E080E00E94AF122F
:1027D000CF5FC03889F7CF910895CF93C82F662374
:1027E000A1F06130D1F0623041F00E94BE1360E090
:1027F00084ED8C0FCF910C94AF120E94BE1360E059
:1028000084E98C0FCF910C94AF120E94BE1360E04C
:1028100080E88C0FCF910C94AF120E94BE1360E041
:1028200080EC8C0FCF910C94AF120E94BE1390E0FD
:1028300008950E94BE1360E081E00C94AF128823DB
:1028400051F080914406877F80934406609144064E
:1028500080E00C94E51180914406886080934406E2
:102860006091440680E00C94E5110E94BE1360E084
:1028700082E00C94AF12CF93C82F0E94BE13CA30CF
:1028800029F061E08C2FCF910C94AF12C0EC843111
:1028900048F090EC980FC4E9943120F08451C0E8DE
:1028A0008C3238F00E94BE1360E08C2FCF910C94D4
:1028B000AF12C4EDF7CF0F931F93CF93DF93C82FC1
:1028C0008B0181E0C83028F0DF91CF911F910F91EB
:1028D00008950E94BE1388E08C0F60E0880F880F77
:1028E000880F0E94AF12E801085F1F4F89910E9474
:1028F0003B14C017D107D1F780E0DF91CF911F9132
:102900000F910895CF93DF93EC0104C00E943B1414
:10291000882329F0888121968111F8CF81E0DF9109
:10292000CF910895CF93DF93EC0105C00E943B1433
:102930002196882329F0FE0184918111F7CF81E04F
:10294000DF91CF9108951F93CF93DF93182F0E94AB
:10295000B511109244066091440680E00E94E51192
:1029600080E09AEF0197F1F78091440680628093AE
:102970004406809144068061809344066091440639
:1029800080E00E94E5110E94A61280E09EE401977B
:10299000F1F70E94A612C0E0D1E0CE010197F1F755
:1029A0000E94A612CE010197F1F7809144068F7E16
:1029B000809344066091440680E00E94E5110E94E5
:1029C000A6122197F1F70E94BE1360E088E20E94F0
:1029D000AF120E94BE1360E088E00E94AF120E9416
:1029E000BE1360E081E00E94AF120E94BE1360E05F
:1029F00086E00E94AF120E94BE1360E0812F0E9409
:102A0000AF1281E0DF91CF911F9108950C94901740
:102A10000C9496170E94950A0E94C10AFFCF97FB5B
:102A2000072E16F4009407D077FD09D00E944515B3
:102A300007FC05D03EF4909581959F4F08957095C1
:102A400061957F4F0895A1E21A2EAA1BBB1BFD01C1
:102A50000DC0AA1FBB1FEE1FFF1FA217B307E4077D
:102A6000F50720F0A21BB30BE40BF50B661F771FD5
:102A7000881F991F1A9469F76095709580959095B5
:102A80009B01AC01BD01CF010895AA1BBB1B51E105
:102A900007C0AA1FBB1FA617B70710F0A61BB70BCE
:102AA000881F991F5A95A9F780959095BC01CD0173
:102AB00008955058BB27AA270E9471150C94E4165C
:102AC0000E94D61638F00E94DD1620F039F49F3FA0
:102AD00019F426F40C94D3160EF4E095E7FB0C944D
:102AE000CD16E92F0E94F51658F3BA17620773073F
:102AF0008407950720F079F4A6F50C9417170EF4C7
:102B0000E0950B2EBA2FA02D0B01B90190010C01FD
:102B1000CA01A0011124FF27591B99F0593F50F415
:102B2000503E68F11A16F040A22F232F342F44276D
:102B3000585FF3CF469537952795A795F040539565
:102B4000C9F77EF41F16BA0B620B730B840BBAF035
:102B50009150A1F0FF0FBB1F661F771F881FC2F7A0
:102B60000EC0BA0F621F731F841F48F487957795B4
:102B70006795B795F7959E3F08F0B0CF9395880F6E
:102B800008F09927EE0F9795879508950E94A9164A
:102B900008F481E008950E94DF150C94E4160E9469
:102BA000DD1658F00E94D61640F029F45F3F29F058
:102BB0000C94CD1651110C9418170C94D3160E9436
:102BC000F51668F39923B1F3552391F3951B550B33
:102BD000BB27AA2762177307840738F09F5F5F4FF0
:102BE000220F331F441FAA1FA9F335D00E2E3AF02F
:102BF000E0E832D091505040E695001CCAF72BD047
:102C0000FE2F29D0660F771F881FBB1F2617370797
:102C10004807AB07B0E809F0BB0B802DBF01FF27C9
:102C200093585F4F3AF09E3F510578F00C94CD16C3
:102C30000C9418175F3FE4F3983ED4F3869577958C
:102C40006795B795F7959F5FC9F7880F911D969582
:102C5000879597F90895E1E0660F771F881FBB1FDE
:102C6000621773078407BA0720F0621B730B840B8B
:102C7000BA0BEE1F88F7E09508950E94FD1688F0C4
:102C80009F5798F0B92F9927B751B0F0E1F0660F30
:102C9000771F881F991F1AF0BA95C9F714C0B13071
:102CA00091F00E941717B1E008950C941717672F41
:102CB000782F8827B85F39F0B93FCCF386957795A0
:102CC0006795B395D9F73EF4909580957095619589
:102CD0007F4F8F4F9F4F0895E89409C097FB3EF4B4
:102CE00090958095709561957F4F8F4F9F4F992359
:102CF000A9F0F92F96E9BB279395F69587957795D7
:102D00006795B795F111F8CFFAF4BB0F11F460FF96
:102D10001BC06F5F7F4F8F4F9F4F16C0882311F0EE
:102D200096E911C0772321F09EE8872F762F05C002
:102D3000662371F096E8862F70E060E02AF09A959D
:102D4000660F771F881FDAF7880F9695879597F992
:102D50000895990F0008550FAA0BE0E8FEEF16162C
:102D60001706E807F907C0F012161306E407F5077F
:102D700098F0621B730B840B950B39F40A2661F0F3
:102D8000232B242B252B21F408950A2609F4A14096
:102D9000A6958FEF811D811D089597F99F6780E8A3
:102DA00070E060E008959FEF80EC089500240A949D
:102DB0001616170618060906089500240A94121616
:102DC0001306140605060895092E0394000C11F449
:102DD000882352F0BB0F40F4BF2B11F460FF04C0F6
:102DE0006F5F7F4F8F4F9F4F089557FD9058440F4F
:102DF000551F59F05F3F71F04795880F97FB991F5A
:102E000061F09F3F79F08795089512161306140616
:102E1000551FF2CF4695F1DF08C0161617061806A3
:102E2000991FF1CF86957105610508940895E8947E
:102E3000BB2766277727CB0197F908950E94A9162B
:102E400008F48FEF08950E9436170C94E4160E9440
:102E5000D61638F00E94DD1620F0952311F00C9460
:102E6000CD160C94D31611240C9418170E94F51645
:102E700070F3959FC1F3950F50E0551F629FF001CD
:102E8000729FBB27F00DB11D639FAA27F00DB11DE6
:102E9000AA1F649F6627B00DA11D661F829F22276F
:102EA000B00DA11D621F739FB00DA11D621F839FF6
:102EB000A00D611D221F749F3327A00D611D231FCC
:102EC000849F600D211D822F762F6A2F11249F571A
:102ED00050409AF0F1F088234AF0EE0FFF1FBB1F1D
:102EE000661F771F881F91505040A9F79E3F5105DC
:102EF00080F00C94CD160C9418175F3FE4F3983EC5
:102F0000D4F3869577956795B795F795E7959F5F85
:102F1000C1F7FE2B880F911D9695879597F9089517
:102F2000A8E1B0E042E050E00C949D170E94AB177E
:102F3000272F0C94AC17DC01CB01FC01F999FECFD3
:102F400006C0F2BDE1BDF89A319600B40D92415031
:102F50005040B8F70895262FF999FECF1FBA92BDB9
:102F600081BD20BD0FB6F894FA9AF99A0FBE01966A
:062F70000895F894FFCF64
:102F7600C904F004FB0406050B0513051E0522050E
:102F86002A0531053C05430549054D054305490517
:102F96004D0551055C0566056E05760581054305FB
:102FA60051055C0566056E05760581058B0596055A
:102FB600A105A90543058B059605A105B3058B0556
:102FC6009605A10543058B059605A105BD05A10539
:102FD6004305BD05A105C605CD05D605DD05430599
:102FE600C605CD05D605DD05E605F0054305E6056E
:102FF600F0050001000001000000000000000103D0
:103006000201000000000000020B020303010000A1
:1030160000000000120B030104020C000000000077
:103026000000040105031100000000000000050176
:1030360006041E0000000000000006010705270028
:10304600000000000000070108062E000000000036
:103056000000080109073300000000000000090114
:103066000A0809000000000000000A010A093C00E5
:103076000000000000000B010B0A00000000000029
:1030860000000C010D0C0F000000000000000D01F7
:103096000E0C10000000000000000E010E0D0300D3
:1030A6000000000000000F0200000C10000063008A
:1030B6000000100200000D12000063000000110164
:1030C600121118000000000000001201131119006F
:1030D600000000000000130114121A000000000096
:1030E6000000140115131B0000000000000015016C
:1030F60016141C00000000000000160117151D0024
:103106000000000000001701171604000000000070
:10311600000018020000112000002C010000190216
:10312600000012220000640000001A0200001324AE
:103136000000640000001B02000014280000E703E2
:1031460000001C020000152A00002C0100001D02D0
:103156000000162C0000640000001E011F1E230044
:103166000000000000001F01201E240000000000D7
:1031760000002001211F25000000000000002101A1
:103186002220260000000000000022012221050066
:10319600000000000000230200001E420000630041
:1031A6000000240200001F44000063000000250206
:1031B60000002048000064000000260200002140B4
:1031C60000002C010000270128272B00000000002A
:1031D6000000280129272C0000000000000029011A
:1031E6002A282D000000000000002A012A290600D6
:1031F6000000000000002B020000275000006300C2
:1032060000002C02000028520000630000002D027E
:10321600000029540000640000002E012F2E31000A
:103226000000000000002F01302E320000000000D8
:1032360000003001302F07000000000000003102BE
:1032460000002E6000002C010000320200002F62F8
:103256000000630000003301343338000000000032
:10326600000034013533390000000000000035014C
:1032760036343A00000000000000360137353B00C6
:10328600000000000000370137360800000000008B
:10329600000038020000332E0000640000003902EE
:1032A600000034300000630000003A02000035647C
:1032B6000000640000003B02000036680000630066
:1032C60000003C013D3C3F000000000000003D01C5
:1032D6003E3C40000000000000003E013E3D0A006A
:1032E6000000000000003F0200003C1400006300E4
:1032F6000000400200003D180000630000000001CD
:10330600000000750601020104045A0902030204C2
:10331600048A0803040304046E07040504000087F6
:103326000605010500002F060600060000210620FE
:1033360020202020202020202000202020202020A7
:1033460020207C0031362E31302E31397C004D451F
:103356004E493A003E00533A002F00543A004300CB
:1033660053746172742F53746F700050757A204FC6
:103376006E2F4F66660054656D7000506F747061F5
:103386006C61005374616269696C697A61005261AB
:103396006400476173656E6A6500506C616D656EA9
:1033A60000446174756D206920567200536572760B
:1033B600697300497A6C617A004D696E004D6178D7
:1033C6000042727A696E6120562031005672656D30
:1033D6006520562031005672656D65204400567290
:1033E600656D6520470042727A696E61205620320B
:1033F600005672656D652056203200446F7A6174FE
:103406006F72206F6E00446F7A61746F72206F6600
:10341600005672656D6520560042726F6A20706FA5
:103426006E2E00556B75706E6F2076720042727A42
:10343600696E61205600506C206D696E00506C20DC
:103446006D696E207600506C206D617800506C209E
:103456006D61782076004B7269742074656D70001A
:1034660053746172742074656D70004B5249542018
:1034760054454D00473A5241440054454D5000478B
:0C3486003A53454E5A4F52004F4B4F0036
:00000001FF
