:100000000C9456000C9473000C9473000C947300C1
:100010000C9473000C9473000C9473000C94730094
:100020000C9473000C94DA020C9473000C9473001B
:100030000C9473000C9473000C9473000C94730074
:100040000C9473000C94BA120C9473000C9473000B
:100050000C9473000C9473000C9473000C94730054
:100060000C9473000C9473000C9473000C94730044
:100070000C9473000C9473000C9473000C94730034
:100080000C9473000C9473000C9473000C94730024
:100090000C9473000C9473000C9473000C94730014
:1000A0000C9473000C9473000C94730011241FBE05
:1000B000CFEFDAE0DEBFCDBF16E0A0E0B1E0ECECC0
:1000C000F1E302C005900D92A838B107D9F726E0F8
:1000D000A8E8B6E001C01D92A33CB207E1F70E9478
:1000E00035160C94E4180C94000080B38C7880BB17
:1000F000549A5C98089561E070E080E090E00C9480
:10010000D81160E070E0CB010C94D8112FB130E031
:10011000A90102C0559547958A95E2F7CA018095D5
:10012000909581700895682F41E084E00C947113DC
:10013000682F40E084E00C947113CF93DF93D82FA5
:10014000C92F63E08AE00E94CB0486E395E00E9419
:10015000CD0463E08AE00E94CB048D2F9C2FDF91B9
:10016000CF910C94CF04EF92FF920F931F93CF93F4
:10017000DF937C01EB018A0161E08AE00E94CB04FD
:1001800086E395E00E94CD040115110539F061E088
:100190008AE00E94CB04C8010E94CD0462E08AE09C
:1001A0000E94CB0486E395E00E94CD0462E08AE0E1
:1001B0000E94CB04C7010E94CD0463E08AE00E9444
:1001C000CB0486E395E00E94CD04209769F063E0BC
:1001D0008AE00E94CB04CE01DF91CF911F910F9155
:1001E000FF90EF900C94CD04DF91CF911F910F9170
:1001F000FF90EF900895F89484B184B9E8E6F0E0B8
:10020000808181608083EBE6F0E08081806580837F
:10021000789481E080938F0683B18295817080937A
:100220008D0683B185FB882780F980938C0683B186
:1002300086FB882780F980938E0660E080E00E942C
:10024000CB0481E495E00E94CD0461E080E00E944F
:10025000CB0481E495E00E94CD0462E080E00E943E
:10026000CB0481E495E00E94CD0463E080E00E942D
:10027000CB0481E495E00E94CD0460E08CE00E9414
:10028000CB048BE495E00E94CD0462E089E00E94FB
:10029000CB0481E595E00E94CD0480918F06E82F84
:1002A000F0E09F01220F331FE20FF31FEE0FFF1F3D
:1002B000EE0FFF1FEE56FE4FE281F0E0EE0FFF1F44
:1002C000E050FF4F6081718120503F4F50E040E08F
:1002D000F901808191810E94B300109289060895EE
:1002E000EF92FF920F931F93CF93DF93D82FC92FD5
:1002F0008B018EE290E00E9431167C0160E080E08C
:100300000E94CB0488E395E00E94CD0460E080E089
:100310000E94CB0483E595E00E94CD04C7010E94B2
:10032000CF0486E595E00E94CD04C8010E94CF0469
:1003300061E080E00E94CB0488E395E00E94CD0458
:1003400061E080E00E94CB0488E595E00E94CD0446
:100350008D2F9C2F0E94CF048BE595E0DF91CF91EC
:100360001F910F91FF90EF900C94CD040F931F936A
:10037000CF93DF938C01D62FC72F62E080E00E94DD
:10038000CB0488E395E00E94CD0462E080E00E9407
:10039000CB04C8010E94CD0463E080E00E94CB043E
:1003A00088E395E00E94CD0463E080E00E94CB04E6
:1003B0008D2F9C2FDF91CF911F910F910C94CD0425
:1003C00080918806833009F452C008F042C0813021
:1003D00009F491C08230D1F540918F06E42FF0E00E
:1003E0009F01220F331FD901A050BF4F8D919C91C7
:1003F000D901AE0FBF1FAA0FBB1FAA0FBB1FAE565E
:10040000BE4F1296AC914A1779F1AA2369F1B0E078
:10041000AA0FBB1FA050BF4F6D917C91E20FF31F3D
:10042000EE0FFF1FEE0FFF1FEE56FE4FE3814E173C
:1004300009F4BDC0EE2309F4BAC0F0E0EE0FFF1FCF
:10044000E050FF4F408151810E94B3001092880616
:1004500008958430D9F780918A0690918B060E9486
:100460009D0010928806089570E060E0D7CFE0917B
:100470008F06F0E0EE0FFF1FE050FF4F50E040E02E
:1004800070E060E0808191810E94B300E0918F066E
:100490008E2F90E0FC01EE0FFF1FE80FF91FEE0F0B
:1004A000FF1FEE0FFF1FEE56FE4F858190E00E946A
:1004B00031169C0190938B0680938A06E0918F06FB
:1004C0008E2F90E0FC01EE0FFF1FE80FF91FEE0FDB
:1004D000FF1FEE0FFF1FEE56FE4F868197812817F4
:1004E000390708F45DC0408551854217530708F469
:1004F00057C0C901B4CF0E94BD0460E080E00E94F3
:10050000CB0481E495E00E94CD0461E080E00E948C
:10051000CB0481E495E00E94CD0462E080E00E947B
:10052000CB0481E495E00E94CD0463E080E00E946A
:10053000CB0481E495E00E94CD0460E08CE00E9451
:10054000CB048BE495E00E94CD0462E089E00E9438
:10055000CB0481E595E00E94CD0480918F06E82FC1
:10056000F0E09F01220F331FE20FF31FEE0FFF1F7A
:10057000EE0FFF1FEE56FE4FE281F0E0EE0FFF1F81
:10058000E050FF4F6081718120503F4F50E040E0CC
:10059000F901808191810E94B3001092880608952C
:1005A00090938B0680938A060E949D005ACF50E05C
:1005B00040E04ACF1F920F920FB60F921124EF9294
:1005C000FF921F932F933F934F935F936F937F936C
:1005D0008F939F93AF93BF93CF93DF93EF93FF934B
:1005E000C3B1C295C17013B115FB112710F9D3B176
:1005F000D6FBDD27D0F980918D068C1709F491C0C8
:10060000DD2329F090918E06992309F496C0CC231E
:1006100039F180E090918906890F809389068230B4
:1006200054F58F3F0CF4A5C0C0938D0610938C0633
:10063000D0938E06FF91EF91DF91CF91BF91AF9153
:100640009F918F917F916F915F914F913F912F91EA
:100650001F91FF90EF900F900FBE0F901F90189575
:1006600081E01123B9F28FEF90918906890F809371
:1006700089068230B4F220918F06822F90E0FC012F
:10068000EE0FFF1FE80FF91FEE0FFF1FEE0FFF1F0A
:10069000EE56FE4F8181823009F487C0928129177E
:1006A000E9F190938F06E92FF0E09F01220F331FAD
:1006B000D901A050BF4FED90FC90D901AE0FBF1FE4
:1006C000AA0FBB1FAA0FBB1FAE56BE4F1296AC910E
:1006D0009A1709F464C0AA2309F461C0B0E0AA0F14
:1006E000BB1FA050BF4F6D917C91E20FF31FEE0F27
:1006F000FF1FEE0FFF1FEE56FE4FE3819E1709F41A
:1007000051C0EE2309F44EC0F0E0EE0FFF1FE050A1
:10071000FF4F40815181C7010E94B30010928906AA
:1007200083CF90918C06911709F451C0DD2309F411
:1007300070CF90918E0691116CCFE0918F062E2F85
:1007400030E0F901EE0FFF1FE20FF31FEE0FFF1F66
:10075000EE0FFF1FEE56FE4F9181923009F44EC00E
:10076000933009F4A4C0913009F4ABC0C8134FCF43
:1007700050CF20918F06822F90E0FC01EE0FFF1FDB
:10078000E80FF91FEE0FFF1FEE0FFF1FEE56FE4F93
:100790008181823009F19381291383CFBFCF70E02B
:1007A00060E0A3CF50E040E0B6CF80918A06909100
:1007B0008B06208531858217930708F0AFCF01960D
:1007C00090938B0680938A060E949D00A7CF9091FC
:1007D0008E069D13ABCF2ECF80918A0690918B060B
:1007E000268137812817390708F098CF0197909311
:1007F0008B0680938A060E949D0090CF60918A06A6
:1008000070918B06858190E00E943316E0918F06EF
:100810008E2F90E0FC01EE0FFF1FE80FF91FEE0F87
:10082000FF1FEE0FFF1FEE56FE4F448140938F06D1
:10083000E42FF0E09F01220F331FD901A050BF4FDA
:100840008D919C91D901AE0FBF1FAA0FBB1FAA0F9C
:10085000BB1FAE56BE4F1296AC914A1711F1AA2398
:1008600001F1B0E0AA0FBB1FA050BF4F6D917C916A
:10087000E20FF31FEE0FFF1FEE0FFF1FEE56FE4FAE
:10088000E3814E1789F0EE2379F0F0E0EE0FFF1FC1
:10089000E050FF4F408151810E94B30080918D064E
:1008A00065CF70E060E0E4CF50E040E0F5CF028437
:1008B000F385E02D309709F459CF099580918D0685
:1008C00055CF448140938F06E42FF0E09F01220F23
:1008D000331FD901A050BF4F8D919C91D901AE0F0C
:1008E000BF1FAA0FBB1FAA0FBB1FAE56BE4F11964C
:1008F0005C911197523009F0AECF50E040E070E0CB
:1009000060E00E94B30080918F0690E0FC01EE0F42
:10091000FF1FE80FF91FEE0FFF1FEE0FFF1FEE5630
:10092000FE4F858190E00E9431169C0190938B06CA
:1009300080938A0680918F0690E0FC01EE0FFF1FE6
:10094000E80FF91FEE0FFF1FEE0FFF1FEE56FE4FD1
:10095000868197812817390758F0808591858217FD
:10096000930730F0C9010E949D0080918D06FECE54
:1009700090938B0680938A06F6CF8CE00E94CE156A
:100980000E9444150E94601580E00C944A150C9456
:1009900044150C9460150C9418150C94AD15CF9259
:1009A000DF92EF92FF920F931F93CF93DF93CDB718
:1009B000DEB72A970FB6F894DEBF0FBECDBF009703
:1009C00009F44EC097FD41C08E010F5F1F4FF80123
:1009D00020E03AE0C32ED12C7F01E20EF11CB601DB
:1009E0000E943A16805DD7018C93CB012F5F009750
:1009F00099F7DF01A20FB11D1C922695A1F0BD0150
:100A0000CF0101962150820F911D2191DB013E9172
:100A1000BD01AF0141505109DA013C93DB012C9338
:100A20008E179F0791F7C8010E94AD152A960FB641
:100A3000F894DEBF0FBECDBFDF91CF911F910F9114
:100A4000FF90EF90DF90CF9008952DE2298391954C
:100A500081959109FE0132968E010F5F1F4FB8CF2D
:100A600080E389831A828E010F5F1F4FDCCF4F9284
:100A70005F926F927F929F92AF92BF92CF92DF92DE
:100A8000EF92FF920F931F93CF93DF9300D000D08C
:100A900000D0CDB7DEB70E944D0D5B016C016983BC
:100AA000BA828B83DC8269817A818B819C810E94EE
:100AB00068176D837E832D813E81232BA1F40E94D4
:100AC0004D0D5B016C016983BA828B83DC82698185
:100AD0007A818B819C810E9468176D837E834D8112
:100AE0005E81452B61F38AE0982EE12CF12C00E029
:100AF00010E087E00E94C90C9C0150E040E029838F
:100B00003A834B835C83CA01B9010E9497179B010A
:100B1000AC01E982FA820B831C8369817A818B8123
:100B20009C810E9485167B018C019A949110E1CFE3
:100B300020E030E040E251E46983FA828B831C8339
:100B400069817A818B819C810E94F61669837A8300
:100B50008B839C8369817A818B819C810E94681739
:100B6000462F572F4F3F33E0530709F4D7C0109259
:100B70009006CA01B0E0A0E089839A83AB83BC836E
:100B8000BA01CD010E94971720E030EC4FE754E402
:100B900069837A838B839C8369817A818B819C8131
:100BA0000E94841620E030E048EC52E469837A83A6
:100BB0008B839C8369817A818B819C810E944E18F2
:100BC00020E030EC46E654EC69837A838B839C8387
:100BD00069817A818B819C810E94F61620E030E049
:100BE000A90169837A838B839C8369817A818B8154
:100BF0009C810E94851669837A838B839C8369819B
:100C00007A818B819C810E9468172B019B0150E0A7
:100C100040E029833A834B835C83CA01B2010E947E
:100C200097177B018C012091930630919406409197
:100C30009506509196066983FA828B831C8369819D
:100C40007A818B819C810E94F116811154C095019B
:100C5000A6016091970670919806809199069091EF
:100C60009A060E94F116811146C0A701B80140936F
:100C70009306509394066093950670939606C5016B
:100C8000D6018093970690939806A0939906B09307
:100C90009A0680919106909190069817A1F0F89489
:100CA00080919006823009F445C068F58823D1F11F
:100CB00067E676E080E796E00E94B6010E947B003E
:100CC0007894809190068093910626960FB6F894BA
:100CD000DEBF0FBECDBFDF91CF911F910F91FF906F
:100CE000EF90DF90CF90BF90AF909F907F906F90EC
:100CF0005F904F900895F894B2018D819E810E947B
:100D000070017894B2CF8330D9F664E876E08BE74F
:100D100096E00E94B6010E947B00D2CF83E08093D0
:100D2000900627CF60E475E0CB010E94B6010E94D7
:100D30008100C6CF66E776E08BE796E00E94B601B9
:100D40000E947B00BDCF0F931F93CF93DF9300D002
:100D500000D00F92CDB7DEB780E190E00E9431164F
:100D60008C010E943705809190068D838130B9F106
:100D7000811132C0C801B0E0A0E089839A83AB83BF
:100D8000BC83B801CD010E9497172091970630913E
:100D900098064091990650919A0669837A838B83CD
:100DA0009C8369817A818B819C810E9449181816E5
:100DB00044F0AFE3BCE91197F1F700C00000B1E0E7
:100DC000BD838D810F900F900F900F900F90DF914A
:100DD000CF911F910F91089592E09D83F2CF83E010
:100DE0008D83EFCFCF92DF92EF92FF920F931F93FD
:100DF000CF93DF93CDB7DEB72A970FB6F894DEBF57
:100E00000FBECDBF88E690E00E94311608EE809FAD
:100E1000002D112484E690E00E9431166C0182E6D8
:100E200090E00E94311689839A8380E690E00E94C8
:100E3000311628EE33E0829F7001839FF00C929F61
:100E4000F00C1124A981BA81CD01B0E0A0E0898322
:100E50009A83AB83BC83BC01CD010E94971720E02D
:100E600030E040E251E469837A838B839C8369811B
:100E70007A818B819C810E944E1820E030E048EC02
:100E800052E469837A838B839C8369817A818B8125
:100E90009C810E94F61620E030E040E251E4698334
:100EA0007A838B839C8369817A818B819C810E9468
:100EB000851669837A838B839C8369817A818B8190
:100EC0009C810E946817862F90E0B0E0A0E08983A3
:100ED0009A83AB83BC83BC01CD010E94A0111A860A
:100EE0001986C601B0E0A0E08D839E83AF83B887EA
:100EF000002E000C110B0E94370580919006813066
:100F000009F457C06D817E818F8198850E94971763
:100F10002091930630919406409195065091960643
:100F200069837A838B839C8369817A818B819C819D
:100F30000E94491887FD2EC0A985BA851A96BA87DE
:100F4000A987A017B10740F18FE39CE90197F1F75A
:100F500000C000001A82198211C00E9437058FE379
:100F60009CE90197F1F700C00000A981BA811A96A7
:100F7000BA83A983809190068130D9F089819A81C2
:100F80008E159F0550F360E070E0CB010E94A01128
:100F900080E010C01A861986AFE3BCE91197F1F71B
:100FA00000C000000E94370580919006813009F052
:100FB000A9CF83E02A960FB6F894DEBF0FBECDBF4F
:100FC000DF91CF911F910F91FF90EF90DF90CF9025
:100FD00008950C94F206CF930E94370580919006F5
:100FE0008130A1F0C0919206CC2351F08FE39CE9AF
:100FF0000197F1F700C00000C1E08C2FCF91089558
:1010000080E00E946B118C2FCF910895C3E08C2F4C
:10101000CF910895BF92CF92DF92EF92FF920F93FC
:101020001F93CF93DF93CDB7DEB762970FB6F894D7
:10103000DEBF0FBECDBF84E590E00E943116B82E12
:1010400080E590E00E94311628EE33E0829F800117
:10105000839F100D929F100D112482E590E00E9455
:101060003116A8EEB3E08A9F70018B9FF00C9A9F17
:10107000F00C112482E190E00E9431168D839E8352
:1010800084E190E00E9431166C018B2D90E0B0E07D
:10109000A0E089839A83AB83BC83BC01CD010E940D
:1010A000A011AD81BE81CD01B0E0A0E089879A8713
:1010B000AB87BC87C601B0E0A0E08D879E87AF8775
:1010C000B88B84E00E9493000115110509F473C0E8
:1010D0001A8A198A41C08091970690919806A0912A
:1010E0009906B0919A068D839E83AF83B8876985F0
:1010F0007A858B859C850E9497172D813E814F8133
:10110000588569837A838B839C8369817A818B81FB
:101110009C810E94F1161816BCF56D857E858F8521
:1011200098890E9497179B01AC016D817E818F8108
:1011300098850E94491887FF34C0AFE3BCE9119736
:10114000F1F700C0000029893A89265F3F4F3A8BAA
:10115000298B2017310778F50E943705809190067A
:10116000813009F0B8CF83E062960FB6F894DEBF05
:101170000FBECDBFDF91CF911F910F91FF90EF90E8
:10118000DF90CF90BF90089584E00E94980060E0C7
:1011900070E0CB010E94A01180E0E6CF81E0809357
:1011A000900684E00E94980060E070E0CB010E940D
:1011B000A01183E0D9CF84E00E949800E114F104EB
:1011C00009F47FCF1A8A198A43C0809197069091BB
:1011D0009806A0919906B0919A068D839E83AF835D
:1011E000B88769857A858B859C850E9497172D81A4
:1011F0003E814F81588569837A838B839C83698183
:101200007A818B819C810E94F11618160CF0BCCF5C
:101210006D857E858F8598890E9497179B01AC010B
:101220006D817E818F8198850E94491887FFB6CF96
:10123000AFE3BCE91197F1F700C0000029893A89B2
:10124000265F3F4F3A8B298B2E153F0508F039CF8B
:101250000E94370580919006813009F0B6CF83CF88
:10126000AF92BF92CF92DF92EF92FF920F931F93B4
:10127000CF93DF9300D000D0CDB7DEB780E490E00D
:101280000E9431166C0188E490E00E943116898337
:101290009A8382E490E00E94311628EEA22E23E089
:1012A000B22E8A9D80018B9D100D9A9D100D1124E8
:1012B00084E490E00E9431168A9D70018B9DF00CB1
:1012C0009A9DF00C1124A981BA81CD01B0E0A0E073
:1012D00089839A83AB83BC83BC01CD010E9497179D
:1012E00020E030E048E951E469837A838B839C8372
:1012F00069817A818B819C810E944E1820E030E0C8
:1013000048EC52E469837A838B839C8369817A8178
:101310008B819C810E94F61620E030E040E85FE37C
:1013200069837A838B839C8369817A818B819C8199
:101330000E94851669837A838B839C8369817A8175
:101340008B819C810E946817862F90E0B0E0A0E01E
:1013500089839A83AB83BC83BC01CD010E94A01119
:10136000C114D10409F440C0B12CA12C84E00E9426
:1013700093001A82198211C00E943705AFE3BCE9BD
:101380001197F1F700C0000089819A810A969A832B
:10139000898380919006813071F1A981BA81A0176B
:1013A000B10750F384E00E9498001A82198211C09C
:1013B0000E9437058FE39CE90197F1F700C0000018
:1013C000A981BA811A96BA83A98380919006813047
:1013D00091F089819A818E159F0550F39FEFA91A8C
:1013E000B90ACA14DB0411F660E070E0CB010E9478
:1013F000A01180E001C083E00F900F900F900F903C
:10140000DF91CF911F910F91FF90EF90DF90CF90E0
:10141000BF90AF9008956F927F928F929F92AF92FC
:10142000BF92CF92DF92EF92FF920F931F93CF93D1
:10143000DF93CDB7DEB72E970FB6F894DEBF0FBEA1
:10144000CDBF82E290E00E943116982E80E290E0BB
:101450000E94311628EE33E0829FA001839F500D39
:10146000929F500D11245E834D8384E290E00E9490
:1014700031167C0188E290E00E9431166C018CE20A
:1014800090E00E943116782E8AE290E00E94311698
:101490005C018EE290E00E9431168C0180E390E0C6
:1014A0000E943116682E53E1959EC001112464E616
:1014B00070E00E943A166F5F862F90E0B0E0A0E0E7
:1014C00089839A83AB83BC83BC01CD010E94A011A8
:1014D000912C812C10C00E943705AFE3BCE9119715
:1014E000F1F700C00000BAE08B0E911C80919006CD
:1014F000813009F4B7C02D813E818216930658F3DE
:1015000060E070E0CB010E94A0118FEF0E946B1190
:1015100088EE93E0E89EA001E99E500DF89E500DE4
:1015200011245A834983F12CE12C10C00E94370505
:101530008FE39CE90197F1F700C000009AE0E90E03
:10154000F11C80919006813009F48CC0A981BA8188
:10155000EA16FB0658F388EEE82E83E0F82ECE9CC0
:101560009001CF9C300DDE9C300D11243E872D87DD
:1015700080E00E946B1184E00E9493004D855E859F
:10158000452B09F485C0AE9C6001AF9CD00CBE9C7D
:10159000D00C112453E1759EC001112464E670E063
:1015A0000E943A166F5F862F90E0B0E0A0E0898736
:1015B0009A87AB87BC8788EE689E602C1124712CBB
:1015C000B12CA12CF12CE12C912C980150E040E0A1
:1015D0002D833E834F83588712C0AB2899F557015E
:1015E0008FE39CE90197F1F700C000009AE0E90E53
:1015F000F11CAD85BE85EA16FB0608F049C0EC1467
:10160000FD0420F0992021F1992493940E9437053C
:101610006D817E818F8198850E9497172091930616
:1016200030919406409195065091960669837A838D
:101630008B839C8369817A818B819C810E94F116C6
:1016400087FDCBCF6E147F0468F1B12CA12CC8CFDD
:1016500069857A858B859C850E94A0118091900672
:10166000813091F683E02E960FB6F894DEBF0FBE60
:10167000CDBFDF91CF911F910F91FF90EF90DF9041
:10168000CF90BF90AF909F908F907F906F90089574
:1016900060E070E0CB010E94A01184E00E949800FD
:1016A00082E0E1CF60E070E0CB010E94A01184E015
:1016B0000E94980080E0D7CFCF930E943705809199
:1016C00090068130D9F0C0919206C11110C090E00F
:1016D00080E00E943116892B39F48FE39CE9019751
:1016E000F1F700C00000C1E08C2FCF9108958FEF7B
:1016F0000E946B11C2E08C2FCF910895C3E08C2F14
:10170000CF91089510929B06109290061092910628
:101710000E94E40D0E94E0120E9475000E944E118A
:101720000E946E110E94C4110E94C10C78940E9404
:10173000BD040E94FB002FEF83ED90E32150804019
:101740009040E1F700C0000090E080E00E94311678
:10175000892B09F4089580E190E00E94311682E11E
:1017600090E00E94311684E190E00E94311684E1FD
:1017700090E00E9431168EE290E00E94311684E6DD
:1017800090E00E9431160E944D0D87E00E94C90C26
:1017900085E080939B060895E0919B0687E0E89F93
:1017A000F0011124E250FB4F0580F681E02D0995F0
:1017B000E0919B068230C9F060F4882301F187E054
:1017C000E89FF0011124E250FB4FE281E0939B0679
:1017D000E5CF833019F787E0E89FF0011124E2504C
:1017E000FB4FE481E0939B06D9CF87E0E89FF001AF
:1017F0001124E250FB4FE381E0939B06CFCF87E0BB
:10180000E89FF0011124E250FB4FE181E0939B0639
:10181000C5CF61E070E090E080E00C94331670E09A
:1018200060E090E080E00C94331681E080939206B3
:10183000089510929206089580919B06811106C02A
:1018400061E070E090E080E00C94331670E060E0BE
:1018500090E080E00C94331680919B06882319F069
:10186000863009F0089580919206882319F010922D
:101870009206089581E08093920608950895089550
:101880001092B90088E18093B800089594EA90938B
:10189000BC009091BC0097FFFCCF9091B900987F5D
:1018A000983011F0903191F48093BB0084E88093DC
:1018B000BC008091BC0087FFFCCF9091B900987F5D
:1018C000983131F081E0903419F0089581E0089565
:1018D00080E0089524EA34E844E92093BC00909124
:1018E000BC0097FFFCCF9091B900987F983011F021
:1018F000903199F78093BB003093BC009091BC006D
:1019000097FFFCCF9091B900987F903219F09835ED
:1019100009F008954093BC009091BC0094FDFCCF69
:10192000DCCF0C94460C84E98093BC008091BC0011
:1019300084FDFCCF08958093BB0084E88093BC00B5
:101940008091BC0087FFFCCF9091B900987F81E027
:10195000983209F0089580E0089584EC8093BC00EB
:101960008091BC0087FFFCCF8091BB00089584E884
:101970008093BC008091BC0087FFFCCF8091BB00AE
:101980000895879880E480937C0087E880937A00AC
:10199000089590917C00987F8770982B90937C009D
:1019A00080917A00806480937A0080917A0086FD2D
:1019B000FCCF8091780090917900089576986E9A86
:1019C0008FE797E00197F1F700C000006E98EFEE07
:1019D000F0E03197F1F700C000008CB1EFE8F6E0DD
:1019E0003197F1F700C000008074089576986E9AE0
:1019F00095E09A95F1F7000081116E988FEE90E0D6
:101A00000197F1F700C000006E98089576986E9ADD
:101A100085E08A95F1F700006E989AE49A95F1F7BF
:101A200000C08CB190EF9A95F1F786FB882780F97A
:101A3000089598E076986E9A25E02A95F1F70000CF
:101A400080FD6E98EFEEF0E03197F1F700C00000F6
:101A50006E988695915071F7089598E080E0769899
:101A60006E9A25E02A95F1F700006E982AE42A95EF
:101A7000F1F700C04CB120EF2A95F1F746FB222781
:101A800020F930E0A9015695542F442757954795E2
:101A90008695842B915019F70895CF93DF9300D04A
:101AA00000D0CDB7DEB7F89476986E9A8FE797E0BE
:101AB0000197F1F700C000006E98AFEEB0E011970B
:101AC000F1F700C000008CB18FE896E00197F1F7C4
:101AD00000C000008CEC0E94190D84E40E94190DD6
:101AE000789476986E9A95E09A95F1F700006E9842
:101AF000AAE4AA95F1F700C0669910C0B0EFBA95B4
:101B0000F1F776986E9A85E08A95F1F700006E9865
:101B10009AE49A95F1F700C0669BF0CFA0EFAA95E2
:101B2000F1F7F89476986E9A8FE797E00197F1F7BE
:101B300000C000006E98AFEEB0E01197F1F700C062
:101B400000008CB18FE896E00197F1F700C000002B
:101B50008CEC0E94190D8EEB0E94190D0E942D0D28
:101B600089830E942D0D282F789430E0322F222770
:101B70009981290F311DC901330FAA0BBB0B898332
:101B80009A83AB83BC83BC01CD010E94991720E0EE
:101B900030E040E85DE369837A838B839C836981CD
:101BA0007A818B819C810E944E1869837A838B8312
:101BB0009C8369817A818B819C810F900F900F901B
:101BC0000F90DF91CF9108951092CD0087E680931A
:101BD000CC0088E18093C90086E08093CA00089514
:101BE0008091C80087FFFCCF8091CE00089590912E
:101BF000C80095FFFCCF8093CE000895FC01908132
:101C0000992351F031968091C80085FFFCCF9093C5
:101C1000CE0091919111F7CF08959B01672B69F048
:101C2000FC01280F391F91918091C80085FFFCCFDE
:101C30009093CE00E217F307B1F70895EF92FF9269
:101C40000F931F93CF93DF93CDB7DEB72A970FB6CD
:101C5000F894DEBF0FBECDBF009709F452C0FE015D
:101C6000319697FD46C020E03AE0E32EF12C8F013B
:101C7000020F111DB7010E943A16805DD8018C93A6
:101C8000CB012F5F009799F7DF01A20FB11D1C92C6
:101C90002695A1F0BD01CF0101962150820F911D23
:101CA0002191DB013E91BD01AF0141505109DA01A3
:101CB0003C93DB012C938E179F0791F79981992311
:101CC00059F0FE0132968091C80085FFFCCF9093B9
:101CD000CE0091919111F7CF2A960FB6F894DEBFFE
:101CE0000FBECDBFDF91CF911F910F91FF90EF906D
:101CF00008952DE22983919581959109FE013296EF
:101D0000B2CF80E389831A8290E3DBCF6A9A3F9A4D
:101D10005798729A0895CF93DF9300D000D0CDB733
:101D2000DEB772988FE99FE00197F1F700C00000DD
:101D300020E087E090E061E070E04798AFE9BFE025
:101D40001197F1F700C000004F9B07C0AB01082EB0
:101D500001C0440F0A94EAF7242B479AEFE9FFE009
:101D60003197F1F700C00000019738F730E0322FCB
:101D7000222740E087E090E0E1E0F0E04798AFE91B
:101D8000BFE01197F1F700C000004F9B07C0BF01F3
:101D9000082E01C0660F0A94EAF7462B479AAFE96E
:101DA000BFE01197F1F700C00000019738F7242B2E
:101DB000729A22FD2FC0C9019695879596958795B1
:101DC000969587959C0150E040E029833A834B83A8
:101DD0005C83CA01B9010E94971720E030E040E817
:101DE0005EE369837A838B839C8369817A818B81AB
:101DF0009C810E944E1869837A838B839C836981BE
:101E00007A818B819C810F900F900F900F90DF91C2
:101E1000CF91089560E070E088EC92ECECCFCF9326
:101E2000DF9300D000D0CDB7DEB70E948B0E20E04C
:101E300030E040E151E469837A838B839C8369813C
:101E40007A818B819C810E944E1820E030E040EA2C
:101E500050E469837A838B839C8369817A818B8147
:101E60009C810E94F61620E030E040E052E4698355
:101E70007A838B839C8369817A818B819C810E9488
:101E8000851669837A838B839C8369817A818B81B0
:101E90009C810F900F900F900F90DF91CF9108953C
:101EA00089B182958695877091E08927817090E04D
:101EB0000895CF93DF9300D000D0CDB7DEB74D9912
:101EC000FECF5D9A25E02A95F1F700005E9835E097
:101ED0003A95F1F700004D99FECF28E180E090E0BF
:101EE000DC015E9A45E04A95F1F70000880F991FE2
:101EF000AA1FBB1F5E9855E05A95F1F700004D9B55
:101F000003C00196A11DB11D215059F726E0B695D9
:101F1000A795979587952A95D1F75E9A65E06A957A
:101F2000F1F700005E9825E02A95F1F700009C018A
:101F3000AD014058CA01B9010F900F900F900F905A
:101F4000DF91CF910895803439F0803889F0803264
:101F500049F05E980C94590F83E08093BE065E981A
:101F60000C94590F82E08093BE065E980C94590F32
:101F700081E08093BE065E980C94590F569A55984E
:101F80005D9A0C94A30F8F929F92AF92BF92CF92C3
:101F9000DF92EF92FF92CF93DF9300D000D000D07A
:101FA000CDB7DEB78E83882E912CB12CA12C88233F
:101FB00079F11D82C12CD12C76010E94590FC60ED9
:101FC000D71EE81EF91E8D818F5F8D839E81981329
:101FD000F4CFC701B601A50194010E944E162983D2
:101FE0003A834B835C8369817A818B819C812696BD
:101FF0000FB6F894DEBF0FBECDBFDF91CF91FF903B
:10200000EF90DF90CF90BF90AF909F908F9008950A
:1020100019821A821B821C82E6CF8F929F92AF9206
:10202000BF92CF92DF92EF92FF92CF93DF9300D0D7
:1020300000D000D0CDB7DEB78E83882E912CB12C86
:10204000A12C882309F449C01D82C12CD12C760112
:102050000E94590FC60ED71EE81EF91E8D818F5F94
:102060008D839E819813F4CFC701B601A501940119
:102070000E944E1629833A834B835C83CA01B901BF
:102080000E9497172091BA063091BB064091BC067A
:102090005091BD0669837A838B839C8369817A81A1
:1020A0008B819C810E94841669837A838B839C83B5
:1020B00069817A818B819C8126960FB6F894DEBF68
:1020C0000FBECDBFDF91CF91FF90EF90DF90CF900B
:1020D000BF90AF909F908F90089560E070E080E097
:1020E00090E0D0CFCF93DF9300D000D0CDB7DEB754
:1020F0000E940D102091BF063091C0064091C1068C
:102100005091C20669837A838B839C8369817A812B
:102110008B819C810E94F61669837A838B839C83D2
:1021200069817A818B819C810F900F900F900F9025
:10213000DF91CF9108958F929F92AF92BF92CF92ED
:10214000DF92EF92FF92CF93DF9300D000D000D0C8
:10215000CDB7DEB78E83882E912CB12CA12C88238D
:10216000E1F11D82C12CD12C76010E94590FC60EBF
:10217000D71EE81EF91E8D818F5F8D839E81981377
:10218000F4CFC701B601A50194010E944E16298320
:102190003A834B835C83CA01B9010E949717362F9B
:1021A000272F432F522FBC014093BA065093BB06F2
:1021B0006093BC067093BD0626960FB6F894DEBFFA
:1021C0000FBECDBFDF91CF91FF90EF90DF90CF900A
:1021D000BF90AF909F908F90089530E020E080E016
:1021E00090E0DFCF6093BF067093C0068093C10676
:1021F0009093C2060895CF93DF9300D000D0CDB75F
:10220000DEB78091BF069091C006A091C106B09143
:10221000C206BC01CD010F900F900F900F90DF917F
:10222000CF9108956093BA067093BB068093BC0665
:102230009093BD060895CF93DF9300D000D0CDB723
:10224000DEB78091BA069091BB06A091BC06B09112
:10225000BD06BC01CD010F900F900F900F90DF9144
:10226000CF9108955E985E9A87E191E00197F1F72A
:1022700000C0000008955E98089547E050E080E0B7
:102280005E9A29B12072042E01C0220F0A94EAF747
:10229000822B5E984150510998F70895F8943E9A20
:1022A0004698E4E9F0E011821082109299001092B1
:1022B000980010929B0010929A0010929D0010922C
:1022C0009C0081E88093900089E0809391001182C6
:1022D000108278940895809398000895F894279A2E
:1022E000A4E8B0E011961C921E92E8E8F0E011829A
:1022F000108210928B0010928A0010928D00109222
:102300008C0089E08093810082E080936F001196B9
:102310001C921E9280E89EE3918380831092AD060A
:102320001092AE061092AF061092B0061092A90657
:102330001092AA061092AB061092AC0678940895FB
:10234000462F572FBC01F8944431510561057105A2
:1023500021F441E050E060E070E04093AD0650931E
:10236000AE066093AF067093B0061092A906109265
:10237000AA061092AB061092AC061092850010923D
:1023800084002F9878940895F894549A1092A50692
:102390001092A6061092A7061092A8061092A10607
:1023A0001092A2061092A3061092A40678940895A3
:1023B000F8946093A5067093A6068093A706909361
:1023C000A8061092A1061092A2061092A3061092DF
:1023D000A40610928500109284005C987894089569
:1023E0001F93CF93DF93CDB7DEB72A970FB6F8943C
:1023F000DEBF0FBECDBF80919D0690919E06A0913D
:102400009F06B091A00680919C060E944D0D462F1C
:10241000572FBC0149835A836B837C8387E00E94DA
:10242000C90C89879A87182F80919D0690919E06E6
:10243000A0919F06B091A0068D839E83AF83B8873D
:1024400029813A814B815C81BC01CD010E94F1164A
:10245000811104C080919C06811779F069817A818D
:102460008B819C810E946817362F272F69857A857A
:102470007727832F922F0E94700189819A81AB81E7
:10248000BC8180939D0690939E06A0939F06B09377
:10249000A006998590939C062A960FB6F894DEBF05
:1024A0000FBECDBFDF91CF911F9108950895409148
:1024B000AD065091AE066091AF067091B006411521
:1024C00051056105710519F18091A9069091AA063F
:1024D000A091AB06B091AC060196A11DB11D8093F1
:1024E000A9069093AA06A093AB06B093AC06481732
:1024F00059076A077B0758F485B1805885B910924F
:10250000A9061092AA061092AB061092AC06089586
:102510004091A5065091A6066091A7067091A80665
:10252000411551056105710521F18091A106909138
:10253000A206A091A306B091A4060196A11DB11D0B
:102540008093A1069093A206A093A306B093A4063D
:10255000481759076A077B0760F48BB190E1892718
:102560008BB91092A1061092A2061092A3061092A7
:10257000A40608951F920F920FB60F9211242F9365
:102580003F934F935F936F937F938F939F93AF93FB
:10259000BF93EF93FF930E9457120E948812FF91FE
:1025A000EF91BF91AF919F918F917F916F915F91CB
:1025B0004F913F912F910F900FBE0F901F90189544
:1025C0000E94400C85E38A95F1F70000E2EBF6E00B
:1025D000108211821282138214821582168217824F
:1025E0000895883030F4E82FF0E0EE54F94F808100
:1025F00008958FEF0895883088F4683078F4E82FD4
:10260000F0E0EE54F94F8081082E000C990B02C0C7
:10261000959587956A95E2F7817008958FEF0895F3
:10262000CF93C62F8830A8F4E82FF0E0EE54F94F8E
:102630006083805E880F0E94460C81110CC08C2F35
:102640000E949B0C811107C00E94930C80E0CF91E7
:1026500008958FEFFCCF0E94930C8FEFF8CFCF93AC
:10266000DF938830D0F5E62FE41BFF0BDF01AF3F8F
:10267000FFEFBF0794F16150673078F5442369F1AB
:10268000E82FF0E0EE54F94F90811196022E000CE5
:10269000330B0A2E01C0220F0A94EAF7C1E0D0E002
:1026A00002C0CC0FDD1F4A95E2F72197AE0101C0B1
:1026B000440FAA95EAF7C92FC227C423C927C083AC
:1026C000805E880F0E94460C8C2F0E949B0C0E94FB
:1026D000930C80E0DF91CF9108958FEFDF91CF9140
:1026E0000895CF93883020F5683010F5E82FF0E09A
:1026F000EE54F94FC08121E030E001C0220F6A950D
:10270000EAF7411113C02095C223C083805E880F71
:102710000E94460C81110EC08C2F0E949B0C8111CF
:1027200009C00E94930C80E0CF910895C22BEDCF99
:102730008FEFFACF0E94930C8FEFF6CF41E00C940D
:10274000711340E00C947113CF93883080F490E0C3
:102750008096880F991F81600E94460C0E94B70CDA
:10276000C82FC0950E94930C8C2FCF910895CFEF66
:10277000FBCFCF93C62F883088F4683078F40E945E
:10278000A4138F3F59F0082E000C990B02C09595A9
:102790008795CA95E2F78170CF9108958FEFCF9119
:1027A000089562E080E00E949E1300C062E080E035
:1027B0000C94A113CF93C82F8091B106662309F41E
:1027C00044C081608093B1068091B1068D7F809373
:1027D000B1066091B10680E00E941013811132C0F1
:1027E0008091B1068F778093B1068091B1068F7B7F
:1027F0008093B1068091B1068F7D8093B106809160
:10280000B1068F7E8093B106C7FD7DC0C6FF05C0AF
:102810008091B10680648093B106C5FF05C08091A8
:10282000B10680628093B106C4FF05C08091B106F5
:1028300080618093B1066091B10680E00E94101320
:10284000882339F080E0CF9108958E7F8093B10680
:10285000BBCF0E94D1138091B1068F778093B106D0
:102860008091B1068F7B8093B1068091B1068F7DF8
:102870008093B1068091B1068F7E8093B106C3FF2D
:1028800005C08091B10680688093B106C2FF05C083
:102890008091B10680648093B106C1FF05C080912C
:1028A000B10680628093B106C0FF05C08091B10679
:1028B00080618093B1066091B10680E00E941013A0
:1028C0008111C0CF0E94D1138091B10680618093A5
:1028D000B1068091B10680628093B1068091B10605
:1028E00080648093B1068091B10680688093B106C0
:1028F0006091B10680E00E941013982F81E0992327
:1029000009F4A1CF9FCF8091B10680688093B10672
:10291000C6FF83CF7DCFCF938091B1068E7F80930A
:10292000B1068091B10682608093B1066091B106D4
:1029300080E00E94101362E080E00E949E1300C0BD
:1029400064E080E00E94B913C0E18111C0E065E05D
:1029500080E00E94B913811101C0C06266E080E08E
:102960000E94B913811101C0C06467E080E00E9439
:10297000B913811101C0C06862E080E00E94A11318
:1029800000C062E080E00E949E1300C064E080E02E
:102990000E94B913811101C0C16065E080E00E940E
:1029A000B913811101C0C26066E080E00E94B913D2
:1029B000811101C0C46067E080E00E94B9138111F9
:1029C00001C0C86062E080E00E94A1138C2FCF910B
:1029D00008950E948B1487FDFCCF88E090E001975A
:1029E000F1F70C948B14CF93C82F0E94E91460E088
:1029F0008C2FCF910C94DA13CF93C82F0E94E91437
:102A000061E08C2FCF910C94DA13CF93C0E40E9435
:102A1000E91460E08C2F0E94DA130E94E91461E04F
:102A200080E00E94DA13CF5FC03889F7CF91089514
:102A3000CF93C82F6623A1F06130D1F0623041F00E
:102A40000E94E91460E084ED8C0FCF910C94DA13AE
:102A50000E94E91460E084E98C0FCF910C94DA13A2
:102A60000E94E91460E080E88C0FCF910C94DA1397
:102A70000E94E91460E080EC8C0FCF910C94DA1383
:102A80000E94E91490E008950E94E91460E081E05A
:102A90000C94DA13882351F08091B106877F8093DC
:102AA000B1066091B10680E00C9410138091B106DC
:102AB00088608093B1066091B10680E00C94101399
:102AC0000E94E91460E082E00C94DA13CF93C82FDF
:102AD0000E94E914CA3029F061E08C2FCF910C9448
:102AE000DA13C0EC843148F090EC980FC4E99431CB
:102AF00020F08451C0E88C3238F00E94E91460E084
:102B00008C2FCF910C94DA13C4EDF7CF0F931F9352
:102B1000CF93DF93C82F8B0181E0C83028F0DF917D
:102B2000CF911F910F9108950E94E91488E08C0FB6
:102B300060E0880F880F880F0E94DA13E801085FB1
:102B40001F4F89910E946615C017D107D1F780E009
:102B5000DF91CF911F910F910895CF93DF93EC01F7
:102B600004C00E946615882329F08881219681116E
:102B7000F8CF81E0DF91CF910895CF93DF93EC01FF
:102B800005C00E9466152196882329F0FE018491D4
:102B90008111F7CF81E0DF91CF9108951F93CF93FB
:102BA000DF93182F0E94E0121092B1066091B106D7
:102BB00080E00E94101380E09AEF0197F1F7809176
:102BC000B10680628093B1068091B10680618093E6
:102BD000B1066091B10680E00E9410130E94D113EB
:102BE00080E09EE40197F1F70E94D113C0E0D1E0AC
:102BF000CE010197F1F70E94D113CE010197F1F7B1
:102C00008091B1068F7E8093B1066091B10680E01D
:102C10000E9410130E94D1132197F1F70E94E9142A
:102C200060E088E20E94DA130E94E91460E088E024
:102C30000E94DA130E94E91460E081E00E94DA1336
:102C40000E94E91460E086E00E94DA130E94E91411
:102C500060E0812F0E94DA1381E0DF91CF911F9114
:102C600008950C94BB180C94C1180E94820B0E940A
:102C7000CC0BFFCF97FB072E16F4009407D077FDFF
:102C800009D00E94701607FC05D03EF490958195FE
:102C90009F4F0895709561957F4F0895A1E21A2E78
:102CA000AA1BBB1BFD010DC0AA1FBB1FEE1FFF1FF0
:102CB000A217B307E407F50720F0A21BB30BE40B40
:102CC000F50B661F771F881F991F1A9469F7609587
:102CD0007095809590959B01AC01BD01CF01089541
:102CE000AA1BBB1B51E107C0AA1FBB1FA617B70732
:102CF00010F0A61BB70B881F991F5A95A9F780954E
:102D00009095BC01CD0108955058BB27AA270E9479
:102D10009C160C940F180E94011838F00E94081895
:102D200020F039F49F3F19F426F40C94FE170EF4AA
:102D3000E095E7FB0C94F817E92F0E94201858F350
:102D4000BA17620773078407950720F079F4A6F590
:102D50000C9442180EF4E0950B2EBA2FA02D0B0107
:102D6000B90190010C01CA01A0011124FF27591BD0
:102D700099F0593F50F4503E68F11A16F040A22FD6
:102D8000232F342F4427585FF3CF46953795279547
:102D9000A795F0405395C9F77EF41F16BA0B620B46
:102DA000730B840BBAF09150A1F0FF0FBB1F661F8D
:102DB000771F881FC2F70EC0BA0F621F731F841FD0
:102DC00048F4879577956795B795F7959E3F08F0F6
:102DD000B0CF9395880F08F09927EE0F97958795B8
:102DE00008950E94D41708F481E008950E940A17FC
:102DF0000C940F180E94081858F00E94011840F017
:102E000029F45F3F29F00C94F81751110C944318E2
:102E10000C94FE170E94201868F39923B1F35523F0
:102E200091F3951B550BBB27AA27621773078407DD
:102E300038F09F5F5F4F220F331F441FAA1FA9F373
:102E400035D00E2E3AF0E0E832D091505040E69561
:102E5000001CCAF72BD0FE2F29D0660F771F881FC2
:102E6000BB1F261737074807AB07B0E809F0BB0BB5
:102E7000802DBF01FF2793585F4F3AF09E3F5105C9
:102E800078F00C94F8170C9443185F3FE4F3983EE5
:102E9000D4F3869577956795B795F7959F5FC9F7B2
:102EA000880F911D9695879597F90895E1E0660F33
:102EB000771F881FBB1F621773078407BA0720F0AC
:102EC000621B730B840BBA0BEE1F88F7E095089515
:102ED0000E94281888F09F5798F0B92F9927B7516A
:102EE000B0F0E1F0660F771F881F991F1AF0BA95AE
:102EF000C9F714C0B13091F00E944218B1E00895B2
:102F00000C944218672F782F8827B85F39F0B93FA3
:102F1000CCF3869577956795B395D9F73EF4909560
:102F20008095709561957F4F8F4F9F4F0895E894DE
:102F300009C097FB3EF490958095709561957F4F01
:102F40008F4F9F4F9923A9F0F92F96E9BB279395AF
:102F5000F695879577956795B795F111F8CFFAF4BF
:102F6000BB0F11F460FF1BC06F5F7F4F8F4F9F4FF0
:102F700016C0882311F096E911C0772321F09EE84E
:102F8000872F762F05C0662371F096E8862F70E0B4
:102F900060E02AF09A95660F771F881FDAF7880F8E
:102FA0009695879597F90895990F0008550FAA0BE4
:102FB000E0E8FEEF16161706E807F907C0F012164C
:102FC0001306E407F50798F0621B730B840B950B4F
:102FD00039F40A2661F0232B242B252B21F40895A4
:102FE0000A2609F4A140A6958FEF811D811D089541
:102FF00097F99F6780E870E060E008959FEF80ECAC
:10300000089500240A94161617061806090608954E
:1030100000240A9412161306140605060895092EB4
:103020000394000C11F4882352F0BB0F40F4BF2B23
:1030300011F460FF04C06F5F7F4F8F4F9F4F089563
:1030400057FD9058440F551F59F05F3F71F0479559
:10305000880F97FB991F61F09F3F79F0879508953E
:10306000121613061406551FF2CF4695F1DF08C05D
:10307000161617061806991FF1CF8695710561057A
:1030800008940895E894BB2766277727CB0197F922
:1030900008950E94D41708F48FEF08950E946118D4
:1030A0000C940F180E94011838F00E94081820F0A4
:1030B000952311F00C94F8170C94FE1711240C941E
:1030C00043180E94201870F3959FC1F3950F50E0AC
:1030D000551F629FF001729FBB27F00DB11D639FCA
:1030E000AA27F00DB11DAA1F649F6627B00DA11D70
:1030F000661F829F2227B00DA11D621F739FB00D16
:10310000A11D621F839FA00D611D221F749F332785
:10311000A00D611D231F849F600D211D822F762F1E
:103120006A2F11249F5750409AF0F1F088234AF0FB
:10313000EE0FFF1FBB1F661F771F881F9150504067
:10314000A9F79E3F510580F00C94F8170C94431892
:103150005F3FE4F3983ED4F3869577956795B795EE
:10316000F795E7959F5FC1F7FE2B880F911D969508
:10317000879597F90895A8E1B0E042E050E00C94FB
:10318000C8180E94D618272F0C94D718DC01CB0141
:10319000FC01F999FECF06C0F2BDE1BDF89A319667
:1031A00000B40D9241505040B8F70895262FF99978
:1031B000FECF1FBA92BD81BD20BD0FB6F894FA9A1A
:0C31C000F99A0FBE01960895F894FFCF15
:1031CC0040055D056805730578057E0586058E0549
:1031DC0092059A059E05A905B005B605BA05B00578
:1031EC00B605BA05BE05C405CB05D505E005EB054E
:1031FC00B005BE05C405CB05D505E005EB05F50509
:10320C00FF05EB050906B005F5051306EB050906E8
:10321C00F5051306EB05B005F5051306EB051D06C4
:10322C00EB05B0051D06EB0526062E0639064106F4
:10323C00B00526062E06390641064C065606B00584
:10324C004C065606B00561066305B00561066305BC
:10325C00B0050001000001000000000000000101A9
:10326C0002014300000000000000020103014600BF
:10327C00000000000000030104020D00000000002B
:10328C00000004010503120000000000000005010D
:10329C0006041400000000000000060107051F00D2
:1032AC0000000000000007010806280000000000D4
:1032BC000000080109072F000000000000000901B0
:1032CC000A0834000000000000000A010B090A0083
:1032DC000000000000000B010B0A3D000000000084
:1032EC0000000C010C0B00000000000000000D01A0
:1032FC000E0D10000000000000000E010F0D11005B
:10330C000000000000000F010F0E03000000000081
:10331C000000100200000D100000630000001102FC
:10332C0000000E12000063000000120113121900BD
:10333C00000000000000130142121A0000000000FF
:10334C000000140115141B00000000000000150102
:10335C0016141C00000000000000160117151D00BB
:10336C00000000000000170118161E0000000000ED
:10337C0000001801181705000000000000001902D9
:10338C000000122000002C0100001A020000132281
:10339C000000640000001B02000014240000640004
:1033AC0000001C02000015280000E70300001D02AD
:1033BC000000162A00002C0100001E020000172C31
:1033CC000000640000001F01201F2400000000000A
:1033DC0000002001211F2500000000000000210139
:1033EC0022202600000000000000220123212700DB
:1033FC000000000000002301232206000000000052
:10340C000000240200001F4200006300000025029F
:10341C000000204400006300000026020000214848
:10342C0000006400000027020000224000002C0174
:10343C000000280129282C000000000000002901B0
:10344C002A282D000000000000002A012B292E0044
:10345C000000000000002B012B2A070000000000D8
:10346C0000002C02000028500000630000002D0218
:10347C00000029520000630000002E0200002A54B4
:10348C000000640000002F01302F3200000000000B
:10349C0000003001312F330000000000000031012A
:1034AC0031300800000000000000320200002F60E4
:1034BC0000002C01000033020000306200006300A9
:1034CC0000003401353439000000000000003501E3
:1034DC0036343A00000000000000360137353B005E
:1034EC00000000000000370138363C0000000000EE
:1034FC0000003801383709000000000000003902D4
:10350C000000342E0000640000003A020000353048
:10351C000000630000003B02000036640000640001
:10352C0000003C02000037680000630000003D0111
:10353C003E3D40000000000000003E013F3D4100C8
:10354C000000000000003F013F3E0B0000000000A7
:10355C000000400200003D14000063000000410226
:10356C0000003E18000063000000420142130400FA
:10357C000000000000004303444300000000000072
:10358C00090C440345434400000000000F0C4501A6
:10359C0045440100000000000000460347460000BF
:1035AC0000000000150C4703484600000000000016
:1035BC00190C4801484702000000000000000001FF
:1035CC000006075C0B01020104070B0A020302044C
:1035DC0007300903040304070A080405040007F272
:1035EC00060501050007A3060600060007EB070702
:1035FC0000070007E9072020202020202020202081
:10360C000020202020202020207C004D454E493ACF
:10361C00003E00533A002F00543A004300537461AB
:10362C0072742F53746F700050757A204F6E2F4F39
:10363C0066660054656D700050726F762E00506F88
:10364C007470616C610053746162696C2E0052611C
:10365C006400476173656E6A65004F6B6F0044616F
:10366C0074756D206920567200536572766973000B
:10367C00497A6C617A004D696E004D617800567222
:10368C00656D650042727A696E6100506F63657496
:10369C006E6F204400562E20506F7470616C650064
:1036AC0043656B616E6A6520562E0042727A696EB4
:1036BC006120562E00446F7A6972616E6A6500440F
:1036CC006F7A2E5061757A610042726F6A20706F4A
:1036DC006E2E005061757A612E446F7A00567265B9
:1036EC006D6520562E004F6B6F206D696E004F6B11
:1036FC006F206D696E20562E004F6B6F206D6178B8
:10370C00004F6B6F206D617820562E004B726974E0
:10371C002074656D700053746172742074656D70E3
:10372C00005374617274004B5249542054454D003F
:10373C00473A5241440054454D5000473A53454E88
:08374C005A4F52004F4B4F0091
:00000001FF
