:100000000C9456000C9468000C9468000C946800E2
:100010000C9468000C9468000C9468000C946800C0
:100020000C9468000C9468000C9468000C946800B0
:100030000C9468000C9468000C9468000C946800A0
:100040000C9468000C9468000C9468000C94680090
:100050000C9468000C9468000C9468000C94680080
:100060000C9468000C9468000C9468000C94680070
:100070000C9468000C9468000C9468000C94680060
:100080000C9468000C9468000C9468000C94680050
:100090000C9468000C9468000C9468000C94680040
:1000A0000C9468000C9468000C94680011241FBE26
:1000B000CFEFDAE0DEBFCDBF21E0A0E0B1E001C0CC
:1000C0001D92A330B207E1F70E94A0040C940B0D1F
:1000D0000C940000CF93DF93CDB7DEB780E390E0C0
:1000E000FC01208180E390E02C78FC0120838AE2EF
:1000F00090E0FC0120818AE290E02061FC012083F5
:100100008BE290E0FC0120818BE290E02F7EFC01ED
:1001100020830000DF91CF910895CF93DF93CDB777
:10012000DEB78BE290E0FC0120818BE290E0206161
:10013000FC0120830000DF91CF910895CF93DF93DE
:10014000CDB7DEB78BE290E0FC0120818BE290E03E
:100150002F7EFC0120830000DF91CF910895CF9383
:10016000DF930F92CDB7DEB7898381E390E0FC0186
:100170008081482F8981282F30E081E090E002C003
:10018000880F991F2A95E2F784230F90DF91CF9172
:100190000895CF93DF930F92CDB7DEB7898341E007
:1001A000698181E00E94950600000F90DF91CF9158
:1001B0000895CF93DF930F92CDB7DEB7898340E0E8
:1001C000698181E00E94950600000F90DF91CF9138
:1001D0000895CF93DF93CDB7DEB70000DF91CF91C5
:1001E0000895CF93DF9300D000D0CDB7DEB780E085
:1001F00090E0DC0189839A83AB83BC8369817A8137
:100200008B819C810F900F900F900F90DF91CF9179
:100210000895CF93DF9300D000D0CDB7DEB780E054
:1002200090E0DC0189839A83AB83BC8369817A8106
:100230008B819C810F900F900F900F90DF91CF9149
:100240000895CF93DF93CDB7DEB7A5970FB6F89497
:10025000DEBF0FBECDBF1B8287E090E09A8389830B
:10026000B7C088E290E0DC012C9188E290E02F7723
:10027000FC01208380E090E0A0E8BFE38C839D83B5
:10028000AE83BF8320E030E04AE755E46C817D8196
:100290008E819F810E949E0C6E8B7F8B888F998FA1
:1002A0008E899F89A88DB98D88879987AA87BB87F2
:1002B00020E030E040E85FE3688579858A859B85AA
:1002C0000E94410B88232CF481E090E09D878C876D
:1002D00054C020E03FEF4FE757E4688579858A8571
:1002E0009B850E94990C1816D4F520E030E040E27E
:1002F00051E46C817D818E819F810E949E0C6A8F6A
:100300007B8F8C8F9D8F8A8D9B8DAC8DBD8D8A8BC5
:100310009B8BAC8BBD8B6A897B898C899D890E9464
:10032000B80B6E8F7F8F88A399A3AE8DBF8DBD87CD
:10033000AC8710C080E991E09F878E878E859F856E
:100340000197F1F79F878E8700008C859D85019727
:100350009D878C878C859D85892B61F719C0688561
:1003600079858A859B850E94B80B6AA37BA38CA3A1
:100370009DA3EAA1FBA1FD87EC878C859D85998BC8
:10038000888B888999890197F1F7998B888B000070
:100390008BE290E0DC018C91882364F481E090E0B2
:1003A000098002C0880F991F0A94E2F7982F8B8169
:1003B000892B8B8388E290E0FC01208188E290E029
:1003C0002068DC012C9389819A8101979A83898323
:1003D00089819A8199230CF044CF8B81A5960FB621
:1003E000F894DEBF0FBECDBFDF91CF910895CF93BC
:1003F000DF93CDB7DEB7E4970FB6F894DEBF0FBE3C
:10040000CDBF8EE290E0DC012C918EE290E02B7F5C
:10041000FC01208380E090E0A0E8BFE38B839C8315
:10042000AD83BE8320E030E04AE755E46B817C81F8
:100430008D819E810E949E0C6D8F7E8F8F8F98A3E1
:100440002D8D3E8D4F8D58A12F83388749875A8730
:1004500020E030E040E85FE36F81788589859A8508
:100460000E94410B88232CF481E090E09C878B87CD
:1004700054C020E03FEF4FE757E46F8178858985CE
:100480009A850E94990C1816D4F520E030E040E2DD
:1004900051E46B817C818D819E810E949E0C69A3B9
:1004A0007AA38BA39CA389A19AA1ABA1BCA18D8B9C
:1004B0009E8BAF8BB88F6D897E898F89988D0E94B6
:1004C000B80B6DA37EA38FA398A7ADA1BEA1BC87D7
:1004D000AB8710C080E991E09E878D878D859E85D2
:1004E0000197F1F79E878D8700008B859C8501978A
:1004F0009C878B878B859C85892B61F719C06F81C1
:10050000788589859A850E94B80B69A77AA78BA7F9
:100510009CA7E9A5FAA5FC87EB878B859C85988B22
:100520008F878F8598890197F1F7988B8F870000C7
:100530000E942101882F90E09A83898389819A8182
:10054000982F88279A8389830E942101882F90E021
:1005500029813A81822B932B9A8389838EE290E0C2
:10056000DC012C918EE290E02460FC0120838981E3
:100570009A8184709927892B29F080E090E0A8EC7B
:10058000B2EC2FC089819A8196958795969587952B
:10059000969587959A83898389819A819C0140E009
:1005A00050E02DA73EA74FA758AB6DA57EA58FA500
:1005B00098A90E94E70B698B7A8B8B8B9C8B20E030
:1005C00030E040E85EE369897A898B899C890E94E2
:1005D0009E0C69AB7AAB8BAB9CAB89A99AA9ABA9F2
:1005E000BCA9898F9A8FAB8FBC8F698D7A8D8B8DCB
:1005F0009C8DE4960FB6F894DEBF0FBECDBFDF91A1
:10060000CF910895CF93DF93CDB7DEB787E290E027
:10061000FC01208187E290E02068FC0120838DE2CC
:1006200090E0FC0120818DE290E02460FC012083B9
:100630008AE290E0FC0120818AE290E02F77FC01C1
:1006400020838EE290E0FC0120818EE290E0246025
:10065000FC0120830000DF91CF910895CF93DF93B9
:10066000CDB7DEB76C970FB6F894DEBF0FBECDBF27
:100670000E94F70169837A838B839C8320E030E0BA
:1006800040E151E469817A818B819C810E949E0CBA
:10069000698B7A8B8B8B9C8B89899A89AB89BC8976
:1006A0008D839E83AF83B88720E030E040EA50E43A
:1006B0006D817E818F8198850E94460B6D8B7E8B2C
:1006C0008F8B988F8D899E89AF89B88D89879A87FE
:1006D000AB87BC8720E030E040E052E469857A8552
:1006E0008B859C850E94D50A698F7A8F8B8F9C8F12
:1006F000898D9A8DAB8DBC8D8D879E87AF87B88B8A
:100700006D857E858F8598896C960FB6F894DEBFCF
:100710000FBECDBFDF91CF910895CF93DF93CDB7BB
:10072000DEB78CE00E94520A0E9498090E94C2091A
:1007300080E00E94A3090000DF91CF910895CF933C
:10074000DF93CDB7DEB70E9498090000DF91CF910B
:100750000895CF93DF93CDB7DEB70E94C2090000A2
:10076000DF91CF910895CF93DF9300D0CDB7DEB75F
:1007700089836A836A8189810E94640900000F90DD
:100780000F90DF91CF910895CF93DF9300D0CDB735
:10079000DEB79A83898389819A810E94080A0000C2
:1007A0000F900F90DF91CF910895CF93DF93CDB746
:1007B000DEB72C970FB6F894DEBF0FBECDBF9C8777
:1007C0008B878B859C859E012F5F3F4FB9010E94CF
:1007D000F703CE0101960E94C40300002C960FB6C9
:1007E000F894DEBF0FBECDBFDF91CF910895CF93B8
:1007F000DF9300D000D000D00F92CDB7DEB79D833D
:100800008C837F836E8319828C819D81892B59F41F
:100810008E819F8120E3FC0120838E819F81019640
:10082000FC01108284C08C819D81992394F58E8176
:100830009F812DE2FC0120838E819F8101969F8301
:100840008E838C819D819195819591099D838C8367
:1008500020C08C819D812AE030E0B9010E94AC0A61
:1008600040E3480F8981882F90E02E813F81820FDD
:10087000931F242FFC0120838C819D812AE030E08E
:10088000B9010E94AC0ACB019D838C8389818F5F63
:1008900089838C819D8118161906DCF28981882F45
:1008A00090E02E813F81820F931FFC0110821A82FB
:1008B00039C08A81882F90E02E813F81820F931F5B
:1008C000FC0180818B838981282F30E08A81882FE9
:1008D00090E0A901481B590BCA0101972E813F8165
:1008E000280F391F8A81882F90E04E815F81840F05
:1008F000951FF9012081FC0120838981282F30E098
:100900008A81882F90E0A901481B590BCA010197E1
:100910002E813F81820F931F2B81FC0120838A81CE
:100920008F5F8A83898186959A81981710F227961E
:100930000FB6F894DEBF0FBECDBFDF91CF91089503
:10094000CF93DF93CDB7DEB7FFCFCF93DF9300D048
:10095000CDB7DEB787E690E09A8389838CEC90E090
:100960002981FC01208389819A81292F33278DECED
:1009700090E0FC01208389EC90E028E1FC012083D9
:100980008AEC90E026E0FC01208300000F900F909D
:10099000DF91CF910895CF93DF93CDB7DEB70000FD
:1009A00088EC90E0FC0180818823D4F78EEC90E005
:1009B000FC018081DF91CF910895CF93DF930F9257
:1009C000CDB7DEB78983000088EC90E0FC01808120
:1009D000882F90E080729927892BB1F38EEC90E0FC
:1009E0002981FC01208300000F90DF91CF910895B1
:1009F000CF93DF9300D0CDB7DEB79A8389830BC046
:100A000089819A81FC0180810E94DD0489819A811B
:100A100001969A83898389819A81FC018081882348
:100A200079F7000000000F900F90DF91CF910895AB
:100A3000CF93DF9300D000D000D0CDB7DEB79C833A
:100A40008B837E836D831A8219820FC02B813C8138
:100A500089819A81820F931FFC0180810E94DD04AD
:100A600089819A8101969A83898329813A818D812E
:100A70009E812817390750F30000000026960FB614
:100A8000F894DEBF0FBECDBFDF91CF910895CF9315
:100A9000DF93CDB7DEB788EB90E028E1FC0120833F
:100AA00089EB90E0FC0110828CEB90E024E0FC01EB
:100AB00020830000DF91CF910895CF93DF9300D082
:100AC000CDB7DEB78A8360E08A810E94D2058CEBC5
:100AD00090E024E8FC01208300008CEB90E0FC0116
:100AE00080818823D4F78BEB90E0FC01808189839F
:100AF0000E94B90589810F900F90DF91CF910895E1
:100B0000CF93DF9300D0CDB7DEB789836A8361E0EE
:100B100089810E94D2058BEB90E02A81FC01208321
:100B20008CEB90E024E8FC01208300008CEB90E04B
:100B3000FC0180818823D4F70E94B90500000F9042
:100B40000F90DF91CF910895CF93DF93CDB7DEB7AC
:100B50008CEB90E024EAFC01208300008CEB90E019
:100B6000FC0180818823D4F700000000DF91CF9141
:100B70000895CF93DF93CDB7DEB78CEB90E024E9F7
:100B8000FC01208300008CEB90E0FC018081882F29
:100B900090E080719927892BB1F700000000DF9168
:100BA000CF910895CF93DF9300D0CDB7DEB789837F
:100BB0006A830E94A4056A8189810E94E50500007C
:100BC0000F900F90DF91CF910895CF93DF9300D0D6
:100BD000CDB7DEB789836A838981882F90E09C0135
:100BE000220F331F8A81882F90E0822B932B21E0E4
:100BF000892B09F420E08BEB90E0FC0120838CEB47
:100C000090E024E8FC01208300008CEB90E0FC01E4
:100C100080818823D4F7000000000F900F90DF91AF
:100C2000CF910895CF93DF93CDB7DEB787E290E001
:100C3000FC01208187E290E02064FC01208384E9AC
:100C400090E0FC011182108288E990E0FC011182A1
:100C500010828AE990E0FC01118210828CE990E018
:100C6000FC011182108280E990E021E8FC012083E0
:100C700081E990E029E0FC01208384E990E0FC0117
:100C8000118210820000DF91CF910895CF93DF93FE
:100C90000F92CDB7DEB7898388E990E02981FC0106
:100CA000208300000F90DF91CF910895CF93DF93C1
:100CB0000F92CDB7DEB719820AC08981882F90E0E4
:100CC00080509F4FFC01108289818F5F89838981C9
:100CD000823098F3000000000F90DF91CF910895CB
:100CE000CF93DF9300D0CDB7DEB789836A83898144
:100CF0008230A8F48981882F90E080509F4F2A810C
:100D0000FC0120838981882F90E080509F4FFC0157
:100D100090818981805E692F0E94800501C000005A
:100D20000F900F90DF91CF910895CF93DF9300D074
:100D30000F92CDB7DEB789836A834B838981823076
:100D400008F04CC08A81883008F048C08B81882325
:100D5000E1F08981882F90E080509F4FFC018081D5
:100D6000482F8A81282F30E081E090E002C0880F70
:100D7000991F2A95E2F7242F282B8981882F90E04C
:100D800080509F4FFC0120831CC08981882F90E0F8
:100D900080509F4FFC018081482F8A81282F30E0AE
:100DA00081E090E002C0880F991F2A95E2F78095B4
:100DB000242F28238981882F90E080509F4FFC01A9
:100DC00020838981882F90E080509F4FFC01908183
:100DD0008981805E692F0E94800501C000000F900C
:100DE0000F900F90DF91CF910895CF93DF930F92E3
:100DF000CDB7DEB789838981823010F080E004C0EE
:100E00008981805E0E945D050F90DF91CF910895EA
:100E1000CF93DF9300D00F92CDB7DEB78A836B8379
:100E20008A81823018F48B81883010F080E011C004
:100E30008A81805E0E945D0589838981882F90E088
:100E40002B81222F30E002C0959587952A95E2F7F5
:100E500081700F900F900F90DF91CF910895CF93F5
:100E6000DF9300D0CDB7DEB79A83898389819A81D9
:100E7000892B11F400C006C089819A810197F1F78E
:100E80009A83898300000F900F90DF91CF9108958E
:100E9000CF93DF93CDB7DEB741E062E080E00E9400
:100EA000950600C040E062E080E00E9495060000E8
:100EB000DF91CF910895CF93DF9300D0CDB7DEB708
:100EC00089836A838A81882331F08091020181605D
:100ED0008093020105C0809102018E7F8093020100
:100EE000809102018D7F8093020180910201682F21
:100EF00080E00E947006809102018F77809302014A
:100F0000809102018F7B80930201809102018F7D8D
:100F100080930201809102018F7E8093020189817A
:100F200088232CF4809102018068809302018981DA
:100F3000882F90E080749927892B29F080910201F5
:100F40008064809302018981882F90E080729927C4
:100F5000892B29F0809102018062809302018981AE
:100F6000882F90E080719927892B29F080910201C8
:100F700080618093020180910201682F80E00E94CD
:100F800070060E944807809102018F7780930201CA
:100F9000809102018F7B80930201809102018F7DFD
:100FA00080930201809102018F7E809302018981EA
:100FB000882F90E088709927892B29F08091020171
:100FC0008068809302018981882F90E0847099273E
:100FD000892B29F08091020180648093020189812C
:100FE000882F90E082709927892B29F08091020147
:100FF0008062809302018981882F90E08170992717
:10100000892B29F0809102018061809302018091F7
:101010000201682F80E00E9470060E9448078091BC
:1010200002018061809302018091020180628093BD
:10103000020180910201806480930201809102018B
:1010400080688093020180910201682F80E00E94F5
:10105000700600000F900F90DF91CF910895CF930D
:10106000DF9300D0CDB7DEB78A838A81882331F041
:101070008091020181608093020105C0809102018C
:101080008E7F809302018091020182608093020131
:1010900080910201682F80E00E94700641E062E0CA
:1010A00080E00E94950600C0198264E080E00E9402
:1010B0000807882319F489818061898365E080E0CD
:1010C0000E940807882319F489818062898366E079
:1010D00080E00E940807882319F48981806489834D
:1010E00067E080E00E940807882319F489818068FE
:1010F000898340E062E080E00E94950600C041E004
:1011000062E080E00E94950600C064E080E00E94FA
:101110000807882319F489818160898365E080E06C
:101120000E940807882319F489818260898366E018
:1011300080E00E940807882319F4898184608983EC
:1011400067E080E00E940807882319F4898188609D
:10115000898340E062E080E00E94950689810F90DB
:101160000F90DF91CF9108951F93CF93DF93CDB769
:10117000DEB7000080E00E942F08182F812F8823FF
:10118000CCF388E090E00E942F0780E00E942F08B7
:10119000DF91CF911F9108951F93CF93DF930F920B
:1011A000CDB7DEB789838981843110F410E411C092
:1011B0008981803428F08981843510F414E109C0D4
:1011C0008981843128F08981803410F414E501C0CC
:1011D00010E080E8810F0E94F30800000F90DF917B
:1011E000CF911F910895CF93DF930F92CDB7DEB7C4
:1011F00089830E94B40860E089810E945B07000037
:101200000F90DF91CF910895CF93DF930F92CDB7D9
:10121000DEB789830E94B40861E089810E945B0780
:1012200000000F90DF91CF9108951F93CF93DF932C
:10123000CDB7DEB710E00AC080E4810F0E94F3084A
:1012400080E00E94CD09812F11E0180F1034A0F327
:1012500000000000DF91CF911F9108951F93CF935D
:10126000DF9300D000D00F92CDB7DEB78B837D83A4
:101270006C8310E08C819D819A8389838B81883077
:1012800010F081E018C08B81885F880F880F880F6D
:101290000E94F3080DC0812F90E029813A81820FCE
:1012A000931FFC0180810E94CD09812F11E0180F4E
:1012B000183088F380E00F900F900F900F900F90F0
:1012C000DF91CF911F910895CF93DF9300D0CDB7D9
:1012D000DEB789836A838A81882329F489818058CB
:1012E0000E94F30814C08A81813029F489818054D6
:1012F0000E94F3080CC08A81823029F489818C56BF
:101300000E94F30804C089818C520E94F3080000F7
:101310000F900F90DF91CF910895CF93DF93CDB7CA
:10132000DEB70E94B408882F90E0DF91CF91089536
:10133000CF93DF93CDB7DEB781E00E94F3080000C2
:10134000DF91CF910895CF93DF930F92CDB7DEB7A2
:1013500089838981882331F080910201877F80937E
:10136000020105C080910201886080930201809192
:101370000201682F80E00E94700600000F90DF914C
:10138000CF910895CF93DF93CDB7DEB782E00E946F
:10139000F3080000DF91CF910895CF93DF9300D041
:1013A000CDB7DEB78A830E94B40889838A818A30E8
:1013B00021F489810E94CC0825C08981843129F4D7
:1013C00060E080EC0E945B0717C08981843529F4B6
:1013D00060E084E90E945B070FC08981883229F4AC
:1013E00060E084ED0E945B0707C08981883621F4A4
:1013F00060E080E80E945B070E94B4088A8161E097
:101400000E945B0700000F900F90DF91CF9108952D
:101410001F93CF93DF9300D0CDB7DEB79A83898334
:1014200003C0812F0E94CD0989819A819C012F5F81
:101430003F4F3A832983FC011081112391F700006B
:1014400000000F900F90DF91CF911F9108951F938F
:10145000CF93DF9300D000D00F92CDB7DEB79D833E
:101460008C8303C0812F0E94CD098C819D819C01BA
:101470002F5F3F4F3D832C839A83898389819A8193
:10148000FC0184918B838B81182F112359F7000065
:1014900000000F900F900F900F900F90DF91CF9161
:1014A0001F910895CF93DF930F92CDB7DEB7898355
:1014B0000E9456061092020180910201682F80E07E
:1014C0000E94700680E09AEF0E942F07809102012F
:1014D0008062809302018091020180618093020109
:1014E00080910201682F80E00E9470060E944807E8
:1014F00080E09EE40E942F070E94480780E091E070
:101500000E942F070E94480780E091E00E942F0769
:10151000809102018F7E8093020180910201682FE9
:1015200080E00E9470060E94480780E091E00E94DF
:101530002F0788E20E94F30888E00E94F3080E94C7
:10154000980986E00E94F30889810E94F308000050
:101550000F90DF91CF91089597FB072E16F400941A
:1015600007D077FD09D00E94C00A07FC05D03EF4E1
:10157000909581959F4F0895709561957F4F08953F
:10158000AA1BBB1B51E107C0AA1FBB1FA617B707A9
:1015900010F0A61BB70B881F991F5A95A9F78095C5
:1015A0009095BC01CD0108955058BB27AA270E94F1
:1015B000EC0A0C945F0C0E94510C38F00E94580CFD
:1015C00020F039F49F3F19F426F40C944E0C0EF4DD
:1015D000E095E7FB0C94480CE92F0E94700C58F33F
:1015E000BA17620773078407950720F079F4A6F508
:1015F0000C94920C0EF4E0950B2EBA2FA02D0B013B
:10160000B90190010C01CA01A0011124FF27591B47
:1016100099F0593F50F4503E68F11A16F040A22F4D
:10162000232F342F4427585FF3CF469537952795BE
:10163000A795F0405395C9F77EF41F16BA0B620BBD
:10164000730B840BBAF09150A1F0FF0FBB1F661F04
:10165000771F881FC2F70EC0BA0F621F731F841F47
:1016600048F4879577956795B795F7959E3F08F06D
:10167000B0CF9395880F08F09927EE0F979587952F
:1016800008950E94240C08F481E008950E945A0BEA
:101690000C945F0C0E94580C58F00E94510C40F0C2
:1016A00029F45F3F29F00C94480C51110C94930CD1
:1016B0000C944E0C0E94700C68F39923B1F35523DF
:1016C00091F3951B550BBB27AA2762177307840755
:1016D00038F09F5F5F4F220F331F441FAA1FA9F3EB
:1016E00035D00E2E3AF0E0E832D091505040E695D9
:1016F000001CCAF72BD0FE2F29D0660F771F881F3A
:10170000BB1F261737074807AB07B0E809F0BB0B2C
:10171000802DBF01FF2793585F4F3AF09E3F510540
:1017200078F00C94480C0C94930C5F3FE4F3983ED3
:10173000D4F3869577956795B795F7959F5FC9F729
:10174000880F911D9695879597F90895E1E0660FAA
:10175000771F881FBB1F621773078407BA0720F023
:10176000621B730B840BBA0BEE1F88F7E09508958C
:101770000E94780C88F09F5798F0B92F9927B7519D
:10178000B0F0E1F0660F771F881F991F1AF0BA9525
:10179000C9F714C0B13091F00E94920CB1E00895E5
:1017A0000C94920C672F782F8827B85F39F0B93FD7
:1017B000CCF3869577956795B395D9F73EF49095D8
:1017C0008095709561957F4F8F4F9F4F0895E89456
:1017D00009C097FB3EF490958095709561957F4F79
:1017E0008F4F9F4F9923A9F0F92F96E9BB27939527
:1017F000F695879577956795B795F111F8CFFAF437
:10180000BB0F11F460FF1BC06F5F7F4F8F4F9F4F67
:1018100016C0882311F096E911C0772321F09EE8C5
:10182000872F762F05C0662371F096E8862F70E02B
:1018300060E02AF09A95660F771F881FDAF7880F05
:101840009695879597F90895990F0008550FAA0B5B
:10185000E0E8FEEF16161706E807F907C0F01216C3
:101860001306E407F50798F0621B730B840B950BC6
:1018700039F40A2661F0232B242B252B21F408951B
:101880000A2609F4A140A6958FEF811D811D0895B8
:1018900097F99F6780E870E060E008959FEF80EC23
:1018A000089500240A9416161706180609060895C6
:1018B00000240A9412161306140605060895092E2C
:1018C0000394000C11F4882352F0BB0F40F4BF2B9B
:1018D00011F460FF04C06F5F7F4F8F4F9F4F0895DB
:1018E00057FD9058440F551F59F05F3F71F04795D1
:1018F000880F97FB991F61F09F3F79F087950895B6
:10190000121613061406551FF2CF4695F1DF08C0D4
:10191000161617061806991FF1CF869571056105F1
:1019200008940895E894BB2766277727CB0197F999
:1019300008950E94240C08F48FEF08950E94B10CC2
:101940000C945F0C0E94510C38F00E94580C20F04F
:10195000952311F00C94480C0C944E0C11240C940B
:10196000930C0E94700C70F3959FC1F3950F50E09B
:10197000551F629FF001729FBB27F00DB11D639F41
:10198000AA27F00DB11DAA1F649F6627B00DA11DE7
:10199000661F829F2227B00DA11D621F739FB00D8D
:1019A000A11D621F839FA00D611D221F749F3327FD
:1019B000A00D611D231F849F600D211D822F762F96
:1019C0006A2F11249F5750409AF0F1F088234AF073
:1019D000EE0FFF1FBB1F661F771F881F91505040DF
:1019E000A9F79E3F510580F00C94480C0C94930C81
:1019F0005F3FE4F3983ED4F3869577956795B79566
:101A0000F795E7959F5FC1F7FE2B880F911D96957F
:0A1A1000879597F90895F894FFCF29
:00000001FF
